S0150000526F76436F6E74726F6C6C65722E73726563B4
S11300004BC100007AC1000078C1000076C1000035
S113001074C1000072C1000070C100006EC1000014
S11300206CC100006AC1000068C1000066C1000024
S113003064C100000C94070F60C100005EC10000A1
S11300405CC100005AC1000058C1000056C1000044
S113005054C100000C94DE0E50C100004EC10000DB
S11300604CC100004AC1000048C1000046C1000064
S113007044C1000042C1000040C100003EC1000074
S11300803CC100003AC1000038C1000036C1000084
S113009034C1000032C1000030C100000C94701063
S11300A02CC100002AC1000028C1000026C10000A4
S11300B024C1000022C1000020C100001EC10000B4
S11300C01CC100001AC1000018C1000016C10000C4
S11300D014C1000012C1000010C100000EC10000D4
S11300E00CC1000077117A117A117A117A117A1100
S11300F07A117A1192107A117A117A117A117A118D
S11301007A117A1192107A117A117A117A117A117C
S11301107A117A119A107A117A117A117A117A1164
S11301207A117A11BF107A117A117A117A117A112F
S11301307A117A119A107A117A117A117A117A1144
S11301407A117A11C4107A117A117A117A117A110A
S11301507A117A11C9107A117A117A117A117A11F5
S11301607A117A11DA107A117A117A117A117A11D4
S11301707A117A1103117A117A117A117A117A119A
S11301807A117A11CE107A117A117A117A117A11C0
S11301907A117A11E8107A117A117A117A117A1196
S11301A07A117A1105117A117A117A117A117A1168
S11301B07A117A1105117A117A117A117A117A1158
S11301C07A117A1105117A117A117A117A117A1148
S11301D07A117A1105117A117A117A117A117A1138
S11301E07A117A110E117A117A117A117A117A111F
S11301F07A117A113E117A117A117A117A117A11DF
S11302007A117A110E117A117A117A117A117A11FE
S11302107A117A113E117A117A117A117A117A11BE
S11302207A117A1126117A117A117A117A117A11C6
S11302307A117A1142117A117A117A117A117A119A
S11302407A117A1142117A117A117A117A117A118A
S11302507A117A1157117A117A117A117A117A1165
S11302607A117A1171117A117A117A117A117A113B
S11302707A117A11711145000082000040002000BB
S11302800108000604000100EC046B0C4E0D300F55
S1130290E712081E3B208C2211241FBECFEFD1E2AF
S11302A0DEBFCDBF00E00CBF14E0A0E0B2E0EEEA98
S11302B0FDE400E00BBF02C007900D92A43FB1071C
S11302C0D9F72BE0A4EFB4E001C01D92A53DB2071D
S11302D0E1F711E0CCE4D1E000E006C02197010988
S11302E0802FFE010E94DD25C434D10780E0080779
S11302F0A9F70E94AD0B0C94D52682CE08950F93D6
S11303001F93CF93DF938C01EB0188E2FB011192E1
S11303108A95E9F74BE050E064E172E0CE010E9477
S1130320C6261B8681E090E0A0E0B0E08C879D8724
S1130330AE87BF87F80186819781A085B185888BB8
S1130340998BAA8BBB8B83E090E0A0E0B0E08C8B10
S11303509D8BAE8BBF8B1CA21DA21EA21FA2188E4A
S1130360198E1A8E1B8E1C8E1D8E1E8E1F8E8AE079
S113037097EDA3E2BCE388A399A3AAA3BBA3DF914F
S1130380CF911F910F9108950F931F93FC018FE15B
S113039092E09183808346835783608771872383A8
S11303A0158304831F910F9108950F931F93CF9387
S11303B0DF93EC01062F142F6B818C819D810E94A9
S11303C05B128C819D81DC01ED91FC910190F081A7
S11303D0E02D602F19958C819D81DC01ED91FC91BC
S11303E00190F081E02D612F19958C819D810E94EF
S11303F0E41281E0DF91CF911F910F910895462F70
S1130400FC0162876DE3D1DFFFEF26E781E0F15065
S113041020408040E1F700C0000008951F93CF936F
S1130420DF93EC01162F6B818C819D810E945B12FE
S11304308C819D81DC01ED91FC910190F081E02D96
S1130440612F19958C819D810E94E41241E06B819A
S11304508C819D810E94DE128C819D81DC01ED9155
S1130460FC910284F385E02D1995DF91CF911F91C2
S113047008951F93CF93DF93EC01162F8C819D81F8
S11304800E944A1260E0CE01C9DF803A79F02FEF72
S113049083ED90E3215080409040E1F700C00000DC
S11304A060E0CE01BBDF803A09F04BC060E0CE01D2
S11304B0A6DF40E26FE3CE0178DF2FEF86E791E01D
S11304C0215080409040E1F700C0000060E0CE0180
S11304D0A5DF803A39F08FE39CE90197F1F700C07A
S11304E00000F4CF9FEF20E782E09150204080404D
S11304F0E1F700C0000040E06EE3CE0156DF8FE379
S11305009CE90197F1F700C0000040E067E0CE01EC
S11305104CDF40E06FE3CE0148DF8FE39CE90197B5
S1130520F1F700C00000612FCE0169DF9FEF29EFD2
S113053080E0915020408040E1F700C0000081E05D
S113054001C080E0DF91CF911F91089564E366CFED
S11305500895CF92DF92EF92FF920F931F93CF9360
S1130560DF937C01C62F6A01122FDC0113966C9174
S1130570139714968D919C9115970E945B12F70125
S113058084819581DC01ED91FC910190F081E02D55
S11305906C2F1995F701848195810E94E412412FF3
S11305A0D70113966C91139714968D919C9115977E
S11305B00E94DE121123B1F0E6011150012F10E068
S11305C00F5F1F4F0C0D1D1DF70184819581DC0108
S11305D0ED91FC910284F385E02D19958993C01760
S11305E0D10791F781E0DF91CF911F910F91FF9097
S11305F0EF90DF90CF900895AF92BF92CF92DF92A9
S1130600FF920F931F93CF93DF9300D000D0CDB709
S1130610DEB78C01CB01F42E2CE0F80111922A955F
S1130620E9F7AE014F5F5F4F26E0FA0111922A9578
S1130630E9F726E06F2D8DDF6A8170E0762F66275B
S11306408981682B8C8190E0982F88272B816C01FD
S1130650C22A8E8190E0982F88272D815C01A22ADE
S1130660F4E1FF1609F44AC0FF1540F088E0F816DB
S113067009F4ACC0EEE0FE1669F043C1F8E2FF16DF
S113068009F4D8C08EE2F81609F408C1EAE1FE12B2
S113069038C168C0072E000C880B990B0E94952462
S11306A020E030E040E85DE30E944925F8016083E2
S11306B0718382839383B601DD0C880B990B0E94AE
S11306C0952420E030E040E85DE30E944925F801EC
S11306D06483758386839783B501BB0C880B990B60
S11306E00E94952420E030E040E85DE30E94492523
S11306F0F801608771878287938703C1072E000CF6
S1130700880B990B0E94952420E030E040E85DE3DB
S11307100E944925F8016083718382839383B60123
S1130720DD0C880B990B0E94952420E030E040E812
S11307305DE30E944925F80164837583868397836A
S1130740B501BB0C880B990B0E94952420E030E086
S113075040E85DE30E944925F8016087718782873C
S11307609387CFC0072E000C880B990B0E94952409
S113077020E030E040E85DE30E944925F801608311
S1130780718382839383B601DD0C880B990B0E94DD
S1130790952420E030E040E85DE30E944925F8011B
S11307A06483758386839783B501BB0C880B990B8F
S11307B00E94952420E030E040E85DE30E94492552
S11307C0F80160877187828793879BC0072E000C8E
S11307D0880B990B0E94952420E030E048EC52E409
S11307E00E94FF23F8016083718382839383B6019F
S11307F0DD0C880B990B0E94952420E030E048EC36
S113080052E40E94FF23F8016483758386839783EF
S1130810B501BB0C880B990B0E94952420E030E0B5
S113082048EC52E40E94FF23F801608771878287B5
S1130830938767C0072E000C880B990B0E949524A0
S113084020E030E048EC52E40E94FF23F80160838A
S1130850718382839383B601DD0C880B990B0E940C
S1130860952420E030E048EC52E40E94FF23F80194
S11308706483758386839783B501BB0C880B990BBE
S11308800E94952420E030E048EC52E40E94FF23CB
S1130890F801608771878287938733C0072E000C25
S11308A0880B990B0E94952420E030E048EC52E438
S11308B00E94FF23F8016083718382839383B601CE
S11308C0DD0C880B990B0E94952420E030E048EC65
S11308D052E40E94FF23F80164837583868397831F
S11308E0B501BB0C880B990B0E94952420E030E0E5
S11308F048EC52E40E94FF23F801608771878287E5
S11309009387C80126960FB6F894DEBF0FBECDBFFD
S1130910DF91CF911F910F91FF90DF90CF90BF9007
S1130920AF9008950F931F93CF93DF93CDB7DEB7A6
S11309302C970FB6F894DEBF0FBECDBF8B0120E21B
S1130940FB0111922A95E9F740E250E060E070E083
S1130950F8014083518362837383FC01468157818C
S113096060857185F801448355836683778343E00A
S113097050E060E070E040875187628773874AE106
S1130980BC01CE01019638DE89819A81AB81BC819C
S1130990F801808B918BA28BB38B8D819E81AF816B
S11309A0B885848B958BA68BB78B89859A85AB8507
S11309B0BC85808F918FA28FB38F81E02C960FB668
S11309C0F894DEBF0FBECDBFDF91CF911F910F9181
S11309D008950C94252008958091000290910102BD
S11309E002969093F5048093F4040895E091FA0438
S11309F0F091FB0490818091F90480958923808390
S1130A000895E091FA04F091FB0490818091F90437
S1130A10892B80830895CF93DF93D82FC62FE6DFE9
S1130A208C2FCF71CD2BCEBD00000DB407FEFDCFB2
S1130A301EBC00000DB407FEFDCFCEB5882334F4F0
S1130A401EBC00000DB407FEFDCFCEB5DADF8C2F3F
S1130A50DF91CF9108951F93CF93DF93C82FD62FA3
S1130A60142FC4DFDF71CD2BCEBD00000DB407FE03
S1130A70FDCF1EBD00000DB407FEFDCFC2DFDF9128
S1130A80CF911F9108950F931F93CF93DF93EC01A0
S1130A908B01ACDF209799F08AE38EBD00000DB482
S1130AA007FEFDCFF801B8016C0F7D1F1EBC0DB40D
S1130AB007FEFDCF9EB591936E177F07B9F7A1DFAF
S1130AC0DF91CF911F910F9108951F93CF93DF93DF
S1130AD0182F1076C12FD0E08091FC0490E0C81745
S1130AE0D907A1F043E06FE180EAB5DF1093FC047D
S1130AF0AE01559547955595479555954795559507
S1130B004795559547956FE180E8A5DFDF91CF9133
S1130B101F910895CF93C82FD8DF6C2F80E07BDF1F
S1130B20CF910895CF93DF93C82FD62FCEDF4D2FCB
S1130B306C2F80E490DFDF91CF910895CF93DF9302
S1130B40C82FD72FEFDF6D2F81E08C0FEBDFDF9104
S1130B50CF910895FC0194B1976094B923989DB501
S1130B6091609DBD9CB590659CBD80819091F90478
S1130B70982B908346CF08950F93CF93DF93EB0187
S1130B809093FE048093FD040093F9043093FB04D6
S1130B902093FA04CA01DEDF4FEF60E08FEF5BDFE2
S1130BA08FE39FE10197F1F700C000006DE180E061
S1130BB032DF8823D9F360E070E088E0BFDF60E0D3
S1130BC070E08CE0BBDF6FEF7BE08AE0B7DF60E0D2
S1130BD07CE084E0B3DF6FEF71E186E0AFDF61EBCF
S1130BE088E3A0DF6FE370E388E2A8DF69EF77EFC3
S1130BF080E3A4DF61E080EC95DF42E362EC80E80F
S1130C002ADF62E17CE086EC99DF62E184EC8ADF32
S1130C106CED75E08AEC92DF688184EE83DF698194
S1130C2085EE80DF6A8182EE7DDF6B8183EE7ADF81
S1130C306C8180EE77DF6D8181EE74DF60E184ED9D
S1130C4071DF60E071E086ED79DF8AEE63DF80FDBD
S1130C50FCCF8FE13ADF40EC6BE180E8FCDE44E05E
S1130C606FE180E8F8DE82E755DF863008F08F5FB9
S1130C70DF91CF910F91089561E184ED53DF61E03D
S1130C8082ED50DF8AEE46DF80FDFCCF60E082ED2E
S1130C9049DF89ED3FDF82FB882780F90895AF9211
S1130CA0BF92CF92DF92EF92FF920F931F93CF9355
S1130CB0DF937C016C0184EFD81A0F2EFFEFAF2E67
S1130CC0F4E0BF2EF02D870101501B4F40E86FE187
S1130CD080E8C1DE40E86FE180EABDDE4AE06CE115
S1130CE080EAB9DE60E07CE082E028DFB60186E0DD
S1130CF025DF40E060E08AE7AEDE78DEE114F1044F
S1130D00E1F08AE78EBD00000DB407FEFDCFF501CA
S1130D1080818EBDF1E0EF16F10459F0E0E0F5E0DA
S1130D2000000DB407FEFDCF81918EBDE017F107E1
S1130D30B9F700000DB407FEFDCF63DE48E06FE1B4
S1130D4080E889DEC0E0D0E08CE1E4DE8A7031F432
S1130D502196C83E83E0D807B9F70CC08CE1DADEEF
S1130D6081FD03C0C83ED34040F048E06FE180EA13
S1130D7072DEACCF8CE1CEDEF8CFDF91CF911F9144
S1130D800F91FF90EF90DF90CF90BF90AF900895B8
S1130D900F931F93CF93DF9300D000D0CDB7DEB76E
S1130DA08091F804882391F06091F6047091F7041F
S1130DB06115710529F46FEF7BE08CE0BFDE04C0A0
S1130DC0615071098CE0BADE1092F80489E3A2DE66
S1130DD08823A9F16091F6047091F70480E0AEDEF7
S1130DE0BE016F5F7F4F86E090E04DDE89819A817E
S1130DF09093F7048093F6048D8187FF12C080914D
S1130E00FD049091FE0401970B811C81045011098B
S1130E108017910708F48C016FEF74E0C80133DE8A
S1130E2002C000E010E0F801E150FB4F108281E0C5
S1130E308093F80440E46EE180E80DDE02C000E037
S1130E4010E0C80126960FB6F894DEBF0FBECDBFE2
S1130E50DF91CF911F910F910895EF92FF920F931D
S1130E60CF93DF93EB017A01022FBC0189E197E074
S1130E70C9D39701AE0169E177E080E092E07CDEBE
S1130E80DF91CF910F91FF90EF900895EF92FF9231
S1130E900F931F93CF93DF937B018A01E90100979E
S1130EA021F0BC0185E197E0A0D3E114F10411F035
S1130EB0C701BDD10115110521F0B80185E097E006
S1130EC094D3209721F0BE0181E197E08ED3BBD16A
S1130ED0109200071092FF0681E0DF91CF911F91DD
S1130EE00F91FF90EF900895CF92DF92EF92FF92CF
S1130EF0CF93DF93C62FD0E0C150DB4F213081F474
S1130F006A0199E0C90ED11CE12CF12C03C0C12C5B
S1130F10D12C76014230510528F1FE01DA0109C0D5
S1130F202230A9F76A0192E0C91AD108E12CF12C08
S1130F30F1CF208130E0322F22279181292BC20E5C
S1130F40D31EE11CF11C32961297A230B10588F72A
S1130F509A01225031092E7F2E5F3F4FC20FD31FBB
S1130F6041705527452B61F0488150E060E070E006
S1130F70762F652F542F4427C40ED51EE61EF71E68
S1130F80A70166277727411551056105710571F0A1
S1130F90EE24FF24C40ED51EE61EF71EA701662705
S1130FA07727411551056105710591F7C094D094D7
S1130FB0E82FF0E0E150FB4FD082C182DF91CF9166
S1130FC0FF90EF90DF90CF900895CF93DF93FC01D3
S1130FD020812223D1F0FB0130813323C1F0232768
S1130FE0309111072323A9F4DC0111963196C2E153
S1130FF0D7E004964D91219139912427232359F464
S1131000A817B907B9F781E007C080E005C080E000
S113101003C080E001C080E0DF91CF910895EFEF3D
S1131020F4E0108E118E80E4848B158A868B20E088
S113103044E150E06EE088E157CF0895BC018FEFA2
S113104094E0E0D269E177E085E095E0DBC20895C1
S113105085E095E0F3DF69E175E08DE195E0C5D2C7
S113106065E177E089E195E0C0D2D9CF0895CF93C7
S1131070DF93EB01E3DFBE018DE195E0B6D265E1DC
S113108077E089E195E0B1D2DF91CF910895CF93D4
S1131090DF93EB0144E050E0BC018BE195E00E945A
S11310A0B926892B31F465E175E0CE01ABD281E03C
S11310B001C080E0DF91CF9108950F931F93CF93E8
S11310C08C0185E292E0BADFEFEFF4E088E08487F8
S11310D0C6E0C58748E050E06FE772E08DE095E038
S11310E00E94B026EFE1F5E0DF011D92CA95E9F711
S11310F069E177E085E195E085D2B80185E295E084
S113110074D265E177E08BE195E06FD28AE290E0FA
S1131110C6DDCF911F910F910895EF92FF920F9327
S11311201F93CF93DF93182F092FEB01F42EE52E95
S113113085E197E04ADF882329F0BE018AE297E03F
S113114096DF04C0BE0180E297E091DF8881807F52
S1131150803E91F088819981AA81BB818F3F9F4F06
S1131160AF4FBF4F49F044E050E0BE018DE097E03F
S11311700E94B926892B29F465E272E08FEF94E08E
S113118041D2CFEFD4E088E08C871D8649E050E05F
S113119066E772E08DE095E00E94B026188A81E14E
S11311A08F8BECA2FDA20AA31BA31EA218A619A64C
S11311B0DF91CF911F910F91FF90EF9008950F93BE
S11311C01F93CF93DF93EC010FEF14E04C96F801DB
S11311D0908B818B24DFCE010896F80196A387A318
S11311E0AE01405F5F4F21E06AE188E27DDECE011F
S11311F08A9655DDDF91CF911F910F9108950F933A
S11312001F93CF93DF93D62FC72FCA01A801B9012B
S113121084DF8D2F9C2F813022E0920710F080E034
S113122092E0CDDFDF91CF911F910F91089510923D
S113123000071092FF0621E020931F07BC0189E0FC
S113124097E0D3C10895CF93DF93E5E1F7E0C1E1DF
S1131250D7E0ADE0B7E029E137E09191899180953D
S1131260892B8D93E217F307C1F7DF91CF9108958E
S1131270CF93DF93EC01009709F03FC080911F07E3
S1131280857089F08091FF0690910007892B59F4AD
S1131290F3DC882341F089E097E00FDF80911F079A
S11312A0886080931F078091FF0690910007019644
S11312B0909300078093FF0665E077E085E197E06F
S11312C084DE882349F080912807811105C080912C
S11312D02907882309F4DCC061E077E085E197E021
S11312E074DE882309F4F8C0809126078111F4C0C4
S11312F0809127078111F0C0D2C08932910508F48A
S1131300D5C080910B05883009F0E6C080910C05AA
S1131310863009F0DDC044E050E065E177E085E225
S113132095E00E94B926892B09F0D2C0C3C085E09C
S113133095E084DEEFEFF4E0148A82E0858B65E1CA
S113134075E08FE195E05ED169E177E085E195E0B4
S113135059D16BE175E085E295E047D165E177E02D
S11313608BE195E042D18AE290E099DC80911F07FD
S113137083FF0EC080911405823051F460E277E05F
S113138089E097E084DE882319F082E080931F07C8
S113139080912807811110C080912907882361F06A
S11313A06AE277E085E097E072DE882329F081E045
S11313B080932807109229078091260781118CC0F9
S11313C080912707882309F487C06AE277E081E0E7
S11313D097E05DDE882309F47FC081E080932607CF
S11313E01092270779C080910B05883009F074C0EA
S11313F080910C05811170C080910D05853409F030
S11314006BC044E050E065E177E08DE195E00E9437
S1131410B926892B09F454C044E050E06DE077E02C
S11314208DE195E00E94B926892B09F449C044E076
S113143050E065E272E08DE195E00E94B926892BC7
S113144009F04AC03DC0809121058830C9F4E0917B
S11314503007F0913107309719F089E195E019953B
S1131460F7DDEFEFF4E012A284A1883F18F095A114
S11314709F5F95A3885F80932305CE0110DC2CC069
S11314804AD0882349F180911605813129F51DC080
S113149085E097E012DE81E0809329071DCF81E08B
S11314A097E00BDE81E08093270716C08A9708F047
S11314B09ACF12C080911405813009F057CF37CFED
S11314C0809116058130E1F6BECFCE012BD004C049
S11314D0CA32D10508F08CCF80E090E0DF91CF9143
S11314E008959C01909132079830A0F4E92FF0E020
S11314F0AF01440F551F440F551FE40FF51FED5C5A
S1131500F84F318320837383628381E084839F5FF8
S113151090933207089581E090913207911101C0B0
S113152080E008958F929F92BF92CF92DF92EF92C4
S1131530FF920F931F93CF93DF93809132078823F9
S113154009F446C0C3E3D7E0E12CF12C80E00F2E70
S1131550FFEFCF2EF4E0DF2EF02DBB24B394AA814D
S1131560BB81F60124A130E04B2F55272417350702
S113157021F525A130E0AD01552724173507E9F4FD
S11315809C819923D1F007A110E00850110986A18C
S113159090E0982F8827080F191F42A150E0542F7C
S11315A0442783A1482B8880998029E235E069E1AA
S11315B075E0CD01F40119958B2DFFEFEF1AFF0AA9
S11315C025962091320730E0E216F30644F201C07A
S11315D080E0DF91CF911F910F91FF90EF90DF900A
S11315E0CF90BF909F908F900895FB01208131810F
S11315F0FC0131832083FB0122813381FC0133838D
S113160022830895DC0196E0FB0101900D929A95E6
S1131610E1F70895CF93DF93EC01DC0111969881F3
S11316202FEF260F662391F0FD01622F70E09B01DE
S11316302E5F3F4FAE01420F531F2191920FE417CB
S1131640F507D9F76F5F7F4FA60FB71F81E02C9185
S1131650291380E0DF91CF9108950F931F93CF93C7
S1131660DF93C80102978F3F910509F068F4E901FF
S11316700250602FC901CEDF882331F0BE016F5FB5
S11316807F4F402F8881A5D9DF91CF911F910F9172
S113169008950F93CF93DF93EC01CA01A901202F82
S11316A0D0935E07C0935D0770935C0760935B07FC
S11316B0BC0186E092E0D1DB882379F020E030E0C1
S11316C040E050E06CE072E080E192E0DFDBBE01DC
S11316D08DE29BE006DF81E001C080E0DF91CF91E5
S11316E00F9108950F931F93CF93DF93E09100021E
S11316F0F09101028083C0910002D0910102DE01C9
S113170011964FEF460F662381F0FD0150E09A01D8
S11317102E5F3F4F2C0F3D1F9191890FE217F30766
S1131720D9F74F5F5F4FA40FB51F8C9300915B07F0
S113173010915C0740915D0750915E0770E06E5F09
S11317407F4F22E032E0809100029091010257DD48
S1131750DF91CF911F910F91089526E040E052EC64
S113176061E070E083E897E064D06BE272E083E8C4
S113177097E00E9486230E949620811107C06BE3A4
S113178072E083E897E00E948623FFCF67E572E06A
S113179083E897E00E9486230E94A621FDCF80E083
S11317A090E00895DC011496ED91FC9115978081E9
S11317B0082E000C990B892F881F8827881F90E01A
S11317C008958FEF9FEF0895DC011496ED91FC913D
S11317D0159790819923ECF71A96ED91FC911B973C
S11317E0808190E00895DC011496ED91FC911597A9
S11317F0208181E090E025FD02C080E090E0089522
S1131800DC011496ED91FC911597808185FFFDCF45
S11318100895DC011496ED91FC911597908195FF44
S1131820FDCF1A96ED91FC911B97608381E090E0C7
S11318300895CF92DF92EF92FF921F93CF93DF939D
S1131840EC016A017B01122FDB01CA01880F991F89
S1131850AA1FBB1F880F991FAA1FBB1F9C01AD01A4
S1131860220F331F441F551F60E074E284EF90E0A1
S11318700E94BB2521503109EC81FD8182E08083E7
S1131880211580E1380770F0EC81FD81108280E43D
S113189092E4C89E9001C99E300DD89E300D11244B
S11318A021503109EA81FB8131832083E885F98560
S11318B01083EE81FF81808180618083EE81FF81CE
S11318C0808188608083DF91CF911F91FF90EF909A
S11318D0DF90CF900895E3E8F7E08EE692E09183FD
S11318E0808324EC30E03383228320EC30E03583A2
S11318F0248321EC30E03783268322EC30E03187E7
S1131900208726EC30E033872287E7E7F7E09183EE
S113191080832CEC30E03383228328EC30E0358361
S1131920248329EC30E0378326832AEC30E03187A6
S113193020872EEC30E033872287EBE6F7E09183B3
S1131940808324ED30E03383228320ED30E035833F
S1131950248321ED30E03783268322ED30E0318784
S1131960208726ED30E033872287EFE5F7E0918387
S1131970808384E391E09383828380E391E0958381
S1131980848381E391E09783868382E391E0918766
S1131990808786E391E0938782870895FC01A28182
S11319A0B38182E08C93A481B5818AE18C93019008
S11319B0F081E02D80E49CE9918380830895FC010B
S11319C0A281B3818C9180688C93A485B5859C9108
S11319D08089892B8C930895FC01A281B3818C9119
S11319E080628C93A485B5859C918189892B8C9385
S11319F00895FC01A281B3818C9188608C93A485A5
S1131A00B5859C918289892B8C930895FC01A281D0
S1131A10B3818C918F778C93A685B7859C918089AF
S1131A20809589238C930895FC01A281B3818C91C4
S1131A308F7D8C93A685B7859C9181898095892318
S1131A408C930895FC01A281B3818C91877F8C9340
S1131A50A685B7859C918289809589238C93089566
S1131A60DC011696ED91FC911797660F771F718331
S1131A7060830895DC011896ED91FC911997660F27
S1131A80771F718360830895DC011A96ED91FC91B0
S1131A901B97660F771F718360830895E8ECF7E066
S1131AA086E890E09183808380E890E0938382834A
S1131AB081E890E09583848388E890E09783868327
S1131AC08AE890E0918780878CE890E0938782870A
S1131AD084E290E09587848785E290E09787868703
S1131AE080E2808B90E4918B90E8928BE5EBF7E0B9
S1131AF026E930E03183208320E930E033832283F8
S1131B0021E930E03583248328E930E037832683D4
S1131B102AE930E0318720872CE930E033872287B7
S1131B202DE230E0358724872EE230E037872687A0
S1131B3028E0208B90E1918B828BE2EAF7E046EA81
S1131B4050E05183408340EA50E05383428341EAAA
S1131B5050E05583448348EA50E0578346834AEA79
S1131B6050E0518740874CEA50E05387428741E078
S1131B7051E05587448742E051E057874687208BE0
S1131B80918B828BEFE8F7E046E251E0518340838A
S1131B9040E251E05383428341E251E05583448360
S1131BA048E251E0578346834AE251E05187408737
S1131BB04CE251E0538742874AE051E0558744871D
S1131BC04BE051E057874687208B918B828B089599
S1131BD0CF92DF92EF92FF92CF93DF93EC01CB0190
S1131BE0BA0120E030E04AE756E40E94492520E0AB
S1131BF030E040E85BE30E9449256B017C0120E072
S1131C0030E040E85FE30E94FB2318163CF081E0DB
S1131C108A8760E070E080E89FE339C020E030E02C
S1131C2040E051E4C701B6010E94FB2318163CF0C2
S1131C3082E08A8760E070E080E091E428C020E0E0
S1131C4030E040E852E4C701B6010E94FB231816B5
S1131C503CF083E08A8760E070E080E892E417C09B
S1131C6020E030E040E853E4C701B6010E94FB23C2
S1131C7018163CF084E08A8760E070E080E893E422
S1131C8006C085E08A8760E070E080E894E4DF9134
S1131C90CF91FF90EF90DF90CF9008958F929F9215
S1131CA0AF92BF92CF92DF92EF92FF92CF93DF93E6
S1131CB0EC016A017B01E881F98182E08083EA8199
S1131CC0FB811082EC81FD8180837894CE0180DFDA
S1131CD04B015C0120E034E244E75BE4C701B60158
S1131CE00E9449256B017C0120E030E04AE754E47E
S1131CF0C501B4010E9449259B01AC01C701B6018D
S1131D000E94FF2320E030E040E85FE30E94962336
S1131D106B017C0120E030E04FE753E40E9445254D
S1131D2018162CF4E885F9858FEF80831BC020E01A
S1131D3030E0A901C701B6010E94FB23882324F4E3
S1131D40E885F98510820EC00884D985C02D20E06D
S1131D5030E040E05FE3C701B6010E9497230E9490
S1131D6067246883DF91CF91FF90EF90DF90CF904D
S1131D70BF90AF909F908F900895FC01A281B38192
S1131D801C926387A681B7811C920280F381E02DA7
S1131D9085E080830895FC01938581E0911180E0C2
S1131DA00895FC0193859111FDCF0895FC0183856D
S1131DB0882319F083858150838708951F920F9299
S1131DC00FB60F9211240BB60F922F933F934F939C
S1131DD05F936F937F938F939F93AF93BF93EF938F
S1131DE0FF9387EE97E0E2DFFF91EF91BF91AF9110
S1131DF09F918F917F916F915F914F913F912F911F
S1131E000F900BBE0F900FBE0F901F9018951F924E
S1131E100F920FB60F9211240BB60F922F933F938C
S1131E204F935F936F937F938F939F93AF93BF93DE
S1131E30EF93FF938BED97E0B9DFFF91EF91BF91A3
S1131E40AF919F918F917F916F915F914F913F914E
S1131E502F910F900BBE0F900FBE0F901F901895EF
S1131E60E7EEF7E084E490E09183808385E490E0FA
S1131E70938382838EE690E09583848386E490E066
S1131E809783868387E490E091878087EBEDF7E082
S1131E9080EB90E09183808381EB90E09383828355
S1131EA080E790E09583848382EB90E09783868338
S1131EB083EB90E09187808708951092600881E019
S1131EC080935E0810925D088BB183608BB9E9EB57
S1131ED0F0E080818E7F808380818D7F808388E4A1
S1131EE08093B80085E48093BC000895413208F0E3
S1131EF04CC0909160089111FCCF31E030936008A0
S1131F0020935E082FEF2093F30710923808240FD4
S1131F102093370830935F0820915F08880F822B45
S1131F2080935F0880915D08813081F410925D0890
S1131F30ABEBB0E0ECEBF0E080915F088C93808138
S1131F4083FDFACF85EC8093BC0003C085EE8093BB
S1131F50BC00809160088130E1F3809138088417D7
S1131F6010F440913808442389F0E9E3F8E0A62FFF
S1131F70B72F2FEF240F30E0265C374F81918D93DC
S1131F80E217F307D9F7942F01C090E0892F089541
S1131F900F93413208F057C0309160083111FCCFE3
S1131FA092E09093600800935E089FEF9093F3078C
S1131FB01092380840933708442371F0FB01A9E3D9
S1131FC0B8E0415050E04F5F5F4F640F751F91912F
S1131FD09D93E617F707D9F710925F0890915F0871
S1131FE0880F892B80935F0880915D08813081F48C
S1131FF010925D08ABEBB0E0ECEBF0E080915F0891
S11320008C93808183FDFACF85EC8093BC0003C060
S113201085EE8093BC00222341F0809160088230D9
S113202021F4809160088230E1F38091F3078F3FBF
S113203079F08091F307803241F08091F307803387
S113204031F034E005C031E003C032E001C033E0D8
S1132050832F0F91089540911508262F30E0240F07
S1132060311D21323105ECF4209160082430D9F47B
S1132070662381F0A82FB92F80E090E030911508F5
S11320802D91FC01E95EF74FE30FF11D20830196CA
S11320908617A0F380911508680F6093150880E0F7
S11320A0089581E0089582E0089590935A088093FA
S11320B05908089590935C0880935B08089585ED12
S11320C08093BC00ECEBF0E0808184FDFDCF1092A6
S11320D06008089585EC8093BC0010926008089510
S11320E01F920F920FB60F9211240BB60F922F93DB
S11320F03F934F935F936F937F938F939F93AF938C
S1132100BF93EF93FF938091B900887F90E0893C5F
S1132110910508F0EFC0FC018827EE58FF4F8F4F60
S11321200C94DD2580915F088093BB0085EC80933F
S1132130BC00E0C09091380880913708981780F46B
S1132140E091380881E08E0F80933808F0E0E75C76
S1132150F74F80818093BB0085EC8093BC00CAC09C
S113216080915E08882311F0AADFC4C081E08093C7
S11321705D0884EA8093BC0010926008BBC080E2D2
S11321808093F3079CDFB6C080E38093F30797DF67
S1132190B1C088E38093F3079DDFACC0E0913808B9
S11321A081E08E0F809338088091BB00F0E0E75CFB
S11321B0F74F80839091380880913708981720F45E
S11321C085EC8093BC0096C085E88093BC0092C0E7
S11321D0E091380881E08E0F809338088091BB002D
S11321E0F0E0E75CF74F808380915E08882311F06C
S11321F066DF80C081E080935D0884EA8093BC0040
S11322001092600877C05BDF75C083E0809360083C
S11322101092F40785EC8093BC006CC08091F407A5
S1132220803280F4E091F40781E08E0F8093F4070C
S11322308091BB00F0E0EB50F84F808385EC8093F5
S1132240BC0058C085E88093BC0054C043DF809133
S1132250F407803230F4E091F407F0E0EB50F84FEB
S113226010826091F40770E0E0915908F0915A08E7
S113227085EF97E019951092F4073CC085E88093A8
S1132280BC0038C084E08093600810921608109255
S11322901508E0915B08F0915C0819958091150888
S11322A0811105C081E08093150810921708E09110
S11322B0160881E08E0F80931608F0E0E95EF74F70
S11322C080818093BB00909116088091150898171F
S11322D020F485EC8093BC000DC085E88093BC009D
S11322E009C085EC8093BC001092600803C0109272
S11322F0F307E5DEFF91EF91BF91AF919F918F912D
S11323007F916F915F914F913F912F910F900BBEF1
S11323100F900FBE0F901F90189580918B0890E03E
S113232020918C08821B9109089590918C088091CA
S11323308B08981750F4E92FF0E0E357F74F20810A
S113234030E09F5F90938C0802C02FEF3FEFC901EC
S11323500895E0918C0880918B08E81730F4F0E040
S1132360E357F74F808190E008958FEF9FEF089532
S11323700895CF93DF93EC01E0916308F091640832
S1132380309701F190918C0880918B089817D0F0C8
S1132390161617068CF420E030E090E0DE01A90F59
S11323A0B11D4C91D901A357B74F4C939F5F292F6F
S11323B030E02617370794F3CB0110928C08609312
S11323C08B081995DF91CF910895E0916508F091FC
S11323D06608309729F010926908109268081995D8
S11323E00895CF93DF931F92CDB7DEB769838091B1
S11323F06708882399F0809168088032B0F480914E
S11324006908E82FF0E0E659F74F60838F5F809307
S113241069088093680881E090E009C061E0CE011A
S1132420019619DE81E090E002C080E090E00F9018
S1132430DF91CF910895CF92DF92EF92FF920F93A5
S11324401F93CF93DF938C01CB016A01209167081E
S11324502223A1F04115510599F0EB017B01E40E13
S1132460F51E6991D801ED91FC910190F081E02D68
S1132470C8011995CE15DF05A1F702C0642FEBDD65
S1132480C601DF91CF911F910F91FF90EF90DF90E4
S1132490CF900895789410928C0810928B08109223
S11324A069081092680809DD85EE91E103DE89EB85
S11324B091E1FBCD089581E08093670860938A08D9
S11324C010926908109268080895F5CF08950F9343
S11324D0062F21E0409168086AE678E080918A0836
S11324E057DD1092690810926808109267080F91DE
S11324F008954F925F926F927F92AF92BF92CF9264
S1132500EF92FF920F931F93CF93DF935C01F62E0C
S1132510D42F28013901EE2039F1CDDF8E2D8430FE
S113252008F083E0CFEFC80F8823D9F08C2F880FF1
S1132530880F880FA301920104C0569547953795DB
S113254027958A95D2F7CA01B901D501ED91FC917D
S11325500190F081E02DC50119958C2FC150811196
S1132560E5CF60E0C501B3DF4D2FD13208F040E282
S11325702C2D6DE878E08F2DB9DC10928C088093B7
S11325808B08DF91CF911F910F91FF90EF90CF9027
S1132590BF90AF907F906F905F904F900895CF92CF
S11325A0EF920F931F93C22EE12C00E010E09801EC
S11325B0A0DF1F910F91EF90CF90089521E0EFCF0E
S11325C0089521E0ECCF089561E081CF089580E87B
S11325D092E090936208809361080895FC0173A3CC
S11325E062A340E050EA60E874E444A355A366A300
S11325F077A30895FC0160A30895CF93DF93FC01B2
S113260021A121111CC0EC0181E081A366E770E0E7
S113261081E698E05ADFE0916108F0916208019048
S1132620F081E02D6AE481E698E0199581E698E06E
S1132630CBDF62E08AA19BA1A0DB81E001C080E046
S1132640DF91CF91089521E0FC0181A1811120E067
S1132650822F08952F923F924F925F926F927F92B2
S11326608F929F92AF92BF92CF92DF92EF92FF929E
S11326700F931F93CF93DF93CDB7DEB7A5970FB614
S1132680F894DEBF0FBECDBF1C01DC011A968D91FC
S11326909C911B97A0E0B0E0BA2FA92F982F882710
S11326A0F10144895589668977893A014B01681A91
S11326B0790A8A0A9B0A69827A828B829C8280A127
S11326C0813009F058C1990C6608762C43016D825B
S11326D07E828F829886868197813C01812C912C01
S11326E0A12CB12C65018D8F7E8E8F8E98A2A9A20C
S11326F0BAA2CBA2DCA2A980BA80CB80DC80ED8018
S1132700FE2C0E2D1E2D282F372D40E050E060E0CA
S113271070E080E090E00E94EF25122F3E874D8705
S1132720B52FF62FE72F782E892EA0E00E9495264C
S11327305CF4AFE70E948026122F3E874D87B52FA9
S1132740F62FE72F782E892E212F3E854D855B2F7E
S11327506F2F7E2F872D982D07E00E945926822EF9
S1132760932E742E652EB62FA72F582E492EF101C5
S1132770A280B3802A2D3B2D40E050E060E070E061
S113278080E090E000E10E944026A22EB32EC42EE9
S1132790D52EE62EF72E082F192F282D392D472D4B
S11327A0562D6B2F7A2F852D942D0E9477262D87F9
S11327B03E874F87588B698B7A8B8B8B9C8B80855C
S11327C091853C01812C912CA12CB12C65018D8F1C
S11327D07E8E8F8E98A2A9A2BAA2CBA2DCA2A980D7
S11327E0BA80CB80DC80ED80FE2C0E2D1E2D282F90
S11327F0372D40E050E060E070E080E090E00E941F
S1132800EF25122F3E8B4D8BB52FF62FE72F782E09
S1132810892EA0E00E9495265CF4AFE30E948026F6
S1132820122F3E8B4D8BB52FF62FE72F782E892E46
S1132830212F3E894D895B2F6F2F7E2F872D982D59
S113284006E00E945926822E932E742E652EB62FF2
S1132850A72F582E492EF1012481358159013B2D92
S113286040E050E060E070E080E090E001E10E9430
S11328704026A22EB32EC42ED52EE62EF72E082FD8
S1132880192F282D392D472D562D6B2F7A2F852D55
S1132890942D0E9477262D8B3E8B4F8B588F698FFA
S11328A07A8F8B8F9C8F848595853C01812C912C0C
S11328B0A12CB12C65018D8F7E8E8F8E98A2A9A23A
S11328C0BAA2CBA2DCA2A980BA80CB80DC80ED8046
S11328D0FE2C0E2D1E2D282F372D40E050E060E0F9
S11328E070E080E090E00E94EF25122F3DA34D8F11
S11328F0B52FF62FE72F782E892EA0E00E9495267B
S113290084F42150310940485F4F6F4F7F4F8F4F00
S11329109F4F122F3DA34D8FB52FF62FE72F782E03
S1132920892E212F3DA14D8D5B2F6F2F7E2F872D5B
S1132930982D07E10E945926822E932EA42EB52E9F
S11329402401350100ED400E07E0501E611C711C8E
S113295010ED411617E05106610471040CF462C1D4
S1132960812C912C540119821A821B821C82E12C25
S1132970F12C87014CC369807A808B809C80990CF0
S11329806608762C43016D827E828F8298868681CA
S113299097813C01812C912CA12CB12C65018D8F48
S11329A07E8E8F8E98A2A9A2BAA2CBA2DCA2A98005
S11329B0BA80CB80DC80ED80FE2C0E2D1E2D282FBE
S11329C0372D40E050E060E070E080E090E00E944D
S11329D0EF25122F3E874D87B52FF62FE72F782E40
S11329E0892EA0E00E94952684F421503F4F4F4F3A
S11329F05F4F6F4F7F4F8F4F9F4F122F3E874D87F3
S1132A00B52FF62FE72F782E892E212F3E854D8561
S1132A105B2F6F2F7E2F872D982D08E00E9459265B
S1132A20822E932E742E652EB62FA72F582E492E44
S1132A30F101A280B3802A2D3B2D40E050E060E0FC
S1132A4070E080E090E00FE00E944026A22EB32EBA
S1132A50C42ED52EE62EF72E082F192F282D392D0A
S1132A60472D562D6B2F7A2F852D942D0E94772676
S1132A702D8B3E8B4F8B588F698F7A8F8B8F9C8FCA
S1132A80808591853C01812C912CA12CB12C650170
S1132A908D8F7E8E8F8E98A2A9A2BAA2CBA2DCA221
S1132AA0A980BA80CB80DC80ED80FE2C0E2D1E2DFB
S1132AB0282F372D40E050E060E070E080E090E0A7
S1132AC00E94EF25122F3E874D87B52FF62FE72F53
S1132AD0782E892EA0E00E9495265CF4AFE70E9430
S1132AE08026122F3E874D87B52FF62FE72F782E9D
S1132AF0892E212F3E854D855B2F6F2F7E2F872DAD
S1132B00982D07E00E945926822E932E742E652E4E
S1132B10B62FA72F582E492EF10124813581590152
S1132B203B2D40E050E060E070E080E090E000E1A8
S1132B300E944026A22EB32EC42ED52EE62EF72EAA
S1132B40082F192F282D392D472D562D6B2F7A2F0D
S1132B50852D942D0E9477262D873E874F87588B8D
S1132B60698B7A8B8B8B9C8B848595853C01812C1E
S1132B70912CA12CB12C65018D8F7E8E8F8E98A205
S1132B80A9A2BAA2CBA2DCA2A980BA80CB80DC80A5
S1132B90ED80FE2C0E2D1E2D282F372D40E050E009
S1132BA060E070E080E090E00E94EF25122F3DA3EA
S1132BB04D8FB52FF62FE72F782E892EA0E00E9497
S1132BC0952684F42150310940485F4F6F4F7F4F61
S1132BD08F4F9F4F122F3DA34D8FB52FF62FE72F09
S1132BE0782E892E212F3DA14D8D5B2F6F2F7E2FA7
S1132BF0872D982D07E10E945926822E932EA42E0C
S1132C00B52E2401350100ED400E07E0501E611C75
S1132C10711C10ED411617E05106610471040CF4A7
S1132C20AFC08AC129813A814B815C816D81762F45
S1132C30862F962F02E00E944026A22EB32EC42E89
S1132C40D52EE62EF72EE82F192F0E9440260E2FA0
S1132C500E948C26A980BA80CB80DC80ED80FE2C7B
S1132C600E2D1E2D0E948C26E02E0F2D0E94EF2586
S1132C70122F3D8F4D83B52FF62FE72F8983892E91
S1132C80A0E00E94952684F421503109410951099C
S1132C90684F7F4F8F4F9F4F122F3D8F4D83B52F1E
S1132CA0F62FE72F8983892E212F3D8D4D815B2FB0
S1132CB06F2F7E2F8981982D03E20E945926822E40
S1132CC0932EA42EB52E7301620120EDC21A27E0C3
S1132CD0D20AE108F108D701C601880F991FAA1F7B
S1132CE0BB1F880F991FAA1FBB1F880F991FAA1FFC
S1132CF0BB1F880F991FAA1FBB1F880F991FAA1FEC
S1132D00BB1F9C01AD012C193D094E095F09C70188
S1132D10B6010E94AC258B019C01992324F4095F20
S1132D201F4F2F4F3F4FB901A801689412F87595B2
S1132D306795579547951694D1F749835A836B83C2
S1132D407C83AFE3B0E0A70196010E94E5259B01D7
S1132D50AC01C701B6010E94AC258B019C019923EB
S1132D6024F4015E1F4F2F4F3F4F7801890168946F
S1132D7014F815950795F794E7941694D1F747C17D
S1132D8029813A814B815C816D81762F862F962F24
S1132D9001E00E944026A980BA80CB80DC80ED80CF
S1132DA0FE2C0E2D1E2D0E947726E02E0F2D0E9444
S1132DB0EF25122F3D8F4D83B52FF62FE72F8983F3
S1132DC0892EA0E00E94952684F4215031094109FE
S1132DD051096E4F7F4F8F4F9F4F122F3D8F4D8361
S1132DE0B52FF62FE72F8983892E212F3D8D4D8115
S1132DF05B2F6F2F7E2F8981982D01E20E94592627
S1132E002D833E834F8358875301420150ED851A29
S1132E1057E0950AA108B108D501C401880F991F8C
S1132E20AA1FBB1F9C01AD01280D391D4A1D5B1D46
S1132E30C501B4010E94AC258B019C01992324F4A3
S1132E400F5F1F4F2F4F3F4FC901B80195958795CD
S1132E507795679569837A838B839C83D501C401B5
S1132E60880F991FAA1FBB1F880F991FAA1FBB1F7A
S1132E709C01AD01280D391D4A1D5B1DC501B4011E
S1132E800E94AC258B019C01992324F4095F1F4FF8
S1132E902F4F3F4F78018901689412F815950795D3
S1132EA0F794E7941694D1F771EC471679EF570627
S1132EB07FEF670677060CF07FC1530142018CED6A
S1132EC0880E85E0981EA11CB11CD501C401880F91
S1132ED0991FAA1FBB1F880F991FAA1FBB1F880F0A
S1132EE0991FAA1FBB1F9C01AD01281939094A0962
S1132EF05B09C501B4010E94AC2529813A814B814B
S1132F005C81260F371F481F591F29833A834B833F
S1132F105C83A5019401220F331F441F551F220F08
S1132F20331F441F551FC501B4010E94AC25E60E92
S1132F30F71E081F191F40C129813A814B815C810A
S1132F40CA01B9010E94AC254B015C01880C991C93
S1132F50AA1CBB1C75016401FF0CCC08DC2C760197
S1132F60182D9D8EAD82BB2DFC2DEC2DC9820C2D10
S1132F70282D392D4A2D5B2D6C2D7C2D8C2D9C2DCF
S1132F80A0E00E94952684F4215031094109510999
S1132F90604E7F4F8F4F9F4F122F3D8F4D83B52F24
S1132FA0F62FE72F8983092F212F3D8D4D815B2F2C
S1132FB06F2F7E2F8981902F05E20E9459262D8341
S1132FC03E834F835887C301B201605D7740810916
S1132FD091099B01AC010E94AC258B019C019923B2
S1132FE024F4015F1F4F2F4F3F4F4801590168944C
S1132FF013F8B594A794979487941694D1F789827B
S11330009A82AB82BC82E12CF12C8701D5C0D3011A
S1133010C20188199909AA09BB09F101808F918F0E
S1133020A28FB38F80899189A289B3893C014D0114
S1133030A12CB12C65018D837E828F829886A9860E
S1133040BA86CB86DC8627013801770C4408542CD9
S113305032012D853E854F85588969897A898B8906
S11330609C89AE2CBF2CC02ED12EE42CF42C042D24
S1133070142D0E948C26A22EB32EC42ED52EE62EFD
S1133080F72E082F192F2D813E81482D592D60E0F0
S113309070E080E090E00E94EF25122F3D874D8381
S11330A0B52FF62FE72F782E892EA0E00E949526C3
S11330B084F421503109404E5F4F6F4F7F4F8F4F43
S11330C09F4F122F3D874D83B52FF62FE72F782E74
S11330D0892E212F3D854D815B2F6F2F7E2F872DCC
S11330E0982D05E10E945926822E932E4D875D83EB
S11330F0B62FA72FF82FE92F49805A806B807C8048
S1133100770C4408542C32012D893E894F89588DFF
S1133110698D7A8D8B8D9C8DA980BA80CB80DC8063
S1133120E42CF42C042D142D0E948C26A22EB32EF4
S1133130C42ED52EE62EF72E082F192F282D392D23
S11331404D855D816B2F7A2F8F2F9E2F0E948C26A9
S1133150122F3D834983B52FF62FE72F782E892E22
S1133160A0E00E94952684F4215030484F4F5F4FD1
S11331706F4F7F4F8F4F9F4F122F3D834983B52F42
S1133180F62FE72F782E892E212F3D8149815B2F41
S11331906F2F7E2F872D982D0FE00E945926D10185
S11331A05C962C935C975D963C935D975E964C93EE
S11331B05E975F965C93DAC08D809E80AF80B88402
S11331C0481859086A087B08D10158964D925D92B7
S11331D06D927C925B9750968D919D910D90BC91D0
S11331E0A02D3C014D01A12CB12C65018D837E8263
S11331F08F829886A986BA86CB86DC862701380119
S1133200770C4408542C32012D893E894F89588DFE
S1133210698D7A8D8B8D9C8DAE2CBF2CC02ED12EBA
S1133220E42CF42C042D142D0E948C26A22EB32EF3
S1133230C42ED52EE62EF72E082F192F2D813E8170
S1133240482D592D60E070E080E090E00E94EF2569
S1133250122F3D8B4D83B52FF62FE72F582E692E55
S1133260A0E00E94952684F421503109404E5F4F1E
S11332706F4F7F4F8F4F9F4F122F3D8B4D83B52F35
S1133280F62FE72F582E692E212F3D894D815B2F74
S11332906F2F7E2F852D962D05E10E945926822EB3
S11332A0932E4D8B5D83B62FA72FF82FE92F4980DE
S11332B05A806B807C80770C4408542C32012D8515
S11332C03E854F85588969897A898B899C89A9802B
S11332D0BA80CB80DC80E42CF42C042D142D0E94C5
S11332E08C26A22EB32EC42ED52EE62EF72E082F12
S11332F0192F282D392D4D895D816B2F7A2F8F2F12
S11333009E2F0E948C26922EA32EB42EC52ED62E2E
S1133310E72E782E892EA0E00E94952684F4215071
S1133320304E4F4F5F4F6F4F7F4F8F4F9F4F922EB7
S1133330A32EB42EC52ED62EE72E782E892E292D17
S11333403A2D4B2D5C2D6D2D7E2D872D982D0DE066
S11333500E945926D1015C962C935C975D963C9310
S11333605D975E964C935E975F965C93A5960FB6B9
S1133370F894DEBF0FBECDBFDF91CF911F910F91A7
S1133380FF90EF90DF90CF90BF90AF909F908F9081
S11333907F906F905F904F903F902F900895CF92C1
S11333A0DF92EF92FF926A017B01FC0120A12130A0
S11333B089F4648D758D868D978D0E949524A7015F
S11333C096010E94492520E030E048EC52E40E9436
S11333D0FF2311C0FC01648D758D868D978D0E942D
S11333E09524A70196010E94492520E030E040E29F
S11333F051E40E94FF23FF90EF90DF90CF90089557
S1133400FC01608D718D828D938D0E94952420E046
S113341030E048EC52E40C94FF230895CF93DF93FB
S1133420EB01888199819F70998388831F861E860A
S113343040E050E080E090E040FF07C0FA01EE7FFA
S1133440EC0FFD1F208182271DC0FA01EE7FEC0FD7
S1133450FD1FA181B0E08A279B2714C099232CF477
S1133460880F991F30E3932702C0880F991F2150BA
S1133470A9F74F5F5F4F40315105F1F6892F8295CF
S11334808F7002C028E0EACFDF91CF910895CF92E8
S1133490DF92EF92FF920F931F93CF93DF936C0110
S11334A081E698E00E944A1240E050E060E271E454
S11334B0F60182A193A10E944E0E66E770E081E6B8
S11334C098E003D8E0916108F09162080190F081DE
S11334D0E02D6EE181E698E0199581E698E074D8D4
S11334E061E0F60182A193A10E94BD0EF60182A1C2
S11334F093A10E94D10E7601C0EA66E770E081E6EE
S113350098E00E946512E0916108F09162080190D0
S1133510F081E02D6C2F81E698E0199581E698E022
S113352053D842E050E066E770E081E698E049D87D
S113353081E698E00E949511D82F81E698E00E94D8
S113354095111D2F00E0802B912BF701819391930E
S11335507F01CE5FCE3A89F6F601C181C295CF7064
S1133560B601C6015BDF91E0C81390E0892FDF91BB
S1133570CF911F910F91FF90EF90DF90CF9008951E
S11335808F929F92AF92BF92CF92DF92EF92FF926F
S11335900F931F93CF93DF93DC0191962C912223F9
S11335A009F4D1C0EC018AA19BA10E94CB0E88230F
S11335B009F4C9C089A1813009F069C066E770E0E7
S11335C081E698E00E94651201E618E0D801ED91C9
S11335D0FC910190F081E02D60E0C8011995C801CB
S11335E00E94E41243E050E066E770E0C8010E94E4
S11335F0E112188A198A1A8A1B8AC8010E94951135
S11336004C01990FAA08BB08888A998AAA8ABB8A9E
S1133610C8010E949511BA2CA92C982C88246C01FD
S1133620990FEE08FF08C828D928EA28FB28C88A79
S1133630D98AEA8AFB8AC8010E949511FE2CED2CD6
S1133640DC2CCC24092E000CAA0BBB0BC82AD92ACB
S1133650EA2AFB2AC88AD98AEA8AFB8A66E770E0E2
S1133660C8010E946512D801ED91FC910190F0818E
S1133670E02D6AE5C8011995C8010E94E41262E0D0
S113368087EE97E00E94BD0E82E089A35CC0823081
S113369009F059C066E770E081E698E00E9465127F
S11336A0E0916108F09162080190F081E02D60E002
S11336B081E698E0199581E698E00E94E41243E0DF
S11336C050E066E770E081E698E00E94E1121C8A0F
S11336D01D8A1E8A1F8A81E698E00E9495114C017A
S11336E0990FAA08BB088C8A9D8AAE8ABF8A81E694
S11336F098E00E949511BA2CA92C982C88246C016E
S1133700990FEE08FF08C828D928EA28FB28CC8A94
S1133710DD8AEE8AFF8A81E698E00E949511FE2CEC
S1133720ED2CDC2CCC24092E000CAA0BBB0BC82AD4
S1133730D92AEA2AFB2ACC8ADD8AEE8AFF8ACE01BC
S11337400E942A1319A2DF91CF911F910F91FF902C
S1133750EF90DF90CF90BF90AF909F908F9008959F
S1133760FC0160830895EF92FF920F931F93CF9310
S1133770DF93C62FE42EF52E022F132FFC01608158
S113378081E698E00E945B126C2F70E0660F771F51
S1133790660F771F6A5F7F4FC1E6D8E0E881F98141
S11337A00190F081E02DCE011995E881F981019015
S11337B0F081E02D6E2DCE011995E881F9810190FB
S11337C0F081E02D6F2DCE011995E881F9810190EA
S11337D0F081E02D602FCE011995E881F9810190E7
S11337E0F081E02D612FCE011995CE010E94E412E3
S11337F0DF91CF911F910F91FF90EF9008958F92D9
S11338009F92AF92BF92CF92DF92EF92FF921F935B
S1133810CF93DF93EC01162FBA0180E090E00E9471
S113382093246B017C016D8170E06F5F7F4F072EE5
S1133830000C880B990B0E94952420E034E244E7A5
S113384059E40E9449254B015C0169817A818B818D
S11338509C810E9493249B01AC01C501B401CFD784
S11338609B01AC01C701B601CAD70E9467249B0122
S113387040E050E0612FCE0176DFDF91CF911F91C0
S1133880FF90EF90DF90CF90BF90AF909F908F907C
S11338900895FC0161817281838194810895FC0102
S11338A0418352836383748308951F93CF93DF937B
S11338B0EC01162F688181E698E00E945B12612F6B
S11338C081E698E00E94F11181E698E00E94E412FA
S11338D041E0688181E698E00E94DE1281E698E08A
S11338E00E949511DF91CF911F910895CF93DF939B
S11338F0D62FC42FFC01608181E698E00E945B1200
S11339006D2F81E698E00E94F1116C2F81E698E01A
S11339100E94F11181E698E00E94E412DF91CF91B8
S1133920089540E860E0E2DF8FE39CE90197F1F756
S113393000C0000008950F931F93CF93DF938C0171
S1133940D62F60E0B2DFC82FCF764C2F406160E005
S1133950C801CCDFC0654C2F60E0C801C7DFF801A7
S1133960D5834D2F6EEFC801C1DF8FE19EE401972F
S1133970F1F700C000004C2F4F74406A60E0C801AA
S1133980B5DFDF91CF911F910F9108958F929F9290
S1133990AF92BF92CF92DF92EF92FF921F93CF9399
S11339A0DF93EC016A017B0120E030E040E85FE353
S11339B0C701B60120D78823A4F020E030EC4AE503
S11339C055E4C701B6010E944525181694F40F2E3C
S11339D0C12CF0ECDF2EFAE5EF2EF5E4FF2EF02DEE
S11339E008C00F2EC12CD12CF0E8EF2EFFE3FF2EE0
S11339F0F02D69817A818B819C8195D74B015C0183
S1133A0020E030E040E855E4C701B6010E944925B2
S1133A109B01AC01C501B401F2D620E030E040E0E6
S1133A205FE385D620E030E040E85FE37FD66B01BA
S1133A307C0120E030E040E450E4DDD688239CF0B3
S1133A4020E030E04FE753E4C701B6010E9445256A
S1133A5018167CF40F2EC12CD12CFFE7EF2EF3E4C3
S1133A60FF2EF02D06C0C12CD12C6894EE24E6F86C
S1133A70FE2CC701B6012BD7F62E60E0CE0115DF70
S1133A80182F482F4F76406160E0CE012FDFFD8272
S1133A904F2D6EEFCE012ADF412F60E0CE0126DFED
S1133AA08FE19EE40197F1F700C00000412F406AC6
S1133AB060E0CE011BDFDF91CF911F91FF90EF906B
S1133AC0DF90CF90BF90AF909F908F9008951F93F9
S1133AD0CF93DF93EC01162F81E698E00E944A12FF
S1133AE0CE011FDF112321F0612FCE0124DF06C098
S1133AF040E050E06AE774E4CE0148DF80E498E7F0
S1133B00ADE7B1E089839A83AB83BC83DF91CF9126
S1133B101F91089525CE0895CF93DF93EC0160E0C3
S1133B20D6DF40EC5CEF6BE971E0CE01B8DE40E03B
S1133B3050E068E472E4CE0129DF8FE39CE9019749
S1133B40F1F700C00000CE01A4DE21E0603C7C4F10
S1133B508B49914009F020E0822FDF91CF910895A5
S1133B60603108F44CCE0895603128F420E030E14F
S1133B7040E050E0F8CD0895FC019481913049F083
S1133B8018F0923059F00895828193810C94300D8D
S1133B900895828193810C943A0D089582819381D2
S1133BA00C94440D0895FC019481913081F018F037
S1133BB09230C9F00895662329F0828193810C9490
S1133BC0DF0C0895828193810C94060D0895662379
S1133BD029F0828193810C94EC0C08958281938165
S1133BE00C94140D0895662329F0828193810C941A
S1133BF0F90C0895828193810C94220D0895FC019F
S1133C0083E992E09183808373836283448308957C
S1133C1042E06FE877E085E699E0F1DF41E065EBAB
S1133C2077E080E699E0EBDF40E065EB77E08BE559
S1133C3099E0E5DF41E062EA77E086E599E0DFDFDD
S1133C4042E062EA77E081E599E0D9DF40E06FE89D
S1133C5077E08CE499E0D3DF41E06FE877E087E434
S1133C6099E0CDDF42E065EB77E082E499E0C7DFDD
S1133C7040E062EA77E08DE399E0C1DF40E068EC80
S1133C8077E088E399E0BBDF41E068EC77E083E329
S1133C9099E0B5DF63E48DE299E03CDF40E06DE25A
S1133CA079E085E299E077D042E06DE279E08DE158
S1133CB099E071D047E06DE279E085E199E06BD05D
S1133CC045E06DE279E08DE099E065D048E06DE291
S1133CD079E085E099E05FD04AE06DE279E08DEF2C
S1133CE098E059D04CE06DE279E085EF98E053D04C
S1133CF04EE06DE279E08DEE98E04DD041E06DE26A
S1133D0079E085EE98E047D043E06DE279E08DED0F
S1133D1098E041D046E06DE279E085ED98E03BD053
S1133D2044E06DE279E08DEC98E035D049E06DE255
S1133D3079E085EC98E02FD04BE06DE279E08DEBF3
S1133D4098E029D04DE06DE279E085EB98E023D04E
S1133D504FE06DE279E08DEA98E01DC00895FC0122
S1133D60778366832581222329F0AB0164818281D4
S1133D709381F6CE0895FC016583662339F046816C
S1133D805781648182819381EBCE0895648182811D
S1133D909381EACE0895FC018BE992E091838083BC
S1133DA073836283448315828CED95E097838683C5
S1133DB00895089521110DC040910002509101020F
S1133DC04F5F5F4FDC01ED91FC910680F781E02DA0
S1133DD0199508950895DC01ED91FC910680F78111
S1133DE0E02D1995089508950895DC0112962C91FB
S1133DF01297261314C01496ED91FC9115976081C7
S1133E0013963C91362361E009F460E0DA01FC0189
S1133E10868186278C9361E0822F0C94720B08951F
S1133E20FC018281861311C0E0910002F09101022D
S1133E3033966FEF620F222331F0A42FB52F9D919B
S1133E4091936150E0F70C94720B0895DC01129683
S1133E503C91361326C0213021F5FA0140814111ED
S1133E6001C020E0DC0116964C911697241751F0FE
S1133E701496ED91FC911597208113968C91822BC9
S1133E8080830BC0DC011496ED91FC911597208181
S1133E9013968C9180958223808360E0832F0C9409
S1133EA0720B0895CF93DF93C62FDC011296DC9139
S1133EB01297D61315C0223061F514968D919C91FA
S1133EC01597FA0160817181DC01ED91FC910190FB
S1133ED0F081E02D199560E08D2F0E94720B19C0BE
S1133EE0FC013381631315C0213099F484819581D9
S1133EF061E0DA012C91211101C060E0DC01ED9157
S1133F00FC910280F381E02D199560E08C2F0E94D2
S1133F10720BDF91CF910895CF93DC0112962C910F
S1133F20129730E0F901EE0FFF1FE753F64F40817F
S1133F305181452B61F5220F331FF901E753F64FE9
S1133F409183808313962C9130E0F901EE0FFF1FCB
S1133F50E753F64F40815181452B49F4220F331F1B
S1133F60F901E753F64F91838083C1E001C0C0E0BB
S1133F70CC2371F0FC0184819581DC01ED91FC91ED
S1133F800190F081E02D6CED75E0199501C0C0E061
S1133F908C2FCF910895FC01228130E0F901EE0FBE
S1133FA0FF1FE753F64F40815181452B49F4220FFF
S1133FB0331FF901E753F64F9183808381E008951D
S1133FC080E00895FC01228130E0F901EE0FFF1F2B
S1133FD0E753F64F40815181452B49F4220F331F9B
S1133FE0F901E753F64F9183808381E0089580E0DF
S1133FF00895FC01228130E0F901EE0FFF1FE75321
S1134000F64F40815181452B49F4220F331FF901AA
S1134010E753F64F9183808381E0089580E008950B
S113402090E0FC01EE0FFF1FE753F64F2081318132
S1134030232B49F4880F991FFC01E753F64F718332
S1134040608381E0089580E00895E82FF0E0EE0FAA
S1134050FF1FE753F64FA081B181109759F0242F29
S1134060AB01682FED91FC9111970280F381E02D53
S1134070CD0119950895E2ECF9E04CEA54E051833E
S11340804083128281E083832FE230E035832483EE
S113409086838098889AEBEBF9E05183408399E01A
S11340A0928392E093833583248386838198899ACB
S11340B0E4EBF9E088EB94E09183808383E08283EE
S11340C080E8838385E290E0958384831682279A2F
S11340D042E061E085EA99E0FED147EE57E064E012
S11340E089E799E0AFD2E3E7F9E084EC94E09183C7
S11340F0808325E0228326E0238325E639E0358387
S11341002483EDE6F9E09183808387E0828388E06D
S1134110838385E299E095838483EAE6F9E082EA81
S113412094E0918380838BE0828308950F93CF93EF
S1134130E9ECF9E089EC9BE011921192E817F90798
S1134140D9F701E028E031E047E051E062E777E1A8
S113415081E797E10E94490BC82F811106C06FE9DE
S113416072E083E897E0D2D2EDC065EC72E083E8B8
S113417097E0CCD280916C0990E0FC01EE0FFF1F18
S1134180E753F64F20813181232B09F0C1C0880FFA
S1134190991FFC01E753F64F8AE699E091838083E7
S11341A06EED72E083E897E0B1D288EC97E00E946C
S11341B0CE0C85EB97E00E94CE0C82EA97E00E9439
S11341C0CE0C8FE897E00E94CE0C60EF72E083E89B
S11341D097E09CD28DE299E09FDCC82F811108C042
S11341E001C0FFCF64E073E083E897E08FD2AAC0F8
S11341F06FE273E083E897E089D28091C40990E08C
S1134200FC01EE0FFF1FE753F64F20813181232B72
S113421009F084C0880F991FFC01E753F64F82EC24
S113422099E09183808361E573E083E897E06ED23F
S11342308091BD0990E0FC01EE0FFF1FE753F64F9C
S113424020813181232B09F070C0880F991FFC0154
S1134250E753F64F8BEB99E09183808366E673E036
S113426083E897E053D28091B60990E0FC01EE0F09
S1134270FF1FE753F64F20813181232B09F05CC0E7
S1134280880F991FFC01E753F64F84EB99E0918363
S113429080836BE773E083E897E038D285EA99E09E
S11342A06DD0C82F811106C06CE873E083E897E0F5
S11342B02DD248C066EA73E083E897E027D289E705
S11342C099E032D1C82F811106C066EB73E083E810
S11342D097E01CD237C06CED73E083E897E016D208
S11342E083E799E019DE882331F08DE699E014DE46
S11342F0C82F811107C069EF73E083E897E006D205
S1134300C0E020C065E174E083E897E0FFD11AC003
S11343106DE274E083E897E0F9D163CF68E474E078
S113432083E897E0F3D1C0E00DC066E674E083E86B
S113433097E0ECD1C0E006C064E874E083E897E05D
S1134340E5D1C0E08C2FCF910F9108950E94C8064B
S11343500E94380960910002709101026F5F7F4FE3
S113436085EA99E00AD060910002709101026F5FC2
S11343707F4F89E799E001C108950895CF93DF93B2
S1134380EC01BC018D854CDE882351F0BE018E8585
S113439047DE882329F06CE0CE0102960E943902A0
S11343A0DF91CF910895EF92FF920F931F93CF93D4
S11343B0DF93CDB7DEB768970FB6F894DEBF0FBEB4
S11343C0CDBFF62E8A01DC011D96EC90E6120AC0E0
S11343D002960E94A602F801808361E08E2D0E945D
S11343E0720B6CC0DC011E962C91621367C0BC0179
S11343F06E5F7F4F48E0CE0101960E94FC02FE01F1
S11344003196A9ECBBE0CE010D9641915191619199
S113441071914D935D936D937D93E817F907A9F717
S1134420E9ECFBE02081518142813381822F952F79
S1134430A42FB32F8D879E87AF87B88BD8012C9379
S11344408E8511968C9311978F8512968C93129763
S1134450888913968C932481558146813781822FD4
S1134460952FA42FB32F898B9A8BAB8BBC8BD80140
S113447014962C9314978A8915968C9315978B8987
S113448016968C9316978C8917968C932085518554
S113449042853385822F952FA42FB32F8D8B9E8B2E
S11344A0AF8BB88FF80120878E8981878F898287A7
S11344B0888D83876CE08F2D0E94720B68960FB6EF
S11344C0F894DEBF0FBECDBFDF91CF911F910F9146
S11344D0FF90EF900895EF92FF920F931F93CF9365
S11344E0DF93EC01E62EF42E20ED34E0FC01219361
S11344F03193CF0101E618E028E247E350E060E0A1
S113450070E00E94C401ED86FE86DF91CF911F9179
S11345100F91FF90EF9008958CE0E9ECFBE0DF0150
S11345201D928A95E9F708951F93CF93DF93EC01C9
S1134530BC018AA575DD182F882361F02296CE016F
S11345400E94471A182F882329F060918E02CE0109
S11345500E94FA12812FDF91CF911F910895CF937A
S1134560DF93FC0123A5211105C0EC0102960E94F2
S1134570FD128BA7DF91CF910895CF92DF92EF9236
S1134580FF920F931F93CF93DF93CDB7DEB7289796
S11345900FB6F894DEBF0FBECDBFFC0123A52223C6
S11345A009F441C07B018C016C01F2E0CF0ED11CF7
S11345B0C6010E94C01AC6010E942313882399F1E0
S11345C040E050E060E87FE3C6010E94CF19262F47
S11345D0462F572F682F792F49835A836B837C8307
S11345E0F70120838A8181838B8182838C818383F9
S11345F0C6010E94001A262F462F572F682F792FA5
S11346004D835E836F837887F70124838E8185834E
S11346108F8186838885878368E0F80182A50E945C
S1134620720BF80113A628960FB6F894DEBF0FBEDE
S1134630CDBFDF91CF911F910F91FF90EF90DF904D
S1134640CF9008951F93CF93DF93EC01162F2CED99
S113465034E0FC0121933193CF01BA010E94EE12A0
S11346601AA7DF91CF911F910895CF92DF92EF9215
S1134670FF920F931F93CF93DF9341155105C1F020
S11346806A018C01E62EF72EC0E0D0E0D7016D91CF
S11346907D01D801ED91FC910190F081E02DC801DC
S11346A01995892B39F02196CC16DD0679F702C0CD
S11346B0C0E0D0E0CE01DF91CF911F910F91FF9028
S11346C0EF90DF90CF9008956115710581F0FB01A3
S11346D001900020E9F73197AF01461B570BDC012D
S11346E0ED91FC910280F381E02D1995089580E00D
S11346F090E00895DC01ED91FC910280F381E02DBE
S113470042E050E064EE74E0199508950F931F930E
S1134710CF93DF93EC01D8DF8C01CE01EBDF800F68
S1134720911FDF91CF911F910F9108955058BB278E
S1134730AA270ED070C161D130F066D120F031F4D7
S11347409F3F11F41EF456C10EF4E095E7FB4CC1F3
S1134750E92F72D180F3BA176207730784079507AC
S113476018F071F49EF58AC10EF4E0950B2EBA2F61
S1134770A02D0B01B90190010C01CA01A001112463
S1134780FF27591B99F0593F50F4503E68F11A160F
S1134790F040A22F232F342F4427585FF3CF4695A0
S11347A037952795A795F0405395C9F77EF41F16C2
S11347B0BA0B620B730B840BBAF09150A1F0FF0F8C
S11347C0BB1F661F771F881FC2F70EC0BA0F621F78
S11347D0731F841F48F4879577956795B795F79568
S11347E09E3F08F0B3CF9395880F08F09927EE0FFA
S11347F0979587950895D4D008F481E008950CD056
S11348000AC102D140F0F9D030F021F45F3F19F031
S1134810EBC0511134C1EEC00FD198F39923C9F301
S11348205523B1F3951B550BBB27AA2762177307B2
S1134830840738F09F5F5F4F220F331F441FAA1F66
S1134840A9F333D00E2E3AF0E0E830D09150504026
S1134850E695001CCAF729D0FE2F27D0660F771FD4
S1134860881FBB1F261737074807AB07B0E809F0B6
S1134870BB0B802DBF01FF2793585F4F2AF09E3F4B
S1134880510568F0B1C0FBC05F3FECF3983EDCF328
S1134890869577956795B795F7959F5FC9F7880FC4
S11348A0911D9695879597F90895E1E0660F771F16
S11348B0881FBB1F621773078407BA0720F0621BA7
S11348C0730B840BBA0BEE1F88F7E0950895BCD0E8
S11348D088F09F5790F0B92F9927B751A0F0D1F0E5
S11348E0660F771F881F991F1AF0BA95C9F712C06F
S11348F0B13081F0C3D0B1E00895C0C0672F782FE4
S11349008827B85F39F0B93FCCF3869577956795DA
S1134910B395D9F73EF490958095709561957F4F46
S11349208F4F9F4F0895E89409C097FB3EF49095EC
S11349308095709561957F4F8F4F9F4F9923A9F074
S1134940F92F96E9BB279395F69587957795679503
S1134950B795F111F8CFFAF4BB0F11F460FF1BC047
S11349606F5F7F4F8F4F9F4F16C0882311F096E9DA
S113497011C0772321F09EE8872F762F05C0662388
S113498071F096E8862F70E060E02AF09A95660F41
S1134990771F881FDAF7880F9695879597F90895FA
S11349A0990F0008550FAA0BE0E8FEEF161617063C
S11349B0E807F907C0F012161306E407F50798F0A4
S11349C0621B730B840B950B39F40A2661F0232BBD
S11349D0242B252B21F408950A2609F4A140A69539
S11349E08FEF811D811D089597F99F6780E870E01E
S11349F060E008959FEF80EC089500240A94161651
S1134A00170618060906089500240A9412161306B8
S1134A10140605060895092E0394000C11F4882346
S1134A2052F0BB0F40F4BF2B11F460FF04C06F5F62
S1134A307F4F8F4F9F4F089557FD9058440F551F38
S1134A4059F05F3F71F04795880F97FB991F61F00C
S1134A509F3F79F087950895121613061406551F83
S1134A60F2CF4695F1DF08C0161617061806991FEF
S1134A70F1CF86957105610508940895E894BB27E4
S1134A8066277727CB0197F908958ADF08F48FEF1B
S1134A9008950BD0C0CFB1DF28F0B6DF18F095230E
S1134AA009F0A2CFA7CF1124EACFC6DFA0F3959FC8
S1134AB0D1F3950F50E0551F629FF001729FBB2701
S1134AC0F00DB11D639FAA27F00DB11DAA1F649FAD
S1134AD06627B00DA11D661F829F2227B00DA11D60
S1134AE0621F739FB00DA11D621F839FA00D611DE6
S1134AF0221F749F3327A00D611D231F849F600D07
S1134B00211D822F762F6A2F11249F5750408AF03F
S1134B10E1F088234AF0EE0FFF1FBB1F661F771FCB
S1134B20881F91505040A9F79E3F510570F05CCF0B
S1134B30A6CF5F3FECF3983EDCF3869577956795B7
S1134B40B795F795E7959F5FC1F7FE2B880F911DE9
S1134B509695879597F90895DB018F939F9335D0A8
S1134B60BF91AF91A29F800D911DA39F900DB29F05
S1134B70900D11240895A1E21A2EAA1BBB1BFD015E
S1134B800DC0AA1FBB1FEE1FFF1FA217B307E40728
S1134B90F50720F0A21BB30BE40BF50B661F771F80
S1134BA0881F991F1A9469F7609570958095909560
S1134BB09B01AC01BD01CF010895EE0FFF1F881FBB
S1134BC08BBF0790F691E02D1994BBD0A59F900D53
S1134BD0B49F900DA49F800D911D11240895DF931F
S1134BE0CF931F930F939A9DF02D219FF00D8B9DD2
S1134BF0F00D8A9DE02DF10D039FF00D029FE00D55
S1134C00F11D4E9DE00DF11D5E9DF00D4F9DF00DCB
S1134C107F936F93BF92AF925F934F93D50191D0DF
S1134C208B01AC01D7018DD0EB01E80FF91FD60140
S1134C301FD02F913F91D60184D0C60FD71FE81FF4
S1134C40F91FAF91BF9114D02F913F917AD0C60F25
S1134C50D71FE81FF91FD60174D0E60FF71F98017C
S1134C60BE01CF0111240F911F91CF91DF910895BF
S1134C7068D0460F571FC81FD91F08F431960895EE
S1134C800F93083090F0982F872F762F652F542F8D
S1134C90432F322F22270850F4CF220F331F441FF3
S1134CA0551F661F771F881F991F0A95B2F70F912A
S1134CB0089597FB10F8169400080F93083098F0A5
S1134CC00850232F342F452F562F672F782F892FE5
S1134CD0902DF4CF0594979587957795679557957B
S1134CE04795379527950A95AAF70F9108952A0DA8
S1134CF03B1D4C1D5D1D6E1D7F1D801F911F089562
S1134D000024A7FD00942A0F301D401D501D601D76
S1134D10701D801D901D08952A193B094C095D09D9
S1134D206E097F09800B910B08950024A7FD009460
S1134D302A1730054005500560057005800590056B
S1134D400895A29FB001B39FC001A39F700D811D60
S1134D501124911DB29F700D811D1124911D089580
S1134D60FB01DC0102C005900D9241505040D8F780
S1134D700895FB01DC0104C08D910190801921F498
S1134D8041505040C8F7881B990B0895FB01DC0182
S1134D904150504048F001900D920020C9F701C0E5
S1114DA01D9241505040E0F70895F894FFCF63
S1134DAE2905FFFFFFFF7069692D3031C0A8B201DC
S1134DBEA9FEF09D424E4F30353500000000007EB6
S1134DCE0192047F01FFFFFFFFFFFF496E697469C3
S1134DDE616C697A696E672E2E2E004661696C6568
S1134DEE6420746F20696E697469616C697A6520D8
S1134DFE726F626F742E00496E697469616C697AA0
S1134E0E656420726F626F742E0000000000090C3E
S1134E1E3523F30B000CD20BE40BE10B0000000066
S1134E2EF1111B12CF0BB8118D119511A9110000A0
S1134E3E000000BC1DD31D00000000AF1EBB1E46AB
S1134E4E61696C656420746F20616363657373209C
S1134E5E45746865726E657420636F6E74726F6CE0
S1134E6E6C65722E00436F6E6E6563746564207498
S1134E7E6F20636F6E74726F6C6C65722E00496E68
S1134E8E697469616C697A65642070696E672E0055
S1134E9E536572766F7320696E697469616C697A91
S1134EAE65642E00556E61626C6520746F20696EA8
S1134EBE697469616C697A652054776920536572E7
S1134ECE766F20436F6E74726F6C6C65722E004930
S1134EDE6E697469616C697A6564205477692053CC
S1134EEE6572766F20436F6E74726F6C6C65722E82
S1134EFE00496E697469616C697A656420427574DF
S1134F0E746F6E302E00496E697469616C697A65CE
S1134F1E6420427574746F6E312E00496E69746923
S1134F2E616C697A6564204C45442E00556E61624D
S1134F3E6C6520746F20696E697469616C697A6539
S1134F4E20494D552E00496E697469616C697A6504
S1134F5E6420494D5500556E61626C6520746F2056
S1134F6E696E697469616C697A65205072657373D0
S1134F7E7572652053656E736F722E00496E697477
S1134F8E69616C697A656420707265737375726594
S1134F9E2073656E736F722E00556E61626C6520A0
S1134FAE746F20696E697469616C697A65205365E2
S1134FBE72766F2E00496E697469616C697A6564E4
S1134FCE207465737420736572766F2E0046616962
S1134FDE6C656420746F20696E697469616C697A9A
S1134FEE652070696E672E00556E61626C65207463
S1134FFE6F20696E697469616C697A652042757493
S113500E746F6E302E00556E61626C6520746F2065
S113501E696E697469616C697A6520427574746F1E
S113502E6E312E00556E61626C6520746F20696E50
S113503E697469616C697A65204C45442E000000E0
S113504E0000F91F101FD91E00000000E21FDA1E17
S113505EEA1EF51E00000000CB1FEB1EF31E261FDA
S113506E000000008C1FEB1EF41E521F00000000F7
S113507EBE21DA1EBD21D321000000009422DA1EC7
S113508EBD22AF220D0A006E616E00696E66006F5E
S107509E766600002E
S9030000FC
