:1000000050C100007FC100007DC100007BC1000025
:1000100079C1000077C1000075C1000073C1000004
:1000200071C100006FC100006DC100006BC1000014
:1000300069C1000067C1000065C1000063C1000024
:1000400061C100005FC100005DC100005BC1000034
:1000500059C1000057C1000055C1000053C1000044
:1000600051C100000C949B0E0C94D70E4BC10000A4
:1000700049C1000047C1000045C1000043C1000064
:1000800041C100003FC100003DC100003BC1000074
:100090000C94230F0C945F0F35C100000C943613A1
:1000A00031C100002FC100002DC100002BC1000094
:1000B00029C1000027C1000025C1000023C10000A4
:1000C00021C100001FC100001DC100000C94AB0F36
:1000D0000C94E70F17C100000C9433100C946F10B0
:1000E00011C100003C143F143F143F143F143F144F
:1000F0003F143F1457133F143F143F143F143F1451
:100100003F143F1457133F143F143F143F143F1440
:100110003F143F145F133F143F143F143F143F1428
:100120003F143F1484133F143F143F143F143F14F3
:100130003F143F145F133F143F143F143F143F1408
:100140003F143F1489133F143F143F143F143F14CE
:100150003F143F148E133F143F143F143F143F14B9
:100160003F143F149F133F143F143F143F143F1498
:100170003F143F14C8133F143F143F143F143F145F
:100180003F143F1493133F143F143F143F143F1484
:100190003F143F14AD133F143F143F143F143F145A
:1001A0003F143F14CA133F143F143F143F143F142D
:1001B0003F143F14CA133F143F143F143F143F141D
:1001C0003F143F14CA133F143F143F143F143F140D
:1001D0003F143F14CA133F143F143F143F143F14FD
:1001E0003F143F14D3133F143F143F143F143F14E4
:1001F0003F143F1403143F143F143F143F143F14A3
:100200003F143F14D3133F143F143F143F143F14C3
:100210003F143F1403143F143F143F143F143F1482
:100220003F143F14EB133F143F143F143F143F148B
:100230003F143F1407143F143F143F143F143F145E
:100240003F143F1407143F143F143F143F143F144E
:100250003F143F141C143F143F143F143F143F1429
:100260003F143F1436143F143F143F143F143F14FF
:100270003F143F1436144500008200004000200067
:1002800001080006040001003405000F880F10105B
:1002900098109911BB11DD11FF11A6151C162D1711
:1002A000351711241FBECFEFD1E2DEBFCDBF00E076
:1002B0000CBF12E0A0E0B2E0EEEBF2E300E00BBF17
:1002C00002C007900D92A83FB107D9F729E0A8EF27
:1002D000B2E001C01D92A637B207E1F711E0C1E517
:1002E000D1E000E006C021970109802FFE010E94A5
:1002F0002119C434D10780E00807A9F70E94FA0B3E
:100300000C945D197DCE08950F931F93CF93DF93C7
:100310008C01EB0188E2FB0111928A95E9F74BE031
:1003200050E066E172E0CE010E944E191B8681E02A
:1003300090E0A0E0B0E08C879D87AE87BF87F80192
:1003400086819781A085B185888B998BAA8BBB8B81
:1003500083E090E0A0E0B0E08C8B9D8BAE8BBF8BF8
:100360001CA21DA21EA21FA2188E198E1A8E1B8EF1
:100370001C8E1D8E1E8E1F8E8AE097EDA3E2BCE3BD
:1003800088A399A3AAA3BBA3DF91CF911F910F913B
:1003900008950F931F93FC0181E292E09183808383
:1003A00046835783608771872383158304831F9156
:1003B0000F9108950F931F93CF93DF93EC01062FB6
:1003C000142F6B818C819D810E941F158C819D81D2
:1003D000DC01ED91FC910190F081E02D602F1995E9
:1003E0008C819D81DC01ED91FC910190F081E02DEB
:1003F000612F19958C819D810E94A31581E0DF9169
:10040000CF911F910F910895462FFC0162876DE3F4
:10041000D1DFFFEF26E781E0F15020408040E1F797
:1004200000C0000008951F93CF93DF93EC01162FB7
:100430006B818C819D810E941F158C819D81DC01C7
:10044000ED91FC910190F081E02D612F19958C8147
:100450009D810E94A31541E06B818C819D810E944A
:10046000A0158C819D81DC01ED91FC910284F385C6
:10047000E02D1995DF91CF911F9108951F93CF9390
:10048000DF93EC01162F8C819D810E940F1560E097
:10049000CE01C9DF803A79F02FEF83ED90E3215050
:1004A00080409040E1F700C0000060E0CE01BBDF7B
:1004B000803A09F04BC060E0CE01A6DF40E26FE376
:1004C000CE0178DF2FEF86E791E021508040904009
:1004D000E1F700C0000060E0CE01A5DF803A39F00E
:1004E0008FE39CE90197F1F700C00000F4CF9FEF84
:1004F00020E782E0915020408040E1F700C00000FA
:1005000040E06EE3CE0156DF8FE39CE90197F1F7FF
:1005100000C0000040E067E0CE014CDF40E06FE348
:10052000CE0148DF8FE39CE90197F1F700C000009E
:10053000612FCE0169DF9FEF29EF80E091502040CD
:100540008040E1F700C0000081E001C080E0DF9161
:10055000CF911F91089564E366CF0895CF92DF9203
:10056000EF92FF920F931F93CF93DF937C01C62FDF
:100570006A01122FDC0113966C91139714968D91DA
:100580009C9115970E941F15F70184819581DC01CC
:10059000ED91FC910190F081E02D6C2F1995F70100
:1005A000848195810E94A315412FD70113966C91E8
:1005B000139714968D919C9115970E94A015112365
:1005C000B1F0E6011150012F10E00F5F1F4F0C0D2D
:1005D0001D1DF70184819581DC01ED91FC91028460
:1005E000F385E02D19958993C017D10791F781E024
:1005F000DF91CF911F910F91FF90EF90DF90CF90FF
:100600000895AF92BF92CF92DF92FF920F931F9304
:10061000CF93DF9300D000D0CDB7DEB78C01CB01F4
:10062000F42E2CE0F80111922A95E9F7AE014F5F04
:100630005F4F26E0FA0111922A95E9F726E06F2D27
:100640008DDF6A8170E0762F66278981682B8C8127
:1006500090E0982F88272B816C01C22A8E8190E030
:10066000982F88272D815C01A22AF4E1FF1609F456
:100670004AC0FF1540F088E0F81609F4ACC0EEE07F
:10068000FE1669F043C1F8E2FF1609F4D8C08EE205
:10069000F81609F408C1EAE1FE1238C168C0072E55
:1006A000000C880B990B0E94101820E030E040E805
:1006B0005DE30E949C18F8016083718382839383B9
:1006C000B601DD0C880B990B0E94101820E030E079
:1006D00040E85DE30E949C18F8016483758386837B
:1006E0009783B501BB0C880B990B0E94101820E072
:1006F00030E040E85DE30E949C18F8016087718754
:100700008287938703C1072E000C880B990B0E94E8
:10071000101820E030E040E85DE30E949C18F801EA
:100720006083718382839383B601DD0C880B990B00
:100730000E94101820E030E040E85DE30E949C1821
:10074000F8016483758386839783B501BB0C880B9E
:10075000990B0E94101820E030E040E85DE30E9411
:100760009C18F8016087718782879387CFC0072E16
:10077000000C880B990B0E94101820E030E040E834
:100780005DE30E949C18F8016083718382839383E8
:10079000B601DD0C880B990B0E94101820E030E0A8
:1007A00040E85DE30E949C18F801648375838683AA
:1007B0009783B501BB0C880B990B0E94101820E0A1
:1007C00030E040E85DE30E949C18F8016087718783
:1007D000828793879BC0072E000C880B990B0E9481
:1007E000101820E030E048EC52E40E94A617F8010F
:1007F0006083718382839383B601DD0C880B990B30
:100800000E94101820E030E048EC52E40E94A61745
:10081000F8016483758386839783B501BB0C880BCD
:10082000990B0E94101820E030E048EC52E40E943E
:10083000A617F801608771878287938767C0072EA4
:10084000000C880B990B0E94101820E030E048EC57
:1008500052E40E94A617F801608371838283938318
:10086000B601DD0C880B990B0E94101820E030E0D7
:1008700048EC52E40E94A617F801648375838683CE
:100880009783B501BB0C880B990B0E94101820E0D0
:1008900030E048EC52E40E94A617F80160877187A7
:1008A0008287938733C0072E000C880B990B0E9418
:1008B000101820E030E048EC52E40E94A617F8013E
:1008C0006083718382839383B601DD0C880B990B5F
:1008D0000E94101820E030E048EC52E40E94A61775
:1008E000F8016483758386839783B501BB0C880BFD
:1008F000990B0E94101820E030E048EC52E40E946E
:10090000A617F8016087718782879387C8012696AA
:100910000FB6F894DEBF0FBECDBFDF91CF911F9110
:100920000F91FF90DF90CF90BF90AF9008950F93FD
:100930001F93CF93DF93CDB7DEB72C970FB6F89404
:10094000DEBF0FBECDBF8B0120E2FB0111922A95C5
:10095000E9F740E250E060E070E0F8014083518345
:1009600062837383FC014681578160857185F8013C
:10097000448355836683778343E050E060E070E012
:1009800040875187628773874AE1BC01CE01019697
:1009900038DE89819A81AB81BC81F801808B918B93
:1009A000A28BB38B8D819E81AF81B885848B958B13
:1009B000A68BB78B89859A85AB85BC85808F918FF7
:1009C000A28FB38F81E02C960FB6F894DEBF0FBED6
:1009D000CDBFDF91CF911F910F910895613049F400
:1009E000FC018081E091F802F091F902808380E0BF
:1009F000BFC608954091F8023091F9022FEF260FFB
:100A0000662341F0A82FB92FE42FF32F8D91819306
:100A10002150E0F781E0ACC60895613051F4FC014B
:100A20009081923030F481E0911101C080E00C940B
:100A3000F91508959B01813051F028F0823059F06A
:100A4000833069F00895642FC901C8CF0895642FD9
:100A5000C901D0CF0895642FC901DFCF0895642F55
:100A6000C9010C94FF150895809100029091010234
:100A700002969093F9028093F8020895E091FE02A5
:100A8000F091FF0290818091FD02809589238083FF
:100A90000895E091FE02F091FF0290818091FD02A5
:100AA000892B80830895CF93DF93D82FC62FE6DF5D
:100AB0008C2FCF71CD2BCEBD00000DB407FEFDCF26
:100AC0001EBC00000DB407FEFDCFCEB5882334F464
:100AD0001EBC00000DB407FEFDCFCEB5DADF8C2FB3
:100AE000DF91CF9108951F93CF93DF93C82FD62F17
:100AF000142FC4DFDF71CD2BCEBD00000DB407FE77
:100B0000FDCF1EBD00000DB407FEFDCFC2DFDF919B
:100B1000CF911F9108950F931F93CF93DF93EC0113
:100B20008B01ACDF209799F08AE38EBD00000DB4F5
:100B300007FEFDCFF801B8016C0F7D1F1EBC0DB480
:100B400007FEFDCF9EB591936E177F07B9F7A1DF22
:100B5000DF91CF911F910F9108951F93CF93DF9352
:100B6000182F1076C12FD0E08091000390E0C817B5
:100B7000D907A1F043E06FE180EAB5DF10930003ED
:100B8000AE0155954795559547955595479555957A
:100B90004795559547956FE180E8A5DFDF91CF91A7
:100BA0001F910895CF93C82FD8DF6C2F80E07BDF93
:100BB000CF910895CF93DF93C82FD62FCEDF4D2F3F
:100BC0006C2F80E490DFDF91CF910895CF93DF9376
:100BD000C82FD72FEFDF6D2F81E08C0FEBDFDF9178
:100BE000CF910895FC0194B1976094B923989DB575
:100BF00091609DBD9CB590659CBD80819091FD02EA
:100C0000982B908346CF08950F93CF93DF93EB01FA
:100C100090930203809301030093FD023093FF023F
:100C20002093FE02CA01DEDF4FEF60E08FEF5BDF53
:100C30008FE39FE10197F1F700C000006DE180E0D4
:100C400032DF8823D9F360E070E088E0BFDF60E046
:100C500070E08CE0BBDF6FEF7BE08AE0B7DF60E045
:100C60007CE084E0B3DF6FEF71E186E0AFDF61EB42
:100C700088E3A0DF6FE370E388E2A8DF69EF77EF36
:100C800080E3A4DF61E080EC95DF42E362EC80E882
:100C90002ADF62E17CE086EC99DF62E184EC8ADFA6
:100CA0006CED75E08AEC92DF688184EE83DF698108
:100CB00085EE80DF6A8182EE7DDF6B8183EE7ADFF5
:100CC0006C8180EE77DF6D8181EE74DF60E184ED11
:100CD00071DF60E071E086ED79DF8AEE63DF80FD31
:100CE000FCCF8FE13ADF40EC6BE180E8FCDE44E0D2
:100CF0006FE180E8F8DE82E755DF863008F08F5F2D
:100D0000DF91CF910F91089561E184ED53DF61E0B0
:100D100082ED50DF8AEE46DF80FDFCCF60E082EDA1
:100D200049DF89ED3FDF82FB882780F90895AF9284
:100D3000BF92CF92DF92EF92FF920F931F93CF93C8
:100D4000DF937C016C0184EFD81A0F2EF3E0AF2EF5
:100D5000F3E0BF2EF02D87010D5F1C4F40E86FE1DF
:100D600080E8C1DE40E86FE180EABDDE4AE06CE188
:100D700080EAB9DE60E07CE082E028DFB60186E050
:100D800025DF40E060E08AE7AEDE78DEE114F104C2
:100D9000E1F08AE78EBD00000DB407FEFDCFF5013E
:100DA00080818EBDF1E0EF16F10459F0E4E0F3E04C
:100DB00000000DB407FEFDCF81918EBDE017F10755
:100DC000B9F700000DB407FEFDCF63DE48E06FE128
:100DD00080E889DEC0E0D0E08CE1E4DE8A7031F4A6
:100DE0002196C83E83E0D807B9F70CC08CE1DADE63
:100DF00081FD03C0C83ED34040F048E06FE180EA87
:100E000072DEACCF8CE1CEDEF8CFDF91CF911F91B7
:100E10000F91FF90EF90DF90CF90BF90AF9008952B
:100E20000F931F93CF93DF9300D000D0CDB7DEB7E1
:100E30008091FC02882391F06091FA027091FB028C
:100E40006115710529F46FEF7BE08CE0BFDE04C013
:100E5000615071098CE0BADE1092FC0289E3A2DED7
:100E60008823A9F16091FA027091FB0280E0AEDE66
:100E7000BE016F5F7F4F86E090E04DDE89819A81F1
:100E80009093FB028093FA028D8187FF12C08091BC
:100E900001039091020301970B811C8104501109F9
:100EA0008017910708F48C0163E073E0C80133DE1A
:100EB00002C000E010E0F801ED5FFC4F108281E01D
:100EC0008093FC0240E46EE180E80DDE02C000E0A9
:100ED00010E0C80126960FB6F894DEBF0FBECDBF56
:100EE000DF91CF911F910F910895EF92FF920F9391
:100EF000CF93DF93EB017A01022FBC018DE195E0E6
:100F0000C9D39701AE016DE175E080E092E07CDE2F
:100F1000DF91CF910F91FF90EF900895EF92FF92A4
:100F20000F931F93CF93DF937B018A01E901009711
:100F300021F0BC0189E195E0A0D3E114F10411F0A6
:100F4000C701BDD10115110521F0B80189E095E077
:100F500094D3209721F0BE0185E195E08ED3BBD1DB
:100F6000109204051092030581E0DF91CF911F914B
:100F70000F91FF90EF900895CF92DF92EF92FF9242
:100F8000CF93DF93C62FD0E0CD5FDC4F213081F4CB
:100F90006A0199E0C90ED11CE12CF12C03C0C12CCF
:100FA000D12C76014230510528F1FE01DA0109C049
:100FB0002230A9F76A0192E0C91AD108E12CF12C7C
:100FC000F1CF208130E0322F22279181292BC20ED0
:100FD000D31EE11CF11C32961297A230B10588F79E
:100FE0009A01225031092E7F2E5F3F4FC20FD31F2F
:100FF00041705527452B61F0488150E060E070E07A
:10100000762F652F542F4427C40ED51EE61EF71EDB
:10101000A70166277727411551056105710571F014
:10102000EE24FF24C40ED51EE61EF71EA701662778
:101030007727411551056105710591F7C094D0944A
:10104000E82FF0E0ED5FFC4FD082C182DF91CF91BD
:10105000FF90EF90DF90CF900895CF93DF93FC0146
:1010600020812223D1F0FB0130813323C1F02327DB
:10107000309115052323A9F4DC0111963196C6E1C0
:10108000D5E004964D91219139912427232359F4D9
:10109000A817B907B9F781E007C080E005C080E074
:1010A00003C080E001C080E0DF91CF910895E3E0CC
:1010B000F3E0108E118E80E4848B158A868B20E0FD
:1010C00044E150E06EE088E157CF0895BC0183E031
:1010D00093E0E0D26DE175E089E093E0DBC2089532
:1010E00089E093E0F3DF6DE173E081E293E0C5D244
:1010F00069E175E08DE193E0C0D2D9CF0895CF9337
:10110000DF93EB01E3DFBE0181E293E0B6D269E158
:1011100075E08DE193E0B1D2DF91CF910895CF9347
:10112000DF93EB0144E050E0BC018FE193E00E94CB
:101130004119892B31F469E173E0CE01ABD281E032
:1011400001C080E0DF91CF9108950F931F93CF935B
:101150008C0187E292E0BADFE3E0F3E088E0848785
:10116000C6E0C58748E050E06FE772E081E193E0B8
:101170000E943819E3E2F3E0DF011D92CA95E9F716
:101180006DE175E089E193E085D2B80189E293E0F1
:1011900074D269E175E08FE193E06FD28AE290E06A
:1011A000C6DDCF911F910F910895EF92FF920F939B
:1011B0001F93CF93DF93182F092FEB01F42EE52E09
:1011C00089E195E04ADF882329F0BE018EE295E0AF
:1011D00096DF04C0BE0184E295E091DF8881807FC4
:1011E000803E91F088819981AA81BB818F3F9F4F7A
:1011F000AF4FBF4F49F044E050E0BE0181E195E0C0
:101200000E944119892B29F467E272E083E093E0A0
:1012100041D2C3E0D3E088E08C871D8649E050E0EE
:1012200066E772E081E193E00E943819188A81E153
:101230008F8BECA2FDA20AA31BA31EA218A619A6BF
:10124000DF91CF911F910F91FF90EF9008950F9331
:101250001F93CF93DF93EC0103E013E04C96F8016A
:10126000908B818B24DFCE010896F80196A387A38B
:10127000AE01405F5F4F21E06AE188E27DDECE0192
:101280008A9655DDDF91CF911F910F9108950F93AD
:101290001F93CF93DF93D62FC72FCA01A801B9019F
:1012A00084DF8D2F9C2F813022E0920710F080E0A8
:1012B00092E0CDDFDF91CF911F910F9108951092B1
:1012C00004051092030521E020932305BC018DE065
:1012D00095E0D3C10895CF93DF93E9E1F5E0C5E14F
:1012E000D5E0A1E1B5E02DE135E0919189918095BE
:1012F000892B8D93E217F307C1F7DF91CF91089502
:10130000CF93DF93EC01009709F03FC08091230554
:10131000857089F08091030590910405892B59F41B
:10132000F3DC882341F08DE095E00FDF8091230509
:1013300088608093230580910305909104050196B0
:10134000909304058093030569E075E089E195E0D9
:1013500084DE882349F080912C05811105C080919D
:101360002D05882309F4DCC065E075E089E195E08E
:1013700074DE882309F4F8C080912A058111F4C035
:1013800080912B058111F0C0D2C08932910508F4FB
:10139000D5C080910F03883009F0E6C0809110031A
:1013A000863009F0DDC044E050E069E175E089E293
:1013B00093E00E944119892B09F0D2C0C3C089E093
:1013C00093E084DEE3E0F3E0148A82E0858B69E158
:1013D00073E083E293E05ED16DE175E089E193E033
:1013E00059D16FE173E089E293E047D169E175E09B
:1013F0008FE193E042D18AE290E099DC809123056D
:1014000083FF0EC080911803823051F464E275E0CE
:101410008DE095E084DE882319F082E08093230537
:1014200080912C05811110C080912D05882361F0D9
:101430006EE275E089E095E072DE882329F081E0B4
:1014400080932C0510922D0580912A0581118CC066
:1014500080912B05882309F487C06EE275E085E052
:1014600095E05DDE882309F47FC081E080932A0542
:1014700010922B0579C080910F03883009F074C059
:1014800080911003811170C080911103853409F09F
:101490006BC044E050E069E175E081E293E00E94B6
:1014A0004119892B09F454C044E050E061E175E032
:1014B00081E293E00E944119892B09F449C044E07C
:1014C00050E067E272E081E293E00E944119892BCB
:1014D00009F04AC03DC0809125038830C9F4E091ED
:1014E0003405F0913505309719F08DE193E01995A9
:1014F000F7DDE3E0F3E012A284A1883F18F095A1A4
:101500009F5F95A3885F80932703CE0110DC2CC0DA
:101510004AD0882349F180911A03813129F51DC0F1
:1015200089E095E012DE81E080932D051DCF85E0F6
:1015300095E00BDE81E080932B0516C08A9708F0BA
:101540009ACF12C080911803813009F057CF37CF5E
:1015500080911A038130E1F6BECFCE012BD004C0BA
:10156000CA32D10508F08CCF80E090E0DF91CF91B6
:1015700008959C01909136059830A0F4E92FF0E091
:10158000AF01440F551F440F551FE40FF51FE95CD1
:10159000FA4F318320837383628381E084839F5F6A
:1015A00090933605089581E090913605911101C020
:1015B00080E008958F929F92BF92CF92DF92EF9238
:1015C000FF920F931F93CF93DF938091360588236B
:1015D00009F446C0C7E3D5E0E12CF12C80E00F2EE2
:1015E000F3E0CF2EF3E0DF2EF02DBB24B394AA81DD
:1015F000BB81F60124A130E04B2F55272417350776
:1016000021F525A130E0AD01552724173507E9F470
:101610009C819923D1F007A110E00850110986A1FF
:1016200090E0982F8827080F191F42A150E0542FEF
:10163000442783A1482B888099802DE233E06DE117
:1016400073E0CD01F40119958B2DFFEFEF1AFF0A1E
:1016500025962091360530E0E216F30644F201C0EB
:1016600080E0DF91CF911F910F91FF90EF90DF907D
:10167000CF90BF909F908F900895FB012081318182
:10168000FC0131832083FB0122813381FC01338300
:1016900022830895DC0196E0FB0101900D929A955A
:1016A000E1F70895FC012081DC0112968181922FDF
:1016B000980F3FEF360F662361F0FD01832F2191D4
:1016C000920F8150E0F7232F30E02F5F3F4FA20FA2
:1016D000B31F81E02C91291380E008950F931F938D
:1016E000CF93DF93A801435051094F3F510509F0B3
:1016F00088F4F90180818F3F69F4E9010350602F7C
:10170000C901D0DF882331F0BE016E5F7F4F402FCB
:10171000898190D9DF91CF911F910F9108950F93F7
:10172000CF93DF93EC01CA01A901202FD09362056A
:10173000C09361057093600560935F05BC0186E00E
:1017400092E0D3DB882379F020E030E040E050E005
:101750006CE072E080E192E0E1DBBE018EE69BE0AE
:1017600008DF81E001C080E0DF91CF910F91089503
:101770000F931F93CF93DF93E0910002F09101024A
:101780009FEF9083E0910002F091010281838150EC
:10179000C0910002D0910102DE0112964FEF460F78
:1017A000662381F0FD0150E09A012D5F3F4F2C0F21
:1017B0003D1F9191890FE217F307D9F74F5F5F4FF4
:1017C000A40FB51F8C9300915F05109160054091A7
:1017D00061055091620570E06D5F7F4F22E032E05D
:1017E000809100029091010252DDDF91CF911F9113
:1017F0000F910895789426E040E855E260E070E0AB
:1018000083E695E030D26DE272E083E695E00E94D7
:1018100096170E943616811107C06EE372E083E6C8
:1018200095E00E949617FFCF6AE572E083E695E0A7
:101830000E94961701E025E230E044E250E062E7C2
:1018400077E181E797E16BDF811107C06DE672E018
:1018500083E695E00E949617FFCF63E972E083E686
:1018600095E00E94961784B1806684B98DB1886333
:101870008DB9E1E0F1E0808188638083EAE0F1E006
:101880008081886380838FE296E09FD466E272E075
:101890008FE296E036D566E272E08FE296E035D5CB
:1018A00060E679E08FE296E038D560E679E08FE295
:1018B00096E037D560E679E08FE296E036D58FE2A4
:1018C00096E094D48FE296E09AD48FE296E0A0D48A
:1018D00087E496E07AD466E272E087E496E011D578
:1018E00066E272E087E496E010D566E272E087E493
:1018F00096E00FD560E679E087E496E00ED560E6E5
:1019000079E087E496E00DD560E679E087E496E03B
:101910000CD587E496E06AD487E496E070D487E437
:1019200096E076D48FE596E050D466E272E08FE5DB
:1019300096E0E7D466E272E08FE596E0E6D466E2F0
:1019400072E08FE596E0E5D460E679E08FE596E019
:10195000E4D460E679E08FE596E0E3D460E679E0F0
:101960008FE596E0E2D48FE596E040D48FE596E0EF
:1019700046D48FE596E04CD487E796E026D466E21D
:1019800072E087E796E0BDD466E272E087E796E012
:10199000BCD466E272E087E796E0BBD460E679E00B
:1019A00087E796E0BAD460E679E087E796E0B9D4B5
:1019B00060E679E087E796E0B8D487E796E016D44A
:1019C00087E796E01CD487E796E022D4C1E0DFEFFA
:1019D00027DA96DC0E944A16609114028FE296E0A4
:1019E00020D4609114028FE296E041D460911402F9
:1019F0008FE296E061D46091140287E496E011D4FE
:101A00006091140287E496E032D46091140287E476
:101A100096E052D4609114028FE596E002D4609172
:101A200014028FE596E023D4609114028FE596E0CE
:101A300043D46091140287E796E0F3D360911402D7
:101A400087E796E014D46091140287E796E034D4D7
:101A50009091140280911502890F809314028F3F98
:101A600061F4D09315022FEF89E698E12150804070
:101A70009040E1F700C000000DC081110BC0C09381
:101A800015022FEF89E698E1215080409040E1F760
:101A900000C000008FE19EE40197F1F700C0000054
:101AA00097CFFC0197852089892F90E0805C9F4F1C
:101AB000821B91098F7399270895FC01978580896E
:101AC000981731F08089E80FF11D838990E008951F
:101AD0008FEF9FEF0895FC0197858089981761F03B
:101AE0008089DF01A80FB11D53968C9190899F5F6B
:101AF0009F73908B90E008958FEF9FEF0895FC0106
:101B000021893289231738F08FE390E0821B9109F5
:101B1000830F911D0895832F90E0821B91090197F7
:101B20000895FC018289DF01A80FB11DAD5ABF4F96
:101B30008C91228930E02F5F3F4F2F733078332311
:101B400034F421503109206C3F6F2F5F3F4F228BBF
:101B5000A485B5858C93A681B7818C9183708064B0
:101B60008C9391898289981306C00084F185E02DB9
:101B700080818F7D80830895CF93DF93EC018E85E4
:101B80008823D1F0E885F985808185FD05C0AE8187
:101B9000BF818C9186FD10C00FB607FCF5CF808108
:101BA00085FFF2CF03C0CE01BCDFECCFAE81BF8199
:101BB0008C9185FFE9CFF7CFDF91CF9108950F93F7
:101BC0001F93CF93DF93EC0181E08E8799898A89F7
:101BD000981325C0EE81FF81808185FD31C01FC033
:101BE0008A8918130BC00FB607FCFACFEE81FF816C
:101BF000808185FFF5CFCE0194DFF2CF8989FE0188
:101C0000E80FF11DED5AFF4F00839FB7F894198B31
:101C1000E885F9858081806280839FBF1DC0298906
:101C200030E02F5F3F4F2F733078332334F421504F
:101C30003109206C3F6F2F5F3F4F062F122FD0CFFF
:101C40009FB7F894EC85FD856083EE81FF818081EC
:101C50008370806480839FBF81E090E0DF91CF91AB
:101C60001F910F910895CF92DF92EF92FF921F93F1
:101C7000CF93DF93EC016A017B01122FEE81FF818C
:101C800082E080834115514E61057105B1F060E03D
:101C900079E08DE390E0A70196010E94FF18DA0138
:101CA000C9010197A109B109B695A795979587959F
:101CB0009C01211580E13807A8F0EE81FF81108298
:101CC00060E874E88EE190E0A70196010E94FF1899
:101CD000DA01C9010197A109B109B695A7959795B0
:101CE00087959C01EA81FB813083EC81FD81208313
:101CF0001E86EA85FB851083E885F98580818061F1
:101D00008083E885F985808188608083E885F9850E
:101D1000808180688083E885F98580818F7D8083DC
:101D2000DF91CF911F91FF90EF90DF90CF900895BA
:101D300080E090E008951F920F920FB60F92112449
:101D40000BB60F922F938F939F93AF93BF93EF9305
:101D5000FF93E0916905F0916A05808182FD14C0CE
:101D6000E3E6F5E0A485B5852C9187858F5F8F70BC
:101D70009089891771F0DF01E785F0E0ED59FA4F9E
:101D8000238B1F968C9305C0E0916F05F091700531
:101D90008081FF91EF91BF91AF919F918F912F9192
:101DA0000F900BBE0F900FBE0F901F9018951F92B3
:101DB0000F920FB60F9211240BB60F922F933F93F1
:101DC0004F935F936F937F938F939F93AF93BF9343
:101DD000EF93FF9383E695E0A4DEFF91EF91BF912F
:101DE000AF919F918F917F916F915F914F913F91B3
:101DF0002F910F900BBE0F900FBE0F901F90189554
:101E0000E3E6F5E080EB92E09183808385EC90E05F
:101E10009383828384EC90E09583848380EC90E0CC
:101E20009783868381EC90E09187808782EC90E0B5
:101E30009387828786EC90E0958784871786108A3F
:101E4000118A128A08951F920F920FB60F921124D1
:101E50000BB60F922F938F939F93AF93BF93EF93F4
:101E6000FF93E0919C05F0919D05808182FD14C057
:101E7000E6E9F5E0A485B5852C9187858F5F8F70A5
:101E80009089891771F0DF01E785F0E0EA56FA4F93
:101E9000238B1F968C9305C0E091A205F091A305BA
:101EA0008081FF91EF91BF91AF919F918F912F9181
:101EB0000F900BBE0F900FBE0F901F9018951F92A2
:101EC0000F920FB60F9211240BB60F922F933F93E0
:101ED0004F935F936F937F938F939F93AF93BF9332
:101EE000EF93FF9386E995E01CDEFF91EF91BF91A0
:101EF000AF919F918F917F916F915F914F913F91A2
:101F00002F910F900BBE0F900FBE0F901F90189542
:101F1000E6E9F5E080EB92E0918380838DEC90E040
:101F2000938382838CEC90E09583848388EC90E0AB
:101F30009783868389EC90E0918780878AEC90E094
:101F4000938782878EEC90E0958784871786108A26
:101F5000118A128A08951F920F920FB60F921124C0
:101F60000BB60F922F938F939F93AF93BF93EF93E3
:101F7000FF93E091CF05F091D005808182FD14C0E0
:101F8000E9ECF5E0A485B5852C9187858F5F8F708E
:101F90009089891771F0DF01E785F0E0E753FA4F88
:101FA000238B1F968C9305C0E091D505F091D60543
:101FB0008081FF91EF91BF91AF919F918F912F9170
:101FC0000F900BBE0F900FBE0F901F9018951F9291
:101FD0000F920FB60F9211240BB60F922F933F93CF
:101FE0004F935F936F937F938F939F93AF93BF9321
:101FF000EF93FF9389EC95E094DDFF91EF91BF9112
:10200000AF919F918F917F916F915F914F913F9190
:102010002F910F900BBE0F900FBE0F901F90189531
:10202000E9ECF5E080EB92E09183808385ED90E030
:102030009383828384ED90E09583848380ED90E0A8
:102040009783868381ED90E09187808782ED90E091
:102050009387828786ED90E0958784871786108A1C
:10206000118A128A08951F920F920FB60F921124AF
:102070000BB60F922F938F939F93AF93BF93EF93D2
:10208000FF93E0910206F0910306808182FD14C067
:10209000ECEFF5E0A485B5852C9187858F5F8F7077
:1020A0009089891771F0DF01E785F0E0E450FA4F7D
:1020B000238B1F968C9305C0E0910806F0910906CA
:1020C0008081FF91EF91BF91AF919F918F912F915F
:1020D0000F900BBE0F900FBE0F901F9018951F9280
:1020E0000F920FB60F9211240BB60F922F933F93BE
:1020F0004F935F936F937F938F939F93AF93BF9310
:10210000EF93FF938CEF95E00CDDFF91EF91BF9182
:10211000AF919F918F917F916F915F914F913F917F
:102120002F910F900BBE0F900FBE0F901F90189520
:10213000ECEFF5E080EB92E09183808385E391E022
:102140009383828384E391E09583848380E391E0A9
:102150009783868381E391E09187808782E391E092
:102160009387828786E391E0958784871786108A14
:10217000118A128A0895CF92DF92EF92FF920F9305
:102180001F93FC01718360835383428335832483CF
:1021900017830683F186E086D386C28688EE93E0B5
:1021A0009587848797878687918B808B80ED97E0D2
:1021B000938B828B958B848B978B868B1F910F9142
:1021C000FF90EF90DF90CF900895FC01A281B38142
:1021D00082E08C93A481B5818AE18C930190F08197
:1021E000E02D80E49CE9918380830895DC011296C0
:1021F000ED91FC9113978081806880830895DC01C4
:102200001296ED91FC9113978081806280830895EE
:10221000DC011296ED91FC91139780818860808398
:1022200008950F931F93CF93DF93FC01C681D7814D
:102230000485158522893389201B310BA62FB0E038
:102240000E9429192FEF30E040E050E0D8D7DA01A2
:10225000C901800F911FA11DB11D9C01220F331FC9
:1022600039832883DF91CF911F910F9108950F93A8
:102270001F93CF93DF93FC01C085D1850685178519
:1022800024893589201B310BA62FB0E0E2D72FEF30
:1022900030E040E050E0B3D7DA01C901800F911F70
:1022A000A11DB11D9C01220F331F39832883DF91AB
:1022B000CF911F910F9108950F931F93CF93DF93A9
:1022C000FC01C285D3850089118926893789201BA5
:1022D000310BA62FB0E0BDD72FEF30E040E050E04B
:1022E0008ED7DA01C901800F911FA11DB11D9C017C
:1022F000220F331F39832883DF91CF911F910F91D4
:102300000895FC01758764870895FC0177876687C7
:102310000895FC01718B608B0895FC01738B628BB7
:102320000895FC01758B648B0895FC01778B668B97
:102330000895CF92DF92EF92FF920F931F930F2E8B
:10234000FCE8CF2ED12CF02D0F2EFAE8EF2EF12C39
:10235000F02D08E810E021E830E040E850E066E8C1
:1023600070E08FE296E007DF1F910F91FF90EF90F2
:10237000DF90CF900895CF92DF92EF92FF920F936C
:102380001F930F2EFCE9CF2ED12CF02D0F2EFAE942
:10239000EF2EF12CF02D08E910E021E930E040E9C2
:1023A00050E066E970E087E496E0E5DE1F910F916A
:1023B000FF90EF90DF90CF900895CF92DF92EF9251
:1023C000FF920F931F930F2EFCEACF2ED12CF02DEE
:1023D0000F2EFAEAEF2EF12CF02D08EA10E021EA98
:1023E00030E040EA50E066EA70E08FE596E0C3DE58
:1023F0001F910F91FF90EF90DF90CF900895CF92B3
:10240000DF92EF92FF920F931F930F2EFCE2CF2EDD
:10241000DD24D394F02D0F2EFAE2EF2EFF24F39457
:10242000F02D08E211E021E231E040E251E066E205
:1024300071E087E796E09FDE1F910F91FF90EF908C
:10244000DF90CF9008951092FC0681E08093FA0609
:102450001092F9068BB183608BB9E9EBF0E08081D3
:102460008E7F808380818D7F808388E48093B80015
:1024700085E48093BC000895413208F04CC09091EF
:10248000FC069111FCCF31E03093FC062093FA0654
:102490002FEF20938F061092D406240F2093D3069B
:1024A0003093FB062091FB06880F822B8093FB065E
:1024B0008091F906813081F41092F906ABEBB0E01F
:1024C000ECEBF0E08091FB068C93808183FDFACFEA
:1024D00085EC8093BC0003C085EE8093BC008091A6
:1024E000FC068130E1F38091D406841710F440910A
:1024F000D406442389F0E5EDF6E0A62FB72F2FEFA1
:10250000240F30E02A52394F81918D93E217F3075F
:10251000D9F7942F01C090E0892F08950F9341328D
:1025200008F057C03091FC063111FCCF92E0909337
:10253000FC060093FA069FEF90938F061092D40644
:102540004093D306442371F0FB01A5EDB6E0415062
:1025500050E04F5F5F4F640F751F91919D93E61799
:10256000F707D9F71092FB069091FB06880F892B8D
:102570008093FB068091F906813081F41092F90670
:10258000ABEBB0E0ECEBF0E08091FB068C9380814C
:1025900083FDFACF85EC8093BC0003C085EE809369
:1025A000BC00222341F08091FC06823021F480910E
:1025B000FC068230E1F380918F068F3F79F08091A5
:1025C0008F06803241F080918F06803331F034E005
:1025D00005C031E003C032E001C033E0832F0F912A
:1025E00008954091B106262F30E0240F311D21328D
:1025F0003105ECF42091FC062430D9F4662381F0F7
:10260000A82FB92F80E090E03091B1062D91FC0108
:10261000ED54F94FE30FF11D208301968617A0F3C7
:102620008091B106680F6093B10680E0089581E063
:10263000089582E008959093F6068093F506089534
:102640009093F8068093F706089585ED8093BC007B
:10265000ECEBF0E0808184FDFDCF1092FC06089544
:1026600085EC8093BC001092FC0608951F920F9297
:102670000FB60F9211240BB60F922F933F934F93E7
:102680005F936F937F938F939F93AF93BF93EF93DA
:10269000FF938091B900887F90E0893C910508F014
:1026A000EEC0FC018827EE58FF4F8F4FCAC58091BE
:1026B000FB068093BB0085EC8093BC00E0C090914A
:1026C000D4068091D306981780F4E091D40681E077
:1026D0008E0F8093D406F0E0EB52F94F8081809307
:1026E000BB0085EC8093BC00CAC08091FA068823A9
:1026F00011F0ABDFC4C081E08093F90684EA8093D7
:10270000BC001092FC06BBC080E280938F069DDF68
:10271000B6C080E380938F0698DFB1C088E38093D2
:102720008F069EDFACC0E091D40681E08E0F8093CF
:10273000D4068091BB00F0E0EB52F94F808390917A
:10274000D4068091D306981720F485EC8093BC00C2
:1027500096C085E88093BC0092C0E091D40681E0E9
:102760008E0F8093D4068091BB00F0E0EB52F94FBE
:1027700080838091FA06882311F067DF80C081E0B2
:102780008093F90684EA8093BC001092FC0677C01F
:102790005CDF75C083E08093FC061092900685ECA8
:1027A0008093BC006CC080919006803280F4E091F0
:1027B000900681E08E0F809390068091BB00F0E040
:1027C000EF56F94F808385EC8093BC0058C085E8B4
:1027D0008093BC0054C044DF80919006803230F476
:1027E000E0919006F0E0EF56F94F1082609190066C
:1027F00070E0E091F506F091F60681E996E0199512
:10280000109290063CC085E88093BC0038C084E0FC
:102810008093FC061092B2061092B106E091F70682
:10282000F091F80619958091B106811105C081E0FB
:102830008093B1061092B306E091B20681E08E0F4C
:102840008093B206F0E0ED54F94F80818093BB0095
:102850009091B2068091B106981720F485EC809390
:10286000BC000DC085E88093BC0009C085EC809356
:10287000BC001092FC0603C010928F06E6DEFF91AA
:10288000EF91BF91AF919F918F917F916F915F91E8
:102890004F913F912F910F900BBE0F900FBE0F9055
:1028A0001F9018958091270790E020912807821BA0
:1028B000910908959091280780912707981750F45F
:1028C000E92FF0E0E75DF84F208130E09F5F9093C3
:1028D000280702C02FEF3FEFC9010895E0912807B4
:1028E00080912707E81730F4F0E0E75DF84F80812A
:1028F00090E008958FEF9FEF08950895CF93DF93B1
:10290000EC01E091FF06F0910007309701F1909102
:102910002807809127079817D0F0161617068CF411
:1029200020E030E090E0DE01A90FB11D4C91D9010B
:10293000A75DB84F4C939F5F292F30E026173707CC
:1029400094F3CB0110922807609327071995DF9124
:10295000CF910895E0910107F0910207309729F097
:10296000109205071092040719950895CF93DF93ED
:102970001F92CDB7DEB7698380910307882399F052
:10298000809104078032B0F480910507E82FF0E0D1
:10299000EA5FF84F60838F5F809305078093040799
:1029A00081E090E009C061E0CE0101961ADE81E08D
:1029B00090E002C080E090E00F90DF91CF91089509
:1029C000CF92DF92EF92FF920F931F93CF93DF93FB
:1029D0008C01CB016A01209103072223A1F041154C
:1029E000510599F0EB017B01E40EF51E6991D801C8
:1029F000ED91FC910190F081E02DC8011995CE1563
:102A0000DF05A1F702C0642FECDDC601DF91CF9195
:102A10001F910F91FF90EF90DF90CF90089510924B
:102A200028071092270710920507109204070BDD64
:102A30008AEA94E105DE8EE794E1FDCD089581E018
:102A400080930307609326071092050710920407EE
:102A500008950F93062F21E04091040766E077E088
:102A6000809126075BDD10920507109204071092F3
:102A700003070F9108954F925F926F927F92AF92EA
:102A8000BF92CF92EF92FF920F931F93CF93DF935A
:102A90005C01F62ED42F28013901EE2039F1CFDF69
:102AA0008E2D843008F083E0CFEFC80F8823D9F053
:102AB0008C2F880F880F880FA301920104C05695B0
:102AC0004795379527958A95D2F7CA01B901D5015F
:102AD000ED91FC910190F081E02DC50119958C2FAD
:102AE000C1508111E5CF60E0C501B3DF4D2FD13278
:102AF00008F040E22C2D69E277E08F2DBDDC1092CA
:102B0000280780932707DF91CF911F910F91FF90A6
:102B1000EF90CF90BF90AF907F906F905F904F906D
:102B20000895CF92EF920F931F93C22EE12C00E0F5
:102B300010E09801A0DF1F910F91EF90CF900895C2
:102B400021E0EFCF089561E084CF089582EC92E018
:102B50009093FE068093FD06089521110DC04091CB
:102B60000002509101024D5F5F4FDC01ED91FC913D
:102B70000680F781E02D199508950895DC011296DD
:102B80002C91129726131AC01496ED91FC9115976B
:102B9000608113963C91362361E009F460E0FA010C
:102BA000DC0116968C9186278083E0910002F091DB
:102BB0000102228362E083E00C94B80B089590E058
:102BC000FC01EE0FFF1FE15AF84F20813181232BCA
:102BD00049F4880F991FFC01E15AF84F7183608313
:102BE00081E0089580E00895BC01FC018281E7CF77
:102BF0000895882311F02F9A08952F980895662339
:102C0000D1F0FC013081E32FF0E0EE0FFF1FE15A1D
:102C1000F84FA081B181109771F0262FAC0121509F
:102C20004F5F5F4FED91FC9111970280F381E02D92
:102C3000632FCD0119950895E8E5F7E084ED92E062
:102C400091838083128282E083838FE290E0958378
:102C5000848381E086838198899ABF0180E0AFDF19
:102C600042E061E089E497E0D7C00895EFE5F7E03E
:102C70008FE599E011921192E817F907D9F7279A91
:102C800068E577E080915A079ADF89E497E00DD0F4
:102C900081E0089560910002709101026D5F7F4FA5
:102CA00089E497E001C008950895CF93DF93EC0184
:102CB000BC018D8584DF882351F0BE018E857FDFC6
:102CC000882329F06CE0CE0102960E943E02DF913B
:102CD000CF910895EF92FF920F931F93CF93DF93BD
:102CE000CDB7DEB768970FB6F894DEBF0FBECDBF85
:102CF000F62E8A01DC011D96EC90E6120FC00296BA
:102D00000E94AB02F8018083E0910002F091010281
:102D1000E28262E083E00E94B80B71C0DC011E9683
:102D20002C9162136CC0BC016E5F7F4F48E0CE01F6
:102D300001960E940103FE013196AFE5B9E0CE0194
:102D40000D9641915191619171914D935D936D9368
:102D50007D93E817F907A9F7EFE5F9E020815181A4
:102D600042813381822F952FA42FB32F8D879E8789
:102D7000AF87B88BD8012C938E8511968C931197C1
:102D80008F8512968C931297888913968C93248141
:102D9000558146813781822F952FA42FB32F898BA0
:102DA0009A8BAB8BBC8BD80114962C9314978A8981
:102DB00015968C9315978B8916968C9316978C89FC
:102DC00017968C932085518542853385822F952FC8
:102DD000A42FB32F8D8B9E8BAF8BB88FF8012087DC
:102DE0008E8981878F898287888D8387E091000211
:102DF000F0910102F2826DE083E00E94B80B6896C8
:102E00000FB6F894DEBF0FBECDBFDF91CF911F91FB
:102E10000F91FF90EF900895EF92FF920F931F9301
:102E2000CF93DF93EC01E62EF42E20EE32E0FC018E
:102E300021933193CF010DEF16E028E247E350E0F4
:102E400060E070E00E94C901ED86FE86DF91CF91BF
:102E50001F910F91FF90EF9008958CE0EFE5F9E05E
:102E6000DF011D928A95E9F708950F931F930DEFE7
:102E700016E028E247E350E060E070E08BE699E07E
:102E80000E94C9011F910F910895CF92DF92EF9296
:102E9000FF920F931F93CF93DF9341155105C1F01C
:102EA0006A018C01E62EF72EC0E0D0E0D7016D91CB
:102EB0007D01D801ED91FC910190F081E02DC801D8
:102EC0001995892B39F02196CC16DD0679F702C0C9
:102ED000C0E0D0E0CE01DF91CF911F910F91FF9024
:102EE000EF90DF90CF9008956115710581F0FB019F
:102EF00001900020E9F73197AF01461B570BDC0129
:102F0000ED91FC910280F381E02D1995089580E008
:102F100090E00895DC01ED91FC910280F381E02DB9
:102F200042E050E068EE72E0199508950F931F9308
:102F3000CF93DF93EC01D8DF8C01CE01EBDF800F64
:102F4000911FDF91CF911F910F9108950CD0BAC0BE
:102F5000B2D040F0A9D030F021F45F3F19F09BC00F
:102F60005111E4C09EC0BFD098F39923C9F35523F3
:102F7000B1F3951B550BBB27AA276217730784076C
:102F800038F09F5F5F4F220F331F441FAA1FA9F322
:102F900033D00E2E3AF0E0E830D091505040E69514
:102FA000001CCAF729D0FE2F27D0660F771F881F75
:102FB000BB1F261737074807AB07B0E809F0BB0B64
:102FC000802DBF01FF2793585F4F2AF09E3F510588
:102FD00068F061C0ABC05F3FECF3983EDCF38695D0
:102FE00077956795B795F7959F5FC9F7880F911DFE
:102FF0009695879597F90895E1E0660F771F881FEA
:10300000BB1F621773078407BA0720F0621B730B9C
:10301000840BBA0BEE1F88F7E0950895E89409C079
:1030200097FB3EF490958095709561957F4F8F4FFB
:103030009F4F9923A9F0F92F96E9BB279395F69511
:10304000879577956795B795F111F8CFFAF4BB0F8F
:1030500011F460FF1BC06F5F7F4F8F4F9F4F16C0F3
:10306000882311F096E911C0772321F09EE8872F7D
:10307000762F05C0662371F096E8862F70E060E039
:103080002AF09A95660F771F881FDAF7880F9695B2
:10309000879597F9089597F99F6780E870E060E059
:1030A00008959FEF80EC089500240A9416161706E1
:1030B00018060906089500240A9412161306140629
:1030C00005060895092E0394000C11F4882352F08C
:1030D000BB0F40F4BF2B11F460FF04C06F5F7F4F44
:1030E0008F4F9F4F089557FD9058440F551F59F02B
:1030F0005F3F71F04795880F97FB991F61F09F3FE5
:1031000079F087950895121613061406551FF2CF0D
:103110004695F1DF08C0161617061806991FF1CF5D
:1031200086957105610508940895E894BB27662784
:103130007727CB0197F908950BD0C4CFB5DF28F0DE
:10314000BADF18F0952309F0A6CFABCF1124EECF4C
:10315000CADFA0F3959FD1F3950F50E0551F629FF2
:10316000F001729FBB27F00DB11D639FAA27F00DE0
:10317000B11DAA1F649F6627B00DA11D661F829F07
:103180002227B00DA11D621F739FB00DA11D621FEC
:10319000839FA00D611D221F749F3327A00D611D09
:1031A000231F849F600D211D822F762F6A2F1124EB
:1031B0009F5750408AF0E1F088234AF0EE0FFF1F3E
:1031C000BB1F661F771F881F91505040A9F79E3F75
:1031D000510570F060CFAACF5F3FECF3983EDCF36F
:1031E000869577956795B795F795E7959F5FC1F7B2
:1031F000FE2B880F911D9695879597F90895A1E26A
:103200001A2EAA1BBB1BFD010DC0AA1FBB1FEE1F60
:10321000FF1FA217B307E407F50720F0A21BB30BAB
:10322000E40BF50B661F771F881F991F1A9469F727
:1032300060957095809590959B01AC01BD01CF0183
:103240000895EE0FFF1F881F8BBF0790F691E02DAA
:103250001994A29FB001B39FC001A39F700D811D5F
:103260001124911DB29F700D811D1124911D08958F
:10327000FB01DC0102C005900D9241505040D8F78F
:103280000895FB01DC0104C08D910190801921F4A7
:1032900041505040C8F7881B990B0895FB01DC0191
:1032A0004150504048F001900D920020C9F701C0F4
:0E32B0001D9241505040E0F70895F894FFCF72
:1032BE002D03FFFFFFFF7069692D3031C0A8B201E9
:1032CE00A9FEF09D8001424E4F30353500000000C2
:1032DE0000830197048401FFFFFFFFFFFF0A496E81
:1032EE00697469616C697A696E672E2E2E0046616B
:1032FE00696C656420746F20696E697469616C69AC
:10330E007A6520726F626F742E00526F626F742036
:10331E00696E697469616C697A65642E00466169CB
:10332E006C656420746F20616363657373204574EC
:10333E006865726E657420636F6E74726F6C6C6507
:10334E00722E00436F6E6E656374656420746F2019
:10335E00636F6E74726F6C6C65722E0000000000ED
:10336E00DF0D45177F0DBC0D510D6B0D5D0D000072
:10337E000000B614E014980E7D1452145A146E14F4
:10338E0000000000F415AD15BD15BE1500000000BF
:10339E005516AD1554166A160D0A006E616E00694B
:0833AE006E66006F76660000F8
:00000001FF
