S0150000526F76436F6E74726F6C6C65722E73726563B4
S11300004CC100007BC1000079C1000077C1000031
S113001075C1000073C1000071C100006FC1000010
S11300206DC100006BC1000069C1000067C1000020
S113003065C1000063C1000061C100005FC1000030
S11300405DC100005BC1000059C1000057C1000040
S113005055C1000053C1000051C100004FC1000050
S11300604DC100000C947D0D0C94B90D47C10000E6
S113007045C1000043C1000041C100003FC1000070
S11300803DC100003BC1000039C1000037C1000080
S11300900C94050E0C94410E31C100000C94B01068
S11300A02DC100002BC1000029C1000027C10000A0
S11300B025C1000023C1000021C100001FC10000B0
S11300C01DC100001BC1000019C100000C948D0E5D
S11300D00C94C90E13C100000C94150F0C94510F0D
S11300E00DC10000B611B911B911B911B911B91185
S11300F0B911B911D110B911B911B911B911B91195
S1130100B911B911D110B911B911B911B911B91184
S1130110B911B911D910B911B911B911B911B9116C
S1130120B911B911FE10B911B911B911B911B91137
S1130130B911B911D910B911B911B911B911B9114C
S1130140B911B9110311B911B911B911B911B91111
S1130150B911B9110811B911B911B911B911B911FC
S1130160B911B9111911B911B911B911B911B911DB
S1130170B911B9114211B911B911B911B911B911A2
S1130180B911B9110D11B911B911B911B911B911C7
S1130190B911B9112711B911B911B911B911B9119D
S11301A0B911B9114411B911B911B911B911B91170
S11301B0B911B9114411B911B911B911B911B91160
S11301C0B911B9114411B911B911B911B911B91150
S11301D0B911B9114411B911B911B911B911B91140
S11301E0B911B9114D11B911B911B911B911B91127
S11301F0B911B9117D11B911B911B911B911B911E7
S1130200B911B9114D11B911B911B911B911B91106
S1130210B911B9117D11B911B911B911B911B911C6
S1130220B911B9116511B911B911B911B911B911CE
S1130230B911B9118111B911B911B911B911B911A2
S1130240B911B9118111B911B911B911B911B91192
S1130250B911B9119611B911B911B911B911B9116D
S1130260B911B911B011B911B911B911B911B91143
S1130270B911B911B01145000082000040002000FE
S113028001080006040001003005E20D6A0EF20EBA
S11302907A0F2013ED13E614EE1411241FBECFEFD2
S11302A0D1E2DEBFCDBF00E00CBF13E0A0E0B2E0BE
S11302B0E8E2FFE200E00BBF02C007900D92A63116
S11302C0B107D9F729E0A6E1B3E001C01D92A43338
S11302D0B207E1F711E0CDE4D1E000E006C02197D8
S11302E00109802FFE010E946517C434D10780E004
S11302F00807A9F70E94F60B0C94921781CE089573
S11303000F931F93CF93DF938C01EB0188E2FB01E2
S113031011928A95E9F74BE050E064E172E0CE0176
S11303200E9483171B8681E090E0A0E0B0E08C87F8
S11303309D87AE87BF87F80186819781A085B185A7
S1130340888B998BAA8BBB8B83E090E0A0E0B0E014
S11303508C8B9D8BAE8BBF8B1CA21DA21EA21FA2D9
S1130360188E198E1A8E1B8E1C8E1D8E1E8E1F8E3D
S11303708AE097EDA3E2BCE388A399A3AAA3BBA355
S1130380DF91CF911F910F9108950F931F93FC015B
S11303908FE192E0918380834683578360877187DE
S11303A02383158304831F910F9108950F931F9343
S11303B0CF93DF93EC01062F142F6B818C819D81E9
S11303C00E9499128C819D81DC01ED91FC91019038
S11303D0F081E02D602F19958C819D81DC01ED91D8
S11303E0FC910190F081E02D612F19958C819D8104
S11303F00E941D1381E0DF91CF911F910F91089509
S1130400462FFC0162876DE3D1DFFFEF26E781E031
S1130410F15020408040E1F700C0000008951F9390
S1130420CF93DF93EC01162F6B818C819D810E9409
S113043099128C819D81DC01ED91FC910190F081F8
S1130440E02D612F19958C819D810E941D1341E03F
S11304506B818C819D810E941A138C819D81DC01AA
S1130460ED91FC910284F385E02D1995DF91CF91F4
S11304701F9108951F93CF93DF93EC01162F8C8166
S11304809D810E94891260E0CE01C9DF803A79F033
S11304902FEF83ED90E3215080409040E1F700C0BE
S11304A0000060E0CE01BBDF803A09F04BC060E0A1
S11304B0CE01A6DF40E26FE3CE0178DF2FEF86E7BF
S11304C091E0215080409040E1F700C0000060E0DE
S11304D0CE01A5DF803A39F08FE39CE90197F1F76B
S11304E000C00000F4CF9FEF20E782E0915020404D
S11304F08040E1F700C0000040E06EE3CE0156DF2B
S11305008FE39CE90197F1F700C0000040E067E049
S1130510CE014CDF40E06FE3CE0148DF8FE39CE97E
S11305200197F1F700C00000612FCE0169DF9FEF52
S113053029EF80E0915020408040E1F700C00000A6
S113054081E001C080E0DF91CF911F91089564E3C1
S113055066CF0895CF92DF92EF92FF920F931F938D
S1130560CF93DF937C01C62F6A01122FDC0113960F
S11305706C91139714968D919C9115970E949912E2
S1130580F70184819581DC01ED91FC910190F0816A
S1130590E02D6C2F1995F701848195810E941D131C
S11305A0412FD70113966C91139714968D919C91BA
S11305B015970E941A131123B1F0E6011150012F6F
S11305C010E00F5F1F4F0C0D1D1DF70184819581F5
S11305D0DC01ED91FC910284F385E02D199589935A
S11305E0C017D10791F781E0DF91CF911F910F914F
S11305F0FF90EF90DF90CF900895AF92BF92CF928B
S1130600DF92FF920F931F93CF93DF9300D000D01C
S1130610CDB7DEB78C01CB01F42E2CE0F80111929A
S11306202A95E9F7AE014F5F5F4F26E0FA01119278
S11306302A95E9F726E06F2D8DDF6A8170E0762F29
S113064066278981682B8C8190E0982F88272B81DD
S11306506C01C22A8E8190E0982F88272D815C013D
S1130660A22AF4E1FF1609F44AC0FF1540F088E01D
S1130670F81609F4ACC0EEE0FE1669F043C1F8E2E6
S1130680FF1609F4D8C08EE2F81609F408C1EAE1AD
S1130690FE1238C168C0072E000C880B990B0E940B
S11306A0541620E030E040E85DE30E94E016F801D3
S11306B06083718382839383B601DD0C880B990B6D
S11306C00E94541620E030E040E85DE30E94E0160A
S11306D0F8016483758386839783B501BB0C880B0B
S11306E0990B0E94541620E030E040E85DE30E943C
S11306F0E016F801608771878287938703C1072E0C
S1130700000C880B990B0E94541620E030E040E85E
S11307105DE30E94E016F801608371838283938312
S1130720B601DD0C880B990B0E94541620E030E0D2
S113073040E85DE30E94E016F801648375838683D4
S11307409783B501BB0C880B990B0E94541620E0CB
S113075030E040E85DE30E94E016F80160877187AD
S113076082879387CFC0072E000C880B990B0E94B9
S1130770541620E030E040E85DE30E94E016F80102
S11307806083718382839383B601DD0C880B990B9C
S11307900E94541620E030E040E85DE30E94E01639
S11307A0F8016483758386839783B501BB0C880B3A
S11307B0990B0E94541620E030E040E85DE30E946B
S11307C0E016F80160877187828793879BC0072EA4
S11307D0000C880B990B0E94541620E030E048EC82
S11307E052E40E94EA15F801608371838283938343
S11307F0B601DD0C880B990B0E94541620E030E002
S113080048EC52E40E94EA15F801648375838683F8
S11308109783B501BB0C880B990B0E94541620E0FA
S113082030E048EC52E40E94EA15F80160877187D1
S11308308287938767C0072E000C880B990B0E9450
S1130840541620E030E048EC52E40E94EA15F80126
S11308506083718382839383B601DD0C880B990BCB
S11308600E94541620E030E048EC52E40E94EA155D
S1130870F8016483758386839783B501BB0C880B69
S1130880990B0E94541620E030E048EC52E40E9498
S1130890EA15F801608771878287938733C0072E32
S11308A0000C880B990B0E94541620E030E048ECB1
S11308B052E40E94EA15F801608371838283938372
S11308C0B601DD0C880B990B0E94541620E030E031
S11308D048EC52E40E94EA15F80164837583868328
S11308E09783B501BB0C880B990B0E94541620E02A
S11308F030E048EC52E40E94EA15F8016087718701
S113090082879387C80126960FB6F894DEBF0FBE80
S1130910CDBFDF91CF911F910F91FF90DF90CF90CA
S1130920BF90AF9008950F931F93CF93DF93CDB7EC
S1130930DEB72C970FB6F894DEBF0FBECDBF8B0188
S113094020E2FB0111922A95E9F740E250E060E0D1
S113095070E0F8014083518362837383FC01468114
S1130960578160857185F801448355836683778355
S113097043E050E060E070E040875187628773870E
S11309804AE1BC01CE01019638DE89819A81AB81AE
S1130990BC81F801808B918BA28BB38B8D819E815E
S11309A0AF81B885848B958BA68BB78B89859A8507
S11309B0AB85BC85808F918FA28FB38F81E02C96FD
S11309C00FB6F894DEBF0FBECDBFDF91CF911F915C
S11309D00F910895613049F4FC018081E091160380
S11309E0F0911703808380E0BFC6089540911603F9
S11309F0309117032FEF260F662341F0A82FB92F4C
S1130A00E42FF32F8D9181932150E0F781E0ACC660
S1130A100895613051F4FC019081923030F481E00A
S1130A20911101C080E00C948D1308959B018130D5
S1130A3051F028F0823059F0833069F00895642F22
S1130A40C901C8CF0895642FC901D0CF0895642F78
S1130A50C901DFCF0895642FC9010C94931308953D
S1130A608091000290910102029690931703809363
S1130A7016030895E0911C03F0911D039081809169
S1130A801B038095892380830895E0911C03F091D2
S1130A901D03908180911B03892B80830895CF933C
S1130AA0DF93D82FC62FE6DF8C2FCF71CD2BCEBD91
S1130AB000000DB407FEFDCF1EBC00000DB407FE00
S1130AC0FDCFCEB5882334F41EBC00000DB407FE60
S1130AD0FDCFCEB5DADF8C2FDF91CF9108951F9330
S1130AE0CF93DF93C82FD62F142FC4DFDF71CD2B04
S1130AF0CEBD00000DB407FEFDCF1EBD00000DB439
S1130B0007FEFDCFC2DFDF91CF911F9108950F93B0
S1130B101F93CF93DF93EC018B01ACDF209799F007
S1130B208AE38EBD00000DB407FEFDCFF801B801C5
S1130B306C0F7D1F1EBC0DB407FEFDCF9EB59193B7
S1130B406E177F07B9F7A1DFDF91CF911F910F9146
S1130B5008951F93CF93DF93182F1076C12FD0E001
S1130B6080911E0390E0C817D907A1F043E06FE11C
S1130B7080EAB5DF10931E03AE0155954795559550
S1130B8047955595479555954795559547956FE1E3
S1130B9080E8A5DFDF91CF911F910895CF93C82FEF
S1130BA0D8DF6C2F80E07BDFCF910895CF93DF9364
S1130BB0C82FD62FCEDF4D2F6C2F80E490DFDF912E
S1130BC0CF910895CF93DF93C82FD72FEFDF6D2FE9
S1130BD081E08C0FEBDFDF91CF910895FC0194B19C
S1130BE0976094B923989DB591609DBD9CB590651F
S1130BF09CBD808190911B03982B908346CF0895D0
S1130C000F93CF93DF93EB019093200380931F0303
S1130C1000931B0330931D0320931C03CA01DEDFE2
S1130C204FEF60E08FEF5BDF8FE39FE10197F1F718
S1130C3000C000006DE180E032DF8823D9F360E07A
S1130C4070E088E0BFDF60E070E08CE0BBDF6FEF56
S1130C507BE08AE0B7DF60E07CE084E0B3DF6FEF45
S1130C6071E186E0AFDF61EB88E3A0DF6FE370E35F
S1130C7088E2A8DF69EF77EF80E3A4DF61E080EC2E
S1130C8095DF42E362EC80E82ADF62E17CE086ECF7
S1130C9099DF62E184EC8ADF6CED75E08AEC92DF27
S1130CA0688184EE83DF698185EE80DF6A8182EE6C
S1130CB07DDF6B8183EE7ADF6C8180EE77DF6D817F
S1130CC081EE74DF60E184ED71DF60E071E086ED58
S1130CD079DF8AEE63DF80FDFCCF8FE13ADF40EC01
S1130CE06BE180E8FCDE44E06FE180E8F8DE82E757
S1130CF055DF863008F08F5FDF91CF910F91089513
S1130D0061E184ED53DF61E082ED50DF8AEE46DF7E
S1130D1080FDFCCF60E082ED49DF89ED3FDF82FB9F
S1130D20882780F90895AF92BF92CF92DF92EF9215
S1130D30FF920F931F93CF93DF937C016C0184EF99
S1130D40D81A0F2EF1E2AF2EF3E0BF2EF02D87015B
S1130D500F5D1C4F40E86FE180E8C1DE40E86FE1C1
S1130D6080EABDDE4AE06CE180EAB9DE60E07CE066
S1130D7082E028DFB60186E025DF40E060E08AE714
S1130D80AEDE78DEE114F104E1F08AE78EBD000006
S1130D900DB407FEFDCFF50180818EBDF1E0EF16A5
S1130DA0F10459F0E2E2F3E000000DB407FEFDCFD8
S1130DB081918EBDE017F107B9F700000DB407FE6D
S1130DC0FDCF63DE48E06FE180E889DEC0E0D0E07B
S1130DD08CE1E4DE8A7031F42196C83E83E0D807C2
S1130DE0B9F70CC08CE1DADE81FD03C0C83ED34004
S1130DF040F048E06FE180EA72DEACCF8CE1CEDEF9
S1130E00F8CFDF91CF911F910F91FF90EF90DF907A
S1130E10CF90BF90AF9008950F931F93CF93DF931C
S1130E2000D000D0CDB7DEB780911A03882391F0AB
S1130E3060911803709119036115710529F46FEF1E
S1130E407BE08CE0BFDE04C0615071098CE0BADE47
S1130E5010921A0389E3A2DE8823A9F16091180392
S1130E607091190380E0AEDEBE016F5F7F4F86E0B4
S1130E7090E04DDE89819A81909319038093180341
S1130E808D8187FF12C080911F03909120030197E9
S1130E900B811C81045011098017910708F48C01FF
S1130EA061E273E0C80133DE02C000E010E0F80143
S1130EB0EF5DFC4F108281E080931A0340E46EE101
S1130EC080E80DDE02C000E010E0C80126960FB6EF
S1130ED0F894DEBF0FBECDBFDF91CF911F910F916C
S1130EE00895EF92FF920F93CF93DF93EB017A0172
S1130EF0022FBC018BE395E0C9D39701AE016BE3EC
S1130F0075E080E092E07CDEDF91CF910F91FF905D
S1130F10EF900895EF92FF920F931F93CF93DF9377
S1130F207B018A01E901009721F0BC0187E395E088
S1130F30A0D3E114F10411F0C701BDD101151105CD
S1130F4021F0B80187E295E094D3209721F0BE0107
S1130F5083E395E08ED3BBD1109222051092210534
S1130F6081E0DF91CF911F910F91FF90EF90089551
S1130F70CF92DF92EF92FF92CF93DF93C62FD0E010
S1130F80CF5DDC4F213081F46A0199E0C90ED11C98
S1130F90E12CF12C03C0C12CD12C76014230510537
S1130FA028F1FE01DA0109C02230A9F76A0192E0B2
S1130FB0C91AD108E12CF12CF1CF208130E0322F75
S1130FC022279181292BC20ED31EE11CF11C3296DB
S1130FD01297A230B10588F79A01225031092E7F69
S1130FE02E5F3F4FC20FD31F41705527452B61F031
S1130FF0488150E060E070E0762F652F542F44273D
S1131000C40ED51EE61EF71EA701662777274115D5
S113101051056105710571F0EE24FF24C40ED51E3F
S1131020E61EF71EA70166277727411551056105BE
S1131030710591F7C094D094E82FF0E0EF5DFC4F78
S1131040D082C182DF91CF91FF90EF90DF90CF905B
S11310500895CF93DF93FC0120812223D1F0FB017B
S113106030813323C1F02327309133052323A9F49E
S1131070DC0111963196C4E3D5E004964D9121919B
S113108039912427232359F4A817B907B9F781E024
S113109007C080E005C080E003C080E001C080E0BC
S11310A0DF91CF910895E1E2F3E0108E118E80E498
S11310B0848B158A868B20E044E150E06EE088E161
S11310C057CF0895BC0181E293E0E0D26BE375E071
S11310D087E293E0DBC2089587E293E0F3DF6BE3FA
S11310E073E08FE393E0C5D267E375E08BE393E0AD
S11310F0C0D2D9CF0895CF93DF93EB01E3DFBE01D4
S11311008FE393E0B6D267E375E08BE393E0B1D26B
S1131110DF91CF910895CF93DF93EB0144E050E04A
S1131120BC018DE393E00E947617892B31F467E3C9
S113113073E0CE01ABD281E001C080E0DF91CF91BA
S113114008950F931F93CF938C0185E292E0BADF49
S1131150E1E2F3E088E08487C6E0C58748E050E038
S11311606FE772E08FE293E00E946D17E1E4F3E031
S1131170DF011D92CA95E9F76BE375E087E393E01D
S113118085D2B80187E493E074D267E375E08DE318
S113119093E06FD28AE290E0C6DDCF911F910F9168
S11311A00895EF92FF920F931F93CF93DF93182F1D
S11311B0092FEB01F42EE52E87E395E04ADF88231F
S11311C029F0BE018CE495E096DF04C0BE0182E400
S11311D095E091DF8881807F803E91F088819981BC
S11311E0AA81BB818F3F9F4FAF4FBF4F49F044E06F
S11311F050E0BE018FE295E00E947617892B29F416
S113120065E272E081E293E041D2C1E2D3E088E09A
S11312108C871D8649E050E066E772E08FE293E038
S11312200E946D17188A81E18F8BECA2FDA20AA39C
S11312301BA31EA218A619A6DF91CF911F910F918F
S1131240FF90EF9008950F931F93CF93DF93EC01DA
S113125001E213E04C96F801908B818B24DFCE01E0
S11312600896F80196A387A3AE01405F5F4F21E083
S11312706AE188E27DDECE018A9655DDDF91CF9169
S11312801F910F9108950F931F93CF93DF93D62F40
S1131290C72FCA01A801B90184DF8D2F9C2F81308B
S11312A022E0920710F080E092E0CDDFDF91CF9151
S11312B01F910F910895109222051092210521E0AB
S11312C020934105BC018BE295E0D3C10895CF93EF
S11312D0DF93E7E3F5E0C3E3D5E0AFE2B5E02BE36A
S11312E035E0919189918095892B8D93E217F307CD
S11312F0C1F7DF91CF910895CF93DF93EC0100976D
S113130009F03FC080914105857089F080912105E5
S113131090912205892B59F4F3DC882341F08BE268
S113132095E00FDF809141058860809341058091AD
S11313302105909122050196909322058093210521
S113134067E275E087E395E084DE882349F08091C5
S11313504A05811105C080914B05882309F4DCC03E
S113136063E275E087E395E074DE882309F4F8C04E
S1131370809148058111F4C0809149058111F0C024
S1131380D2C08932910508F4D5C080912D038830EC
S113139009F0E6C080912E03863009F0DDC044E0F8
S11313A050E067E375E087E493E00E947617892BA9
S11313B009F0D2C0C3C087E293E084DEE1E2F3E047
S11313C0148A82E0858B67E373E081E493E05ED165
S11313D06BE375E087E393E059D16DE373E087E451
S11313E093E047D167E375E08DE393E042D18AE26D
S11313F090E099DC8091410583FF0EC08091360313
S1131400823051F462E475E08BE295E084DE882357
S113141019F082E08093410580914A05811110C042
S113142080914B05882361F06CE475E087E295E0D8
S113143072DE882329F081E080934A0510924B05DF
S11314408091480581118CC080914905882309F455
S113145087C06CE475E083E295E05DDE882309F4DF
S11314607FC081E0809348051092490579C080913E
S11314702D03883009F074C080912E03811170C04F
S113148080912F03853409F06BC044E050E067E39A
S113149075E08FE393E00E947617892B09F454C01A
S11314A044E050E06FE275E08FE393E00E9476172A
S11314B0892B09F449C044E050E065E272E08FE30F
S11314C093E00E947617892B09F04AC03DC08091B1
S11314D043038830C9F4E0915205F09153053097E5
S11314E019F08BE393E01995F7DDE1E2F3E012A242
S11314F084A1883F18F095A19F5F95A3885F80938E
S11315004503CE0110DC2CC04AD0882349F18091D8
S11315103803813129F51DC087E295E012DE81E0B0
S113152080934B051DCF83E295E00BDE81E0809331
S1131530490516C08A9708F09ACF12C080913603E5
S1131540813009F057CF37CF809138038130E1F6ED
S1131550BECFCE012BD004C0CA32D10508F08CCF47
S113156080E090E0DF91CF9108959C019091540523
S11315709830A0F4E92FF0E0AF01440F551F440F59
S1131580551FE40FF51FEB5AFA4F31832083738301
S1131590628381E084839F5F90935405089581E082
S11315A090915405911101C080E008958F929F920B
S11315B0BF92CF92DF92EF92FF920F931F93CF933C
S11315C0DF9380915405882309F446C0C5E5D5E02E
S11315D0E12CF12C80E00F2EF1E2CF2EF3E0DF2E90
S11315E0F02DBB24B394AA81BB81F60124A130E081
S11315F04B2F55272417350721F525A130E0AD01E0
S1131600552724173507E9F49C819923D1F007A1C4
S113161010E00850110986A190E0982F8827080F40
S1131620191F42A150E0542F442783A1482B8880DE
S113163099802BE433E06BE373E0CD01F401199559
S11316408B2DFFEFEF1AFF0A25962091540530E009
S1131650E216F30644F201C080E0DF91CF911F91BE
S11316600F91FF90EF90DF90CF90BF909F908F905D
S11316700895FB0120813181FC0131832083FB012A
S113168022813381FC01338322830895DC0196E0B7
S1131690FB0101900D929A95E1F70895FC012081D8
S11316A0DC0112968181922F980F3FEF360F66234B
S11316B061F0FD01832F2191920F8150E0F7232FD8
S11316C030E02F5F3F4FA20FB31F81E02C9129130D
S11316D080E008950F931F93CF93DF93A8014350A5
S11316E051094F3F510509F088F4F90180818F3F7A
S11316F069F4E9010350602FC901D0DF882331F078
S1131700BE016E5F7F4F402F898190D9DF91CF91C9
S11317101F910F9108950F93CF93DF93EC01CA01AA
S1131720A901202FD0938005C0937F0570937E0577
S113173060937D05BC0186E092E0D3DB882379F0D9
S113174020E030E040E050E06CE072E080E192E0C4
S1131750E1DBBE018AE69BE008DF81E001C080E0B6
S1131760DF91CF910F9108950F931F93CF93DF9340
S1131770E0910002F09101029FEF9083E09100025A
S1131780F091010281838150C0910002D091010245
S1131790DE0112964FEF460F662381F0FD0150E003
S11317A09A012D5F3F4F2C0F3D1F9191890FE21736
S11317B0F307D9F74F5F5F4FA40FB51F8C930091C8
S11317C07D0510917E0540917F055091800570E064
S11317D06D5F7F4F22E032E0809100029091010220
S11317E052DDDF91CF911F910F910895789426E0F7
S11317F040E855E260E070E081E895E016D16BE2E4
S113180072E081E895E00E9457150E940614811148
S113181007C06CE372E081E895E00E945715FFCFA2
S113182068E572E081E895E00E94571501E025E241
S113183030E044E250E062E777E181E797E16BDF73
S1131840811107C06BE672E081E895E00E945715AC
S1131850FFCF61E972E081E895E00E945715DCDA78
S11318604BDDE8D7FCCFFC0197852089892F90E0D8
S1131870805C9F4F821B91098F7399270895FC0107
S113188097858089981731F08089E80FF11D838945
S113189090E008958FEF9FEF0895FC01978580896C
S11318A0981761F08089DF01A80FB11D53968C91C0
S11318B090899F5F9F73908B90E008958FEF9FEFC7
S11318C00895FC0121893289231738F08FE390E0D1
S11318D0821B9109830F911D0895832F90E0821B31
S11318E0910901970895FC018289DF01A80FB11DB8
S11318F0AD5ABF4F8C91228930E02F5F3F4F2F7339
S11319003078332334F421503109206C3F6F2F5F3A
S11319103F4F228BA485B5858C93A681B7818C918A
S1131920837080648C9391898289981306C00084A3
S1131930F185E02D80818F7D80830895CF93DF939F
S1131940EC018E858823D1F0E885F985808185FDB9
S113195005C0AE81BF818C9186FD10C00FB607FC17
S1131960F5CF808185FFF2CF03C0CE01BCDFECCF81
S1131970AE81BF818C9185FFE9CFF7CFDF91CF9105
S113198008950F931F93CF93DF93EC0181E08E872B
S113199099898A89981325C0EE81FF81808185FD0C
S11319A031C01FC08A8918130BC00FB607FCFACFC9
S11319B0EE81FF81808185FFF5CFCE0194DFF2CFE8
S11319C08989FE01E80FF11DED5AFF4F00839FB78F
S11319D0F894198BE885F9858081806280839FBFA4
S11319E01DC0298930E02F5F3F4F2F733078332398
S11319F034F421503109206C3F6F2F5F3F4F062F85
S1131A00122FD0CF9FB7F894EC85FD856083EE81CB
S1131A10FF8180818370806480839FBF81E090E038
S1131A20DF91CF911F910F910895CF92DF92EF92A2
S1131A30FF921F93CF93DF93EC016A017B01122F76
S1131A40EE81FF8182E080834115514E610571056D
S1131A50B1F060E079E08DE390E0A70196010E9487
S1131A604317DA01C9010197A109B109B695A795F0
S1131A70979587959C01211580E13807A8F0EE81A0
S1131A80FF81108260E874E88EE190E0A70196017E
S1131A900E944317DA01C9010197A109B109B6955A
S1131AA0A795979587959C01EA81FB813083EC810A
S1131AB0FD8120831E86EA85FB851083E885F985F0
S1131AC0808180618083E885F98580818860808356
S1131AD0E885F985808180688083E885F98580813F
S1131AE08F7D8083DF91CF911F91FF90EF90DF90E6
S1131AF0CF90089580E090E008951F920F920FB662
S1131B000F9211240BB60F922F938F939F93AF9341
S1131B10BF93EF93FF93E0918705F091880580814F
S1131B2082FD14C0E1E8F5E0A485B5852C91878594
S1131B308F5F8F709089891771F0DF01E785F0E07E
S1131B40EF57FA4F238B1F968C9305C0E0918D05B8
S1131B50F0918E058081FF91EF91BF91AF919F919C
S1131B608F912F910F900BBE0F900FBE0F901F906F
S1131B7018951F920F920FB60F9211240BB60F9265
S1131B802F933F934F935F936F937F938F939F9381
S1131B90AF93BF93EF93FF9381E895E0A4DEFF91A9
S1131BA0EF91BF91AF919F918F917F916F915F91D1
S1131BB04F913F912F910F900BBE0F900FBE0F903E
S1131BC01F901895E1E8F5E08EEA92E09183808316
S1131BD085EC90E09383828384EC90E09583848306
S1131BE080EC90E09783868381EC90E091878087F6
S1131BF082EC90E09387828786EC90E095878487D7
S1131C001786108A118A128A08951F920F920FB6AE
S1131C100F9211240BB60F922F938F939F93AF9330
S1131C20BF93EF93FF93E091BA05F091BB058081D8
S1131C3082FD14C0E4EBF5E0A485B5852C9187857D
S1131C408F5F8F709089891771F0DF01E785F0E06D
S1131C50EC54FA4F238B1F968C9305C0E091C0057A
S1131C60F091C1058081FF91EF91BF91AF919F9158
S1131C708F912F910F900BBE0F900FBE0F901F905E
S1131C8018951F920F920FB60F9211240BB60F9254
S1131C902F933F934F935F936F937F938F939F9370
S1131CA0AF93BF93EF93FF9384EB95E01CDEFF911A
S1131CB0EF91BF91AF919F918F917F916F915F91C0
S1131CC04F913F912F910F900BBE0F900FBE0F902D
S1131CD01F901895E4EBF5E08EEA92E091838083FF
S1131CE08DEC90E0938382838CEC90E095838483E5
S1131CF088EC90E09783868389EC90E091878087D5
S1131D008AEC90E0938782878EEC90E095878487B5
S1131D101786108A118A128A08951F920F920FB69D
S1131D200F9211240BB60F922F938F939F93AF931F
S1131D30BF93EF93FF93E091ED05F091EE05808161
S1131D4082FD14C0E7EEF5E0A485B5852C91878566
S1131D508F5F8F709089891771F0DF01E785F0E05C
S1131D60E951FA4F238B1F968C9305C0E091F3053C
S1131D70F091F4058081FF91EF91BF91AF919F9114
S1131D808F912F910F900BBE0F900FBE0F901F904D
S1131D9018951F920F920FB60F9211240BB60F9243
S1131DA02F933F934F935F936F937F938F939F935F
S1131DB0AF93BF93EF93FF9387EE95E094DDFF918C
S1131DC0EF91BF91AF919F918F917F916F915F91AF
S1131DD04F913F912F910F900BBE0F900FBE0F901C
S1131DE01F901895E7EEF5E08EEA92E091838083E8
S1131DF085ED90E09383828384ED90E095838483E2
S1131E0080ED90E09783868381ED90E091878087D1
S1131E1082ED90E09387828786ED90E095878487B2
S1131E201786108A118A128A08951F920F920FB68C
S1131E300F9211240BB60F922F938F939F93AF930E
S1131E40BF93EF93FF93E0912006F09121068081E8
S1131E5082FD14C0EAE1F6E0A485B5852C9187855E
S1131E608F5F8F709089891771F0DF01E785F0E04B
S1131E70E65EF94F238B1F968C9305C0E0912606EE
S1131E80F09127068081FF91EF91BF91AF919F91CF
S1131E908F912F910F900BBE0F900FBE0F901F903C
S1131EA018951F920F920FB60F9211240BB60F9232
S1131EB02F933F934F935F936F937F938F939F934E
S1131EC0AF93BF93EF93FF938AE196E00CDDFF910C
S1131ED0EF91BF91AF919F918F917F916F915F919E
S1131EE04F913F912F910F900BBE0F900FBE0F900B
S1131EF01F901895EAE1F6E08EEA92E091838083E0
S1131F0085E391E09383828384E391E095838483E2
S1131F1080E391E09783868381E391E091878087D2
S1131F2082E391E09387828786E391E095878487B3
S1131F301786108A118A128A08951092BA0681E0CF
S1131F408093B8061092B7068BB183608BB9E9EB26
S1131F50F0E080818E7F808380818D7F808388E420
S1131F608093B80085E48093BC000895413208F062
S1131F704CC09091BA069111FCCF31E03093BA066F
S1131F802093B8062FEF20934D0610929206240F4B
S1131F90209391063093B9062091B906880F822BBD
S1131FA08093B9068091B706813081F41092B70608
S1131FB0ABEBB0E0ECEBF0E08091B9068C93808160
S1131FC083FDFACF85EC8093BC0003C085EE80933B
S1131FD0BC008091BA068130E1F3809192068417A7
S1131FE010F440919206442389F0E3E9F6E0A62F29
S1131FF0B72F2FEF240F30E02C56394F81918D935A
S1132000E217F307D9F7942F01C090E0892F0895C0
S11320100F93413208F057C03091BA063111FCCF0A
S113202092E09093BA060093B8069FEF90934D0602
S11320301092920640939106442371F0FB01A3E9A8
S1132040B6E0415050E04F5F5F4F640F751F9191B0
S11320509D93E617F707D9F71092B9069091B90640
S1132060880F892B8093B9068091B706813081F45B
S11320701092B706ABEBB0E0ECEBF0E08091B90660
S11320808C93808183FDFACF85EC8093BC0003C0E0
S113209085EE8093BC00222341F08091BA06823001
S11320A021F48091BA068230E1F380914D068F3F8E
S11320B079F080914D06803241F080914D06803355
S11320C031F034E005C031E003C032E001C033E058
S11320D0832F0F91089540916F06262F30E0240F2F
S11320E0311D21323105ECF42091BA062430D9F4A3
S11320F0662381F0A82FB92F80E090E030916F061D
S11321002D91FC01EF58F94FE30FF11D2083019647
S11321108617A0F380916F06680F60936F0680E0C6
S1132120089581E0089582E008959093B406809321
S1132130B30608959093B6068093B506089585ED89
S11321408093BC00ECEBF0E0808184FDFDCF109225
S1132150BA06089585EC8093BC001092BA060895DF
S11321601F920F920FB60F9211240BB60F922F935A
S11321703F934F935F936F937F938F939F93AF930B
S1132180BF93EF93FF938091B900887F90E0893CDF
S1132190910508F0EEC0FC018827EE58FF4F8F4FE1
S11321A094C68091B9068093BB0085EC8093BC00F3
S11321B0E0C09091920680919106981780F4E09186
S11321C0920681E08E0F80939206F0E0ED56F94F6F
S11321D080818093BB0085EC8093BC00CAC0809151
S11321E0B806882311F0ABDFC4C081E08093B70642
S11321F084EA8093BC001092BA06BBC080E280934C
S11322004D069DDFB6C080E380934D0698DFB1C0D4
S113221088E380934D069EDFACC0E091920681E096
S11322208E0F809392068091BB00F0E0ED56F94F3B
S113223080839091920680919106981720F485EC02
S11322408093BC0096C085E88093BC0092C0E09166
S1132250920681E08E0F809392068091BB00F0E09D
S1132260ED56F94F80838091B806882311F067DF1B
S113227080C081E08093B70684EA8093BC0010920A
S1132280BA0677C05CDF75C083E08093BA0610920B
S11322904E0685EC8093BC006CC080914E06803263
S11322A080F4E0914E0681E08E0F80934E0680917B
S11322B0BB00F0E0E15BF94F808385EC8093BC00C8
S11322C058C085E88093BC0054C044DF80914E061A
S11322D0803230F4E0914E06F0E0E15BF94F108279
S11322E060914E0670E0E091B306F091B4068FE47D
S11322F096E0199510924E063CC085E88093BC0088
S113230038C084E08093BA061092700610926F066B
S1132310E091B506F091B606199580916F0681118A
S113232005C081E080936F0610927106E0917006FB
S113233081E08E0F80937006F0E0EF58F94F8081B2
S11323408093BB009091700680916F06981720F4DB
S113235085EC8093BC000DC085E88093BC0009C067
S113236085EC8093BC001092BA0603C010924D060F
S1132370E6DEFF91EF91BF91AF919F918F917F9195
S11323806F915F914F913F912F910F900BBE0F90E2
S11323900FBE0F901F9018958091E50690E0209154
S11323A0E606821B910908959091E6068091E50660
S11323B0981750F4E92FF0E0E951F94F208130E00B
S11323C09F5F9093E60602C02FEF3FEFC901089587
S11323D0E091E6068091E506E81730F4F0E0E95173
S11323E0F94F808190E008958FEF9FEF089508954D
S11323F0CF93DF93EC01E091BD06F091BE063097D8
S113240001F19091E6068091E5069817D0F0161632
S113241017068CF420E030E090E0DE01A90FB11D36
S11324204C91D901A951B94F4C939F5F292F30E0AA
S11324302617370794F3CB011092E6066093E5065E
S11324401995DF91CF910895E091BF06F091C006F0
S1132450309729F01092C3061092C2061995089578
S1132460CF93DF931F92CDB7DEB769838091C10606
S1132470882399F08091C2068032B0F48091C3061B
S1132480E82FF0E0EC53F94F60838F5F8093C3062D
S11324908093C20681E090E009C061E0CE0101961C
S11324A01ADE81E090E002C080E090E00F90DF91BE
S11324B0CF910895CF92DF92EF92FF920F931F93E3
S11324C0CF93DF938C01CB016A012091C1062223B3
S11324D0A1F04115510599F0EB017B01E40EF51EC5
S11324E06991D801ED91FC910190F081E02DC80132
S11324F01995CE15DF05A1F702C0642FECDDC601E6
S1132500DF91CF911F910F91FF90EF90DF90CF90CB
S113251008951092E6061092E5061092C3061092F2
S1132520C2060BDD84E292E105DE88EF91E1FDCD88
S1132530089581E08093C1066093E4061092C30677
S11325401092C20608950F93062F21E04091C2060F
S113255064EC76E08091E4065BDD1092C306109291
S1132560C2061092C1060F9108954F925F926F9226
S11325707F92AF92BF92CF92EF92FF920F931F93ED
S1132580CF93DF935C01F62ED42F28013901EE207E
S113259039F1CFDF8E2D843008F083E0CFEFC80F00
S11325A08823D9F08C2F880F880F880FA3019201FC
S11325B004C056954795379527958A95D2F7CA0151
S11325C0B901D501ED91FC910190F081E02DC50197
S11325D019958C2FC1508111E5CF60E0C501B3DF9F
S11325E04D2FD13208F040E22C2D67EE76E08F2D8E
S11325F0BDDC1092E6068093E506DF91CF911F9132
S11326000F91FF90EF90CF90BF90AF907F906F901D
S11326105F904F900895CF92EF920F931F93C22E25
S1132620E12C00E010E09801A0DF1F910F91EF90E2
S1132630CF90089521E0EFCF089561E084CF08950D
S113264080EC92E09093BC068093BB060895211120
S11326500DC040910002509101024D5F5F4FDC01BB
S1132660ED91FC910680F781E02D19950895089568
S1132670EF92FF921F93CF93DF93EC01162F7A0111
S11326806EEC72E081E895E0E8D14AE050E06A81BE
S113269081E895E088D266ED72E081E895E0DDD1CD
S11326A04AE050E0612F81E895E084D28A811813D2
S11326B014C0EC81FD8190818B81982321E009F481
S11326C020E08E818227F7018083E0910002F0915F
S11326D00102128362E083E047D8DF91CF911F911A
S11326E0FF90EF90089590E0FC01EE0FFF1FE35E72
S11326F0F84F20813181232B49F4880F991FFC0165
S1132700E35EF84F7183608381E0089580E008956B
S1132710BC01FC018281E7CF0895882311F02F9A30
S113272008952F980895DF92EF92FF920F931F93CD
S1132730CF93DF937C01162F4AE050E081E895E0C7
S113274032D26AE381E895E09ED1112351F1E70189
S1132750DD24DA94D10E0D2D10E00F5F1F4F0E0D06
S11327601F1D60E281E895E08ED1699140E150E05F
S113277081E895E018D2C017D10799F716C0A701D0
S11327804F5F5F4FDC01ED91FC910280F381E02DFE
S11327902D2D19951AC063EE72E081E895E087D17A
S11327A014C081E895E077D110C081E895E073D139
S11327B0F7016081E62FF0E0EE0FFF1FE35EF84FB4
S11327C0808191810097D9F6E6CFDF91CF911F9157
S11327D00F91FF90EF90DF900895E6E1F7E083EF2B
S11327E092E091838083128281E083832FE230E040
S11327F03583248386838098889ABF0180E073DFC1
S113280042E061E087E097E0C0C00895EDE1F7E0C1
S11328108DE199E011921192E817F907D9F7279AF7
S113282066E177E0809118075EDF87E097E00DD0DE
S113283081E0089560910002709101026D5F7F4F05
S113284087E097E001C008950895CF93DF93EC01EA
S1132850BC018D8548DF882351F0BE018E8543DF9E
S1132860882329F06CE0CE0102960E943A02DF919F
S1132870CF9108950F931F93CF93DF93CDB7DEB716
S113288068970FB6F894DEBF0FBECDBF8A01DC0196
S11328901D962C91261306C002960E94A702F801E9
S11328A0808368C0DC011E962C91621363C0BC0156
S11328B06E5F7F4F4AE1CE0101960E94FD02FE0148
S11328C03196ADE1B9E0CE010D96419151916191FE
S11328D071914D935D936D937D93E817F907A9F773
S11328E0EDE1F9E02081518142813381822F952FDE
S11328F0A42FB32F8D879E87AF87B88BD8012C93D5
S11329008E8511968C9311978F8512968C931297BE
S1132910888913968C932481558146813781822F2F
S1132920952FA42FB32F898B9A8BAB8BBC8BD8019B
S113293014962C9314978A8915968C9315978B89E2
S113294016968C9316978C8917968C9320855185AF
S113295042853385822F952FA42FB32F8D8B9E8B89
S1132960AF8BB88FF80120878E8981878F89828702
S1132970888D838768960FB6F894DEBF0FBECDBFEF
S1132980DF91CF911F910F910895EF92FF920F93D2
S11329901F93CF93DF93EC01E62EF42E2FEF32E05A
S11329A0FC0121933193CF010BEB16E028E247E3BE
S11329B050E060E070E00E94C501ED86FE86DF9184
S11329C0CF911F910F91FF90EF9008958CE0EDE16E
S11329D0F9E0DF011D928A95E9F708950F931F939B
S11329E00BEB16E028E247E350E060E070E089E298
S11329F099E00E94C5011F910F910895CF92DF9233
S1132A00EF92FF920F931F93CF93DF9341155105DC
S1132A10C1F06A018C01E62EF72EC0E0D0E0D701A8
S1132A206D917D01D801ED91FC910190F081E02D33
S1132A30C8011995892B39F02196CC16DD0679F752
S1132A4002C0C0E0D0E0CE01DF91CF911F910F9181
S1132A50FF90EF90DF90CF9008956115710581F09C
S1132A60FB0101900020E9F73197AF01461B570B9A
S1132A70DC01ED91FC910280F381E02D199508951C
S1132A8080E090E00895DC01ED91FC910190F081EB
S1132A90E02D19950895DC01ED91FC910280F381FC
S1132AA0E02D42E050E067E073E0199508950F933C
S1132AB01F93CF93DF93EC01D0DF8C01CE01EBDFCA
S1132AC0800F911FDF91CF911F910F9108958F92E5
S1132AD09F92AF92BF92EF92FF920F931F93CF9367
S1132AE0DF93CDB7DEB7A1970FB6F894DEBF0FBE64
S1132AF0CDBF7C01CB01BA0119A2223008F42AE02F
S1132B008E010F5D1F4F822E912CA12CB12CA5019B
S1132B109401B9D1E62F622F732F842F952F015082
S1132B201109EA3010F4E05D01C0E95CD801EC93CE
S1132B30611571058105910551F70115110591F094
S1132B40F80101900020E9F73197AF01401B510BC8
S1132B50D701ED91FC910280F381E02DB801C7010A
S1132B60199501C080E0A1960FB6F894DEBF0FBEA0
S1132B70CDBFDF91CF911F910F91FF90EF90BF9048
S1132B80AF909F908F9008952115310549F4DC0191
S1132B90ED91FC910190F081E02D642F1995089539
S1132BA096DF90E008959A01462F50E060E070E0CF
S1132BB0EBCF08950F931F93CF93DF93EC01F3DFD3
S1132BC08C01CE0168DF800F911FDF91CF911F919F
S1132BD00F9108950CD0BAC0B2D040F0A9D030F013
S1132BE021F45F3F19F09BC05111E4C09EC0BFD0D7
S1132BF098F39923C9F35523B1F3951B550BBB27C0
S1132C00AA2762177307840738F09F5F5F4F220F6C
S1132C10331F441FAA1FA9F333D00E2E3AF0E0E865
S1132C2030D091505040E695001CCAF729D0FE2FB1
S1132C3027D0660F771F881FBB1F26173707480743
S1132C40AB07B0E809F0BB0B802DBF01FF279358F9
S1132C505F4F2AF09E3F510568F061C0ABC05F3FF3
S1132C60ECF3983EDCF3869577956795B795F795E1
S1132C709F5FC9F7880F911D9695879597F90895D9
S1132C80E1E0660F771F881FBB1F62177307840775
S1132C90BA0720F0621B730B840BBA0BEE1F88F784
S1132CA0E0950895E89409C097FB3EF490958095CB
S1132CB0709561957F4F8F4F9F4F9923A9F0F92FFE
S1132CC096E9BB279395F695879577956795B7957C
S1132CD0F111F8CFFAF4BB0F11F460FF1BC06F5F62
S1132CE07F4F8F4F9F4F16C0882311F096E911C074
S1132CF0772321F09EE8872F762F05C0662371F095
S1132D0096E8862F70E060E02AF09A95660F771FA8
S1132D10881FDAF7880F9695879597F9089597F99C
S1132D209F6780E870E060E008959FEF80EC08956D
S1132D3000240A9416161706180609060895002496
S1132D400A9412161306140605060895092E039410
S1132D50000C11F4882352F0BB0F40F4BF2B11F484
S1132D6060FF04C06F5F7F4F8F4F9F4F089557FDE3
S1132D709058440F551F59F05F3F71F04795880FE5
S1132D8097FB991F61F09F3F79F08795089512167C
S1132D9013061406551FF2CF4695F1DF08C0161628
S1132DA017061806991FF1CF8695710561050894D9
S1132DB00895E894BB2766277727CB0197F90895F0
S1132DC00BD0C4CFB5DF28F0BADF18F0952309F093
S1132DD0A6CFABCF1124EECFCADFA0F3959FD1F3DA
S1132DE0950F50E0551F629FF001729FBB27F00DB5
S1132DF0B11D639FAA27F00DB11DAA1F649F66270A
S1132E00B00DA11D661F829F2227B00DA11D621F58
S1132E10739FB00DA11D621F839FA00D611D221F12
S1132E20749F3327A00D611D231F849F600D211DF6
S1132E30822F762F6A2F11249F5750408AF0E1F099
S1132E4088234AF0EE0FFF1FBB1F661F771F881FE2
S1132E5091505040A9F79E3F510570F060CFAACF22
S1132E605F3FECF3983EDCF3869577956795B795CD
S1132E70F795E7959F5FC1F7FE2B880F911D9695F7
S1132E80879597F90895A1E21A2EAA1BBB1BFD0191
S1132E900DC0AA1FBB1FEE1FFF1FA217B307E40735
S1132EA0F50720F0A21BB30BE40BF50B661F771F8D
S1132EB0881F991F1A9469F760957095809590956D
S1132EC09B01AC01BD01CF010895EE0FFF1F881FC8
S1132ED08BBF0790F691E02D1994FB01DC0102C031
S1132EE005900D9241505040D8F70895FB01DC0144
S1132EF004C08D910190801921F441505040C8F7CD
S1132F00881B990B0895FB01DC014150504048F0A7
S1132F1001900D920020C9F701C01D92415050400C
S10B2F20E0F70895F894FFCFD7
S1132F284B03FFFFFFFF7069692D3031C0A8B20160
S1132F38A9FEF09D424E4F30353500000000007F59
S1132F480193048001FFFFFFFFFFFF0A496E6974C4
S1132F5869616C697A696E672E2E2E004661696C08
S1132F68656420746F20696E697469616C697A6537
S1132F7820726F626F742E00526F626F7420696ED4
S1132F88697469616C697A65642E004661696C6567
S1132F986420746F20616363657373204574686586
S1132FA8726E657420636F6E74726F6C6C65722ECA
S1132FB800436F6E6E656374656420746F20636F7D
S1132FC86E74726F6C6C65722E0000000000C10C88
S1132FD8FE14610C9E0C330C4D0C3F0C00000000D9
S1132FE830125A127A0DF711CC11D411E8114D7917
S1132FF82069643A200020202020526567206964F3
S11330083A20004E6F7420666F756E643A20000093
S11330180000008813271337133813000000002515
S113302814271324143A140D0A006E616E00696E95
S109303866006F766600DD
S9030000FC
