S0150000526F76436F6E74726F6C6C65722E73726563B4
S11300004BC100007AC1000078C1000076C1000035
S113001074C1000072C1000070C100006EC1000014
S11300206CC100006AC1000068C1000066C1000024
S113003064C1000062C1000060C100005EC1000034
S11300405CC100005AC1000058C1000056C1000044
S113005054C1000052C1000050C100004EC1000054
S11300604CC100000C94B30C0C94EF0C46C100007E
S113007044C1000042C1000040C100003EC1000074
S11300803CC100003AC1000038C1000036C1000084
S11300900C943B0D0C94770D30C100000C94C30FED
S11300A02CC100002AC1000028C1000026C10000A4
S11300B024C1000022C1000020C100001EC10000B4
S11300C01CC100001AC1000018C100000C94C30D2B
S11300D00C94FF0D12C100000C944B0E0C94870E6F
S11300E00CC10000C910CC10CC10CC10CC10CC101A
S11300F0CC10CC10E40FCC10CC10CC10CC10CC1005
S1130100CC10CC10E40FCC10CC10CC10CC10CC10F4
S1130110CC10CC10EC0FCC10CC10CC10CC10CC10DC
S1130120CC10CC101110CC10CC10CC10CC10CC10A6
S1130130CC10CC10EC0FCC10CC10CC10CC10CC10BC
S1130140CC10CC101610CC10CC10CC10CC10CC1081
S1130150CC10CC101B10CC10CC10CC10CC10CC106C
S1130160CC10CC102C10CC10CC10CC10CC10CC104B
S1130170CC10CC105510CC10CC10CC10CC10CC1012
S1130180CC10CC102010CC10CC10CC10CC10CC1037
S1130190CC10CC103A10CC10CC10CC10CC10CC100D
S11301A0CC10CC105710CC10CC10CC10CC10CC10E0
S11301B0CC10CC105710CC10CC10CC10CC10CC10D0
S11301C0CC10CC105710CC10CC10CC10CC10CC10C0
S11301D0CC10CC105710CC10CC10CC10CC10CC10B0
S11301E0CC10CC106010CC10CC10CC10CC10CC1097
S11301F0CC10CC109010CC10CC10CC10CC10CC1057
S1130200CC10CC106010CC10CC10CC10CC10CC1076
S1130210CC10CC109010CC10CC10CC10CC10CC1036
S1130220CC10CC107810CC10CC10CC10CC10CC103E
S1130230CC10CC109410CC10CC10CC10CC10CC1012
S1130240CC10CC109410CC10CC10CC10CC10CC1002
S1130250CC10CC10A910CC10CC10CC10CC10CC10DD
S1130260CC10CC10C310CC10CC10CC10CC10CC10B3
S1130270CC10CC10C31045000082000040002000C8
S113028001080006040001007504180DA00D280ED5
S1130290B00EEB114712591211241FBECFEFD1E259
S11302A0DEBFCDBF00E00CBF12E0A0E0B2E0E8EE9C
S11302B0F8E200E00BBF02C007900D92A83EB10720
S11302C0D9F728E0A8EEB2E001C01D92A83EB2071B
S11302D0E1F711E0CCE4D1E000E006C02197010988
S11302E0802FFE010E944514C434D10780E0080722
S11302F0A9F70E94360B0C94721482CE08950F93C2
S11303001F93CF93DF938C01EB0188E2FB011192E1
S11303108A95E9F74BE050E064E172E0CE010E9477
S113032063141B8681E090E0A0E0B0E08C879D8799
S1130330AE87BF87F80186819781A085B185888BB8
S1130340998BAA8BBB8B83E090E0A0E0B0E08C8B10
S11303509D8BAE8BBF8B1CA21DA21EA21FA2188E4A
S1130360198E1A8E1B8E1C8E1D8E1E8E1F8E8AE079
S113037097EDA3E2BCE388A399A3AAA3BBA3DF914F
S1130380CF911F910F9108950F931F93FC018FE15B
S113039092E09183808346835783608771872383A8
S11303A0158304831F910F910895CF92DF92EF92EA
S11303B0FF920F931F93CF93DF937C01C62F6A01A3
S11303C0122FDC0113966C91139714968D919C91C6
S11303D015970E946411F70184819581DC01ED91E8
S11303E0FC910190F081E02D6C2F1995F701848127
S11303F095810E94E811412FD70113966C911397B0
S113040014968D919C9115970E94E5111123B1F0DA
S1130410E6011150012F10E00F5F1F4F0C0D1D1D41
S1130420F70184819581DC01ED91FC910284F385CF
S1130430E02D19958993C017D10791F781E0DF91D9
S1130440CF911F910F91FF90EF90DF90CF9008957F
S1130450AF92BF92CF92DF92FF920F931F93CF93ED
S1130460DF9300D000D0CDB7DEB78C01CB01F42EE2
S11304702CE0F80111922A95E9F7AE014F5F5F4F26
S113048026E0FA0111922A95E9F726E06F2D8DDF17
S11304906A8170E0762F66278981682B8C8190E0D1
S11304A0982F88272B816C01C22A8E8190E0982F87
S11304B088272D815C01A22AF4E1FF1609F44AC0C1
S11304C0FF1540F088E0F81609F4ACC0EEE0FE1623
S11304D069F043C1F8E2FF1609F4D8C08EE2F816B9
S11304E009F408C1EAE1FE1238C168C0072E000C05
S11304F0880B990B0E94341320E030E040E85DE360
S11305000E94C013F8016083718382839383B601D0
S1130510DD0C880B990B0E94341320E030E040E896
S11305205DE30E94C013F801648375838683978317
S1130530B501BB0C880B990B0E94341320E030E00A
S113054040E85DE30E94C013F801608771878287E9
S1130550938703C1072E000C880B990B0E94341358
S113056020E030E040E85DE30E94C013F8016083BE
S1130570718382839383B601DD0C880B990B0E94EF
S1130580341320E030E040E85DE30E94C013F8013A
S11305906483758386839783B501BB0C880B990BA1
S11305A00E94341320E030E040E85DE30E94C01371
S11305B0F8016087718782879387CFC0072E000C6C
S11305C0880B990B0E94341320E030E040E85DE38F
S11305D00E94C013F8016083718382839383B60100
S11305E0DD0C880B990B0E94341320E030E040E8C6
S11305F05DE30E94C013F801648375838683978347
S1130600B501BB0C880B990B0E94341320E030E039
S113061040E85DE30E94C013F80160877187828718
S113062093879BC0072E000C880B990B0E943413F0
S113063020E030E048EC52E40E94CA12F8016083E2
S1130640718382839383B601DD0C880B990B0E941E
S1130650341320E030E048EC52E40E94CA12F8015E
S11306606483758386839783B501BB0C880B990BD0
S11306700E94341320E030E048EC52E40E94CA1295
S1130680F801608771878287938767C0072E000C03
S1130690880B990B0E94341320E030E048EC52E4BC
S11306A00E94CA12F8016083718382839383B60126
S11306B0DD0C880B990B0E94341320E030E048ECE9
S11306C052E40E94CA12F801648375838683978377
S11306D0B501BB0C880B990B0E94341320E030E069
S11306E048EC52E40E94CA12F8016087718782873D
S11306F0938733C0072E000C880B990B0E94341388
S113070020E030E048EC52E40E94CA12F801608311
S1130710718382839383B601DD0C880B990B0E944D
S1130720341320E030E048EC52E40E94CA12F8018D
S11307306483758386839783B501BB0C880B990BFF
S11307400E94341320E030E048EC52E40E94CA12C4
S1130750F8016087718782879387C80126960FB650
S1130760F894DEBF0FBECDBFDF91CF911F910F91E3
S1130770FF90DF90CF90BF90AF9008950F931F9399
S1130780CF93DF93CDB7DEB72C970FB6F894DEBFC7
S11307900FBECDBF8B0120E2FB0111922A95E9F730
S11307A040E250E060E070E0F801408351836283EE
S11307B07383FC014681578160857185F801448308
S11307C055836683778343E050E060E070E04087C0
S11307D05187628773874AE1BC01CE01019638DEF6
S11307E089819A81AB81BC81F801808B918BA28B2A
S11307F0B38B8D819E81AF81B885848B958BA68BBD
S1130800B78B89859A85AB85BC85808F918FA28FA4
S1130810B38F81E02C960FB6F894DEBF0FBECDBF28
S1130820DF91CF911F910F910895613049F4FC013C
S11308308081E091E802F091E902808380E0D4C6EF
S113084008954091E8023091E9022FEF260F6623C4
S113085041F0A82FB92FE42FF32F8D9181932150CC
S1130860E0F781E0C1C60895613051F4FC01908144
S1130870923030F481E0911101C080E00C94271291
S113088008956623C1F0DC01EC91F0E0EE0FFF1F48
S1130890E352F94FA081B181109769F0462FBC0152
S11308A041506F5F7F4FED91FC9111970190F08162
S11308B0E02DCD01199508959B01813051F028F068
S11308C0823059F0833069F00895642FC901ADCFA7
S11308D00895642FC901B5CF0895642FC901C4CF09
S11308E00895642FC901CDCF08958091000290919D
S11308F0010202969093E9028093E8020895E09140
S1130900EE02F091EF0290818091ED0280958923AF
S113091080830895E091EE02F091EF02908180913E
S1130920ED02892B808308958EBD0DB407FEFDCFA3
S113093008951F93CF93DF93182FC62FD42FDFDF93
S11309408C2F8F71812BF0DF8D2FEEDFE3DFDF91B2
S1130950CF911F9108950F931F93CF93DF93EC01D1
S11309608B01CDDF2097C1F08AE3DEDF1EBC219727
S113097069F0F8010C0F1D1F98010DB407FEFDCF9F
S11309808EB51EBC8193E217F307B9F70DB407FEC9
S1130990FDCF8EB5F8018083BDDFDF91CF911F912C
S11309A00F9108951F93CF93DF93182F1076C12FC3
S11309B0D0E08091F00290E0C817D907A1F043E09D
S11309C06FE180EAB6DF1093F002AE0155954795CA
S11309D055954795559547955595479555954795FB
S11309E06FE180E8A6DFDF91CF911F910895CF9347
S11309F0C82FD8DF84DF8C2F8F7196DF80E094DFDF
S1130A00CC2314F480E090DFCEB584DF8C2FCF911B
S1130A100895CF93DF93C82FD62FC4DF4D2F6C2FAB
S1130A2080E487DFDF91CF910895CF93DF93C82FC0
S1130A30D72FEFDF6D2F81E08C0FEBDFDF91CF91AC
S1130A400895FC0194B1976094B923989DB5916081
S1130A509DBD9CB590659CBD80819091ED02982BC5
S1130A60908358CF0895EF92FF920F93CF93DF9323
S1130A707B01EA019093F2028093F1020093ED026C
S1130A803093EF022093EE02CA01DBDF8881082B4A
S1130A90088340DF4FEF60E08FEF4BDF8FE39FE190
S1130AA00197F1F700C000002ADF8DE13DDF80E00F
S1130AB03BDFCEB52FDFCC23B9F360E070E088E0F4
S1130AC0B4DF60E070E08CE0B0DF6FEF7BE08AE0E1
S1130AD0ACDF60E07CE084E0A8DF6FEF71E186E0EA
S1130AE0A4DF61EB88E395DF6FE370E388E29DDFC9
S1130AF069EF77EF80E399DF61E080EC8ADF42E31E
S1130B0062EC80E816DF62E17CE086EC8EDF62E175
S1130B1084EC7FDF6CED75E08AEC87DFF7016081A0
S1130B2084EE77DFF701618185EE73DFF70162817F
S1130B3082EE6FDFF701638183EE6BDFF70164817F
S1130B4080EE67DFF701658181EE63DF60E184EDAC
S1130B5060DF60E071E086ED68DF8AEE48DF80FDEB
S1130B60FCCF8FE11FDF40EC6BE180E8E2DE44E084
S1130B706FE180E8DEDE82E73ADF863008F08F5FDF
S1130B80DF91CF910F91FF90EF90089561E184ED93
S1130B9040DF61E082ED3DDF8AEE29DF80FDFCCF9E
S1130BA060E082ED36DF89ED22DF82FB882780F961
S1130BB00895AF92BF92CF92DF92EF92FF920F937C
S1130BC01F93CF93DF937C016C0184EFD81A0F2E0F
S1130BD0F3EFAF2EF2E0BF2EF02D87010D501D4F25
S1130BE040E86FE180E8A5DE40E86FE180EAA1DE3D
S1130BF04AE06CE180EA9DDE60E07CE082E015DFA3
S1130C00B60186E012DF40E060E08AE792DE77DE3C
S1130C10E114F104B1F08AE787DEF50180818EBD2D
S1130C20F1E0EF16F10451F0E4EFF2E081910DB43C
S1130C3007FEFDCF8EBDE017F107C1F70DB407FE27
S1130C40FDCF68DE48E06FE180E873DEC0E0D0E00D
S1130C508CE1CDDE8A7031F42196C83E83E0D8075A
S1130C60B9F70CC08CE1C3DE81FD03C0C83ED3409C
S1130C7040F048E06FE180EA5CDEB2CF8CE1B7DEA1
S1130C80F8CFDF91CF911F910F91FF90EF90DF90FC
S1130C90CF90BF90AF9008950F931F93CF93DF939E
S1130CA000D000D0CDB7DEB78091EC02882391F05C
S1130CB06091EA027091EB026115710529F46FEFFE
S1130CC07BE08CE0B2DE04C0615071098CE0ADDEE3
S1130CD01092EC0289E38BDE8823A9F16091EA0289
S1130CE07091EB0280E0A1DEBE016F5F7F4F86E072
S1130CF090E031DE89819A819093EB028093EA023D
S1130D008D8187FF12C08091F1029091F2020197C8
S1130D100B811C81045011098017910708F48C0180
S1130D2063EF72E0C80117DE02C000E010E0F801D2
S1130D30ED50FD4F108281E08093EC0240E46EE1BF
S1130D4080E8F7DD02C000E010E0C80126960FB687
S1130D50F894DEBF0FBECDBFDF91CF911F910F91ED
S1130D600895EF92FF920F93CF93DF93EB017A01F3
S1130D70022FBC018DE095E0C9D39701AE016DE06F
S1130D8075E080E092E06FDEDF91CF910F91FF90EC
S1130D90EF900895EF92FF920F931F93CF93DF93F9
S1130DA07B018A01E901009721F0BC0189E095E00B
S1130DB0A0D3E114F10411F0C701BDD1011511054F
S1130DC021F0B80189EF94E094D3209721F0BE017B
S1130DD085E095E08ED3BBD11092F4041092F30415
S1130DE081E0DF91CF911F910F91FF90EF900895D3
S1130DF0CF92DF92EF92FF92CF93DF93C62FD0E092
S1130E00CD50DD4F213081F46A0199E0C90ED11C27
S1130E10E12CF12C03C0C12CD12C760142305105B8
S1130E2028F1FE01DA0109C02230A9F76A0192E033
S1130E30C91AD108E12CF12CF1CF208130E0322FF6
S1130E4022279181292BC20ED31EE11CF11C32965C
S1130E501297A230B10588F79A01225031092E7FEA
S1130E602E5F3F4FC20FD31F41705527452B61F0B2
S1130E70488150E060E070E0762F652F542F4427BE
S1130E80C40ED51EE61EF71EA70166277727411557
S1130E9051056105710571F0EE24FF24C40ED51EC1
S1130EA0E61EF71EA7016627772741155105610540
S1130EB0710591F7C094D094E82FF0E0ED50FD4F08
S1130EC0D082C182DF91CF91FF90EF90DF90CF90DD
S1130ED00895CF93DF93FC0120812223D1F0FB01FD
S1130EE030813323C1F02327309105052323A9F44E
S1130EF0DC0111963196C6E0D5E004964D9121911E
S1130F0039912427232359F4A817B907B9F781E0A5
S1130F1007C080E005C080E003C080E001C080E03D
S1130F20DF91CF910895E3EFF2E0108E118E80E40B
S1130F30848B158A868B20E044E150E06EE088E1E2
S1130F4057CF0895BC0183EF92E0E0D26DE075E0E5
S1130F5089EF92E0DBC2089589EF92E0F3DF6DE060
S1130F6073E081E193E0C5D269E075E08DE093E040
S1130F70C0D2D9CF0895CF93DF93EB01E3DFBE0155
S1130F8081E193E0B6D269E075E08DE093E0B1D2FF
S1130F90DF91CF910895CF93DF93EB0144E050E0CC
S1130FA0BC018FE093E00E945614892B31F469E070
S1130FB073E0CE01ABD281E001C080E0DF91CF913C
S1130FC008950F931F93CF938C0185E292E0BADFCB
S1130FD0E3EFF2E088E08487C6E0C58748E050E0AC
S1130FE06FE772E081E093E00E944D14E3E1F3E0E7
S1130FF0DF011D92CA95E9F76DE075E089E093E0A1
S113100085D2B80189E193E074D269E075E08FE09C
S113101093E06FD28AE290E0CCDDCF911F910F91E3
S11310200895EF92FF920F931F93CF93DF93182F9E
S1131030092FEB01F42EE52E89E095E04ADF8823A1
S113104029F0BE018EE195E096DF04C0BE0184E183
S113105095E091DF8881807F803E91F0888199813D
S1131060AA81BB818F3F9F4FAF4FBF4F49F044E0F0
S113107050E0BE0181E095E00E945614892B29F4CA
S113108065E272E083EF92E041D2C3EFD2E088E000
S11310908C871D8649E050E066E772E081E093E0CA
S11310A00E944D14188A81E18F8BECA2FDA20AA341
S11310B01BA31EA218A619A6DF91CF911F910F9111
S11310C0FF90EF9008950F931F93CF93DF93EC015C
S11310D003EF12E04C96F801908B818B24DFCE0154
S11310E00896F80196A387A3AE01405F5F4F21E005
S11310F06AE188E27DDECE018A965BDDDF91CF91E5
S11311001F910F9108950F931F93CF93DF93D62FC1
S1131110C72FCA01A801B90184DF8D2F9C2F81300C
S113112022E0920710F080E092E0CDDFDF91CF91D2
S11311301F910F9108951092F4041092F30421E08A
S113114020931305BC018DEF94E0D3C10895CF9390
S1131150DF93E9E0F5E0C5E0D5E0A1E0B5E02DE0FE
S113116035E0919189918095892B8D93E217F3074E
S1131170C1F7DF91CF910895CF93DF93EC010097EE
S113118009F03FC080911305857089F08091F304C4
S11311909091F404892B59F4F9DC882341F08DEF04
S11311A094E00FDF8091130588608093130580918C
S11311B0F3049091F40401969093F4048093F3045F
S11311C069EF74E089E095E084DE882349F080913A
S11311D01C05811105C080911D05882309F4DCC01C
S11311E065EF74E089E095E074DE882309F4F8C0C3
S11311F080911A058111F4C080911B058111F0C002
S1131200D2C08932910508F4D5C08091FF0288309C
S113121009F0E6C080910003863009F0DDC044E0A7
S113122050E069E075E089E193E00E945614892B4F
S113123009F0D2C0C3C089EF92E084DEE3EFF2E0AC
S1131240148A82E0858B69E073E083E193E05ED1E8
S11312506DE075E089E093E059D16FE073E089E1D6
S113126093E047D169E075E08FE093E042D18AE2F0
S113127090E09FDC8091130583FF0EC080910803EA
S1131280823051F464E175E08DEF94E084DE8823CC
S113129019F082E08093130580911C05811110C020
S11312A080911D05882361F06EE175E089EF94E07B
S11312B072DE882329F081E080931C0510921D05BD
S11312C080911A0581118CC080911B05882309F433
S11312D087C06EE175E085EF94E05DDE882309F454
S11312E07FC081E080931A0510921B0579C080911C
S11312F0FF02883009F074C080910003811170C02E
S113130080910103853409F06BC044E050E069E04A
S113131075E081E193E00E945614892B09F454C0CE
S113132044E050E061E075E081E193E00E945614EE
S1131330892B09F449C044E050E065E272E081E1A0
S113134093E00E945614892B09F04AC03DC0809155
S113135015038830C9F4E0912405F09125053097F0
S113136019F08DE093E01995F7DDE3EFF2E012A2B6
S113137084A1883F18F095A19F5F95A3885F80930F
S11313801703CE0116DC2CC04AD0882349F1809182
S11313900A03813129F51DC089EF94E012DE81E052
S11313A080931D051DCF85EF94E00BDE81E08093D3
S11313B01B0516C08A9708F09ACF12C080910803C3
S11313C0813009F057CF37CF80910A038130E1F69D
S11313D0BECFCE012BD004C0CA32D10508F08CCFC9
S11313E080E090E0DF91CF9108959C0190912605D3
S11313F09830A0F4E92FF0E0AF01440F551F440FDB
S1131400551FE40FF51FE95DFA4F31832083738381
S1131410628381E084839F5F90932605089581E031
S113142090912605911101C080E008958F929F92BA
S1131430BF92CF92DF92EF92FF920F931F93CF93BD
S1131440DF9380912605882309F446C0C7E2D5E0DE
S1131450E12CF12C80E00F2EF3EFCF2EF2E0DF2E03
S1131460F02DBB24B394AA81BB81F60124A130E002
S11314704B2F55272417350721F525A130E0AD0161
S1131480552724173507E9F49C819923D1F007A146
S113149010E00850110986A190E0982F8827080FC2
S11314A0191F42A150E0542F442783A1482B888060
S11314B099802DE133E06DE073E0CD01F4011995DD
S11314C08B2DFFEFEF1AFF0A25962091260530E0B9
S11314D0E216F30644F201C080E0DF91CF911F9140
S11314E00F91FF90EF90DF90CF90BF909F908F90DF
S11314F00895FB0120813181FC0131832083FB01AC
S113150022813381FC01338322830895DC0196E038
S1131510FB0101900D929A95E1F70895FC01208159
S1131520DC0112968181922F980F3FEF360F6623CC
S113153061F0FD01832F2191920F8150E0F7232F59
S113154030E02F5F3F4FA20FB31F81E02C9129138E
S113155080E008950F931F93CF93DF93A801435026
S113156051094F3F510509F088F4F90180818F3FFB
S113157069F4E9010350602FC901D0DF882331F0F9
S1131580BE016E5F7F4F402F898196D9DF91CF9145
S11315901F910F9108950F93CF93DF93EC01CA012C
S11315A0A901202FD0935205C09351057093500583
S11315B060934F05BC0186E092E0D3DB882379F089
S11315C020E030E040E050E06CE072E080E192E046
S11315D0E1DBBE018AEA9AE008DF81E001C080E035
S11315E0DF91CF910F9108950F931F93CF93DF93C2
S11315F0E0910002F09101029FEF9083E0910002DC
S1131600F091010281838150C0910002D0910102C6
S1131610DE0112964FEF460F662381F0FD0150E084
S11316209A012D5F3F4F2C0F3D1F9191890FE217B7
S1131630F307D9F74F5F5F4FA40FB51F8C93009149
S11316404F0510915005409151055091520570E09D
S11316506D5F7F4F22E032E08091000290910102A1
S113166052DDDF91CF911F910F91089526E040E85C
S113167055E260E070E083E595E00FD16BE272E043
S113168083E595E077D7FDD6811106C06CE372E05F
S113169083E595E06FD7FFCF68E572E083E595E0D9
S11316A069D700E222E031E041E051E062E777E10E
S11316B081E797E170DF811106C06BE672E083E594
S11316C095E058D7FFCF61E972E083E595E052D702
S11316D0E3DA52DDFDCFFC0197852089892F90E064
S11316E0805C9F4F821B91098F7399270895FC0199
S11316F097858089981731F08089E80FF11D8389D7
S113170090E008958FEF9FEF0895FC0197858089FD
S1131710981761F08089DF01A80FB11D53968C9151
S113172090899F5F9F73908B90E008958FEF9FEF58
S11317300895FC0121893289231738F08FE390E062
S1131740821B9109830F911D0895832F90E0821BC2
S1131750910901970895FC018289DF01A80FB11D49
S1131760AD5ABF4F8C91228930E02F5F3F4F2F73CA
S11317703078332334F421503109206C3F6F2F5FCC
S11317803F4F228BA485B5858C93A681B7818C911C
S1131790837080648C9391898289981306C0008435
S11317A0F185E02D80818F7D80830895CF93DF9331
S11317B0EC018E858823D1F0E885F985808185FD4B
S11317C005C0AE81BF818C9186FD10C00FB607FCA9
S11317D0F5CF808185FFF2CF03C0CE01BCDFECCF13
S11317E0AE81BF818C9185FFE9CFF7CFDF91CF9197
S11317F008950F931F93CF93DF93EC0181E08E87BD
S113180099898A89981325C0EE81FF81808185FD9D
S113181031C01FC08A8918130BC00FB607FCFACF5A
S1131820EE81FF81808185FFF5CFCE0194DFF2CF79
S11318308989FE01E80FF11DED5AFF4F00839FB720
S1131840F894198BE885F9858081806280839FBF35
S11318501DC0298930E02F5F3F4F2F733078332329
S113186034F421503109206C3F6F2F5F3F4F062F16
S1131870122FD0CF9FB7F894EC85FD856083EE815D
S1131880FF8180818370806480839FBF81E090E0CA
S1131890DF91CF911F910F910895CF92DF92EF9234
S11318A0FF921F93CF93DF93EC016A017B01122F08
S11318B0EE81FF8182E080834115514E61057105FF
S11318C0A9F060E079E08DE390E0A7019601BBD731
S11318D0DA01C9010197A109B109B695A7959795B0
S11318E087959C01211580E13807A0F0EE81FF81E6
S11318F0108260E874E88EE190E0A7019601A3D716
S1131900DA01C9010197A109B109B695A79597957F
S113191087959C01EA81FB813083EC81FD812083E2
S11319201E86EA85FB851083E885F98580818061C0
S11319308083E885F985808188608083E885F985DE
S1131940808180688083E885F98580818F7D8083AC
S1131950DF91CF911F91FF90EF90DF90CF9008958A
S113196080E090E008951F920F920FB60F92112419
S11319700BB60F922F938F939F93AF93BF93EF93D5
S1131980FF93E0915905F0915A05808182FD14C0BE
S1131990E3E5F5E0A485B5852C9187858F5F8F708D
S11319A09089891771F0DF01E785F0E0ED5AFA4F6D
S11319B0238B1F968C9305C0E0915F05F091600521
S11319C08081FF91EF91BF91AF919F918F912F9162
S11319D00F900BBE0F900FBE0F901F9018951F9283
S11319E00F920FB60F9211240BB60F922F933F93C1
S11319F04F935F936F937F938F939F93AF93BF9313
S1131A00EF93FF9383E595E0A6DEFF91EF91BF91FD
S1131A10AF919F918F917F916F915F914F913F9182
S1131A202F910F900BBE0F900FBE0F901F90189523
S1131A30E3E5F5E08EEA92E09183808385EC90E023
S1131A409383828384EC90E09583848380EC90E09C
S1131A509783868381EC90E09187808782EC90E085
S1131A609387828786EC90E0958784871786108A0F
S1131A70118A128A08951F920F920FB60F921124A1
S1131A800BB60F922F938F939F93AF93BF93EF93C4
S1131A90FF93E0918C05F0918D05808182FD14C047
S1131AA0E6E8F5E0A485B5852C9187858F5F8F7076
S1131AB09089891771F0DF01E785F0E0EA57FA4F62
S1131AC0238B1F968C9305C0E0919205F0919305AA
S1131AD08081FF91EF91BF91AF919F918F912F9151
S1131AE00F900BBE0F900FBE0F901F9018951F9272
S1131AF00F920FB60F9211240BB60F922F933F93B0
S1131B004F935F936F937F938F939F93AF93BF9301
S1131B10EF93FF9386E895E01EDEFF91EF91BF916E
S1131B20AF919F918F917F916F915F914F913F9171
S1131B302F910F900BBE0F900FBE0F901F90189512
S1131B40E6E8F5E08EEA92E0918380838DEC90E004
S1131B50938382838CEC90E09583848388EC90E07B
S1131B609783868389EC90E0918780878AEC90E064
S1131B70938782878EEC90E0958784871786108AF6
S1131B80118A128A08951F920F920FB60F92112490
S1131B900BB60F922F938F939F93AF93BF93EF93B3
S1131BA0FF93E091BF05F091C005808182FD14C0D0
S1131BB0E9EBF5E0A485B5852C9187858F5F8F705F
S1131BC09089891771F0DF01E785F0E0E754FA4F57
S1131BD0238B1F968C9305C0E091C505F091C60533
S1131BE08081FF91EF91BF91AF919F918F912F9140
S1131BF00F900BBE0F900FBE0F901F9018951F9261
S1131C000F920FB60F9211240BB60F922F933F939E
S1131C104F935F936F937F938F939F93AF93BF93F0
S1131C20EF93FF9389EB95E096DDFF91EF91BF91E0
S1131C30AF919F918F917F916F915F914F913F9160
S1131C402F910F900BBE0F900FBE0F901F90189501
S1131C50E9EBF5E08EEA92E09183808385ED90E0F4
S1131C609383828384ED90E09583848380ED90E078
S1131C709783868381ED90E09187808782ED90E061
S1131C809387828786ED90E0958784871786108AEC
S1131C90118A128A08951F920F920FB60F9211247F
S1131CA00BB60F922F938F939F93AF93BF93EF93A2
S1131CB0FF93E091F205F091F305808182FD14C059
S1131CC0ECEEF5E0A485B5852C9187858F5F8F7048
S1131CD09089891771F0DF01E785F0E0E451FA4F4C
S1131CE0238B1F968C9305C0E091F805F091F905BC
S1131CF08081FF91EF91BF91AF919F918F912F912F
S1131D000F900BBE0F900FBE0F901F9018951F924F
S1131D100F920FB60F9211240BB60F922F933F938D
S1131D204F935F936F937F938F939F93AF93BF93DF
S1131D30EF93FF938CEE95E00EDDFF91EF91BF9151
S1131D40AF919F918F917F916F915F914F913F914F
S1131D502F910F900BBE0F900FBE0F901F901895F0
S1131D60ECEEF5E08EEA92E09183808385E391E0E6
S1131D709383828384E391E09583848380E391E079
S1131D809783868381E391E09187808782E391E062
S1131D909387828786E391E0958784871786108AE4
S1131DA0118A128A0895413208F04CC090918C0631
S1131DB09111FCCF31E030938C0620938A062FEFEB
S1131DC020931F0610926406240F20936306309319
S1131DD08B0620918B06880F822B80938B06809133
S1131DE08906813081F410928906ABEBB0E0ECEB0C
S1131DF0F0E080918B068C93808183FDFACF85EC93
S1131E008093BC0003C085EE8093BC0080918C0657
S1131E108130E1F380916406841710F440916406E4
S1131E20442389F0E5E6F6E0A62FB72F2FEF240F21
S1131E3030E02A59394F81918D93E217F307D9F78E
S1131E40942F01C090E0892F08950F93413208F038
S1131E5057C030918C063111FCCF92E090938C06E0
S1131E6000938A069FEF90931F0610926406409396
S1131E706306442371F0FB01A5E6B6E0415050E04F
S1131E804F5F5F4F640F751F91919D93E617F7079E
S1131E90D9F710928B0690918B06880F892B80932B
S1131EA08B0680918906813081F410928906ABEB10
S1131EB0B0E0ECEBF0E080918B068C93808183FDA5
S1131EC0FACF85EC8093BC0003C085EE8093BC0000
S1131ED0222341F080918C06823021F480918C067B
S1131EE08230E1F380911F068F3F79F080911F06C5
S1131EF0803241F080911F06803331F034E005C018
S1131F0031E003C032E001C033E0832F0F91089524
S1131F1040914106262F30E0240F311D2132310536
S1131F20ECF420918C062430D9F4662381F0A82F98
S1131F30B92F80E090E0309141062D91FC01ED5BDA
S1131F40F94FE30FF11D208301968617A0F38091CA
S1131F504106680F6093410680E0089581E008958A
S1131F6082E0089585ED8093BC00ECEBF0E0808185
S1131F7084FDFDCF10928C06089585EC8093BC00FF
S1131F8010928C0608951F920F920FB60F9211248F
S1131F900BB60F922F933F934F935F936F937F935F
S1131FA08F939F93AF93BF93EF93FF938091B90067
S1131FB0887F90E0893C910508F0EEC0FC018827F9
S1131FC0EE58FF4F8F4F61C480918B068093BB0006
S1131FD085EC8093BC00E0C0909164068091630618
S1131FE0981780F4E091640681E08E0F8093640674
S1131FF0F0E0EB59F94F80818093BB0085EC80932E
S1132000BC00CAC080918A06882311F0ABDFC4C02B
S113201081E08093890684EA8093BC0010928C0648
S1132020BBC080E280931F069DDFB6C080E380932F
S11320301F0698DFB1C088E380931F069EDFACC003
S1132040E091640681E08E0F809364068091BB006A
S1132050F0E0EB59F94F8083909164068091630618
S1132060981720F485EC8093BC0096C085E8809393
S1132070BC0092C0E091640681E08E0F80936406F8
S11320808091BB00F0E0EB59F94F808380918A0680
S1132090882311F067DF80C081E08093890684EA99
S11320A08093BC0010928C0677C05CDF75C083E01F
S11320B080938C061092200685EC8093BC006CC043
S11320C080912006803280F4E091200681E08E0F1A
S11320D0809320068091BB00F0E0EF5DF94F808390
S11320E085EC8093BC0058C085E88093BC0054C044
S11320F044DF80912006803230F4E0912006F0E045
S1132100EF5DF94F10826091200670E0E091850642
S1132110F091860681E296E01995109220063CC063
S113212085E88093BC0038C084E080938C061092CC
S1132130420610924106E0918706F09188061995AF
S113214080914106811105C081E08093410610927F
S11321504306E091420681E08E0F80934206F0E050
S1132160ED5BF94F80818093BB0090914206809192
S11321704106981720F485EC8093BC000DC085E8D7
S11321808093BC0009C085EC8093BC0010928C063F
S113219003C010921F06E6DEFF91EF91BF91AF914D
S11321A09F918F917F916F915F914F913F912F916B
S11321B00F900BBE0F900FBE0F901F90189580913B
S11321C0B30690E02091B406821B91090895909182
S11321D0B4068091B306981750F4E92FF0E0EB545D
S11321E0F94F208130E09F5F9093B40602C02FEF37
S11321F03FEFC9010895E091B4068091B306E81752
S113220030F4F0E0EB54F94F808190E008958FEFC3
S11322109FEF08950895CF93DF931F92CDB7DEB754
S1132220698380918F06882399F08091900680328B
S1132230B0F480919106E82FF0E0EE56F94F6083F8
S11322408F5F809391068093900681E090E009C0AF
S113225061E0CE0101965CDE81E090E002C080E0A6
S113226090E00F90DF91CF910895CF92DF92EF929B
S1132270FF920F931F93CF93DF938C01CB016A01DD
S113228020918F062223A1F04115510599F0EB010D
S11322907B01E40EF51E6991D801ED91FC9101904A
S11322A0F081E02DC8011995CE15DF05A1F702C014
S11322B0642F2EDEC601DF91CF911F910F91FF9005
S11322C0EF90DF90CF90089581E080938F06609324
S11322D0B206109291061092900608950F93062F5D
S11322E021E04091900662E976E08091B206ADDD8E
S11322F0109291061092900610928F060F910895F5
S11323004F925F926F927F92AF92BF92CF92EF9271
S1132310FF920F931F93CF93DF935C01F62ED42F7C
S113232028013901EE2039F1CFDF8E2D843008F0F9
S113233083E0CFEFC80F8823D9F08C2F880F880F44
S1132340880FA301920104C05695479537952795A8
S11323508A95D2F7CA01B901D501ED91FC9101909A
S1132360F081E02DC50119958C2FC1508111E5CF65
S113237060E0C501B3DF4D2FD13208F040E22C2DCF
S113238065EB76E08F2D0FDD1092B4068093B306D3
S1132390DF91CF911F910F91FF90EF90CF90BF905D
S11323A0AF907F906F905F904F900895CF92EF928F
S11323B00F931F93C22EE12C00E010E09801A0DFE0
S11323C01F910F91EF90CF90089521E0EFCF0895E2
S11323D061E084CF089580EC92E090938E06809320
S11323E08D06089581E0411180E00895FC01A581E6
S11323F0B6819C918481982321E009F420E08781AF
S11324008227FB01808381E00895CF93DF93EC0161
S1132410E881F9810280F381E02D19958823A1F0E8
S1132420E0910002F09101028A818283BF016D5F15
S11324307F4FE881F9810480F581E02DCE01199563
S113244061E0680F83E0D0D8DF91CF9108958823AD
S113245011F02F9A08952F980895FC01228130E0FD
S1132460F901EE0FFF1FE352F94F40815181452BD3
S113247039F4220F331FF901E352F94F918380831A
S11324800895279A85ED96E0E8DF81E00895E5ED6B
S1132490F6E0128281E0838322ED32E031832083EF
S11324A084832FE230E03683258387838098889A5B
S11324B008950F931F930DE816E028E247E350E0D8
S11324C060E070E08DED98E00E94C4011F910F91CF
S11324D00895CF92DF92EF92FF920F931F93CF93C1
S11324E0DF9341155105C1F06A018C01E62EF72EE8
S11324F0C0E0D0E0D7016D917D01D801ED91FC9150
S11325000190F081E02DC8011995892B39F02196AD
S1132510CC16DD0679F702C0C0E0D0E0CE01DF9131
S1132520CF911F910F91FF90EF90DF90CF9008957E
S11325306115710581F0FB0101900020E9F73197E5
S1132540AF01461B570BDC01ED91FC910280F38136
S1132550E02D1995089580E090E00895DC01ED9157
S1132560FC910280F381E02D42E050E068ED72E0DE
S1132570199508950F931F93CF93DF93EC01D8DF40
S11325808C01CE01EBDF800F911FDF91CF911F9162
S11325900F9108950CD0BAC0B2D040F0A9D030F059
S11325A021F45F3F19F09BC05111E4C09EC0BFD01D
S11325B098F39923C9F35523B1F3951B550BBB2706
S11325C0AA2762177307840738F09F5F5F4F220FB3
S11325D0331F441FAA1FA9F333D00E2E3AF0E0E8AC
S11325E030D091505040E695001CCAF729D0FE2FF8
S11325F027D0660F771F881FBB1F2617370748078A
S1132600AB07B0E809F0BB0B802DBF01FF2793583F
S11326105F4F2AF09E3F510568F061C0ABC05F3F39
S1132620ECF3983EDCF3869577956795B795F79527
S11326309F5FC9F7880F911D9695879597F908951F
S1132640E1E0660F771F881FBB1F621773078407BB
S1132650BA0720F0621B730B840BBA0BEE1F88F7CA
S1132660E0950895E89409C097FB3EF49095809511
S1132670709561957F4F8F4F9F4F9923A9F0F92F44
S113268096E9BB279395F695879577956795B795C2
S1132690F111F8CFFAF4BB0F11F460FF1BC06F5FA8
S11326A07F4F8F4F9F4F16C0882311F096E911C0BA
S11326B0772321F09EE8872F762F05C0662371F0DB
S11326C096E8862F70E060E02AF09A95660F771FEF
S11326D0881FDAF7880F9695879597F9089597F9E3
S11326E09F6780E870E060E008959FEF80EC0895B4
S11326F000240A94161617061806090608950024DD
S11327000A9412161306140605060895092E039456
S1132710000C11F4882352F0BB0F40F4BF2B11F4CA
S113272060FF04C06F5F7F4F8F4F9F4F089557FD29
S11327309058440F551F59F05F3F71F04795880F2B
S113274097FB991F61F09F3F79F0879508951216C2
S113275013061406551FF2CF4695F1DF08C016166E
S113276017061806991FF1CF86957105610508941F
S11327700895E894BB2766277727CB0197F9089536
S11327800BD0C4CFB5DF28F0BADF18F0952309F0D9
S1132790A6CFABCF1124EECFCADFA0F3959FD1F320
S11327A0950F50E0551F629FF001729FBB27F00DFB
S11327B0B11D639FAA27F00DB11DAA1F649F662750
S11327C0B00DA11D661F829F2227B00DA11D621F9F
S11327D0739FB00DA11D621F839FA00D611D221F59
S11327E0749F3327A00D611D231F849F600D211D3D
S11327F0822F762F6A2F11249F5750408AF0E1F0E0
S113280088234AF0EE0FFF1FBB1F661F771F881F28
S113281091505040A9F79E3F510570F060CFAACF68
S11328205F3FECF3983EDCF3869577956795B79513
S1132830F795E7959F5FC1F7FE2B880F911D96953D
S1132840879597F90895A1E21A2EAA1BBB1BFD01D7
S11328500DC0AA1FBB1FEE1FFF1FA217B307E4077B
S1132860F50720F0A21BB30BE40BF50B661F771FD3
S1132870881F991F1A9469F76095709580959095B3
S11328809B01AC01BD01CF010895EE0FFF1F881F0E
S11328908BBF0790F691E02D1994FB01DC0102C077
S11328A005900D9241505040D8F70895FB01DC018A
S11328B004C08D910190801921F441505040C8F713
S11328C0881B990B0895FB01DC014150504048F0EE
S11328D001900D920020C9F701C01D924150504053
S10B28E0E0F70895F894FFCF1E
S11328E81D03FFFFFFFF7069692D3031C0A8B201D5
S11328F8A9FEF09D424E4F30353500000000007EA1
S113290801BE037F01FFFFFFFFFFFF0A496E6974E1
S113291869616C697A696E672E2E2E004661696C4E
S1132928656420746F20696E697469616C697A657D
S113293820726F626F742E00526F626F7420696E1A
S1132948697469616C697A65642E004661696C65AD
S11329586420746F206163636573732045746865CC
S1132968726E657420636F6E74726F6C6C65722E10
S113297800436F6E6E656374656420746F20636FC3
S11329886E74726F6C6C65722E0000000000F90B97
S11329986912990BD60B6B0B850B770B00000000A3
S11329A80B113511B00C0A11DF10E710FB100000F1
S11329B800000512F211F6110D0A006E616E00692D
S10B29C86E66006F76660000E4
S9030000FC
