:1000000051C1000080C100007EC100007CC1000021
:100010007AC1000078C1000076C1000074C1000000
:1000200072C1000070C100006EC100006CC1000010
:100030006AC1000068C1000066C1000064C1000020
:1000400062C1000060C100005EC100005CC1000030
:100050005AC1000058C1000056C1000054C1000040
:1000600052C100000C94960F0C94D20F4CC10000AA
:100070004AC1000048C1000046C1000044C1000060
:1000800042C1000040C100003EC100003CC1000070
:100090000C941E100C945A1036C100000C947D1361
:1000A00032C1000030C100002EC100002CC1000090
:1000B0002AC1000028C1000026C1000024C10000A0
:1000C00022C1000020C100001EC100000C94A61037
:1000D0000C94E21018C100000C942E110C946A11BB
:1000E00012C10000831486148614861486148614A4
:1000F000861486149E138614861486148614861419
:10010000861486149E138614861486148614861408
:1001100086148614A61386148614861486148614F0
:1001200086148614CB1386148614861486148614BB
:1001300086148614A61386148614861486148614D0
:1001400086148614D0138614861486148614861496
:1001500086148614D5138614861486148614861481
:1001600086148614E6138614861486148614861460
:10017000861486140F148614861486148614861426
:1001800086148614DA13861486148614861486144C
:1001900086148614F4138614861486148614861422
:1001A00086148614111486148614861486148614F4
:1001B00086148614111486148614861486148614E4
:1001C00086148614111486148614861486148614D4
:1001D00086148614111486148614861486148614C4
:1001E000861486141A1486148614861486148614AB
:1001F000861486144A14861486148614861486146B
:10020000861486141A14861486148614861486148A
:10021000861486144A14861486148614861486144A
:100220008614861432148614861486148614861452
:10023000861486144E148614861486148614861426
:10024000861486144E148614861486148614861416
:1002500086148614631486148614861486148614F1
:10026000861486147D1486148614861486148614C7
:10027000861486147D144500008200004000200092
:10028000010800060400010035053F0CFB0F831038
:100290000B119311E011021224124612ED15631690
:1002A00074177C1711241FBECFEFD1E2DEBFCDBF84
:1002B00000E00CBF12E0A0E0B2E0E8EAF4E300E006
:1002C0000BBF02C007900D92A63FB107D9F729E0F6
:1002D000A6EFB2E001C01D92A937B207E1F711E025
:1002E000C2E5D1E000E006C021970109802FFE01A0
:1002F0000E94251AC434D10780E00807A9F70E949C
:10030000FB0B0C94521A7CCE08950F931F93CF933E
:10031000DF938C01EB0188E2FB0111928A95E9F7EA
:100320004BE050E064E172E0CE010E94431A1B866C
:1003300081E090E0A0E0B0E08C879D87AE87BF872A
:10034000F80186819781A085B185888B998BAA8BCE
:10035000BB8B83E090E0A0E0B0E08C8B9D8BAE8BFC
:10036000BF8B1CA21DA21EA21FA2188E198E1A8E50
:100370001B8E1C8E1D8E1E8E1F8E8AE097EDA3E2B3
:10038000BCE388A399A3AAA3BBA3DF91CF911F913C
:100390000F9108950F931F93FC018FE192E09183D9
:1003A0008083468357836087718723831583048303
:1003B0001F910F9108950F931F93CF93DF93EC013B
:1003C000062F142F6B818C819D810E9466158C8174
:1003D0009D81DC01ED91FC910190F081E02D602F79
:1003E00019958C819D81DC01ED91FC910190F0814A
:1003F000E02D612F19958C819D810E94EA1581E085
:10040000DF91CF911F910F910895462FFC016287D4
:100410006DE3D1DFFFEF26E781E0F150204080401F
:10042000E1F700C0000008951F93CF93DF93EC0124
:10043000162F6B818C819D810E9466158C819D8118
:10044000DC01ED91FC910190F081E02D612F199577
:100450008C819D810E94EA1541E06B818C819D8198
:100460000E94E7158C819D81DC01ED91FC91028455
:10047000F385E02D1995DF91CF911F9108951F937A
:10048000CF93DF93EC01162F8C819D810E9456152E
:1004900060E0CE01C9DF803A79F02FEF83ED90E381
:1004A000215080409040E1F700C0000060E0CE01A4
:1004B000BBDF803A09F04BC060E0CE01A6DF40E22E
:1004C0006FE3CE0178DF2FEF86E791E02150804087
:1004D0009040E1F700C0000060E0CE01A5DF803A67
:1004E00039F08FE39CE90197F1F700C00000F4CFE9
:1004F0009FEF20E782E0915020408040E1F700C06C
:10050000000040E06EE3CE0156DF8FE39CE90197E7
:10051000F1F700C0000040E067E0CE014CDF40E0B2
:100520006FE3CE0148DF8FE39CE90197F1F700C04C
:100530000000612FCE0169DF9FEF29EF80E091502D
:1005400020408040E1F700C0000081E001C080E071
:10055000DF91CF911F91089564E366CF0895CF9204
:10056000DF92EF92FF920F931F93CF93DF937C0163
:10057000C62F6A01122FDC0113966C911397149603
:100580008D919C9115970E946615F7018481958144
:10059000DC01ED91FC910190F081E02D6C2F19951B
:1005A000F701848195810E94EA15412FD7011396A6
:1005B0006C91139714968D919C9115970E94E71555
:1005C0001123B1F0E6011150012F10E00F5F1F4F12
:1005D0000C0D1D1DF70184819581DC01ED91FC91CD
:1005E0000284F385E02D19958993C017D10791F7FF
:1005F00081E0DF91CF911F910F91FF90EF90DF90FD
:10060000CF900895AF92BF92CF92DF92FF920F9357
:100610001F93CF93DF9300D000D0CDB7DEB78C010E
:10062000CB01F42E2CE0F80111922A95E9F7AE01E6
:100630004F5F5F4F26E0FA0111922A95E9F726E015
:100640006F2D8DDF6A8170E0762F66278981682B98
:100650008C8190E0982F88272B816C01C22A8E8193
:1006600090E0982F88272D815C01A22AF4E1FF16E3
:1006700009F44AC0FF1540F088E0F81609F4ACC050
:10068000EEE0FE1669F043C1F8E2FF1609F4D8C0A7
:100690008EE2F81609F408C1EAE1FE1238C168C01A
:1006A000072E000C880B990B0E94EC1820E030E01C
:1006B00040E85DE30E94A019F801608371838283A2
:1006C0009383B601DD0C880B990B0E94EC1820E097
:1006D00030E040E85DE30E94A019F801648375836F
:1006E00086839783B501BB0C880B990B0E94EC188D
:1006F00020E030E040E85DE30E94A019F801608747
:1007000071878287938703C1072E000C880B990B92
:100710000E94EC1820E030E040E85DE30E94A01960
:10072000F8016083718382839383B601DD0C880BAB
:10073000990B0E94EC1820E030E040E85DE30E9455
:10074000A019F8016483758386839783B501BB0C78
:10075000880B990B0E94EC1820E030E040E85DE344
:100760000E94A019F8016087718782879387CFC0A4
:10077000072E000C880B990B0E94EC1820E030E04B
:1007800040E85DE30E94A019F801608371838283D1
:100790009383B601DD0C880B990B0E94EC1820E0C6
:1007A00030E040E85DE30E94A019F801648375839E
:1007B00086839783B501BB0C880B990B0E94EC18BC
:1007C00020E030E040E85DE30E94A019F801608776
:1007D0007187828793879BC0072E000C880B990B2B
:1007E0000E94EC1820E030E048EC52E40E945618D9
:1007F000F8016083718382839383B601DD0C880BDB
:10080000990B0E94EC1820E030E048EC52E40E9482
:100810005618F8016483758386839783B501BB0CF2
:10082000880B990B0E94EC1820E030E048EC52E471
:100830000E945618F801608771878287938767C086
:10084000072E000C880B990B0E94EC1820E030E07A
:1008500048EC52E40E945618F80160837183828349
:100860009383B601DD0C880B990B0E94EC1820E0F5
:1008700030E048EC52E40E945618F8016483758316
:1008800086839783B501BB0C880B990B0E94EC18EB
:1008900020E030E048EC52E40E945618F8016087EE
:1008A00071878287938733C0072E000C880B990BC2
:1008B0000E94EC1820E030E048EC52E40E94561808
:1008C000F8016083718382839383B601DD0C880B0A
:1008D000990B0E94EC1820E030E048EC52E40E94B2
:1008E0005618F8016483758386839783B501BB0C22
:1008F000880B990B0E94EC1820E030E048EC52E4A1
:100900000E945618F8016087718782879387C80113
:1009100026960FB6F894DEBF0FBECDBFDF91CF9104
:100920001F910F91FF90DF90CF90BF90AF900895EF
:100930000F931F93CF93DF93CDB7DEB72C970FB6EE
:10094000F894DEBF0FBECDBF8B0120E2FB011192F8
:100950002A95E9F740E250E060E070E0F80140835A
:10096000518362837383FC01468157816085718561
:10097000F801448355836683778343E050E060E069
:1009800070E040875187628773874AE1BC01CE01DE
:10099000019638DE89819A81AB81BC81F801808B18
:1009A000918BA28BB38B8D819E81AF81B885848B17
:1009B000958BA68BB78B89859A85AB85BC85808FF7
:1009C000918FA28FB38F81E02C960FB6F894DEBF83
:1009D0000FBECDBFDF91CF911F910F910895613070
:1009E00049F4FC018081E091F602F091F7028083E6
:1009F00080E0BFC608954091F6023091F7022FEFD4
:100A0000260F662341F0A82FB92FE42FF32F8D91E5
:100A100081932150E0F781E0ACC60895613051F434
:100A2000FC019081923030F481E0911101C080E0AE
:100A30000C94401608959B01813051F028F08230CB
:100A400059F0833069F00895642FC901C8CF089523
:100A5000642FC901D0CF0895642FC901DFCF089555
:100A6000642FC9010C94461608958091000290915C
:100A7000010202969093F7028093F6020895E091A6
:100A8000FC02F091FD0290818091FB028095892308
:100A900080830895E091FC02F091FD0290818091A5
:100AA000FB02892B80830895CF93DF93D82FC62F25
:100AB000E6DF8C2FCF71CD2BCEBD00000DB407FE2D
:100AC000FDCF1EBC00000DB407FEFDCFCEB58823C0
:100AD00034F41EBC00000DB407FEFDCFCEB5DADF46
:100AE0008C2FDF91CF9108951F93CF93DF93C82F61
:100AF000D62F142FC4DFDF71CD2BCEBD00000DB477
:100B000007FEFDCF1EBD00000DB407FEFDCFC2DF06
:100B1000DF91CF911F9108950F931F93CF93DF9390
:100B2000EC018B01ACDF209799F08AE38EBD0000C9
:100B30000DB407FEFDCFF801B8016C0F7D1F1EBC80
:100B40000DB407FEFDCF9EB591936E177F07B9F7E1
:100B5000A1DFDF91CF911F910F9108951F93CF9344
:100B6000DF93182F1076C12FD0E08091FE0290E025
:100B7000C817D907A1F043E06FE180EAB5DF109311
:100B8000FE02AE0155954795559547955595479564
:100B900055954795559547956FE180E8A5DFDF911D
:100BA000CF911F910895CF93C82FD8DF6C2F80E08D
:100BB0007BDFCF910895CF93DF93C82FD62FCEDF61
:100BC0004D2F6C2F80E490DFDF91CF910895CF936C
:100BD000DF93C82FD72FEFDF6D2F81E08C0FEBDF76
:100BE000DF91CF910895FC0194B1976094B9239857
:100BF0009DB591609DBD9CB590659CBD8081909197
:100C0000FB02982B908346CF08950F93CF93DF93E9
:100C1000EB01909300038093FF020093FB0230935B
:100C2000FD022093FC02CA01DEDF4FEF60E08FEF90
:100C30005BDF8FE39FE10197F1F700C000006DE1FA
:100C400080E032DF8823D9F360E070E088E0BFDF26
:100C500060E070E08CE0BBDF6FEF7BE08AE0B7DF45
:100C600060E07CE084E0B3DF6FEF71E186E0AFDF4E
:100C700061EB88E3A0DF6FE370E388E2A8DF69EF50
:100C800077EF80E3A4DF61E080EC95DF42E362EC84
:100C900080E82ADF62E17CE086EC99DF62E184ECA7
:100CA0008ADF6CED75E08AEC92DF688184EE83DF89
:100CB000698185EE80DF6A8182EE7DDF6B8183EE64
:100CC0007ADF6C8180EE77DF6D8181EE74DF60E129
:100CD00084ED71DF60E071E086ED79DF8AEE63DF3D
:100CE00080FDFCCF8FE13ADF40EC6BE180E8FCDE79
:100CF00044E06FE180E8F8DE82E755DF863008F0F7
:100D00008F5FDF91CF910F91089561E184ED53DF03
:100D100061E082ED50DF8AEE46DF80FDFCCF60E0CF
:100D200082ED49DF89ED3FDF82FB882780F9089556
:100D3000AF92BF92CF92DF92EF92FF920F931F93E9
:100D4000CF93DF937C016C0184EFD81A0F2EF1E072
:100D5000AF2EF3E0BF2EF02D87010F5F1C4F40E850
:100D60006FE180E8C1DE40E86FE180EABDDE4AE085
:100D70006CE180EAB9DE60E07CE082E028DFB60169
:100D800086E025DF40E060E08AE7AEDE78DEE11451
:100D9000F104E1F08AE78EBD00000DB407FEFDCF3F
:100DA000F50180818EBDF1E0EF16F10459F0E2E02B
:100DB000F3E000000DB407FEFDCF81918EBDE0177A
:100DC000F107B9F700000DB407FEFDCF63DE48E080
:100DD0006FE180E889DEC0E0D0E08CE1E4DE8A707B
:100DE00031F42196C83E83E0D807B9F70CC08CE1F6
:100DF000DADE81FD03C0C83ED34040F048E06FE139
:100E000080EA72DEACCF8CE1CEDEF8CFDF91CF91FD
:100E10001F910F91FF90EF90DF90CF90BF90AF9018
:100E200008950F931F93CF93DF9300D000D0CDB7D9
:100E3000DEB78091FA02882391F06091F8027091F8
:100E4000F9026115710529F46FEF7BE08CE0BFDEDC
:100E500004C0615071098CE0BADE1092FA0289E395
:100E6000A2DE8823A9F16091F8027091F90280E076
:100E7000AEDEBE016F5F7F4F86E090E04DDE898180
:100E80009A819093F9028093F8028D8187FF12C0B6
:100E90008091FF029091000301970B811C81045007
:100EA00011098017910708F48C0161E073E0C80113
:100EB00033DE02C000E010E0F801EF5FFC4F10826B
:100EC00081E08093FA0240E46EE180E80DDE02C02A
:100ED00000E010E0C80126960FB6F894DEBF0FBE02
:100EE000CDBFDF91CF911F910F910895EF92FF92A7
:100EF0000F93CF93DF93EB017A01022FBC018BE1BB
:100F000095E0C9D39701AE016BE175E080E092E016
:100F10007CDEDF91CF910F91FF90EF900895EF92DB
:100F2000FF920F931F93CF93DF937B018A01E90117
:100F3000009721F0BC0187E195E0A0D3E114F10412
:100F400011F0C701BDD10115110521F0B80187E0ED
:100F500095E094D3209721F0BE0183E195E08ED3F4
:100F6000BBD1109202051092010581E0DF91CF9173
:100F70001F910F91FF90EF900895CF92DF92EF9223
:100F8000FF92CF93DF93C62FD0E0CF5FDC4F2130AD
:100F900081F46A0199E0C90ED11CE12CF12C03C047
:100FA000C12CD12C76014230510528F1FE01DA0125
:100FB00009C02230A9F76A0192E0C91AD108E12CD0
:100FC000F12CF1CF208130E0322F22279181292B83
:100FD000C20ED31EE11CF11C32961297A230B1054D
:100FE00088F79A01225031092E7F2E5F3F4FC20FA2
:100FF000D31F41705527452B61F0488150E060E0D8
:1010000070E0762F652F542F4427C40ED51EE61EA0
:10101000F71EA70166277727411551056105710560
:1010200071F0EE24FF24C40ED51EE61EF71EA701A4
:1010300066277727411551056105710591F7C09421
:10104000D094E82FF0E0EF5FFC4FD082C182DF91B7
:10105000CF91FF90EF90DF90CF900895CF93DF93E3
:10106000FC0120812223D1F0FB0130813323C1F028
:101070002327309113052323A9F4DC01119631961F
:10108000C4E1D5E004964D91219139912427232381
:1010900059F4A817B907B9F781E007C080E005C087
:1010A00080E003C080E001C080E0DF91CF9108952F
:1010B000E1E0F3E0108E118E80E4848B158A868B3C
:1010C00020E044E150E06EE088E157CF0895BC0194
:1010D00081E093E0E0D26BE175E087E093E0DBC272
:1010E000089587E093E0F3DF6BE173E08FE193E035
:1010F000C5D267E175E08BE193E0C0D2D9CF089506
:10110000CF93DF93EB01E3DFBE018FE193E0B6D233
:1011100067E175E08BE193E0B1D2DF91CF91089563
:10112000CF93DF93EB0144E050E0BC018DE193E00D
:101130000E94361A892B31F467E173E0CE01ABD2FD
:1011400081E001C080E0DF91CF9108950F931F935C
:10115000CF938C0185E292E0BADFE1E0F3E088E032
:101160008487C6E0C58748E050E06FE772E08FE013
:1011700093E00E942D1AE1E2F3E0DF011D92CA958F
:10118000E9F76BE175E087E193E085D2B80187E28A
:1011900093E074D267E175E08DE193E06FD28AE26B
:1011A00090E0C6DDCF911F910F910895EF92FF92CD
:1011B0000F931F93CF93DF93182F092FEB01F42E7A
:1011C000E52E87E195E04ADF882329F0BE018CE215
:1011D00095E096DF04C0BE0182E295E091DF888150
:1011E000807F803E91F088819981AA81BB818F3F69
:1011F0009F4FAF4FBF4F49F044E050E0BE018FE03A
:1012000095E00E94361A892B29F465E272E081E0AC
:1012100093E041D2C1E0D3E088E08C871D8649E0AD
:1012200050E066E772E08FE093E00E942D1A188A82
:1012300081E18F8BECA2FDA20AA31BA31EA218A61C
:1012400019A6DF91CF911F910F91FF90EF90089514
:101250000F931F93CF93DF93EC0101E013E04C96C3
:10126000F801908B818B24DFCE010896F80196A3BC
:1012700087A3AE01405F5F4F21E06AE188E27DDE37
:10128000CE018A9655DDDF91CF911F910F91089580
:101290000F931F93CF93DF93D62FC72FCA01A801B7
:1012A000B90184DF8D2F9C2F813022E0920710F04E
:1012B00080E092E0CDDFDF91CF911F910F910895F3
:1012C000109202051092010521E020932105BC0136
:1012D0008BE095E0D3C10895CF93DF93E7E1F5E08C
:1012E000C3E1D5E0AFE0B5E02BE135E09191899124
:1012F0008095892B8D93E217F307C1F7DF91CF918A
:101300000895CF93DF93EC01009709F03FC08091DF
:101310002105857089F08091010590910205892B46
:1013200059F4F3DC882341F08BE095E00FDF8091E6
:101330002105886080932105809101059091020527
:101340000196909302058093010567E075E087E1BF
:1013500095E084DE882349F080912A05811105C03B
:1013600080912B05882309F4DCC063E075E087E1F8
:1013700095E074DE882309F4F8C080912805811176
:10138000F4C0809129058111F0C0D2C08932910545
:1013900008F4D5C080910D03883009F0E6C0809133
:1013A0000E03863009F0DDC044E050E067E175E0EF
:1013B00087E293E00E94361A892B09F0D2C0C3C09D
:1013C00087E093E084DEE1E0F3E0148A82E0858B3D
:1013D00067E173E081E293E05ED16BE175E087E164
:1013E00093E059D16DE173E087E293E047D167E183
:1013F00075E08DE193E042D18AE290E099DC809142
:10140000210583FF0EC080911603823051F462E201
:1014100075E08BE095E084DE882319F082E080930C
:10142000210580912A05811110C080912B05882308
:1014300061F06CE275E087E095E072DE882329F0C8
:1014400081E080932A0510922B0580912805811157
:101450008CC080912905882309F487C06CE275E06F
:1014600083E095E05DDE882309F47FC081E080930E
:1014700028051092290579C080910D03883009F064
:1014800074C080910E03811170C080910F03853468
:1014900009F06BC044E050E067E175E08FE193E054
:1014A0000E94361A892B09F454C044E050E06FE0E2
:1014B00075E08FE193E00E94361A892B09F449C048
:1014C00044E050E065E272E08FE193E00E94361A5A
:1014D000892B09F04AC03DC0809123038830C9F4AC
:1014E000E0913205F0913305309719F08BE193E0EC
:1014F0001995F7DDE1E0F3E012A284A1883F18F02E
:1015000095A19F5F95A3885F80932503CE0110DC92
:101510002CC04AD0882349F180911803813129F5E4
:101520001DC087E095E012DE81E080932B051DCF82
:1015300083E095E00BDE81E08093290516C08A9751
:1015400008F09ACF12C080911603813009F057CF6E
:1015500037CF809118038130E1F6BECFCE012BD07A
:1015600004C0CA32D10508F08CCF80E090E0DF9152
:10157000CF9108959C01909134059830A0F4E92F03
:10158000F0E0AF01440F551F440F551FE40FF51F46
:10159000EB5CFA4F318320837383628381E0848321
:1015A0009F5F90933405089581E0909134059111E7
:1015B00001C080E008958F929F92BF92CF92DF92F8
:1015C000EF92FF920F931F93CF93DF938091340597
:1015D000882309F446C0C5E3D5E0E12CF12C80E076
:1015E0000F2EF1E0CF2EF3E0DF2EF02DBB24B394CD
:1015F000AA81BB81F60124A130E04B2F5527241787
:10160000350721F525A130E0AD0155272417350711
:10161000E9F49C819923D1F007A110E00850110949
:1016200086A190E0982F8827080F191F42A150E04B
:10163000542F442783A1482B888099802BE233E0E4
:101640006BE173E0CD01F40119958B2DFFEFEF1ADB
:10165000FF0A25962091340530E0E216F30644F2A5
:1016600001C080E0DF91CF911F910F91FF90EF902B
:10167000DF90CF90BF909F908F900895FB012081C5
:101680003181FC0131832083FB0122813381FC0104
:10169000338322830895DC0196E0FB0101900D92D3
:1016A0009A95E1F70895FC012081DC011296818171
:1016B000922F980F3FEF360F662361F0FD01832FC5
:1016C0002191920F8150E0F7232F30E02F5F3F4FA1
:1016D000A20FB31F81E02C91291380E008950F938E
:1016E0001F93CF93DF93A801435051094F3F5105FA
:1016F00009F088F4F90180818F3F69F4E901035012
:10170000602FC901D0DF882331F0BE016E5F7F4FAB
:10171000402F898190D9DF91CF911F910F9108952A
:101720000F93CF93DF93EC01CA01A901202FD0932F
:101730006005C0935F0570935E0560935D05BC0115
:1017400086E092E0D3DB882379F020E030E040E0CF
:1017500050E06CE072E080E192E0E1DBBE018FE6F8
:101760009BE008DF81E001C080E0DF91CF910F9125
:1017700008950F931F93CF93DF93E0910002F091B0
:1017800001029FEF9083E0910002F09101028183BA
:101790008150C0910002D0910102DE0112964FEFFC
:1017A000460F662381F0FD0150E09A012D5F3F4F07
:1017B0002C0F3D1F9191890FE217F307D9F74F5F67
:1017C0005F4FA40FB51F8C9300915D0510915E05CE
:1017D00040915F055091600570E06D5F7F4F22E0A2
:1017E00032E0809100029091010252DDDF91CF91B1
:1017F0001F910F910895789426E040E855E260E04B
:1018000070E086E695E02AD36BE272E086E695E02A
:101810000E94DD170E947D16811107C06CE372E003
:1018200086E695E00E94DD17FFCF68E572E086E668
:1018300095E00E94DD1701E025E230E044E250E04F
:1018400062E777E181E797E16BDF811107C06BE623
:1018500072E086E695E00E94DD17FFCF61E972E055
:1018600086E695E00E94DD1781E695E09AD1D9DA07
:1018700048DD0E94911681E695E0ADD1F8CF60E495
:1018800081E695E08CC10895FC0160830895EF9294
:10189000FF920F931F93CF93DF93C62FE42EF52E65
:1018A000022F132FFC01608180E097E00E946615F3
:1018B0006C2F70E0660F771F660F771F6A5F7F4F90
:1018C000C0E0D7E0E881F9810190F081E02DCE0100
:1018D0001995E881F9810190F081E02D6E2DCE01FE
:1018E0001995E881F9810190F081E02D6F2DCE01ED
:1018F0001995E881F9810190F081E02D602FCE01EA
:101900001995E881F9810190F081E02D612FCE01D8
:101910001995CE010E94EA15DF91CF911F910F9189
:10192000FF90EF900895FC01418352836383748399
:1019300008951F93CF93DF93EC01162F688180E009
:1019400097E00E946615612F80E097E00E94FD14E9
:1019500080E097E00E94EA1541E0688180E097E02E
:101960000E94E71580E097E0ECD7DF91CF911F91BF
:101970000895CF93DF93D62FC42FFC01608180E0C0
:1019800097E00E9466156D2F80E097E00E94FD149D
:101990006C2F80E097E00E94FD1480E097E00E94A9
:1019A000EA15DF91CF91089540E860E0E2DF8FE330
:1019B0009CE90197F1F700C0000008950F931F9371
:1019C000CF93DF938C01D62F60E0B3DFC82FCF76A3
:1019D0004C2F406160E0C801CCDFC0654C2F60E057
:1019E000C801C7DF4D2F6EEFC801C3DF8FE19EE452
:1019F0000197F1F700C000004C2F4F74406A60E07F
:101A0000C801B7DFDF91CF911F910F9108958F9299
:101A10009F92AF92BF92CF92DF92EF92FF921F936D
:101A2000CF93DF93EC016A017B0120E030E040E8D6
:101A30005FE3C701B6010E9452188823A4F020E09A
:101A400030EC4AE555E4C701B6010E949C1918160E
:101A500094F40F2EC12CF0ECDF2EFAE5EF2EF5E416
:101A6000FF2EF02D08C00F2EC12CD12CF0E8EF2E48
:101A7000FFE3FF2EF02D69817A818B819C810E948A
:101A8000EA184B015C0120E030E040E855E4C70172
:101A9000B6010E94A0199B01AC01C501B4010E94CE
:101AA000561820E030E040E05FE30E94EE1720E0AF
:101AB00030E040E85FE30E94ED176B017C0120E01D
:101AC00030E040E450E40E94521888239CF020E06B
:101AD00030E04FE753E4C701B6010E949C19181685
:101AE0007CF40F2EC12CD12CFFE7EF2EF3E4FF2E58
:101AF000F02D06C0C12CD12C6894EE24E6F8FE2C03
:101B000060E0CE0116DF182F482F4F76406160E06D
:101B1000CE012FDFC701B6010E94BE18462F6EEF1F
:101B2000CE0127DF412F60E0CE0123DF8FE19EE46D
:101B30000197F1F700C00000412F406A60E0CE013C
:101B400018DFDF91CF911F91FF90EF90DF90CF9042
:101B5000BF90AF909F908F9008951F93CF93DF9386
:101B6000EC01162F80E097E0A1D7CE011DDF1123F5
:101B700021F0612FCE0122DF06C040E050E06AE78D
:101B800074E4CE0144DF80E498E7ADE7B1E08983F7
:101B90009A83AB83BC83DF91CF911F91089574CE5C
:101BA0000895CF93DF93EC0160E0D7DF40EC5CEF6A
:101BB0006BE971E0CE01B7DE40E050E068E472E42A
:101BC000CE0125DF8FE39CE90197F1F700C000000B
:101BD000DF91CF910895CF92DF92FF920F931F93E1
:101BE000CF93DF930F2EF6E9CF2ED12CF02D182FA7
:101BF000D92FC0E0012FFD2E960140E050E06C2F60
:101C0000812F9D2F44DECF5FC031A1F78FE19EE48D
:101C10000197F1F700C000009FEFC91AD90A28E523
:101C2000C21622E0D20629F78FEF99E628E181500B
:101C300090402040E1F700C000000F2EF8E5CF2EC5
:101C4000F2E0DF2EF02DC0E0960140E050E06C2F76
:101C5000802F9F2D1CDECF5FC031B1F78FE19EE456
:101C60000197F1F700C0000091E0C91AD10826E9F8
:101C7000C216D10441F78FEF99E628E181509040D8
:101C80002040E1F700C00000DF91CF911F910F913C
:101C9000FF90DF90CF900895FC0197852089892FD0
:101CA00090E0805C9F4F821B91098F739927089564
:101CB000FC0197858089981731F08089E80FF11D24
:101CC000838990E008958FEF9FEF0895FC01978539
:101CD0008089981761F08089DF01A80FB11D5396A4
:101CE0008C9190899F5F9F73908B90E008958FEF08
:101CF0009FEF0895FC0121893289231738F08FE383
:101D000090E0821B9109830F911D0895832F90E02D
:101D1000821B910901970895FC018289DF01A80FB8
:101D2000B11DAD5ABF4F8C91228930E02F5F3F4FDC
:101D30002F733078332334F421503109206C3F6FF6
:101D40002F5F3F4F228BA485B5858C93A681B781E9
:101D50008C91837080648C9391898289981306C0DA
:101D60000084F185E02D80818F7D80830895CF935D
:101D7000DF93EC018E858823D1F0E885F985808199
:101D800085FD05C0AE81BF818C9186FD10C00FB668
:101D900007FCF5CF808185FFF2CF03C0CE01BCDF09
:101DA000ECCFAE81BF818C9185FFE9CFF7CFDF917A
:101DB000CF9108950F931F93CF93DF93EC0181E0B0
:101DC0008E8799898A89981325C0EE81FF81808149
:101DD00085FD31C01FC08A8918130BC00FB607FCE0
:101DE000FACFEE81FF81808185FFF5CFCE0194DFB0
:101DF000F2CF8989FE01E80FF11DED5AFF4F0083F4
:101E00009FB7F894198BE885F9858081806280837B
:101E10009FBF1DC0298930E02F5F3F4F2F7330785F
:101E2000332334F421503109206C3F6F2F5F3F4F33
:101E3000062F122FD0CF9FB7F894EC85FD856083D5
:101E4000EE81FF8180818370806480839FBF81E009
:101E500090E0DF91CF911F910F910895CF92DF9283
:101E6000EF92FF921F93CF93DF93EC016A017B0106
:101E7000122FEE81FF8182E080834115514E610572
:101E80007105B1F060E079E08DE390E0A701960183
:101E90000E94031ADA01C9010197A109B109B69597
:101EA000A795979587959C01211580E13807A8F0A3
:101EB000EE81FF81108260E874E88EE190E0A70176
:101EC00096010E94031ADA01C9010197A109B1091B
:101ED000B695A795979587959C01EA81FB813083FC
:101EE000EC81FD8120831E86EA85FB851083E885D1
:101EF000F985808180618083E885F98580818860AB
:101F00008083E885F985808180688083E885F9850C
:101F100080818F7D8083DF91CF911F91FF90EF9023
:101F2000DF90CF90089580E090E008951F920F9287
:101F30000FB60F9211240BB60F922F938F939F938E
:101F4000AF93BF93EF93FF93E0916C05F0916D0514
:101F5000808182FD14C0E6E6F5E0A485B5852C916C
:101F600087858F5F8F709089891771F0DF01E78512
:101F7000F0E0EA59FA4F238B1F968C9305C0E0914D
:101F80007205F09173058081FF91EF91BF91AF9140
:101F90009F918F912F910F900BBE0F900FBE0F90BE
:101FA0001F9018951F920F920FB60F9211240BB627
:101FB0000F922F933F934F935F936F937F938F93E2
:101FC0009F93AF93BF93EF93FF9386E695E0A4DED4
:101FD000FF91EF91BF91AF919F918F917F916F9101
:101FE0005F914F913F912F910F900BBE0F900FBEBD
:101FF0000F901F901895E6E6F5E08EEA92E0918347
:10200000808385EC90E09383828384EC90E09583D9
:10201000848380EC90E09783868381EC90E09187C5
:10202000808782EC90E09387828786EC90E09587AA
:1020300084871786108A118A128A08951F920F9238
:102040000FB60F9211240BB60F922F938F939F937D
:10205000AF93BF93EF93FF93E0919F05F091A0059D
:10206000808182FD14C0E9E9F5E0A485B5852C9155
:1020700087858F5F8F709089891771F0DF01E78501
:10208000F0E0E756FA4F238B1F968C9305C0E09142
:10209000A505F091A6058081FF91EF91BF91AF91C9
:1020A0009F918F912F910F900BBE0F900FBE0F90AD
:1020B0001F9018951F920F920FB60F9211240BB616
:1020C0000F922F933F934F935F936F937F938F93D1
:1020D0009F93AF93BF93EF93FF9389E995E01CDE45
:1020E000FF91EF91BF91AF919F918F917F916F91F0
:1020F0005F914F913F912F910F900BBE0F900FBEAC
:102100000F901F901895E9E9F5E08EEA92E091832F
:1021100080838DEC90E0938382838CEC90E09583B8
:10212000848388EC90E09783868389EC90E09187A4
:1021300080878AEC90E0938782878EEC90E0958789
:1021400084871786108A118A128A08951F920F9227
:102150000FB60F9211240BB60F922F938F939F936C
:10216000AF93BF93EF93FF93E091D205F091D30526
:10217000808182FD14C0ECECF5E0A485B5852C913E
:1021800087858F5F8F709089891771F0DF01E785F0
:10219000F0E0E453FA4F238B1F968C9305C0E09137
:1021A000D805F091D9058081FF91EF91BF91AF9152
:1021B0009F918F912F910F900BBE0F900FBE0F909C
:1021C0001F9018951F920F920FB60F9211240BB605
:1021D0000F922F933F934F935F936F937F938F93C0
:1021E0009F93AF93BF93EF93FF938CEC95E094DDB7
:1021F000FF91EF91BF91AF919F918F917F916F91DF
:102200005F914F913F912F910F900BBE0F900FBE9A
:102210000F901F901895ECECF5E08EEA92E0918318
:10222000808385ED90E09383828384ED90E09583B5
:10223000848380ED90E09783868381ED90E09187A1
:10224000808782ED90E09387828786ED90E0958786
:1022500084871786108A118A128A08951F920F9216
:102260000FB60F9211240BB60F922F938F939F935B
:10227000AF93BF93EF93FF93E0910506F0910606AD
:10228000808182FD14C0EFEFF5E0A485B5852C9127
:1022900087858F5F8F709089891771F0DF01E785DF
:1022A000F0E0E150FA4F238B1F968C9305C0E0912C
:1022B0000B06F0910C068081FF91EF91BF91AF91D9
:1022C0009F918F912F910F900BBE0F900FBE0F908B
:1022D0001F9018951F920F920FB60F9211240BB6F4
:1022E0000F922F933F934F935F936F937F938F93AF
:1022F0009F93AF93BF93EF93FF938FEF95E00CDD28
:10230000FF91EF91BF91AF919F918F917F916F91CD
:102310005F914F913F912F910F900BBE0F900FBE89
:102320000F901F901895EFEFF5E08EEA92E0918301
:10233000808385E391E09383828384E391E09583B6
:10234000848380E391E09783868381E391E09187A2
:10235000808782E391E09387828786E391E0958787
:1023600084871786108A118A128A0895CF92DF9285
:10237000EF92FF920F931F93FC017183608353834D
:1023800042833583248317830683F186E086D386D0
:10239000C28688EE93E09587848797878687918B9E
:1023A000808B80ED97E0938B828B958B848B978BC2
:1023B000868B1F910F91FF90EF90DF90CF90089543
:1023C000CF92DF92EF92FF920F931F930F2EFCE8B4
:1023D000CF2ED12CF02D0F2EFAE8EF2EF12CF02D70
:1023E00008E810E021E830E040E850E066E870E0FE
:1023F00082E396E0BBDF1F910F91FF90EF90DF909B
:10240000CF900895CF92DF92EF92FF920F931F9398
:102410000F2EFCE9CF2ED12CF02D0F2EFAE9EF2E46
:10242000F12CF02D08E910E021E930E040E950E01E
:1024300066E970E08AE496E099DF1F910F91FF90C2
:10244000EF90DF90CF900895CF92DF92EF92FF92BE
:102450000F931F930F2EFCEACF2ED12CF02D0F2EB1
:10246000FAEAEF2EF12CF02D08EA10E021EA30E034
:1024700040EA50E066EA70E082E696E077DF1F917E
:102480000F91FF90EF90DF90CF900895CF92DF9261
:10249000EF92FF920F931F930F2EFCE2CF2EDD24BD
:1024A000D394F02D0F2EFAE2EF2EFF24F394F02DAB
:1024B00008E211E021E231E040E251E066E271E041
:1024C0008AE796E053DF1F910F91FF90EF90DF9026
:1024D000CF9008951092FF0681E08093FD06109240
:1024E000FC068BB183608BB9E9EBF0E080818E7FD5
:1024F000808380818D7F808388E48093B80085E429
:102500008093BC000895413208F04CC09091FF06C2
:102510009111FCCF31E03093FF062093FD062FEFA1
:10252000209392061092D706240F2093D60630935C
:10253000FE062091FE06880F822B8093FE06809176
:10254000FC06813081F41092FC06ABEBB0E0ECEBC2
:10255000F0E08091FE068C93808183FDFACF85ECBC
:102560008093BC0003C085EE8093BC008091FF0681
:102570008130E1F38091D706841710F44091D7069B
:10258000442389F0E8EDF6E0A62FB72F2FEF240FB4
:1025900030E02752394F81918D93E217F307D9F735
:1025A000942F01C090E0892F08950F93413208F0D5
:1025B00057C03091FF063111FCCF92E09093FF0697
:1025C0000093FD069FEF909392061092D7064093DA
:1025D000D606442371F0FB01A8EDB6E0415050E06F
:1025E0004F5F5F4F640F751F91919D93E617F7073B
:1025F000D9F71092FE069091FE06880F892B8093E2
:10260000FE068091FC06813081F41092FC06ABEB53
:10261000B0E0ECEBF0E08091FE068C93808183FDCE
:10262000FACF85EC8093BC0003C085EE8093BC009C
:10263000222341F08091FF06823021F48091FF0631
:102640008230E1F3809192068F3F79F0809192067B
:10265000803241F080919206803331F034E005C041
:1026600031E003C032E001C033E0832F0F910895C1
:102670004091B406262F30E0240F311D2132310560
:10268000ECF42091FF062430D9F4662381F0A82FC2
:10269000B92F80E090E03091B4062D91FC01EA540E
:1026A000F94FE30FF11D208301968617A0F3809167
:1026B000B406680F6093B40680E0089581E0089541
:1026C00082E008959093F9068093F8060895909318
:1026D000FB068093FA06089585ED8093BC00ECEB31
:1026E000F0E0808184FDFDCF1092FF06089585EC17
:1026F0008093BC001092FF0608951F920F920FB6B0
:102700000F9211240BB60F922F933F934F935F9329
:102710006F937F938F939F93AF93BF93EF93FF93A9
:102720008091B900887F90E0893C910508F0EEC067
:10273000FC018827EE58FF4F8F4F87C68091FE0619
:102740008093BB0085EC8093BC00E0C09091D706DD
:102750008091D606981780F4E091D70681E08E0F1D
:102760008093D706F0E0E852F94F80818093BB0058
:1027700085EC8093BC00CAC08091FD06882311F0CF
:10278000ABDFC4C081E08093FC0684EA8093BC0088
:102790001092FF06BBC080E2809392069DDFB6C018
:1027A00080E38093920698DFB1C088E3809392061D
:1027B0009EDFACC0E091D70681E08E0F8093D706F4
:1027C0008091BB00F0E0E852F94F80839091D706EA
:1027D0008091D606981720F485EC8093BC0096C0B3
:1027E00085E88093BC0092C0E091D70681E08E0F0F
:1027F0008093D7068091BB00F0E0E852F94F8083C8
:102800008091FD06882311F067DF80C081E080930E
:10281000FC0684EA8093BC001092FF0677C05CDF60
:1028200075C083E08093FF061092930685EC809339
:10283000BC006CC080919306803280F4E0919306D6
:1028400081E08E0F809393068091BB00F0E0EC5600
:10285000F94F808385EC8093BC0058C085E8809355
:10286000BC0054C044DF80919306803230F4E09184
:102870009306F0E0EC56F94F10826091930670E0F9
:10288000E091F806F091F90684E996E01995109226
:1028900093063CC085E88093BC0038C084E08093F8
:1028A000FF061092B5061092B406E091FA06F09178
:1028B000FB0619958091B406811105C081E08093D3
:1028C000B4061092B606E091B50681E08E0F8093B3
:1028D000B506F0E0EA54F94F80818093BB009091F7
:1028E000B5068091B406981720F485EC8093BC005F
:1028F0000DC085E88093BC0009C085EC8093BC00C6
:102900001092FF0603C010929206E6DEFF91EF914F
:10291000BF91AF919F918F917F916F915F914F91F7
:102920003F912F910F900BBE0F900FBE0F901F90F5
:10293000189580912A0790E020912B07821B91091E
:10294000089590912B0780912A07981750F4E92F4A
:10295000F0E0E45DF84F208130E09F5F90932B071B
:1029600002C02FEF3FEFC9010895E0912B0780913E
:102970002A07E81730F4F0E0E45DF84F808190E03A
:1029800008958FEF9FEF08950895CF93DF93EC01A3
:10299000E0910207F0910307309701F190912B0726
:1029A00080912A079817D0F0161617068CF420E0AD
:1029B00030E090E0DE01A90FB11D4C91D901A45D7A
:1029C000B84F4C939F5F292F30E02617370794F3B9
:1029D000CB0110922B0760932A071995DF91CF91B5
:1029E0000895E0910407F0910507309729F01092BF
:1029F00008071092070719950895CF93DF931F9248
:102A0000CDB7DEB7698380910607882399F080915E
:102A100007078032B0F480910807E82FF0E0E75F05
:102A2000F84F60838F5F809308078093070781E0EA
:102A300090E009C061E0CE0101961ADE81E090E0ED
:102A400002C080E090E00F90DF91CF910895CF9287
:102A5000DF92EF92FF920F931F93CF93DF938C013E
:102A6000CB016A01209106072223A1F041155105EF
:102A700099F0EB017B01E40EF51E6991D801ED910F
:102A8000FC910190F081E02DC8011995CE15DF056C
:102A9000A1F702C0642FECDDC601DF91CF911F9139
:102AA0000F91FF90EF90DF90CF90089510922B0739
:102AB00010922A0710920807109207070BDD81EF8A
:102AC00094E105DE85EC94E1FDCD089581E08093ED
:102AD00006076093290710920807109207070895C8
:102AE0000F93062F21E04091070769E077E080917E
:102AF00029075BDD1092080710920707109206075E
:102B00000F9108954F925F926F927F92AF92BF9212
:102B1000CF92EF92FF920F931F93CF93DF935C01BD
:102B2000F62ED42F28013901EE2039F1CFDF8E2D7A
:102B3000843008F083E0CFEFC80F8823D9F08C2FC2
:102B4000880F880F880FA301920104C056954795FE
:102B5000379527958A95D2F7CA01B901D501ED912C
:102B6000FC910190F081E02DC50119958C2FC15089
:102B70008111E5CF60E0C501B3DF4D2FD13208F000
:102B800040E22C2D6CE277E08F2DBDDC10922B07FC
:102B900080932A07DF91CF911F910F91FF90EF90C3
:102BA000CF90BF90AF907F906F905F904F900895BF
:102BB000CF92EF920F931F93C22EE12C00E010E012
:102BC0009801A0DF1F910F91EF90CF90089521E021
:102BD000EFCF089561E084CF089580EC92E0909368
:102BE000010780930007089521110DC04091000254
:102BF000509101024D5F5F4FDC01ED91FC91068029
:102C0000F781E02D199508950895DC0112962C9115
:102C1000129726131AC01496ED91FC9115976081B6
:102C200013963C91362361E009F460E0FA01DC017F
:102C300016968C9186278083E0910002F091010224
:102C4000228362E083E00C94B90B089590E0FC01CC
:102C5000EE0FFF1FEE59F84F20813181232B49F4ED
:102C6000880F991FFC01EE59F84F7183608381E052
:102C7000089580E00895BC01FC018281E7CF0895AA
:102C8000882311F02F9A08952F9808956623D1F084
:102C9000FC013081E32FF0E0EE0FFF1FEE59F84FFB
:102CA000A081B181109771F0262FAC0121504F5FA8
:102CB0005F4FED91FC9111970280F381E02D632F1E
:102CC000CD0119950895EBE5F7E082ED92E091834F
:102CD0008083128282E083838FE290E095838483F5
:102CE00081E086838198899ABF0180E0AFDF42E06E
:102CF00061E08CE497E0D7C00895E2E6F7E082E671
:102D000099E011921192E817F907D9F7279A6BE524
:102D100077E080915D079ADF8CE497E00DD081E049
:102D2000089560910002709101026D5F7F4F8CE405
:102D300097E001C008950895CF93DF93EC01BC01A3
:102D40008D8584DF882351F0BE018E857FDF882347
:102D500029F06CE0CE0102960E943F02DF91CF91F4
:102D60000895EF92FF920F931F93CF93DF93CDB708
:102D7000DEB768970FB6F894DEBF0FBECDBFF62E54
:102D80008A01DC011D96EC90E6120FC002960E94AB
:102D9000AC02F8018083E0910002F0910102E2822E
:102DA00062E083E00E94B90B71C0DC011E962C9199
:102DB00062136CC0BC016E5F7F4F48E0CE0101968C
:102DC0000E940203FE013196A2E6B9E0CE010D9603
:102DD00041915191619171914D935D936D937D936B
:102DE000E817F907A9F7E2E6F9E02081518142816D
:102DF0003381822F952FA42FB32F8D879E87AF8786
:102E0000B88BD8012C938E8511968C9311978F8552
:102E100012968C931297888913968C9324815581EE
:102E200046813781822F952FA42FB32F898B9A8BC0
:102E3000AB8BBC8BD80114962C9314978A8915966A
:102E40008C9315978B8916968C9316978C89179669
:102E50008C932085518542853385822F952FA42F11
:102E6000B32F8D8B9E8BAF8BB88FF80120878E8907
:102E700081878F898287888D8387E0910002F09116
:102E80000102F2826DE083E00E94B90B68960FB6F2
:102E9000F894DEBF0FBECDBFDF91CF911F910F9190
:102EA000FF90EF900895EF92FF920F931F93CF93AF
:102EB000DF93EC01E62EF42E2EED32E0FC0121939F
:102EC0003193CF0100E017E028E247E350E060E0F3
:102ED00070E00E94CA01ED86FE86DF91CF911F91BE
:102EE0000F91FF90EF9008958CE0E2E6F9E0DF01AA
:102EF0001D928A95E9F708950F931F9300E017E05C
:102F000028E247E350E060E070E08EE699E00E943E
:102F1000CA011F910F910895CF92DF92EF92FF9215
:102F20000F931F93CF93DF9341155105C1F06A01B1
:102F30008C01E62EF72EC0E0D0E0D7016D917D0127
:102F4000D801ED91FC910190F081E02DC801199517
:102F5000892B39F02196CC16DD0679F702C0C0E046
:102F6000D0E0CE01DF91CF911F910F91FF90EF90B4
:102F7000DF90CF9008956115710581F0FB010190FC
:102F80000020E9F73197AF01461B570BDC01ED91AB
:102F9000FC910280F381E02D1995089580E090E086
:102FA0000895DC01ED91FC910280F381E02D42E077
:102FB00050E066EE72E0199508950F931F93CF933A
:102FC000DF93EC01D8DF8C01CE01EBDF800F911F86
:102FD000DF91CF911F910F9108955058BB27AA27D9
:102FE0000ED070C161D130F066D120F031F49F3F36
:102FF00011F41EF456C10EF4E095E7FB4CC1E92F25
:1030000072D180F3BA17620773078407950718F027
:1030100071F49EF58AC10EF4E0950B2EBA2FA02D07
:103020000B01B90190010C01CA01A0011124FF2775
:10303000591B99F0593F50F4503E68F11A16F04070
:10304000A22F232F342F4427585FF3CF469537956F
:103050002795A795F0405395C9F77EF41F16BA0B34
:10306000620B730B840BBAF09150A1F0FF0FBB1FE2
:10307000661F771F881FC2F70EC0BA0F621F731F2B
:10308000841F48F4879577956795B795F7959E3F88
:1030900008F0B3CF9395880F08F09927EE0F979516
:1030A00087950895D4D008F481E008950CD00AC122
:1030B00002D140F0F9D030F021F45F3F19F0EBC0BD
:1030C000511134C1EEC00FD198F39923C9F35523A0
:1030D000B1F3951B550BBB27AA276217730784070B
:1030E00038F09F5F5F4F220F331F441FAA1FA9F3C1
:1030F00033D00E2E3AF0E0E830D091505040E695B3
:10310000001CCAF729D0FE2F27D0660F771F881F13
:10311000BB1F261737074807AB07B0E809F0BB0B02
:10312000802DBF01FF2793585F4F2AF09E3F510526
:1031300068F0B1C0FBC05F3FECF3983EDCF38695CE
:1031400077956795B795F7959F5FC9F7880F911D9C
:103150009695879597F90895E1E0660F771F881F88
:10316000BB1F621773078407BA0720F0621B730B3B
:10317000840BBA0BEE1F88F7E0950895BCD088F059
:103180009F5790F0B92F9927B751A0F0D1F0660F53
:10319000771F881F991F1AF0BA95C9F712C0B1306E
:1031A00081F0C3D0B1E00895C0C0672F782F882781
:1031B000B85F39F0B93FCCF3869577956795B395AD
:1031C000D9F73EF490958095709561957F4F8F4F1C
:1031D0009F4F0895E89409C097FB3EF49095809521
:1031E000709561957F4F8F4F9F4F9923A9F0F92FCD
:1031F00096E9BB279395F695879577956795B7954B
:10320000F111F8CFFAF4BB0F11F460FF1BC06F5F30
:103210007F4F8F4F9F4F16C0882311F096E911C042
:10322000772321F09EE8872F762F05C0662371F063
:1032300096E8862F70E060E02AF09A95660F771F77
:10324000881FDAF7880F9695879597F90895990F53
:103250000008550FAA0BE0E8FEEF16161706E80760
:10326000F907C0F012161306E407F50798F0621B81
:10327000730B840B950B39F40A2661F0232B242B56
:10328000252B21F408950A2609F4A140A6958FEF75
:10329000811D811D089597F99F6780E870E060E0C7
:1032A00008959FEF80EC089500240A9416161706DF
:1032B00018060906089500240A9412161306140627
:1032C00005060895092E0394000C11F4882352F08A
:1032D000BB0F40F4BF2B11F460FF04C06F5F7F4F42
:1032E0008F4F9F4F089557FD9058440F551F59F029
:1032F0005F3F71F04795880F97FB991F61F09F3FE3
:1033000079F087950895121613061406551FF2CF0B
:103310004695F1DF08C0161617061806991FF1CF5B
:1033200086957105610508940895E894BB27662782
:103330007727CB0197F908958ADF08F48FEF089576
:103340000BD0C0CFB1DF28F0B6DF18F0952309F01D
:10335000A2CFA7CF1124EACFC6DFA0F3959FD1F368
:10336000950F50E0551F629FF001729FBB27F00D33
:10337000B11D639FAA27F00DB11DAA1F649F662788
:10338000B00DA11D661F829F2227B00DA11D621FD7
:10339000739FB00DA11D621F839FA00D611D221F91
:1033A000749F3327A00D611D231F849F600D211D75
:1033B000822F762F6A2F11249F5750408AF0E1F018
:1033C00088234AF0EE0FFF1FBB1F661F771F881F61
:1033D00091505040A9F79E3F510570F05CCFA6CFA9
:1033E0005F3FECF3983EDCF3869577956795B7954C
:1033F000F795E7959F5FC1F7FE2B880F911D969576
:10340000879597F90895A1E21A2EAA1BBB1BFD010F
:103410000DC0AA1FBB1FEE1FFF1FA217B307E407B3
:10342000F50720F0A21BB30BE40BF50B661F771F0B
:10343000881F991F1A9469F76095709580959095EB
:103440009B01AC01BD01CF010895EE0FFF1F881F46
:103450008BBF0790F691E02D1994FB01DC0102C0AF
:1034600005900D9241505040D8F70895FB01DC01C2
:1034700004C08D910190801921F441505040C8F74B
:10348000881B990B0895FB01DC014150504048F026
:1034900001900D920020C9F701C01D92415050408B
:0834A000E0F70895F894FFCF56
:1034A8002B03FFFFFFFF7069692D3031C0A8B201FF
:1034B800A9FEF09D424E4F303535000000000084D3
:1034C8000198048501FFFFFFFFFFFF0A496E697439
:1034D80069616C697A696E672E2E2E004661696C87
:1034E800656420746F20696E697469616C697A65B6
:1034F80020726F626F742E00526F626F7420696E53
:10350800697469616C697A65642E004661696C65E5
:103518006420746F20616363657373204574686504
:10352800726E657420636F6E74726F6C6C65722E48
:1035380000436F6E6E656374656420746F20636FFB
:103548006E74726F6C6C65722E0000000000DA0EEB
:103558008C177A0EB70E4C0E660E580E000000003F
:10356800FD142715930FC4149914A114B514000061
:1035780000003B16F41504160516000000009C1602
:10358800F4159B16B1160D0A006E616E00696E6621
:06359800006F76660000E2
:00000001FF
