S0150000526F76436F6E74726F6C6C65722E73726563B4
S113000081C00000B0C00000AEC00000ACC0000061
S1130010AAC00000A8C00000A6C00000A4C0000040
S1130020A2C00000A0C000009EC000009CC0000050
S11300309AC0000098C0000096C0000094C0000060
S113004092C0000090C000008EC000008CC0000070
S11300508AC0000088C0000086C0000084C0000080
S113006082C000000C94360E0C94720E7CC000000A
S11300707AC0000078C0000076C0000074C00000A0
S113008072C0000070C000006EC000006CC00000B0
S11300900C94BE0E0C94FA0E66C0000064C00000FE
S11300A062C0000060C000005EC000005CC00000D0
S11300B05AC0000058C0000056C0000054C00000E0
S11300C052C0000050C000004EC000000C94460F07
S11300D00C94820F48C000000C94CE0F0C940A10AC
S11300E042C0000063825363450000820000400068
S11300F020000108000604000100F5009B0E230FF8
S1130100AB0F331011241FBECFEFD1E2DEBFCDBF42
S113011000E00CBF12E0A0E0B2E0E6E3F2E200E0AF
S11301200BBF02C007900D92AE3DB107D9F726E090
S1130130AEEDB2E001C01D92A733B207E1F710E0C3
S1130140C2E8D0E000E006C021970109802FFE013B
S11301500E94FB10CD37D10780E00807A9F70E9461
S1130160BC0C0C9419114CCF613051F4FC0180810A
S1130170E091DE02F091DF02808380E00C947A0C3F
S113018008954091DE023091DF022FEF260F66239F
S113019041F0A82FB92FE42FF32F8D918193215093
S11301A0E0F781E00C947A0C0895613051F4FC017D
S11301B09081923030F481E0911101C080E00C9480
S11301C0591008959B01813041F018F0823049F0B4
S11301D00895642FC901C8CF0895642FC901D1CFF0
S11301E00895642FC901E1CF08958091240290916C
S11301F0250202969093DF028093DE020895E09137
S1130200E302F091E4029F012F5F3F4F3093E40239
S11302102093E302808308950F931F93CF93DF937A
S11302209FEF980F882361F0EB01092F10E00F5F17
S11302301F4F060F171F8991E2DFC017D107D9F7A7
S1130240DF91CF911F910F9108950F931F938634DF
S1130250910530F120911703233421F500912203F5
S1130260109123032091240330912503012B022BA9
S1130270032BD1F4EEE0F4E08C509D4FAF014E5FC0
S11302805F4F31812081253319F42281261771F0C3
S1130290FA01E30FF11DE817F90780F380E007C0C6
S11302A080E005C080E003C080E001C081E01F91D0
S11302B00F910895EF92FF920F931F93CF93DF93C3
S11302C07C0186E191E0E4EFF2E0DF019C011D9204
S11302D021503040E1F78091E902833019F068E35E
S11302E072E002C060E075E043E450E084E490E032
S11302F010D668E372E084EF92E00E940B0CE4EF06
S1130300F2E081E082A783A786E084A716A617A659
S113031010AA11AA8091E902833031F460E175E0FA
S11303208AE293E00E94FE0B64E175E08AE393E0C5
S11303300E940B0C8AE094E09093E4028093E30221
S1130340C4EED0E008EE10E0FE01849158DF21965F
S11303500C171D07C9F785E352DF81E050DF809158
S1130360E902882311F083E001C081E048DF8DE3D6
S113037046DF87E044DF81E042DF64E175E086E048
S11303804BDF80910002882389F0E0E0F2E00190E5
S11303900020E9F73197EF01C050D2408CE02FDF05
S11303A08C2F2DDF60E072E08C2F36DFE114F10436
S11303B079F082E324DF84E022DFB70184E02CDFDC
S11303C086E31DDF84E01BDF60E075E084E024DF6A
S11303D0C091E202C1110BC017C08FEF10DF8091F2
S11303E0E3029091E4028E519340E5D518C087E36F
S11303F006DF84E004DF81E002DF83E000DF86E0E3
S1130400FEDE8C2FFCDEE9CF87E3F9DE83E0F7DE46
S113041081E0F5DE83E0F3DE86E0F1DEDECFDF911E
S1130420CF911F910F91FF90EF9008959F92AF92FB
S1130430BF92CF92DF92EF92FF920F931F93CF93CD
S1130440DF9300D01F92CDB7DEB78C018091E90213
S1130450823009F45AC028F48823F1F0813061F124
S1130460E3C0833021F0843009F44FC0DDC08091B3
S1130470E5029091E602A091E702B091E8028F3F75
S11304809F4FAF4FBF4F09F4CFC080E195E012DF1B
S113049084E08093E902C8C084E0E0E1F5E0DF0194
S11304A01D928A95E9F780E090E004DF81E004D3AF
S11304B081E08093E902B8C062E0C801C6DE882307
S11304C009F4B2C06EE273E0CE0101960E94FE0B05
S11304D0EEE0F4E00C501D4FBF016E5F7F4F918141
S11304E08081863329F480E095E00E94FE0B06C0EB
S11304F0FB01E90FF11DE017F10770F3CE0101963E
S1130500D9DE82E08093E9028FC065E0C8019DDEF8
S1130510882309F489C081E0DED26EE273E080E1D1
S113052095E00E94FE0BEEE0F4E0912CA12CB12C9E
S1130530C12C0C501D4F80817F01B2E0EB0EF11CE9
S1130540D1808630D9F028F4813061F0833081F095
S11305504AC08A33C9F08F3F09F453C0833309F08A
S113056042C012C0B7018CE095E00E94FE0B54C05B
S1130570B70184E095E00E94FE0B4EC0B7018CEFFA
S113058094E00E94FE0B48C0D7013696292D3A2DDF
S11305904B2D5C2D8D91742F632F522F44279A017C
S11305A0AB01280F311D411D511DAE17BF0791F737
S11305B02093E5023093E6024093E7025093E80269
S11305C02F3F8FEF38074807580731F1A8EEB3E003
S11305D00E94F1106093E5027093E6028093E702B3
S11305E09093E80219C0E091E002F091E1023097A3
S11305F099F09091E20289130FC04D2DB70119951E
S11306000BC080910405882319F084E095E00BD594
S113061083E08093E90208C0F701ED0DF11DE017B6
S1130620F10708F488CFEDCF0F900F900F900F9043
S1130630DF91CF911F910F91FF90EF90DF90CF90BA
S1130640BF90AF909F900895F894E091EE02F091DE
S1130650EF0290818091ED02809589238083089533
S1130660E091EE02F091EF0290818091ED02892BEE
S11306708083789408958EBD0DB407FEFDCF089550
S11306801F93CF93DF93182FC62FD42FDDDF8C2F2A
S11306908F71812BF0DF8D2FEEDFE2DFDF91CF91C1
S11306A01F9108950F931F93CF93DF93EC018B0158
S11306B0CBDF2097C1F08AE3DEDF1EBC219769F00F
S11306C0F8010C0F1D1F98010DB407FEFDCF8EB568
S11306D01EBC8193E217F307B9F70DB407FEFDCFF3
S11306E08EB5F8018083BCDFDF91CF911F910F910C
S11306F008950F931F93CF93DF93EC018B01A4DF35
S11307002097C1F08AE7B7DFF8013196D8018C91C0
S11307108EBDC130D10559F0B8016C0F7D1F919188
S11307200DB407FEFDCF9EBDE617F707C1F70DB464
S113073007FEFDCF95DFDF91CF911F910F910895B3
S11307401F93CF93DF93182F1076C12FD0E08091A1
S1130750F00290E0C817D907A1F043E06FE180EA06
S11307608FDF1093F002AE01559547955595479547
S11307705595479555954795559547956FE180E86B
S11307807FDFDF91CF911F910895CF93C82FD8DFDA
S11307905BDF8C2F8F716FDF80E06DDFCC2314F46F
S11307A080E069DFCEB55CDF8C2FCF910895CF93C5
S11307B0DF93C82FD62FC4DF4D2F6C2F80E460DF6A
S11307C0DF91CF910895CF93DF93C82FD72FEFDF19
S11307D06D2F81E08C0FEBDFDF91CF910895CF93E4
S11307E0DF93EB01682F84EDE2DFBE0186EDEBDFE2
S11307F08AEECBDF80FDFCCFDF91CF910895209A64
S1130800289A229A219A23982A9A2A98299880E544
S11308108CBD8DB581608DBD0895CF92DF92EF922E
S1130820FF920F93CF93DF937B01EA0169019093C9
S1130830F3028093F2020CB406FEE1DF0093ED02B2
S1130840D092EF02C092EE028881082B088308DF61
S11308504FEF60E08FEF14DF83EF91E00197F1F742
S113086000C00000F1DE8DE106DF80E004DFCEB5DC
S1130870F7DECC23B9F360E070E088E0A4DF60E049
S113088070E08CE0A0DF6FEF7BE08AE09CDF60E04B
S11308907CE084E098DF6FEF71E186E094DF66E747
S11308A074E084E19CDF61EB88E381DF6FE370E354
S11308B088E289DF69EF77EF80E385DF61E080EC30
S11308C076DF42E362EC80E8DBDE62E17CE086EC2A
S11308D07ADF62E184EC6BDF6CED75E08AEC73DF48
S11308E0F701608184EE63DFF701618185EE5FDFEC
S11308F0F701628182EE5BDFF701638183EE57DFEC
S1130900F701648180EE53DFF701658181EE4FDFEB
S113091060E071E080E163DF8FE112DF40EC6BE1C6
S113092080E8AEDE44E06FE180E8AADE82E72DDFF6
S1130930863008F08F5FDF91CF910F91FF90EF9099
S1130940DF90CF90089561E184ED31DF61E082EDC5
S11309502EDF8AEE1ADF80FDFCCF60E082ED27DF18
S113096089ED13DF82FB882780F90895CF93DF9305
S1130970EC0140E86FE180E883DE40E86FE180EA63
S11309807FDE4AE06CE180EA7BDE60E07CE082E0CE
S11309901ADFBE01745F86E016DF40E060E08AE79C
S11309A06FDE64EF72E0CE01A4DE48E06FE180E820
S11309B067DEC0E0D0E08CE1E8DE8A7031F4219695
S11309C0C83E83E0D807B9F70CC08CE1DEDE81FDB8
S11309D003C0C83ED34040F048E06FE180EA50DEF7
S11309E003C08CE1D2DEF8CFDF91CF9108950F934D
S11309F01F93CF93DF9300D000D0CDB7DEB78091A3
S1130A00EC02882391F06091EA027091EB02611587
S1130A10710529F46FEF7BE08CE0D5DE04C06150F2
S1130A2071098CE0D0DE1092EC0289E3AEDE8823FB
S1130A30A9F16091EA027091EB0280E0C4DEBE018C
S1130A406F5F7F4F86E090E02DDE89819A819093DD
S1130A50EB028093EA028D8187FF12C08091F2023B
S1130A609091F30201970B811C81045011098017A6
S1130A70910708F48C0164EF72E0C80113DE02C030
S1130A8000E010E0F801EC50FD4F108281E080930B
S1130A90EC0240E46EE180E8F3DD02C000E010E027
S1130AA0C80126960FB6F894DEBF0FBECDBFDF9106
S1130AB0CF911F910F910895CF93C82F88E365DEDE
S1130AC0682F616088E373DEC11103C081E0809305
S1130AD0F102CF910895811103C01092F10204C074
S1130AE08091F102811106C088E34FDE682F6E7F8A
S1130AF088E35DCE0895CF92DF92EF92FF920F9339
S1130B00CF93DF936C01EB017A01022F1092F7046B
S1130B1088E35ED0B60184E195E07DD69701AE010D
S1130B2064E175E080E092E078DEDF91CF910F918F
S1130B30FF90EF90DF90CF900895EF92FF920F9384
S1130B401F93CF93DF937B018A01E9011092F7048D
S1130B50009721F0BC0180E195E050D6E114F10446
S1130B6011F0C70160D20115110521F0B8018CEF15
S1130B7094E044D6209721F0BE018CE095E03ED667
S1130B805ED21092F5041092F40481E0DF91CF91CB
S1130B901F910F91FF90EF900895E82FF0E0F595E5
S1130BA0E795F595E795F595E795E65EFA4F282FD5
S1130BB0277081E090E0A0E0B0E004C0880F991FA6
S1130BC0AA1FBB1F2A95D2F72081822B8083089508
S1130BD0CF93C7E38C2FE1DFC150E1F7CF910895A4
S1130BE0CF92DF92EF92FF92CF93DF93C62FD0E0A4
S1130BF0CC50DD4F213081F46A0199E0C90ED11C3B
S1130C00E12CF12C03C0C12CD12C760142305105CA
S1130C1028F1FE01DA0109C02230A9F76A0192E045
S1130C20C91AD108E12CF12CF1CF208130E0322F08
S1130C3022279181292BC20ED31EE11CF11C32966E
S1130C401297A230B10588F79A01225031092E7FFC
S1130C502E5F3F4FC20FD31F41705527452B61F0C4
S1130C60488150E060E070E0762F652F542F4427D0
S1130C70C40ED51EE61EF71EA70166277727411569
S1130C8051056105710571F0EE24FF24C40ED51ED3
S1130C90E61EF71EA7016627772741155105610552
S1130CA0710591F7C094D094E82FF0E0EC50FD4F1B
S1130CB0D082C182DF91CF91FF90EF90DF90CF90EF
S1130CC00895CF93DF93FC0120812223D1F0FB010F
S1130CD030813323C1F0232730910C052323A9F459
S1130CE0DC0111963196CDE0D5E004964D91219129
S1130CF039912427232359F4A817B907B9F781E0B8
S1130D0007C080E005C080E003C080E001C080E04F
S1130D10DF91CF910895E4EFF2E0108E118E80E41C
S1130D20848B158A868B20E044E150E06EE088E1F4
S1130D3057CF0895E4EFF2E024A132A134A322A313
S1130D4025A133A135A323A3EEE1F3E04AE153E067
S1130D502291820F911D24818483662311F02083C4
S1130D6001C01082892F9927E417F50789F7E4EF6A
S1130D70F2E012AA13AA80E586A708950F931F93A1
S1130D80CF93DF938C018896C4EFD2E0988B898B44
S1130D90C2DF1AAA1BAAA801445E5F4F22E06AE1DF
S1130DA082E31EDFC801C696E1DDDF91CF911F917A
S1130DB00F910895BC0184EF92E02DD564E175E0B4
S1130DC08AEF92E028C508958AEF92E0F3DF6EE09F
S1130DD073E082E193E012D560E175E08EE093E088
S1130DE00DD599CF0895CF93DF93262F20612093BB
S1130DF02303643021F0009711F481E090E061E076
S1130E0099DFC4EFD2E0188A88E2898BDDDF84E0C1
S1130E1088AB19AA22E04CE150E06AE182E3E0DE0B
S1130E2086E390E0A3DDDF91CF910895CF93DF9324
S1130E30EB01C0DFBE0182E193E0E0D460E175E044
S1130E408EE093E0DBD4DF91CF9108950F931F934D
S1130E50CF938C0188E392E0ADDFE4EFF2E088E029
S1130E608487C6E0C58748E050E061EF70E082E027
S1130E7093E00E940311E4E1F3E0DF011D92CA95BF
S1130E80E9F764E175E08AE093E0C5D4B8018AE14A
S1130E9093E0B4D460E175E080E193E0AFD48AE2FA
S1130EA090E064DDCF911F910F910895CF93DF936C
S1130EB0EB0144E050E0BC0180E193E00E940C119E
S1130EC0892B31F46AE073E0CE01A5D481E001C03E
S1130ED080E0DF91CF910895E4EFF2E0808990E023
S1130EE0982F88272189822B449726A530E03595B1
S1130EF02795359527953595279535952795220F6F
S1130F00331F220F331F821B930B12F480E090E0F7
S1130F100895EF92FF920F931F93CF93DF93182FAF
S1130F20092FEB01F42EE52E80E195E0CADE88233B
S1130F3029F0BE018EE295E079DF04C0BE0184E2AF
S1130F4095E074DF8881807F803E91F0888199816B
S1130F50AA81BB818F3F9F4FAF4FBF4F49F044E001
S1130F6050E0BE0188E095E00E940C11892B29F421
S1130F7068E372E084EF92E04ED4C4EFD2E088E0FC
S1130F808C871D8649E050E068EE70E082E093E0D3
S1130F900E940311188A81E18F8BECA2FDA20AA39F
S1130FA01BA31EA218A619A6DF91CF911F910F9122
S1130FB0FF90EF9008950F931F93CF93DF93EC016D
S1130FC004EF12E04C96F801908B818BA4DECE01E5
S1130FD00896F80196A387A3AE01405F5F4F21E016
S1130FE06AE188E2FDDDCE018A96C0DCDF91CF9113
S1130FF01F910F9108950F931F93CF93DF93D62FD3
S1131000C72FCA01A801B90184DF8D2F9C2F81301D
S113101022E0920710F080E092E0CDDFDF91CF91E3
S11310201F910F9108951092F5041092F40421E099
S113103020932305BC0184E095E0E0C30895CF9399
S1131040DF93E0E1F5E0CCE0D5E0A8E0B5E024E111
S113105035E0919189918095892B8D93E217F3075F
S1131060C1F7DF91CF910895FF920F931F93CF9310
S1131070DF932091180330E0492F552724173507B3
S113108009F061C02091190330E099272817390726
S113109009F05CC08B01F0902303F1FE2DC0C4EF76
S11310A0D2E0188A8CE2898B8FDE82E18FA760E020
S11310B081E090E03FDE1EA21FA28091220288A759
S11310C019A68D5F8093220282E08EAB84E08FAB01
S11310D085E088AF19AE90E69EA788AB88E789AB18
S11310E022E040E250E06AE182E37ADD8AE390E0C4
S11310F03DDCC0E0D0E02FC0F4FE2BC0EDDEEC01FF
S11311009093220580932105892BB1F0C09122038D
S1131110D0E0D595C795D595C795D595C795D5955F
S1131120C795CC0FDD1FCC0FDD1FA2960C171D0732
S113113090F4C0E0D0E00FC0F0FE0DC060E080E0AD
S113114090E051DE08C0C0E0D0E005C0C0E0D0E0CF
S113115002C0C0E0D0E0CE01DF91CF911F910F918A
S1131160FF900895EF92FF920F931F93CF93DF9315
S1131170EC018091F704882311F0CE0157D9209710
S113118009F0ABC080912305857089F08091F40447
S11311909091F504892B59F4D6DB882341F084E03F
S11311A095E054DE80912305886080932305809127
S11311B0F4049091F50401969093F5048093F4045B
S11311C080913C05813009F067C08091230581FF3F
S11311D063C082E080933C05809123028F5F8093FB
S11311E02302F0903A05E0903B0520913D0590E202
S11311F0299F900111248F71182F122B68EF74E02E
S113120080E195E05EDD882331F068EF74E08EE2E2
S113121095E00CDE05C068EF74E084E295E006DE3C
S1131220C4EFD2E008E00C871D8649E050E068EE88
S113123070E082E093E0E7D78CE2898B86E08F8BC5
S11312406ADDECA2FDA28BE08AA31BA3EAE1F3E032
S1131250DF011D920A95E9F78091220288A78D5F2C
S11312608093220280E68EA782E08FA793E098AB5A
S113127019AA1AAA1BAA1CAA1DAA8EAB94E09FAB9A
S113128088AF86E289AF22E040E250E06AE182E37F
S1131290A7DC8AE390E06ADB6CEF74E080E195E020
S11312A010DD882349F080912C05811105C08091BF
S11312B02D05882309F4E2C168EF74E080E195E02C
S11312C000DD882309F4AAC180912A058111A9C1EE
S11312D080912B058111A8C1D8C1C932D10508F468
S11312E0DDC180910003883009F0A1C18091010320
S11312F0863009F0F2C144E050E060E175E08AE133
S113130093E08AD7892B09F0E8C1CFC18AEF92E034
S113131051DDE4EFF2E0148A82E0858B6AE073E049
S113132084E193E078D264E175E08AE093E073D2DB
S113133060E173E08AE193E061D260E175E080E10D
S113134093E05CD28AE290E011DB8091230583FF75
S11313500EC080910903823051F464E275E084E0A8
S113136095E0A4DD882319F082E080932305809121
S11313702C05811110C080912D05882361F06EE247
S113138075E08CEF94E092DD882329F081E080936E
S11313902C0510922D0580912A0581114BC1809155
S11313A02B05882309F449C16EE275E088EF94E0C7
S11313B07DDD882309F444C181E080932A051092DD
S11313C02B0580E090E08FC180910003883009F004
S11313D03AC180910103811139C18091020385349E
S11313E009F037C144E050E060E175E082E193E048
S11313F013D7892B09F45FC144E050E068E075E03D
S113140082E193E009D7892B09F455C144E050E007
S113141068E372E082E193E0FFD6892B09F44BC1C3
S113142080E090E060C1809116038830D9F4E091A7
S11314303405F0913505309719F08EE093E0199555
S1131440C3DCE4EFF2E012A284A1883F18F095A176
S11314509F5F95A3885F80931803CE0187DA80E0AD
S113146090E041C161D1882329F080910B0381313F
S113147009F427C1C633D10508F4EEC080910B03EB
S1131480863009F0ECC0809118038B3009F0BFC09E
S113149044E050E068EF74E08EE093E0BDD6892B21
S11314A009F0E0C01091230312FF17C0E091380542
S11314B0F0913905309759F08091190320E030E01C
S11314C040E050E063E0829586958770199585E049
S11314D080933C0580E090E006C1FEDC7C018091B5
S11314E03C05823089F5812F807112711231E9F443
S11314F060E080E090E077DC88E180932303E09172
S11315003605F0913705309739F0809117038295AD
S113151086958770199502C080E090E023E02093BF
S11315203C052CDC80E090E0DEC091E090933C052B
S1131530811103C0C701019602C080E090E064E01D
S113154052DC80E090E0CFC0833009F047C0E11462
S1131550F10409F4BFC0E0913805F09139053097E2
S113156009F4B8C04091220350E05595479555952C
S113157047955595479555954795440F551F440FE5
S1131580551FCE0108974E5D5F4F8417950708F4E9
S1131590AC01C701840F951FC817D90720F49E0119
S11315A0241B350B01C097018091190360E08295DB
S11315B08695877019958091F604882331F068E048
S11315C0C70111DC80E090E08EC069E0C7010BDC4C
S11315D086E080933C0580E090E085C0853009F08A
S11315E076C080E090E07FC069E0C7010196FBDB34
S11315F086E080933C0580E090E075C0E114F1043E
S1131600A1F160E0C701EFDB80E090E06CC0BE01B7
S1131610809120029091210227DD65C080E090E056
S113162062C080E090E05FC080E090E05CC080E059
S113163090E059C080E090E056C080E090E053C054
S113164080E090E050C080E090E04DC080E090E009
S11316504AC080E090E047C080E090E044C080E071
S113166090E041C080E090E03EC080E090E03BC06C
S113167080E090E038C080E090E035C08CEF94E0EA
S1131680E5DB81E080932D0517CE88EF94E0DEDB67
S113169081E080932B0580E090E025C0CA32D1051B
S11316A008F092CE80E090E01EC080910903813062
S11316B009F04BCE2BCE80910B03813009F0D2CEB2
S11316C0B2CECE0138D0882309F4D4CED1CF10FFC6
S11316D095CF8ACF10FDCFCF91CFCA32D10508F074
S11316E078CE80E090E0DF91CF911F910F91FF9031
S11316F0EF9008959C0190913E059830A0F4E92F55
S1131700F0E0AF01440F551F440F551FE40FF51FC0
S1131710E15CFA4F318320837383628381E08483A5
S11317209F5F90933E05089581E090913E0591114D
S113173001C080E008958F929F92BF92CF92DF9272
S1131740EF92FF920F931F93CF93DF9380913E0507
S1131750882309F446C0CFE3D5E0E12CF12C80E0E6
S11317600F2EF4EFCF2EF2E0DF2EF02DBB24B39436
S1131770AA81BB81F60124A130E04B2F5527241701
S1131780350721F525A130E0AD015527241735078C
S1131790E9F49C819923D1F007A110E008501109C4
S11317A086A190E0982F8827080F191F42A150E0C6
S11317B0542F442783A1482B888099802EE133E05D
S11317C06EE073E0CD01F40119958B2DFFEFEF1A54
S11317D0FF0A259620913E0530E0E216F30644F216
S11317E001C080E0DF91CF911F910F91FF90EF90A6
S11317F0DF90CF90BF909F908F900895FB01208140
S11318003181FC0131832083FB0122813381FC017E
S1131810338322830895DC0196E0FB0101900D924D
S11318209A95E1F70895FC012081DC0112968181EB
S1131830922F980F3FEF360F662361F0FD01832F3F
S11318402191920F8150E0F7232F30E02F5F3F4F1B
S1131850A20FB31F81E02C91291380E008950F9308
S11318601F93CF93DF93A801435051094F3F510574
S113187009F090F4F90180818F3F71F4E90103507C
S1131880602FC901D0DF882339F0BE016E5F7F4F1E
S1131890402F89810E94E200DF91CF911F910F9127
S11318A008950F93CF93DF93EC01CA01A901202F70
S11318B0D0936A05C09369057093680560936705C2
S11318C0BC018AE292E017D9882379F020E030E065
S11318D040E050E060E372E084E392E02ED9BE0180
S11318E08FE29CE007DF81E001C080E0DF91CF91CF
S11318F00F9108950F931F93CF93DF93E0912402E8
S1131900F09125029FEF9083E0912402F09125024B
S113191081838150C0912402D0912502DE01129668
S11319204FEF460F662381F0FD0150E09A012D5FD1
S11319303F4F2C0F3D1F9191890FE217F307D9F701
S11319404F5F5F4FA40FB51F8C93009167051091F3
S113195068054091690550916A0570E06D5F7F4F9D
S113196026E232E0809124029091250244DBDF914B
S1131970CF911F910F91089526E040E855E260E071
S113198070E08BE695E00FD16EE372E08BE695E0B4
S1131990E7D38CD3811106C06FE472E08BE695E047
S11319A0DFD3FFCF6BE672E08BE695E0D9D300E29C
S11319B022E031E041E051E062E777E181E797E13D
S11319C070DF811106C06EE772E08BE695E0C8D344
S11319D0FFCF64EA72E08BE695E0C2D308D8C2DB9D
S11319E0FDCFFC0197852089892F90E0805C9F4F73
S11319F0821B91098F7399270895FC01978580892B
S1131A00981731F08089E80FF11D838990E00895DB
S1131A108FEF9FEF0895FC0197858089981761F0F7
S1131A208089DF01A80FB11D53968C9190899F5F27
S1131A309F73908B90E008958FEF9FEF0895FC01C2
S1131A4021893289231738F08FE390E0821B9109B2
S1131A50830F911D0895832F90E0821B91090197B4
S1131A600895FC018289DF01A80FB11DAD5ABF4F53
S1131A708C91228930E02F5F3F4F2F7330783323CE
S1131A8034F421503109206C3F6F2F5F3F4F228B7C
S1131A90A485B5858C93A681B7818C91837080646D
S1131AA08C9391898289981306C00084F185E02D76
S1131AB080818F7D80830895CF93DF93EC018E85A1
S1131AC08823D1F0E885F985808185FD05C0AE8144
S1131AD0BF818C9186FD10C00FB607FCF5CF8081C5
S1131AE085FFF2CF03C0CE01BCDFECCFAE81BF8156
S1131AF08C9185FFE9CFF7CFDF91CF9108950F93B4
S1131B001F93CF93DF93EC0181E08E8799898A89B3
S1131B10981325C0EE81FF81808185FD31C01FC0EF
S1131B208A8918130BC00FB607FCFACFEE81FF8128
S1131B30808185FFF5CFCE0194DFF2CF8989FE0144
S1131B40E80FF11DED5AFF4F00839FB7F894198BEE
S1131B50E885F9858081806280839FBF1DC02989C3
S1131B6030E02F5F3F4F2F733078332334F421500C
S1131B703109206C3F6F2F5F3F4F062F122FD0CFBC
S1131B809FB7F894EC85FD856083EE81FF818081A9
S1131B908370806480839FBF81E090E0DF91CF9168
S1131BA01F910F910895CF92DF92EF92FF921F93AE
S1131BB0CF93DF93EC016A017B01122FEE81FF8149
S1131BC082E080834115514E61057105A9F060E002
S1131BD079E08DE390E0A7019601D2D2DA01C90140
S1131BE00197A109B109B695A795979587959C0189
S1131BF0211580E13807A0F0EE81FF81108260E8B2
S1131C0074E88EE190E0A7019601BAD2DA01C90125
S1131C100197A109B109B695A795979587959C0158
S1131C20EA81FB813083EC81FD8120831E86EA8575
S1131C30FB851083E885F985808180618083E88550
S1131C40F985808188608083E885F9858081806852
S1131C508083E885F98580818F7D8083DF91CF91B2
S1131C601F91FF90EF90DF90CF9008951F920F92F5
S1131C700FB60F9211240BB60F922F938F939F934D
S1131C80AF93BF93EF93FF93E0917105F0917205C9
S1131C90808182FD14C0EBE6F5E0A485B5852C9126
S1131CA087858F5F8F709089891771F0DF01E785D1
S1131CB0F0E0E559FA4F238B1F968C9305C0E09111
S1131CC07705F09178058081FF91EF91BF91AF91F5
S1131CD09F918F912F910F900BBE0F900FBE0F907D
S1131CE01F9018951F920F920FB60F9211240BB6E6
S1131CF00F922F933F934F935F936F937F938F93A1
S1131D009F93AF93BF93EF93FF938BE695E0A9DE88
S1131D10FF91EF91BF91AF919F918F917F916F91BF
S1131D205F914F913F912F910F900BBE0F900FBE7B
S1131D300F901F901895EBE6F5E081EC92E091830B
S1131D40808385EC90E09383828384EC90E0958398
S1131D50848380EC90E09783868381EC90E0918784
S1131D60808782EC90E09387828786EC90E0958769
S1131D7084871786108A118A128A08951F920F92F7
S1131D800FB60F9211240BB60F922F938F939F933C
S1131D90AF93BF93EF93FF93E091A405F091A50552
S1131DA0808182FD14C0EEE9F5E0A485B5852C910F
S1131DB087858F5F8F709089891771F0DF01E785C0
S1131DC0F0E0E256FA4F238B1F968C9305C0E09106
S1131DD0AA05F091AB058081FF91EF91BF91AF917E
S1131DE09F918F912F910F900BBE0F900FBE0F906C
S1131DF01F9018951F920F920FB60F9211240BB6D5
S1131E000F922F933F934F935F936F937F938F938F
S1131E109F93AF93BF93EF93FF938EE995E021DEF9
S1131E20FF91EF91BF91AF919F918F917F916F91AE
S1131E305F914F913F912F910F900BBE0F900FBE6A
S1131E400F901F901895EEE9F5E081EC92E09183F4
S1131E5080838DEC90E0938382838CEC90E0958377
S1131E60848388EC90E09783868389EC90E0918763
S1131E7080878AEC90E0938782878EEC90E0958748
S1131E8084871786108A118A128A08951F920F92E6
S1131E900FB60F9211240BB60F922F938F939F932B
S1131EA0AF93BF93EF93FF93E091D705F091D805DB
S1131EB0808182FD14C0E1EDF5E0A485B5852C9107
S1131EC087858F5F8F709089891771F0DF01E785AF
S1131ED0F0E0EF52FA4F238B1F968C9305C0E091EC
S1131EE0DD05F091DE058081FF91EF91BF91AF9107
S1131EF09F918F912F910F900BBE0F900FBE0F905B
S1131F001F9018951F920F920FB60F9211240BB6C3
S1131F100F922F933F934F935F936F937F938F937E
S1131F209F93AF93BF93EF93FF9381ED95E099DD7A
S1131F30FF91EF91BF91AF919F918F917F916F919D
S1131F405F914F913F912F910F900BBE0F900FBE59
S1131F500F901F901895E1EDF5E081EC92E09183EC
S1131F60808385ED90E09383828384ED90E0958374
S1131F70848380ED90E09783868381ED90E0918760
S1131F80808782ED90E09387828786ED90E0958745
S1131F9084871786108A118A128A08951F920F92D5
S1131FA00FB60F9211240BB60F922F938F939F931A
S1131FB0AF93BF93EF93FF93E0910A06F0910B0662
S1131FC0808182FD14C0E4E0F6E0A485B5852C91FF
S1131FD087858F5F8F709089891771F0DF01E7859E
S1131FE0F0E0EC5FF94F238B1F968C9305C0E091D2
S1131FF01006F09111068081FF91EF91BF91AF918E
S11320009F918F912F910F900BBE0F900FBE0F9049
S11320101F9018951F920F920FB60F9211240BB6B2
S11320200F922F933F934F935F936F937F938F936D
S11320309F93AF93BF93EF93FF9384E096E011DDFA
S1132040FF91EF91BF91AF919F918F917F916F918C
S11320505F914F913F912F910F900BBE0F900FBE48
S11320600F901F901895E4E0F6E081EC92E09183E4
S1132070808385E391E09383828384E391E0958375
S1132080848380E391E09783868381E391E0918761
S1132090808782E391E09387828786E391E0958746
S11320A084871786108A118A128A0895279A81E0F4
S11320B00895882311F02F9A08952F980895CF92A8
S11320C0DF92EF92FF920F931F93CF93DF9341150B
S11320D05105C1F06A018C01E62EF72EC0E0D0E074
S11320E0D7016D917D01D801ED91FC910190F081B2
S11320F0E02DC8011995892B39F02196CC16DD06FF
S113210079F702C0C0E0D0E0CE01DF91CF911F91FA
S11321100F91FF90EF90DF90CF90089561157105B6
S113212081F0FB0101900020E9F73197AF01461BD4
S1132130570BDC01ED91FC910280F381E02D1995A0
S1132140089580E090E00895DC01ED91FC91028017
S1132150F381E02D42E050E06FEC72E019950895B0
S11321600F931F93CF93DF93EC01D8DF8C01CE0143
S1132170EBDF800F911FDF91CF911F910F91089595
S1132180A1E21A2EAA1BBB1BFD010DC0AA1FBB1F77
S1132190EE1FFF1FA217B307E407F50720F0A21BE9
S11321A0B30BE40BF50B661F771F881F991F1A9456
S11321B069F760957095809590959B01AC01BD0180
S11321C0CF010895A29FB001B39FC001A39F700DDA
S11321D0811D1124911DB29F700D811D1124911D2B
S11321E00895F0DFA59F900DB49F900DA49F800DDE
S11321F0911D11240895EE0FFF1F881F8BBF0790B8
S1132200F691E02D1994FB01DC0102C005900D92BA
S113221041505040D8F70895FB01DC0104C08D9172
S11322200190801921F441505040C8F7881B990B44
S10922300895F894FFCFAD
S113223641726475696E6F2D454E4332386A363085
S11322462D303000000000000000000000000000F7
S113225650000A011E03FFFFFFFF7069692D30312C
S1132266C0A8B201A9FEF09DFFFFFFFFFFFF0A49C8
S11322766E697469616C697A696E672E2E2E0046E2
S113228661696C656420746F20696E697469616C38
S1132296697A6520726F626F742E00526F626F7472
S11322A620696E697469616C697A65642E00466199
S11322B6696C656420746F2061636365737320457C
S11322C6746865726E657420636F6E74726F6C6C7D
S11322D665722E00436F6E6E656374656420746F59
S11322E620636F6E74726F6C6C65722E0000000052
S11322F6007F0D5F101F0D5C0DF10C0B0DFD0C0D19
S11123060A006E616E00696E66006F766600F6
S9030000FC
