S0150000526F76436F6E74726F6C6C65722E73726563B4
S113000074C10000A3C10000A1C100009FC1000091
S11300109DC100009BC1000099C1000097C1000070
S113002095C1000093C1000091C100008FC1000080
S11300308DC100000C94BC1A89C1000087C1000066
S113004085C1000083C1000081C100007FC10000A0
S11300507DC100000C94931A79C1000077C100009F
S113006075C100000C9463160C949F166FC10000B8
S11300706DC100006BC1000069C1000067C10000D0
S113008065C1000063C1000061C100005FC10000E0
S11300900C94EB160C94271759C100000C94251CE2
S11300A055C1000053C1000051C100004FC1000000
S11300B04DC100004BC1000049C1000047C1000010
S11300C045C1000043C1000041C100000C947317F6
S11300D00C94AF173BC100000C94FB170C94371819
S11300E035C100002C1D2F1D2F1D2F1D2F1D2F1D51
S11300F02F1D2F1D471C2F1D2F1D2F1D2F1D2F1D85
S11301002F1D2F1D471C2F1D2F1D2F1D2F1D2F1D74
S11301102F1D2F1D4F1C2F1D2F1D2F1D2F1D2F1D5C
S11301202F1D2F1D741C2F1D2F1D2F1D2F1D2F1D27
S11301302F1D2F1D4F1C2F1D2F1D2F1D2F1D2F1D3C
S11301402F1D2F1D791C2F1D2F1D2F1D2F1D2F1D02
S11301502F1D2F1D7E1C2F1D2F1D2F1D2F1D2F1DED
S11301602F1D2F1D8F1C2F1D2F1D2F1D2F1D2F1DCC
S11301702F1D2F1DB81C2F1D2F1D2F1D2F1D2F1D93
S11301802F1D2F1D831C2F1D2F1D2F1D2F1D2F1DB8
S11301902F1D2F1D9D1C2F1D2F1D2F1D2F1D2F1D8E
S11301A02F1D2F1DBA1C2F1D2F1D2F1D2F1D2F1D61
S11301B02F1D2F1DBA1C2F1D2F1D2F1D2F1D2F1D51
S11301C02F1D2F1DBA1C2F1D2F1D2F1D2F1D2F1D41
S11301D02F1D2F1DBA1C2F1D2F1D2F1D2F1D2F1D31
S11301E02F1D2F1DC31C2F1D2F1D2F1D2F1D2F1D18
S11301F02F1D2F1DF31C2F1D2F1D2F1D2F1D2F1DD8
S11302002F1D2F1DC31C2F1D2F1D2F1D2F1D2F1DF7
S11302102F1D2F1DF31C2F1D2F1D2F1D2F1D2F1DB7
S11302202F1D2F1DDB1C2F1D2F1D2F1D2F1D2F1DBF
S11302302F1D2F1DF71C2F1D2F1D2F1D2F1D2F1D93
S11302402F1D2F1DF71C2F1D2F1D2F1D2F1D2F1D83
S11302502F1D2F1D0C1D2F1D2F1D2F1D2F1D2F1D5D
S11302602F1D2F1D261D2F1D2F1D2F1D2F1D2F1D33
S11302702F1D2F1D261DB11EB11EB11EB51EB51E8C
S1130280B51EB91EB91EB91EBD1EBD1EBD1ECE1E95
S1130290D21ED61EDA1EDE1EE21EE61EEA1EEE1E6A
S11302A0F21EF61EFA1E0B1F151F1F1F291F331FD8
S11302B03D1F471F511F5B1F651F6F1F791F45009F
S11302C00082000040002000010800060400010034
S11302D045054A0CC8165017D81760180319E51AB3
S11302E09B1E831F7520EB219A2211241FBECFEF82
S11302F0D1E2DEBFCDBF00E00CBF13E0A0E0B2E06E
S1130300E8E9FCE400E00BBF02C007900D92A838B6
S1130310B107D9F72AE0A8E8B3E001C01D92AA34D6
S1130320B207E1F711E0C5E7D1E000E006C021978C
S11303300109802FFE010E945225C836D10780E0B2
S11303400807A9F70E940B0C0C944A2659CE08956D
S11303500F931F93CF93DF938C01EB0188E2FB0192
S113036011928A95E9F74BE050E064E172E0CE0126
S11303700E943B261B8681E090E0A0E0B0E08C87E1
S11303809D87AE87BF87F80186819781A085B18557
S1130390888B998BAA8BBB8B83E090E0A0E0B0E0C4
S11303A08C8B9D8BAE8BBF8B1CA21DA21EA21FA289
S11303B0188E198E1A8E1B8E1C8E1D8E1E8E1F8EED
S11303C08AE097EDA3E2BCE388A399A3AAA3BBA305
S11303D0DF91CF911F910F9108950F931F93FC010B
S11303E08FE192E09183808346835783608771878E
S11303F02383158304831F910F9108950F931F93F3
S1130400CF93DF93EC01062F142F6B818C819D8198
S11304100E940F1E8C819D81DC01ED91FC91019065
S1130420F081E02D602F19958C819D81DC01ED9187
S1130430FC910190F081E02D612F19958C819D81B3
S11304400E94981E81E0DF91CF911F910F91089532
S1130450462FFC0162876DE3D1DFFFEF26E781E0E1
S1130460F15020408040E1F700C0000008951F9340
S1130470CF93DF93EC01162F6B818C819D810E94B9
S11304800F1E8C819D81DC01ED91FC910190F08126
S1130490E02D612F19958C819D810E94981E41E069
S11304A06B818C819D810E94921E8C819D81DC01D7
S11304B0ED91FC910284F385E02D1995DF91CF91A4
S11304C01F9108951F93CF93DF93EC01162F8C8116
S11304D09D810E94FF1D60E0CE01C9DF803A79F062
S11304E02FEF83ED90E3215080409040E1F700C06E
S11304F0000060E0CE01BBDF803A09F04BC060E051
S1130500CE01A6DF40E26FE3CE0178DF2FEF86E76E
S113051091E0215080409040E1F700C0000060E08D
S1130520CE01A5DF803A39F08FE39CE90197F1F71A
S113053000C00000F4CF9FEF20E782E091502040FC
S11305408040E1F700C0000040E06EE3CE0156DFDA
S11305508FE39CE90197F1F700C0000040E067E0F9
S1130560CE014CDF40E06FE3CE0148DF8FE39CE92E
S11305700197F1F700C00000612FCE0169DF9FEF02
S113058029EF80E0915020408040E1F700C0000056
S113059081E001C080E0DF91CF911F91089564E371
S11305A066CF0895CF92DF92EF92FF920F931F933D
S11305B0CF93DF937C01C62F6A01122FDC011396BF
S11305C06C91139714968D919C9115970E940F1E10
S11305D0F70184819581DC01ED91FC910190F0811A
S11305E0E02D6C2F1995F701848195810E94981E46
S11305F0412FD70113966C91139714968D919C916A
S113060015970E94921E1123B1F0E6011150012F9B
S113061010E00F5F1F4F0C0D1D1DF70184819581A4
S1130620DC01ED91FC910284F385E02D1995899309
S1130630C017D10791F781E0DF91CF911F910F91FE
S1130640FF90EF90DF90CF900895AF92BF92CF923A
S1130650DF92FF920F931F93CF93DF9300D000D0CC
S1130660CDB7DEB78C01CB01F42E2CE0F80111924A
S11306702A95E9F7AE014F5F5F4F26E0FA01119228
S11306802A95E9F726E06F2D8DDF6A8170E0762FD9
S113069066278981682B8C8190E0982F88272B818D
S11306A06C01C22A8E8190E0982F88272D815C01ED
S11306B0A22AF4E1FF1609F44AC0FF1540F088E0CD
S11306C0F81609F4ACC0EEE0FE1669F043C1F8E296
S11306D0FF1609F4D8C08EE2F81609F408C1EAE15D
S11306E0FE1238C168C0072E000C880B990B0E94BB
S11306F00A2420E030E040E85DE30E94BE24F801D3
S11307006083718382839383B601DD0C880B990B1C
S11307100E940A2420E030E040E85DE30E94BE2409
S1130720F8016483758386839783B501BB0C880BBA
S1130730990B0E940A2420E030E040E85DE30E9427
S1130740BE24F801608771878287938703C1072ECF
S1130750000C880B990B0E940A2420E030E040E84A
S11307605DE30E94BE24F8016083718382839383D6
S1130770B601DD0C880B990B0E940A2420E030E0BE
S113078040E85DE30E94BE24F80164837583868398
S11307909783B501BB0C880B990B0E940A2420E0B7
S11307A030E040E85DE30E94BE24F8016087718771
S11307B082879387CFC0072E000C880B990B0E9469
S11307C00A2420E030E040E85DE30E94BE24F80102
S11307D06083718382839383B601DD0C880B990B4C
S11307E00E940A2420E030E040E85DE30E94BE2439
S11307F0F8016483758386839783B501BB0C880BEA
S1130800990B0E940A2420E030E040E85DE30E9456
S1130810BE24F80160877187828793879BC0072E67
S1130820000C880B990B0E940A2420E030E048EC6D
S113083052E40E947423F80160837183828393835A
S1130840B601DD0C880B990B0E940A2420E030E0ED
S113085048EC52E40E947423F80164837583868310
S11308609783B501BB0C880B990B0E940A2420E0E6
S113087030E048EC52E40E947423F80160877187E9
S11308808287938767C0072E000C880B990B0E9400
S11308900A2420E030E048EC52E40E947423F8017A
S11308A06083718382839383B601DD0C880B990B7B
S11308B00E940A2420E030E048EC52E40E947423B1
S11308C0F8016483758386839783B501BB0C880B19
S11308D0990B0E940A2420E030E048EC52E40E9484
S11308E07423F801608771878287938733C0072E4A
S11308F0000C880B990B0E940A2420E030E048EC9D
S113090052E40E947423F801608371838283938389
S1130910B601DD0C880B990B0E940A2420E030E01C
S113092048EC52E40E947423F8016483758386833F
S11309309783B501BB0C880B990B0E940A2420E015
S113094030E048EC52E40E947423F8016087718718
S113095082879387C80126960FB6F894DEBF0FBE30
S1130960CDBFDF91CF911F910F91FF90DF90CF907A
S1130970BF90AF9008950F931F93CF93DF93CDB79C
S1130980DEB72C970FB6F894DEBF0FBECDBF8B0138
S113099020E2FB0111922A95E9F740E250E060E081
S11309A070E0F8014083518362837383FC014681C4
S11309B0578160857185F801448355836683778305
S11309C043E050E060E070E04087518762877387BE
S11309D04AE1BC01CE01019638DE89819A81AB815E
S11309E0BC81F801808B918BA28BB38B8D819E810E
S11309F0AF81B885848B958BA68BB78B89859A85B7
S1130A00AB85BC85808F918FA28FB38F81E02C96AC
S1130A100FB6F894DEBF0FBECDBFDF91CF911F910B
S1130A200F910895613049F4FC018081E0918803BD
S1130A30F0918903808380E0ACC6089540918803D7
S1130A40309189032FEF260F662341F0A82FB92F89
S1130A50E42FF32F8D9181932150E0F781E099C623
S1130A6008959B01813041F018F0833049F00895D6
S1130A70642FC901D7CF0895642FC901DFCF08952A
S1130A80642FC9010C94582008958091000290911C
S1130A900102029690938903809388030895E0915C
S1130AA08E03F0918F03908180918D03809589232B
S1130AB080830895E0918E03F0918F03908180915B
S1130AC08D03892B80830895CF93DF93D82FC62F6E
S1130AD0E6DF8C2FCF71CD2BCEBD00000DB407FE09
S1130AE0FDCF1EBC00000DB407FEFDCFCEB588239C
S1130AF034F41EBC00000DB407FEFDCFCEB5DADF22
S1130B008C2FDF91CF9108951F93CF93DF93C82F3C
S1130B10D62F142FC4DFDF71CD2BCEBD00000DB452
S1130B2007FEFDCF1EBD00000DB407FEFDCFC2DFE2
S1130B30DF91CF911F9108950F931F93CF93DF936C
S1130B40EC018B01ACDF209799F08AE38EBD0000A5
S1130B500DB407FEFDCFF801B8016C0F7D1F1EBC5C
S1130B600DB407FEFDCF9EB591936E177F07B9F7BD
S1130B70A1DFDF91CF911F910F9108951F93CF9320
S1130B80DF93182F1076C12FD0E08091900390E06E
S1130B90C817D907A1F043E06FE180EAB5DF1093ED
S1130BA09003AE01559547955595479555954795AD
S1130BB055954795559547956FE180E8A5DFDF91F9
S1130BC0CF911F910895CF93C82FD8DF6C2F80E069
S1130BD07BDFCF910895CF93DF93C82FD62FCEDF3D
S1130BE04D2F6C2F80E490DFDF91CF910895CF9348
S1130BF0DF93C82FD72FEFDF6D2F81E08C0FEBDF52
S1130C00DF91CF910895FC0194B1976094B9239832
S1130C109DB591609DBD9CB590659CBD8081909172
S1130C208D03982B908346CF08950F93CF93DF9332
S1130C30EB01909392038093910300938D0330937F
S1130C408F0320938E03CA01DEDF4FEF60E08FEF46
S1130C505BDF8FE39FE10197F1F700C000006DE1D6
S1130C6080E032DF8823D9F360E070E088E0BFDF02
S1130C7060E070E08CE0BBDF6FEF7BE08AE0B7DF21
S1130C8060E07CE084E0B3DF6FEF71E186E0AFDF2A
S1130C9061EB88E3A0DF6FE370E388E2A8DF69EF2C
S1130CA077EF80E3A4DF61E080EC95DF42E362EC60
S1130CB080E82ADF62E17CE086EC99DF62E184EC83
S1130CC08ADF6CED75E08AEC92DF688184EE83DF65
S1130CD0698185EE80DF6A8182EE7DDF6B8183EE40
S1130CE07ADF6C8180EE77DF6D8181EE74DF60E105
S1130CF084ED71DF60E071E086ED79DF8AEE63DF19
S1130D0080FDFCCF8FE13ADF40EC6BE180E8FCDE54
S1130D1044E06FE180E8F8DE82E755DF863008F0D2
S1130D208F5FDF91CF910F91089561E184ED53DFDF
S1130D3061E082ED50DF8AEE46DF80FDFCCF60E0AB
S1130D4082ED49DF89ED3FDF82FB882780F9089532
S1130D50AF92BF92CF92DF92EF92FF920F931F93C5
S1130D60CF93DF937C016C0184EFD81A0F2EF3E943
S1130D70AF2EF3E0BF2EF02D87010D561C4F40E837
S1130D806FE180E8C1DE40E86FE180EABDDE4AE061
S1130D906CE180EAB9DE60E07CE082E028DFB60145
S1130DA086E025DF40E060E08AE7AEDE78DEE1142D
S1130DB0F104E1F08AE78EBD00000DB407FEFDCF1B
S1130DC0F50180818EBDF1E0EF16F10459F0E4E9FC
S1130DD0F3E000000DB407FEFDCF81918EBDE01756
S1130DE0F107B9F700000DB407FEFDCF63DE48E05C
S1130DF06FE180E889DEC0E0D0E08CE1E4DE8A7057
S1130E0031F42196C83E83E0D807B9F70CC08CE1D1
S1130E10DADE81FD03C0C83ED34040F048E06FE114
S1130E2080EA72DEACCF8CE1CEDEF8CFDF91CF91D9
S1130E301F910F91FF90EF90DF90CF90BF90AF90F4
S1130E4008950F931F93CF93DF9300D000D0CDB7B5
S1130E50DEB780918C03882391F060918A037091AE
S1130E608B036115710529F46FEF7BE08CE0BFDE25
S1130E7004C0615071098CE0BADE10928C0389E3DE
S1130E80A2DE8823A9F160918A0370918B0380E02C
S1130E90AEDEBE016F5F7F4F86E090E04DDE89815C
S1130EA09A8190938B0380938A038D8187FF12C06C
S1130EB0809191039091920301970B811C810450BE
S1130EC011098017910708F48C0163E973E0C801E4
S1130ED033DE02C000E010E0F801ED56FC4F108252
S1130EE081E080938C0340E46EE180E80DDE02C073
S1130EF000E010E0C80126960FB6F894DEBF0FBEDE
S1130F00CDBFDF91CF911F910F910895EF92FF9282
S1130F100F93CF93DF93EB017A01022FBC018DEA8B
S1130F2095E0C9D39701AE016DEA75E080E092E0E7
S1130F307CDEDF91CF910F91FF90EF900895EF92B7
S1130F40FF920F931F93CF93DF937B018A01E901F3
S1130F50009721F0BC0189EA95E0A0D3E114F104E3
S1130F6011F0C701BDD10115110521F0B80189E9BE
S1130F7095E094D3209721F0BE0185EA95E08ED3C5
S1130F80BBD1109294051092930581E0DF91CF912B
S1130F901F910F91FF90EF900895CF92DF92EF92FF
S1130FA0FF92CF93DF93C62FD0E0CD56DC4F213094
S1130FB081F46A0199E0C90ED11CE12CF12C03C023
S1130FC0C12CD12C76014230510528F1FE01DA0101
S1130FD009C02230A9F76A0192E0C91AD108E12CAC
S1130FE0F12CF1CF208130E0322F22279181292B5F
S1130FF0C20ED31EE11CF11C32961297A230B10529
S113100088F79A01225031092E7F2E5F3F4FC20F7D
S1131010D31F41705527452B61F0488150E060E0B3
S113102070E0762F652F542F4427C40ED51EE61E7C
S1131030F71EA7016627772741155105610571053C
S113104071F0EE24FF24C40ED51EE61EF71EA70180
S113105066277727411551056105710591F7C094FD
S1131060D094E82FF0E0ED56FC4FD082C182DF919E
S1131070CF91FF90EF90DF90CF900895CF93DF93BF
S1131080FC0120812223D1F0FB0130813323C1F004
S113109023273091A5052323A9F4DC011196319669
S11310A0C6EAD5E004964D91219139912427232352
S11310B059F4A817B907B9F781E007C080E005C063
S11310C080E003C080E001C080E0DF91CF9108950B
S11310D0E3E9F3E0108E118E80E4848B158A868B0D
S11310E020E044E150E06EE088E157CF0895BC0170
S11310F083E993E0E0D26DEA75E089E993E0DBC22D
S1131100089589E993E0F3DF6DEA73E081EB93E0FE
S1131110C5D269EA75E08DEA93E0C0D2D9CF0895CB
S1131120CF93DF93EB01E3DFBE0181EB93E0B6D213
S113113069EA75E08DEA93E0B1D2DF91CF91089529
S1131140CF93DF93EB0144E050E0BC018FEA93E0DE
S11311500E942E26892B31F469EA73E0CE01ABD2CA
S113116081E001C080E0DF91CF9108950F931F9338
S1131170CF938C0185E292E0BADFE3E9F3E088E003
S11311808487C6E0C58748E050E067EC72E081EAF6
S113119093E00E942526E3EBF3E0DF011D92CA955C
S11311A0E9F76DEA75E089EA93E085D2B80189EB45
S11311B093E074D269EA75E08FEA93E06FD28AE231
S11311C090E0C6DDCF911F910F910895EF92FF92A9
S11311D00F931F93CF93DF93182F092FEB01F42E56
S11311E0E52E89EA95E04ADF882329F0BE018EEBDB
S11311F095E096DF04C0BE0184EB95E091DF888121
S1131200807F803E91F088819981AA81BB818F3F44
S11312109F4FAF4FBF4F49F044E050E0BE0181EA19
S113122095E00E942E26892B29F465E272E083E979
S113123093E041D2C3E9D3E088E08C871D8649E07E
S113124050E06EEB72E081EA93E00E942526188A52
S113125081E18F8BECA2FDA20AA31BA31EA218A6F8
S113126019A6DF91CF911F910F91FF90EF900895F0
S11312700F931F93CF93DF93EC0103E913E04C9694
S1131280F801908B818B24DFCE010896F80196A398
S113129087A3AE01405F5F4F21E06AE188E27DDE13
S11312A0CE018A9655DDDF91CF911F910F9108955C
S11312B00F931F93CF93DF93D62FC72FCA01A80193
S11312C0B90184DF8D2F9C2F813022E0920710F02A
S11312D080E092E0CDDFDF91CF911F910F910895CF
S11312E0109294051092930521E02093B305BC015C
S11312F08DE995E0D3C10895CF93DF93E9EAF5E052
S1131300C5EAD5E0A1EAB5E02DEA35E091918991ED
S11313108095892B8D93E217F307C1F7DF91CF9165
S11313200895CF93DF93EC01009709F03FC08091BB
S1131330B305857089F08091930590919405892B6C
S113134059F4F3DC882341F08DE995E00FDF8091B7
S1131350B30588608093B3058091930590919405BB
S11313600196909394058093930569E975E089EA61
S113137095E084DE882349F08091BC05811105C085
S11313808091BD05882309F4DCC065E975E089EA2C
S113139095E074DE882309F4F8C08091BA058111C0
S11313A0F4C08091BB058111F0C0D2C0893291058F
S11313B008F4D5C080919F03883009F0E6C080917D
S11313C0A003863009F0DDC044E050E069EA75E02E
S11313D089EB93E00E942E26892B09F0D2C0C3C06A
S11313E089E993E084DEE3E9F3E0148A82E0858B03
S11313F069EA73E083EB93E05ED16DEA75E089EA14
S113140093E059D16FEA73E089EB93E047D169EA3D
S113141075E08FEA93E042D18AE290E099DC809112
S1131420B30583FF0EC08091A803823051F464EBAE
S113143075E08DE995E084DE882319F082E08093DD
S1131440B3058091BC05811110C08091BD0588232E
S113145061F06EEB75E089E995E072DE882329F08E
S113146081E08093BC051092BD058091BA0581117D
S11314708CC08091BB05882309F487C06EEB75E0AE
S113148085E995E05DDE882309F47FC081E08093DF
S1131490BA051092BB0579C080919F03883009F08A
S11314A074C08091A003811170C08091A103853420
S11314B009F06BC044E050E069EA75E081EB93E029
S11314C00E942E26892B09F454C044E050E061EABE
S11314D075E081EB93E00E942E26892B09F449C024
S11314E044E050E065E272E081EB93E00E942E2636
S11314F0892B09F04AC03DC08091B5038830C9F4F6
S1131500E091C405F091C505309719F08DEA93E098
S11315101995F7DDE3E9F3E012A284A1883F18F0FE
S113152095A19F5F95A3885F8093B703CE0110DCDC
S11315302CC04AD0882349F18091AA03813129F52E
S11315401DC089E995E012DE81E08093BD051DCFC1
S113155085E995E00BDE81E08093BB0516C08A9790
S113156008F09ACF12C08091A803813009F057CFB8
S113157037CF8091AA038130E1F6BECFCE012BD0C4
S113158004C0CA32D10508F08CCF80E090E0DF912E
S1131590CF9108959C019091C6059830A0F4E92F4D
S11315A0F0E0AF01440F551F440F551FE40FF51F22
S11315B0E953FA4F318320837383628381E0848308
S11315C09F5F9093C605089581E09091C60591119F
S11315D001C080E008958F929F92BF92CF92DF92D4
S11315E0EF92FF920F931F93CF93DF938091C605E1
S11315F0882309F446C0C7ECD5E0E12CF12C80E047
S11316000F2EF3E9CF2EF3E0DF2EF02DBB24B3949D
S1131610AA81BB81F60124A130E04B2F5527241762
S1131620350721F525A130E0AD01552724173507ED
S1131630E9F49C819923D1F007A110E00850110925
S113164086A190E0982F8827080F191F42A150E027
S1131650542F442783A1482B888099802DEB33E0B5
S11316606DEA73E0CD01F40119958B2DFFEFEF1AAC
S1131670FF0A25962091C60530E0E216F30644F2EF
S113168001C080E0DF91CF911F910F91FF90EF9007
S1131690DF90CF90BF909F908F900895FB012081A1
S11316A03181FC0131832083FB0122813381FC01E0
S11316B0338322830895DC0196E0FB0101900D92AF
S11316C09A95E1F70895FC012081DC01129681814D
S11316D0922F980F3FEF360F662361F0FD01832FA1
S11316E02191920F8150E0F7232F30E02F5F3F4F7D
S11316F0A20FB31F81E02C91291380E008950F936A
S11317001F93CF93DF93A801435051094F3F5105D5
S113171009F088F4F90180818F3F69F4E9010350ED
S1131720602FC901D0DF882331F0BE016E5F7F4F87
S1131730402F898196D9DF91CF911F910F91089500
S11317400F93CF93DF93EC01CA01A901202FD0930B
S1131750F205C093F1057093F0056093EF05BC01A9
S113176086E092E0D3DB882379F020E030E040E0AB
S113177050E06CE072E080E192E0E1DBBE018FE7D3
S11317809BE008DF81E001C080E0DF91CF910F9101
S113179008950F931F93CF93DF93E0910002F0918C
S11317A001029FEF9083E0910002F0910102818396
S11317B08150C0910002D0910102DE0112964FEFD8
S11317C0460F662381F0FD0150E09A012D5F3F4FE3
S11317D02C0F3D1F9191890FE217F307D9F74F5F43
S11317E05F4FA40FB51F8C930091EF051091F00586
S11317F04091F1055091F20570E06D5F7F4F22E05A
S113180032E0809100029091010252DDDF91CF918C
S11318101F910F910895789426E040E855E260E026
S113182070E088EF95E00E94FB156BE272E088EFB0
S113183095E00E94FB220E949E20811107C06CE368
S113184072E088EF95E00E94FB22FFCF68E572E02A
S113185088EF95E00E94FB2201E028E031E047E0B8
S113186051E062E777E181E797E16ADF811107C020
S11318706BE672E088EF95E00E94FB22FFCF61E9FE
S113188072E088EF95E00E94FB22DBDA4ADD0E94D9
S1131890FF20FBCF60E483EF95E00C9417150895C7
S11318A0FC0173A362A340E050EA60E874E444A33B
S11318B055A366A377A30895FC0160A30895CF936D
S11318C0DF93FC0121A121111FC0EC0181E081A360
S11318D066E770E086E997E00E94191EE09196079A
S11318E0F09197070190F081E02D6AE486E997E092
S11318F0199586E997E00E94981E62E08AA19BA14F
S11319000E94721A81E001C080E0DF91CF910895B6
S113191021E0FC0181A1811120E0822F08952F9202
S11319203F924F925F926F927F928F929F92AF926B
S1131930BF92CF92DF92EF92FF920F931F93CF93B8
S1131940DF93CDB7DEB7A5970FB6F894DEBF0FBE11
S1131950CDBF1C01DC011A968D919C911B97A0E0D0
S1131960B0E0BA2FA92F982F8827F101448955890F
S1131970668977893A014B01681A790A8A0A9B0AAF
S113198069827A828B829C8280A1813009F058C15D
S1131990990C6608762C43016D827E828F8298862C
S11319A0868197813C01812C912CA12CB12C65015D
S11319B08D8F7E8E8F8E98A2A9A2BAA2CBA2DCA212
S11319C0A980BA80CB80DC80ED80FE2C0E2D1E2DEC
S11319D0282F372D40E050E060E070E080E090E098
S11319E00E946425122F3E874D87B52FF62FE72FCF
S11319F0782E892EA0E00E940A265CF4AFE70E94AC
S1131A00F525122F3E874D87B52FF62FE72F782E19
S1131A10892E212F3E854D855B2F6F2F7E2F872D9D
S1131A20982D07E00E94CE25822E932E742E652ECB
S1131A30B62FA72F582E492EF101A280B3802A2D4C
S1131A403B2D40E050E060E070E080E090E000E199
S1131A500E94B525A22EB32EC42ED52EE62EF72E27
S1131A60082F192F282D392D472D562D6B2F7A2FFE
S1131A70852D942D0E94EC252D873E874F87588B0A
S1131A80698B7A8B8B8B9C8B808591853C01812C17
S1131A90912CA12CB12C65018D8F7E8E8F8E98A2F6
S1131AA0A9A2BAA2CBA2DCA2A980BA80CB80DC8096
S1131AB0ED80FE2C0E2D1E2D282F372D40E050E0FA
S1131AC060E070E080E090E00E946425122F3E8B7D
S1131AD04D8BB52FF62FE72F782E892EA0E00E948C
S1131AE00A265CF4AFE30E94F525122F3E8B4D8B42
S1131AF0B52FF62FE72F782E892E212F3E894D8979
S1131B005B2F6F2F7E2F872D982D06E00E94CE2508
S1131B10822E932E742E652EB62FA72F582E492E63
S1131B20F1012481358159013B2D40E050E060E012
S1131B3070E080E090E001E10E94B525A22EB32E72
S1131B40C42ED52EE62EF72E082F192F282D392D29
S1131B50472D562D6B2F7A2F852D942D0E94EC2521
S1131B602D8B3E8B4F8B588F698F7A8F8B8F9C8FE9
S1131B70848595853C01812C912CA12CB12C650187
S1131B808D8F7E8E8F8E98A2A9A2BAA2CBA2DCA240
S1131B90A980BA80CB80DC80ED80FE2C0E2D1E2D1A
S1131BA0282F372D40E050E060E070E080E090E0C6
S1131BB00E946425122F3DA34D8FB52FF62FE72FDA
S1131BC0782E892EA0E00E940A2684F4215031093F
S1131BD040485F4F6F4F7F4F8F4F9F4F122F3DA352
S1131BE04D8FB52FF62FE72F782E892E212F3DA16B
S1131BF04D8D5B2F6F2F7E2F872D982D07E10E942F
S1131C00CE25822E932EA42EB52E2401350100ED6F
S1131C10400E07E0501E611C711C10ED411617E0C8
S1131C205106610471040CF462C1812C912C54019D
S1131C3019821A821B821C82E12CF12C87014CC36D
S1131C4069807A808B809C80990C6608762C43018D
S1131C506D827E828F829886868197813C01812C59
S1131C60912CA12CB12C65018D8F7E8E8F8E98A224
S1131C70A9A2BAA2CBA2DCA2A980BA80CB80DC80C4
S1131C80ED80FE2C0E2D1E2D282F372D40E050E028
S1131C9060E070E080E090E00E946425122F3E87AF
S1131CA04D87B52FF62FE72F782E892EA0E00E94BE
S1131CB00A2684F421503F4F4F4F5F4F6F4F7F4FA1
S1131CC08F4F9F4F122F3E874D87B52FF62FE72F4B
S1131CD0782E892E212F3E854D855B2F6F2F7E2FE9
S1131CE0872D982D08E00E94CE25822E932E742EE7
S1131CF0652EB62FA72F582E492EF101A280B3804E
S1131D002A2D3B2D40E050E060E070E080E090E060
S1131D100FE00E94B525A22EB32EC42ED52EE62E9A
S1131D20F72E082F192F282D392D472D562D6B2FBF
S1131D307A2F852D942D0E94EC252D8B3E8B4F8B75
S1131D40588F698F7A8F8B8F9C8F808591853C010A
S1131D50812C912CA12CB12C65018D8F7E8E8F8EC0
S1131D6098A2A9A2BAA2CBA2DCA2A980BA80CB80F5
S1131D70DC80ED80FE2C0E2D1E2D282F372D40E00B
S1131D8050E060E070E080E090E00E946425122F53
S1131D903E874D87B52FF62FE72F782E892EA0E0AA
S1131DA00E940A265CF4AFE70E94F525122F3E87B5
S1131DB04D87B52FF62FE72F782E892E212F3E85BC
S1131DC04D855B2F6F2F7E2F872D982D07E00E9466
S1131DD0CE25822E932E742E652EB62FA72F582E25
S1131DE0492EF1012481358159013B2D40E050E019
S1131DF060E070E080E090E000E10E94B525A22E52
S1131E00B32EC42ED52EE62EF72E082F192F282DEB
S1131E10392D472D562D6B2F7A2F852D942D0E9409
S1131E20EC252D873E874F87588B698B7A8B8B8B5C
S1131E309C8B848595853C01812C912CA12CB12C03
S1131E4065018D8F7E8E8F8E98A2A9A2BAA2CBA295
S1131E50DCA2A980BA80CB80DC80ED80FE2C0E2D24
S1131E601E2D282F372D40E050E060E070E080E028
S1131E7090E00E946425122F3DA34D8FB52FF62FBD
S1131E80E72F782E892EA0E00E940A2684F42150A0
S1131E90310940485F4F6F4F7F4F8F4F9F4F122F35
S1131EA03DA34D8FB52FF62FE72F782E892E212FA6
S1131EB03DA14D8D5B2F6F2F7E2F872D982D07E130
S1131EC00E94CE25822E932EA42EB52E24013501F8
S1131ED000ED400E07E0501E611C711C10ED411610
S1131EE017E05106610471040CF4AFC08AC1298162
S1131EF03A814B815C816D81762F862F962F02E08B
S1131F000E94B525A22EB32EC42ED52EE62EF72E72
S1131F10E82F192F0E94B5250E2F0E940126A980B3
S1131F20BA80CB80DC80ED80FE2C0E2D1E2D0E940D
S1131F300126E02E0F2D0E946425122F3D8F4D8324
S1131F40B52FF62FE72F8983892EA0E00E940A2659
S1131F5084F42150310941095109684F7F4F8F4F53
S1131F609F4F122F3D8F4D83B52FF62FE72F898377
S1131F70892E212F3D8D4D815B2F6F2F7E2F8981DF
S1131F80982D03E20E94CE25822E932EA42EB52EE8
S1131F907301620120EDC21A27E0D20AE108F108B8
S1131FA0D701C601880F991FAA1FBB1F880F991F4D
S1131FB0AA1FBB1F880F991FAA1FBB1F880F991F39
S1131FC0AA1FBB1F880F991FAA1FBB1F9C01AD012D
S1131FD02C193D094E095F09C701B6010E9421254C
S1131FE08B019C01992324F4095F1F4F2F4F3F4F0E
S1131FF0B901A801689412F87595679557954795A6
S11320001694D1F749835A836B837C83AFE3B0E0A2
S1132010A70196010E945A259B01AC01C701B60194
S11320200E9421258B019C01992324F4015E1F4FFA
S11320302F4F3F4F78018901689414F8159507953F
S1132040F794E7941694D1F747C129813A814B81DB
S11320505C816D81762F862F962F01E00E94B52535
S1132060A980BA80CB80DC80ED80FE2C0E2D1E2D45
S11320700E94EC25E02E0F2D0E946425122F3D8F27
S11320804D83B52FF62FE72F8983892EA0E00E9478
S11320900A2684F421503109410951096E4F7F4FBA
S11320A08F4F9F4F122F3D8F4D83B52FF62FE72F64
S11320B08983892E212F3D8D4D815B2F6F2F7E2F9C
S11320C08981982D01E20E94CE252D833E834F8382
S11320D058875301420150ED851A57E0950AA1082B
S11320E0B108D501C401880F991FAA1FBB1F9C0109
S11320F0AD01280D391D4A1D5B1DC501B4010E94A7
S113210021258B019C01992324F40F5F1F4F2F4F2E
S11321103F4FC901B8019595879577956795698370
S11321207A838B839C83D501C401880F991FAA1FCE
S1132130BB1F880F991FAA1FBB1F9C01AD01280D4F
S1132140391D4A1D5B1DC501B4010E9421258B0167
S11321509C01992324F4095F1F4F2F4F3F4F7801AF
S11321608901689412F815950795F794E7941694E5
S1132170D1F771EC471679EF57067FEF67067706BC
S11321800CF07FC1530142018CED880E85E0981E4E
S1132190A11CB11CD501C401880F991FAA1FBB1F24
S11321A0880F991FAA1FBB1F880F991FAA1FBB1F47
S11321B09C01AD01281939094A095B09C501B4011B
S11321C00E94212529813A814B815C81260F371F8A
S11321D0481F591F29833A834B835C83A5019401CB
S11321E0220F331F441F551F220F331F441F551F37
S11321F0C501B4010E942125E60EF71E081F191F10
S113220040C129813A814B815C81CA01B9010E9494
S113221021254B015C01880C991CAA1CBB1C75016F
S11322206401FF0CCC08DC2C7601182D9D8EAD8248
S1132230BB2DFC2DEC2DC9820C2D282D392D4A2DBA
S11322405B2D6C2D7C2D8C2D9C2DA0E00E940A26EC
S113225084F42150310941095109604E7F4F8F4F59
S11322609F4F122F3D8F4D83B52FF62FE72F898374
S1132270092F212F3D8D4D815B2F6F2F7E2F89815B
S1132280902F05E20E94CE252D833E834F835887ED
S1132290C301B201605D7740810991099B01AC01E2
S11322A00E9421258B019C01992324F4015F1F4F77
S11322B02F4F3F4F48015901689413F8B594A794E0
S11322C0979487941694D1F789829A82AB82BC82C0
S11322D0E12CF12C8701D5C0D301C20188199909D9
S11322E0AA09BB09F101808F918FA28FB38F8089D6
S11322F09189A289B3893C014D01A12CB12C6501BE
S11323008D837E828F829886A986BA86CB86DC8668
S113231027013801770C4408542C32012D853E8561
S11323204F85588969897A898B899C89AE2CBF2C01
S1132330C02ED12EE42CF42C042D142D0E94012641
S1132340A22EB32EC42ED52EE62EF72E082F192F2B
S11323502D813E81482D592D60E070E080E090E0B1
S11323600E946425122F3D874D83B52FF62FE72F4A
S1132370782E892EA0E00E940A2684F42150310987
S1132380404E5F4F6F4F7F4F8F4F9F4F122F3D87B0
S11323904D83B52FF62FE72F782E892E212F3D85DB
S11323A04D815B2F6F2F7E2F872D982D05E10E9485
S11323B0CE25822E932E4D875D83B62FA72FF82F1F
S11323C0E92F49805A806B807C80770C4408542C18
S11323D032012D893E894F89588D698D7A8D8B8D77
S11323E09C8DA980BA80CB80DC80E42CF42C042D55
S11323F0142D0E940126A22EB32EC42ED52EE62E15
S1132400F72E082F192F282D392D4D855D816B2F1F
S11324107A2F8F2F9E2F0E940126122F3D834983EE
S1132420B52FF62FE72F782E892EA0E00E940A26DA
S113243084F4215030484F4F5F4F6F4F7F4F8F4F81
S11324409F4F122F3D834983B52FF62FE72F782E08
S1132450892E212F3D8149815B2F6F2F7E2F872D60
S1132460982D0FE00E94CE25D1015C962C935C97A9
S11324705D963C935D975E964C935E975F965C93F6
S1132480DAC08D809E80AF80B884481859086A08E5
S11324907B08D10158964D925D926D927C925B9728
S11324A050968D919D910D90BC91A02D3C014D01B4
S11324B0A12CB12C65018D837E828F829886A9869A
S11324C0BA86CB86DC8627013801770C4408542C65
S11324D032012D893E894F89588D698D7A8D8B8D76
S11324E09C8DAE2CBF2CC02ED12EE42CF42C042DAC
S11324F0142D0E940126A22EB32EC42ED52EE62E14
S1132500F72E082F192F2D813E81482D592D60E07B
S113251070E080E090E00E946425122F3D8B4D8393
S1132520B52FF62FE72F582E692EA0E00E940A2619
S113253084F421503109404E5F4F6F4F7F4F8F4FCE
S11325409F4F122F3D8B4D83B52FF62FE72F582E1B
S1132550692E212F3D894D815B2F6F2F7E2F852D75
S1132560962D05E10E94CE25822E932E4D8B5D8300
S1132570B62FA72FF82FE92F49805A806B807C80D3
S1132580770C4408542C32012D853E854F8558899B
S113259069897A898B899C89A980BA80CB80DC80FF
S11325A0E42CF42C042D142D0E940126A22EB32E0B
S11325B0C42ED52EE62EF72E082F192F282D392DAF
S11325C04D895D816B2F7A2F8F2F9E2F0E940126BC
S11325D0922EA32EB42EC52ED62EE72E782E892E1B
S11325E0A0E00E940A2684F42150304E4F4F5F4FE2
S11325F06F4F7F4F8F4F9F4F922EA32EB42EC52E19
S1132600D62EE72E782E892E292D3A2D4B2D5C2D92
S11326106D2D7E2D872D982D0DE00E94CE25D101A4
S11326205C962C935C975D963C935D975E964C9379
S11326305E975F965C93A5960FB6F894DEBF0FBEC7
S1132640CDBFDF91CF911F910F91FF90EF90DF905D
S1132650CF90BF90AF909F908F907F906F905F903E
S11326604F903F902F900895CF92DF92EF92FF9278
S11326706A017B01FC0120A1213089F4648D758DF0
S1132680868D978D0E940A24A70196010E94BE247C
S113269020E030E048EC52E40E94742311C0FC01B5
S11326A0648D758D868D978D0E940A24A7019601ED
S11326B00E94BE2420E030E040E251E40E947423F2
S11326C0FF90EF90DF90CF900895FC01608D718DA5
S11326D0828D938D0E940A2420E030E048EC52E47D
S11326E00C9474230895CF93DF93EB01888199812F
S11326F09F70998388831F861E8640E050E080E0A7
S113270090E040FF07C0FA01EE7FEC0FFD1F20812F
S113271082271DC0FA01EE7FEC0FFD1FA181B0E0FE
S11327208A279B2714C099232CF4880F991F30E320
S1132730932702C0880F991F2150A9F74F5F5F4F5D
S113274040315105F1F6892F82958F7002C028E03F
S1132750EACFDF91CF910895CF92DF92EF92FF926B
S11327600F931F93CF93DF936C0186E997E00E9448
S1132770FF1D40E050E060E271E4F60182A193A104
S113278042D666E770E086E997E00E94191EE09160
S11327909607F09197070190F081E02D6EE186E9AC
S11327A097E0199586E997E00E94981E61E0F6018A
S11327B082A193A197D6F60182A193A1A7D676010F
S11327C0C0EA66E770E086E997E00E94191EE0918E
S11327D09607F09197070190F081E02D6C2F86E920
S11327E097E0199586E997E00E94981E42E050E030
S11327F066E770E086E997E00E94951E86E997E017
S11328000E944A1DD82F86E997E00E944A1D1D2F79
S113281000E0802B912BF701819391937F01CE5F90
S1132820CE3A79F6F601C181C295CF70B601C601E0
S11328305ADF91E0C81390E0892FDF91CF911F9167
S11328400F91FF90EF90DF90CF9008958F929F9219
S1132850AF92BF92CF92DF92EF92FF920F931F93AA
S1132860CF93DF93DC0191962C91222309F4CFC0FE
S1132870EC018AA19BA144D6882309F4C8C089A18C
S1132880813009F068C066E770E086E997E00E944D
S1132890191E06E917E0D801ED91FC910190F08131
S11328A0E02D60E0C8011995C8010E94981E43E01C
S11328B050E066E770E0C8010E94951E188A198AE4
S11328C01A8A1B8AC8010E944A1D4C01990FAA0842
S11328D0BB08888A998AAA8ABB8AC8010E944A1DB1
S11328E0BA2CA92C982C88246C01990FEE08FF08A7
S11328F0C828D928EA28FB28C88AD98AEA8AFB8A00
S1132900C8010E944A1DFE2CED2CDC2CCC24092E7F
S1132910000CAA0BBB0BC82AD92AEA2AFB2AC88AAC
S1132920D98AEA8AFB8A66E770E0C8010E94191E08
S1132930D801ED91FC910190F081E02D6AE5C80188
S11329401995C8010E94981E62E08CE197E0CAD5EF
S113295082E089A35CC0823009F059C066E770E068
S113296086E997E00E94191EE0919607F091970777
S11329700190F081E02D60E086E997E0199586E901
S113298097E00E94981E43E050E066E770E086E915
S113299097E00E94951E1C8A1D8A1E8A1F8A86E95A
S11329A097E00E944A1D4C01990FAA08BB088C8A23
S11329B09D8AAE8ABF8A86E997E00E944A1DBA2C96
S11329C0A92C982C88246C01990FEE08FF08C828BC
S11329D0D928EA28FB28CC8ADD8AEE8AFF8A86E990
S11329E097E00E944A1DFE2CED2CDC2CCC24092EF1
S11329F0000CAA0BBB0BC82AD92AEA2AFB2ACC8AC8
S1132A00DD8AEE8AFF8ACE010E948F0C19A2DF9123
S1132A10CF911F910F91FF90EF90DF90CF90BF90D7
S1132A20AF909F908F900895FC0160830895FCCF30
S1132A300895FC0197852089892F90E0805C9F4F41
S1132A40821B91098F7399270895FC0197858089CA
S1132A50981731F08089E80FF11D838990E008957B
S1132A608FEF9FEF0895FC0197858089981761F097
S1132A708089DF01A80FB11D53968C9190899F5FC7
S1132A809F73908B90E008958FEF9FEF0895FC0162
S1132A9021893289231738F08FE390E0821B910952
S1132AA0830F911D0895832F90E0821B9109019754
S1132AB00895FC018289DF01A80FB11DAD5ABF4FF3
S1132AC08C91228930E02F5F3F4F2F73307833236E
S1132AD034F421503109206C3F6F2F5F3F4F228B1C
S1132AE0A485B5858C93A681B7818C91837080640D
S1132AF08C9391898289981306C00084F185E02D16
S1132B0080818F7D80830895CF93DF93EC018E8540
S1132B108823D1F0E885F985808185FD05C0AE81E3
S1132B20BF818C9186FD10C00FB607FCF5CF808164
S1132B3085FFF2CF03C0CE01BCDFECCFAE81BF81F5
S1132B408C9185FFE9CFF7CFDF91CF9108950F9353
S1132B501F93CF93DF93EC0181E08E8799898A8953
S1132B60981325C0EE81FF81808185FD31C01FC08F
S1132B708A8918130BC00FB607FCFACFEE81FF81C8
S1132B80808185FFF5CFCE0194DFF2CF8989FE01E4
S1132B90E80FF11DED5AFF4F00839FB7F894198B8E
S1132BA0E885F9858081806280839FBF1DC0298963
S1132BB030E02F5F3F4F2F733078332334F42150AC
S1132BC03109206C3F6F2F5F3F4F062F122FD0CF5C
S1132BD09FB7F894EC85FD856083EE81FF81808149
S1132BE08370806480839FBF81E090E0DF91CF9108
S1132BF01F910F910895CF92DF92EF92FF921F934E
S1132C00CF93DF93EC016A017B01122FEE81FF81E8
S1132C1082E080834115514E61057105B1F060E099
S1132C2079E08DE390E0A70196010E943025DA0156
S1132C30C9010197A109B109B695A79597958795FB
S1132C409C01211580E13807A8F0EE81FF811082F4
S1132C5060E874E88EE190E0A70196010E943025B7
S1132C60DA01C9010197A109B109B695A79597950C
S1132C7087959C01EA81FB813083EC81FD8120836F
S1132C801E86EA85FB851083E885F985808180614D
S1132C908083E885F985808188608083E885F9856B
S1132CA0808180688083E885F98580818F7D808339
S1132CB0DF91CF911F91FF90EF90DF90CF90089517
S1132CC080E090E008951F920F920FB60F921124A6
S1132CD00BB60F922F938F939F93AF93BF93EF9362
S1132CE0FF93E091FE05F091FF05808182FD14C001
S1132CF0E8EFF5E0A485B5852C9187858F5F8F700B
S1132D009089891771F0DF01E785F0E0E850FA4F08
S1132D10238B1F968C9305C0E0910406F091050661
S1132D208081FF91EF91BF91AF919F918F912F91EE
S1132D300F900BBE0F900FBE0F901F9018951F920F
S1132D400F920FB60F9211240BB60F922F933F934D
S1132D504F935F936F937F938F939F93AF93BF939F
S1132D60EF93FF9388EF95E0A4DEFF91EF91BF917D
S1132D70AF919F918F917F916F915F914F913F910F
S1132D802F910F900BBE0F900FBE0F901F901895B0
S1132D90E8EFF5E08FEA92E09183808385EC90E0A0
S1132DA09383828384EC90E09583848380EC90E029
S1132DB09783868381EC90E09187808782EC90E012
S1132DC09387828786EC90E0958784871786108A9C
S1132DD0118A128A08951F920F920FB60F9211242E
S1132DE00BB60F922F938F939F93AF93BF93EF9351
S1132DF0FF93E0913106F0913206808182FD14C088
S1132E00EBE2F6E0A485B5852C9187858F5F8F7002
S1132E109089891771F0DF01E785F0E0E55DF94FEE
S1132E20238B1F968C9305C0E0913706F0913806EA
S1132E308081FF91EF91BF91AF919F918F912F91DD
S1132E400F900BBE0F900FBE0F901F9018951F92FE
S1132E500F920FB60F9211240BB60F922F933F933C
S1132E604F935F936F937F938F939F93AF93BF938E
S1132E70EF93FF938BE296E01CDEFF91EF91BF91FD
S1132E80AF919F918F917F916F915F914F913F91FE
S1132E902F910F900BBE0F900FBE0F901F9018959F
S1132EA0EBE2F6E08FEA92E0918380838DEC90E090
S1132EB0938382838CEC90E09583848388EC90E008
S1132EC09783868389EC90E0918780878AEC90E0F1
S1132ED0938782878EEC90E0958784871786108A83
S1132EE0118A128A08951F920F920FB60F9211241D
S1132EF00BB60F922F938F939F93AF93BF93EF9340
S1132F00FF93E0916406F0916506808182FD14C010
S1132F10EEE5F6E0A485B5852C9187858F5F8F70EB
S1132F209089891771F0DF01E785F0E0E25AF94FE3
S1132F30238B1F968C9305C0E0916A06F0916B0673
S1132F408081FF91EF91BF91AF919F918F912F91CC
S1132F500F900BBE0F900FBE0F901F9018951F92ED
S1132F600F920FB60F9211240BB60F922F933F932B
S1132F704F935F936F937F938F939F93AF93BF937D
S1132F80EF93FF938EE596E094DDFF91EF91BF916F
S1132F90AF919F918F917F916F915F914F913F91ED
S1132FA02F910F900BBE0F900FBE0F901F9018958E
S1132FB0EEE5F6E08FEA92E09183808385ED90E080
S1132FC09383828384ED90E09583848380ED90E005
S1132FD09783868381ED90E09187808782ED90E0EE
S1132FE09387828786ED90E0958784871786108A79
S1132FF0118A128A08951F920F920FB60F9211240C
S11330000BB60F922F938F939F93AF93BF93EF932E
S1133010FF93E0919706F0919806808182FD14C099
S1133020E1E9F6E0A485B5852C9187858F5F8F70E3
S11330309089891771F0DF01E785F0E0EF56F94FC9
S1133040238B1F968C9305C0E0919D06F0919E06FC
S11330508081FF91EF91BF91AF919F918F912F91BB
S11330600F900BBE0F900FBE0F901F9018951F92DC
S11330700F920FB60F9211240BB60F922F933F931A
S11330804F935F936F937F938F939F93AF93BF936C
S1133090EF93FF9381E996E00CDDFF91EF91BF91EF
S11330A0AF919F918F917F916F915F914F913F91DC
S11330B02F910F900BBE0F900FBE0F901F9018957D
S11330C0E1E9F6E08FEA92E09183808385E391E081
S11330D09383828384E391E09583848380E391E006
S11330E09783868381E391E09187808782E391E0EF
S11330F09387828786E391E0958784871786108A71
S1133100118A128A0895FC01A281B38182E08C9312
S1133110A481B5818AE18C930190F081E02D80E453
S11331209CE9918380830895FC01A281B3818C91F1
S113313080688C93A485B5859C918089892B8C9318
S11331400895FC01A281B3818C9180628C93A48543
S1133150B5859C918189892B8C930895FC01A2816A
S1133160B3818C9188608C93A485B5859C91828968
S1133170892B8C930895FC01A281B3818C918F7764
S11331808C93A685B7859C918089809589238C939F
S11331900895FC01A281B3818C918F7D8C93A685C7
S11331A0B7859C918189809589238C930895FC012E
S11331B0A281B3818C91877F8C93A685B7859C91DE
S11331C08289809589238C930895DC011696ED916C
S11331D0FC911797660F771F718360830895DC0154
S11331E01896ED91FC911997660F771F7183608390
S11331F00895DC011A96ED91FC911B97660F771FD9
S1133200718360830895EDEFF6E086E890E09183A2
S1133210808380E890E09383828381E890E09583C3
S1133220848388E890E0978386838AE890E0918796
S113323080878CE890E09387828784E290E095878A
S1133240848785E290E09787868780E2808B90E48C
S1133250918B90E8928BEAEEF6E026E930E0318338
S1133260208320E930E03383228321E930E0358371
S1133270248328E930E0378326832AE930E0318744
S113328020872CE930E0338722872DE230E0358730
S113329024872EE230E03787268728E0208B90E1D0
S11332A0918B828BE7EDF6E046EA50E05183408350
S11332B040EA50E05383428341EA50E0558344831B
S11332C048EA50E0578346834AEA50E051874087F2
S11332D04CEA50E05387428741E051E055874487E8
S11332E042E051E057874687208B918B828BE4EC38
S11332F0F6E046E251E05183408340E251E05383DB
S1133300428341E251E05583448348E251E05783CC
S113331046834AE251E0518740874CE251E05387AB
S113332042874AE051E0558744874BE051E0578794
S11333304687208B918B828B0895CF92DF92EF92F8
S1133340FF92CF93DF93EC01CB01BA0120E030E090
S11333504AE756E40E94BE2420E030E040E85BE304
S11333600E94BE246B017C0120E030E040E85FE372
S11333700E94702318163CF081E08A8760E070E0B8
S113338080E89FE339C020E030E040E051E4C70129
S1133390B6010E94702318163CF082E08A8760E030
S11333A070E080E091E428C020E030E040E852E49E
S11333B0C701B6010E94702318163CF083E08A8787
S11333C060E070E080E892E417C020E030E040E87C
S11333D053E4C701B6010E94702318163CF084E040
S11333E08A8760E070E080E893E406C085E08A871D
S11333F060E070E080E894E4DF91CF91FF90EF907B
S1133400DF90CF9008958F929F92AF92BF92CF9208
S1133410DF92EF92FF92CF93DF93EC016A017B017D
S1133420E881F98182E08083EA81FB811082EC816A
S1133430FD8180837894CE0180DF4B015C0120E024
S113344034E244E75BE4C701B6010E94BE246B0189
S11334507C0120E030E04AE754E4C501B4010E9455
S1133460BE249B01AC01C701B6010E94742320E075
S113347030E040E85FE30E940B236B017C0120E015
S113348030E04FE753E40E94BA2418162CF4E88580
S1133490F9858FEF80831BC020E030E0A901C701CC
S11334A0B6010E947023882324F4E885F9851082EC
S11334B00EC00884D985C02D20E030E040E05FE3F1
S11334C0C701B6010E940C230E94DC236883DF91AC
S11334D0CF91FF90EF90DF90CF90BF90AF909F90EF
S11334E08F900895FC01A281B3811C926387A68109
S11334F0B7811C920280F381E02D85E080830895DA
S1133500FC01938581E0911180E00895FC0193858D
S11335109111FDCF0895FC018385882319F08385DB
S11335208150838708951F920F920FB60F92112432
S11335300BB60F922F933F934F935F936F937F93A9
S11335408F939F93AF93BF93EF93FF938CE197E097
S1133550E2DFFF91EF91BF91AF919F918F917F91A6
S11335606F915F914F913F912F910F900BBE0F90F0
S11335700FBE0F901F9018951F920F920FB60F92C7
S113358011240BB60F922F933F934F935F936F9336
S11335907F938F939F93AF93BF93EF93FF9380E1B8
S11335A097E0B9DFFF91EF91BF91AF919F918F9118
S11335B07F916F915F914F913F912F910F900BBE2F
S11335C00F900FBE0F901F901895ECE1F7E084E484
S11335D090E09183808385E490E0938382838EE6F8
S11335E090E09583848386E490E09783868387E4E0
S11335F090E091878087E0E1F7E080EB90E09183B1
S1133600808381EB90E09383828380E790E09583CD
S1133610848382EB90E09783868383EB90E09187A9
S1133620808708951092950781E080939307109204
S113363092078BB183608BB9E9EBF0E080818E7FD8
S1133640808380818D7F808388E48093B80085E4C3
S11336508093BC000895413208F04CC090919507C6
S11336609111FCCF31E030939507209393072FEF0E
S11336702093280710926D07240F20936C07309332
S1133680940720919407880F822B8093940780914C
S11336909207813081F410929207ABEBB0E0ECEB2F
S11336A0F0E0809194078C93808183FDFACF85ECC0
S11336B08093BC0003C085EE8093BC008091950785
S11336C08130E1F380916D07841710F440916D0708
S11336D0442389F0EEE6F7E0A62FB72F2FEF240F4F
S11336E030E02159384F81918D93E217F307D9F7D0
S11336F0942F01C090E0892F08950F93413208F070
S113370057C0309195073111FCCF92E09093950703
S1133710009393079FEF9093280710926D074093AF
S11337206C07442371F0FB01AEE6B7E0415050E072
S11337304F5F5F4F640F751F91919D93E617F707D5
S1133740D9F71092940790919407880F892B80934E
S1133750940780919207813081F410929207ABEB29
S1133760B0E0ECEBF0E0809194078C93808183FDD2
S1133770FACF85EC8093BC0003C085EE8093BC0037
S1133780222341F080919507823021F4809195079E
S11337908230E1F3809128078F3F79F080912807E8
S11337A0803241F080912807803331F034E005C045
S11337B031E003C032E001C033E0832F0F9108955C
S11337C040914A07262F30E0240F311D2132310564
S11337D0ECF4209195072430D9F4662381F0A82FC6
S11337E0B92F80E090E030914A072D91FC01E45B11
S11337F0F84FE30FF11D208301968617A0F3809103
S11338004A07680F60934A0780E0089581E00895AD
S113381082E0089590938F0780938E070895909384
S1133820910780939007089585ED8093BC00ECEB9D
S1133830F0E0808184FDFDCF10929507089585EC1A
S11338408093BC001092950708951F920F920FB6B3
S11338500F9211240BB60F922F933F934F935F93C4
S11338606F937F938F939F93AF93BF93EF93FF9344
S11338708091B900887F90E0893C910508F0EFC001
S1133880FC018827EE58FF4F8F4F0C9452258091EE
S113389094078093BB0085EC8093BC00E0C09091BA
S11338A06D0780916C07981780F4E0916D0781E0B3
S11338B08E0F80936D07F0E0E259F84F808180937A
S11338C0BB0085EC8093BC00CAC080919307882319
S11338D011F0AADFC4C081E08093920784EA809348
S11338E0BC0010929507BBC080E2809328079CDF40
S11338F0B6C080E38093280797DFB1C088E3809344
S113390028079DDFACC0E0916D0781E08E0F8093A6
S11339106D078091BB00F0E0E259F84F80839091ED
S11339206D0780916C07981720F485EC8093BC0098
S113393096C085E88093BC0092C0E0916D0781E059
S11339408E0F80936D078091BB00F0E0E259F84F31
S1133950808380919307882311F066DF80C081E023
S11339608093920784EA8093BC001092950777C0F5
S11339705BDF75C083E0809395071092290785EC7F
S11339808093BC006CC080912907803280F4E09160
S1133990290781E08E0F809329078091BB00F0E016
S11339A0E65DF84F808385EC8093BC0058C085E8C1
S11339B08093BC0054C043DF80912907803230F4E7
S11339C0E0912907F0E0E65DF84F10826091290745
S11339D070E0E0918E07F0918F078AE297E01995E5
S11339E0109229073CC085E88093BC0038C084E06D
S11339F08093950710924B0710924A07E091900725
S1133A00F0919107199580914A07811105C081E0D1
S1133A1080934A0710924C07E0914B0781E08E0F88
S1133A2080934B07F0E0E45BF84F80818093BB0008
S1133A3090914B0780914A07981720F485EC809366
S1133A40BC000DC085E88093BC0009C085EC809360
S1133A50BC001092950703C010922807E5DEFF9181
S1133A60EF91BF91AF919F918F917F916F915F91F2
S1133A704F913F912F910F900BBE0F900FBE0F905F
S1133A801F9018958091C00790E02091C107821B78
S1133A90910908959091C1078091C007981750F437
S1133AA0E92FF0E0EE53F84F208130E09F5F9093D0
S1133AB0C10702C02FEF3FEFC9010895E091C1078C
S1133AC08091C007E81730F4F0E0EE53F84F80819E
S1133AD090E008958FEF9FEF08950895CF93DF93BB
S1133AE0EC01E0919807F0919907309701F19091DA
S1133AF0C1078091C0079817D0F0161617068CF4EA
S1133B0020E030E090E0DE01A90FB11D4C91D90115
S1133B10AE53B84F4C939F5F292F30E026173707D9
S1133B2094F3CB011092C1076093C0071995DF91FC
S1133B30CF910895E0919A07F0919B07309729F06F
S1133B4010929E0710929D0719950895CF93DF93C5
S1133B501F92CDB7DEB7698380919C07882399F0C3
S1133B6080919D078032B0F480919E07E82FF0E0A9
S1133B70E156F84F60838F5F80939E0780939D0783
S1133B8081E090E009C061E0CE01019619DE81E098
S1133B9090E002C080E090E00F90DF91CF91089513
S1133BA0CF92DF92EF92FF920F931F93CF93DF9305
S1133BB08C01CB016A0120919C072223A1F04115BD
S1133BC0510599F0EB017B01E40EF51E6991D801D2
S1133BD0ED91FC910190F081E02DC8011995CE156D
S1133BE0DF05A1F702C0642FEBDDC601DF91CF91A1
S1133BF01F910F91FF90EF90DF90CF900895109256
S1133C00C1071092C00710929E0710929D070ADD0B
S1133C108AE99DE104DE8EE69DE1FCCD089581E014
S1133C2080939C076093BF0710929E0710929D0794
S1133C300895F5CF08950F93062F21E040919D0735
S1133C406FE977E08091BF0758DD10929E071092CC
S1133C509D0710929C070F9108954F925F926F9267
S1133C607F92AF92BF92CF92EF92FF920F931F93E6
S1133C70CF93DF935C01F62ED42F28013901EE2077
S1133C8039F1CDDF8E2D843008F083E0CFEFC80FFB
S1133C908823D9F08C2F880F880F880FA3019201F5
S1133CA004C056954795379527958A95D2F7CA014A
S1133CB0B901D501ED91FC910190F081E02DC50190
S1133CC019958C2FC1508111E5CF60E0C501B3DF98
S1133CD04D2FD13208F040E22C2D62EC77E08F2D8D
S1133CE0BADC1092C1078093C007DF91CF911F9176
S1133CF00F91FF90EF90CF90BF90AF907F906F9017
S1133D005F904F900895CF92EF920F931F93C22E1E
S1133D10E12C00E010E09801A0DF1F910F91EF90DB
S1133D20CF90089521E0EFCF089521E0ECCF0895DE
S1133D3061E081CF089581EC92E09093970780939E
S1133D4096070895FC0160830895FC01808190E04A
S1133D508C309105A8F4FC018827E55CFE4F8F4F59
S1133D60A1C68DEF96E0CFC908958AEE96E0CBC93F
S1133D70089587ED96E0C7C9089584EC96E0C3C919
S1133D800895FC01808190E08C30910508F035C0E5
S1133D90FC018827E95BFE4F8F4F84C68DEF96E0C8
S1133DA014CA08958DEF96E01ACA08958DEF96E02F
S1133DB020CA08958AEE96E008CA08958AEE96E02D
S1133DC00ECA08958AEE96E014CA089587ED96E027
S1133DD0FCC9089587ED96E002CA089587ED96E040
S1133DE008CA089584EC96E0F0C9089584EC96E03E
S1133DF0F6C9089584EC96E0FCC90895FC0180811D
S1133E0090E08C30910508F07DC0FC018827ED5AC4
S1133E10FE4F8F4F47C6662321F08DEF96E084C98D
S1133E2008958DEF96E0A7C90895662321F08DEFDC
S1133E3096E087C908958DEF96E0ABC9089566238F
S1133E4021F08DEF96E08AC908958DEF96E0AFC911
S1133E500895662321F08AEE96E066C908958AEEF5
S1133E6096E089C90895662321F08AEE96E069C92F
S1133E7008958AEE96E08DC90895662321F08AEEAE
S1133E8096E06CC908958AEE96E091C90895662378
S1133E9021F087ED96E048C9089587ED96E06BC957
S1133EA00895662321F087ED96E04BC9089587EDC8
S1133EB096E06FC90895662321F087ED96E04EC918
S1133EC0089587ED96E073C90895662321F084EC84
S1133ED096E02AC9089584EC96E04DC908956623B6
S1133EE021F084EC96E02DC9089584EC96E051C944
S1133EF00895662321F084EC96E030C9089584EC9B
S1133F0096E055C908956BE08CEE97E01BDF64E002
S1133F108BEE97E017DF63E08AEE97E013DF67E04C
S1133F2089EE97E00FDF68E088EE97E00BDF69E049
S1133F3087EE97E007DF6AE086EE97E003DF65E04F
S1133F4085EE97E0FFDE66E084EE97E0FBDE60E05E
S1133F5083EE97E0F7DE61E082EE97E0F3CE08951A
S1133F6021110DC040910002509101024D5F5F4F3D
S1133F70DC01ED91FC910680F781E02D19950895FF
S1133F800895DC01ED91FC910680F781E02D1995EF
S1133F9008950895DC0112962C91129726131AC0E5
S1133FA01496ED91FC911597608113963C913623FC
S1133FB061E009F460E0FA01DC0116968C91862731
S1133FC08083E0910002F0910102228362E083E0A9
S1133FD00C94C90B0895CF93DF93C62FFC01D281B3
S1133FE0D61312C0223041F5FA01608171818CEE42
S1133FF097E0C7DEE0910002F0910102D28361E014
S113400083E00E94C90B18C0FC018381681314C0AB
S1134010213091F461E0FA018081811101C060E0F6
S11340208CEE97E0EBDEE0910002F0910102C28396
S113403061E083E00E94C90BDF91CF91089590E085
S1134040FC01EE0FFF1FED5CF74F20813181232B24
S113405049F4880F991FFC01ED5CF74F718360836D
S113406081E0089580E00895BC01FC018281E7CFDE
S113407008950F931F93CF938C01BC01FC0182819F
S1134080DEDFC82F882379F0B801F8018381D7DFF8
S1134090C82F882341F08CEE97E057DE6CED75E075
S11340A08CEE97E06EDE8C2FCF911F910F910895C7
S11340B06623D1F0FC013081E32FF0E0EE0FFF1F07
S11340C0ED5CF74FA081B181109771F0262FAC0100
S11340D021504F5F5F4FED91FC9111970280F38166
S11340E0E02D632FCD0119950895ECE2F8E08DE4FD
S11340F093E091838083128281E0838321E330E023
S11341003583248386838098889ABF0180E097DF73
S113411042E061E08DE198E03DD14CE157E064E09C
S113412081EF97E0F4D1EDEEF7E089E593E0918338
S1134130808385E0828386E083830895CF93E3E3DD
S1134140F8E083E39AE011921192E817F907D9F79E
S11341508DEF96E00E9483188AEE96E00E94831801
S113416087ED96E00E94831884EC96E00E94831801
S11341706CE278E080912E0862DFC82F811106C0BE
S11341806FEC72E088EF95E036D236C08DE198E0AE
S11341904AD0C82F811106C06DEE72E088EF95E019
S11341A02AD22AC081EF97E01ED1C82F811106C000
S11341B067E073E088EF95E01ED21EC06DEE77E0F5
S11341C08091EF073CDF882389F06DEE77E08091E2
S11341D0F00735DFC82F882349F08CEE97E0B5DD72
S11341E06CED75E08CEE97E0CCDD06C06DE273E01B
S11341F088EF95E000D2C0E08C2FCF9108956091B4
S11342000002709101026D5F7F4F8DE198E00AD04A
S113421060910002709101026D5F7F4F81EF97E022
S11342200BC108950895CF93DF93EC01BC018D85F4
S113423006DF882351F0BE018E8501DF882329F033
S11342406CE0CE0102960E946202DF91CF91089544
S1134250EF92FF920F931F93CF93DF93CDB7DEB707
S113426068970FB6F894DEBF0FBECDBFF62E8A0155
S1134270DC011D96EC90E6120FC002960E94CF025C
S1134280F8018083E0910002F0910102E28262E091
S113429083E00E94C90B71C0DC011E962C9162134D
S11342A06CC0BC016E5F7F4F48E0CE0101960E9456
S11342B02503FE013196A3E3BAE0CE010D964191A8
S11342C05191619171914D935D936D937D93E81735
S11342D0F907A9F7E3E3FAE02081518142813381B0
S11342E0822F952FA42FB32F8D879E87AF87B88BEE
S11342F0D8012C938E8511968C9311978F851296E5
S11343008C931297888913968C93248155814681C6
S11343103781822F952FA42FB32F898B9A8BAB8B48
S1134320BC8BD80114962C9314978A8915968C9378
S113433015978B8916968C9316978C8917968C9360
S11343402085518542853385822F952FA42FB32F45
S11343508D8B9E8BAF8BB88FF80120878E898187D8
S11343608F898287888D8387E0910002F091010212
S1134370F2826DE083E00E94C90B68960FB6F89450
S1134380DEBF0FBECDBFDF91CF911F910F91FF9084
S1134390EF900895EF92FF920F931F93CF93DF93C3
S11343A0EC01E62EF42E25E633E0FC012193319353
S11343B0CF0106E917E028E247E350E060E070E04F
S11343C00E94ED01ED86FE86DF91CF911F910F9142
S11343D0FF90EF9008958CE0E3E3FAE0DF011D9293
S11343E08A95E9F708951F93CF93DF93EC01BC01FD
S11343F08AA525DE182F882361F02296CE010E941B
S1134400AC13182F882329F06091AA02CE010E94D0
S11344105C0C812FDF91CF911F910895CF93DF938F
S1134420FC0123A5211105C0EC0102960E945F0C3A
S11344308BA7DF91CF910895CF92DF92EF92FF92F5
S11344400F931F93CF93DF93CDB7DEB728970FB6A3
S1134450F894DEBF0FBECDBFFC0123A5222309F4CF
S113446047C07B018C016C01F2E0CF0ED11CC60168
S11344700E942614C6010E94880C8823C9F140E0DA
S113448050E060E87FE3C6010E943413262F462FD4
S1134490572F682F792F49835A836B837C83F701C5
S11344A020838A8181838B8182838C818383C6016B
S11344B00E946513262F462F572F682F792F4D837F
S11344C05E836F837887F70124838E8185838F8150
S11344D0868388858783F80182A5E0910002F091A4
S11344E00102828369E083E00E94C90BF80113A6EC
S11344F028960FB6F894DEBF0FBECDBFDF91CF91E3
S11345001F910F91FF90EF90DF90CF9008951F932C
S1134510CF93DF93EC01162F21E733E0FC012193C5
S11345203193CF01BA010E94500C1AA7DF91CF91A9
S11345301F9108950F931F9306E917E028E247E3BC
S113454050E060E070E08FE39AE00E94ED011F917B
S11345500F910895CF92DF92EF92FF920F931F93E2
S1134560CF93DF9341155105C1F06A018C01E62E0A
S1134570F72EC0E0D0E0D7016D917D01D801ED9117
S1134580FC910190F081E02DC8011995892B39F037
S11345902196CC16DD0679F702C0C0E0D0E0CE014A
S11345A0DF91CF911F910F91FF90EF90DF90CF900B
S11345B008956115710581F0FB0101900020E9F770
S11345C03197AF01461B570BDC01ED91FC91028042
S11345D0F381E02D1995089580E090E00895DC01C1
S11345E0ED91FC910280F381E02D42E050E069E717
S11345F073E0199508950F931F93CF93DF93EC0104
S1134600D8DF8C01CE01EBDF800F911FDF91CF91BA
S11346101F910F9108955058BB27AA270ED070C13F
S113462061D130F066D120F031F49F3F11F41EF4D3
S113463056C10EF4E095E7FB4CC1E92F72D180F32B
S1134640BA17620773078407950718F071F49EF58B
S11346508AC10EF4E0950B2EBA2FA02D0B01B901DF
S113466090010C01CA01A0011124FF27591B99F0E4
S1134670593F50F4503E68F11A16F040A22F232FF0
S1134680342F4427585FF3CF469537952795A79540
S1134690F0405395C9F77EF41F16BA0B620B730BE7
S11346A0840BBAF09150A1F0FF0FBB1F661F771F58
S11346B0881FC2F70EC0BA0F621F731F841F48F40D
S11346C0879577956795B795F7959E3F08F0B3CF93
S11346D09395880F08F09927EE0F9795879508957D
S11346E0D4D008F481E008950CD00AC102D140F07E
S11346F0F9D030F021F45F3F19F0EBC0511134C10F
S1134700EEC00FD198F39923C9F35523B1F3951B48
S1134710550BBB27AA2762177307840738F09F5FDE
S11347205F4F220F331F441FAA1FA9F333D00E2E4D
S11347303AF0E0E830D091505040E695001CCAF7BA
S113474029D0FE2F27D0660F771F881FBB1F26177F
S113475037074807AB07B0E809F0BB0B802DBF0152
S1134760FF2793585F4F2AF09E3F510568F0B1C070
S1134770FBC05F3FECF3983EDCF386957795679535
S1134780B795F7959F5FC9F7880F911D9695879503
S113479097F90895E1E0660F771F881FBB1F621722
S11347A073078407BA0720F0621B730B840BBA0BE0
S11347B0EE1F88F7E0950895BCD088F09F5790F0DD
S11347C0B92F9927B751A0F0D1F0660F771F881F32
S11347D0991F1AF0BA95C9F712C0B13081F0C3D04D
S11347E0B1E00895C0C0672F782F8827B85F39F0EB
S11347F0B93FCCF3869577956795B395D9F73EF491
S113480090958095709561957F4F8F4F9F4F089538
S1134810E89409C097FB3EF4909580957095619556
S11348207F4F8F4F9F4F9923A9F0F92F96E9BB270C
S11348309395F695879577956795B795F111F8CF88
S1134840FAF4BB0F11F460FF1BC06F5F7F4F8F4FF3
S11348509F4F16C0882311F096E911C0772321F0E9
S11348609EE8872F762F05C0662371F096E8862F81
S113487070E060E02AF09A95660F771F881FDAF7D8
S1134880880F9695879597F90895990F0008550F05
S1134890AA0BE0E8FEEF16161706E807F907C0F0C2
S11348A012161306E407F50798F0621B730B840BCA
S11348B0950B39F40A2661F0232B242B252B21F4A4
S11348C008950A2609F4A140A6958FEF811D811D44
S11348D0089597F99F6780E870E060E008959FEF7E
S11348E080EC089500240A94161617061806090683
S11348F0089500240A941216130614060506089552
S1134900092E0394000C11F4882352F0BB0F40F4D9
S1134910BF2B11F460FF04C06F5F7F4F8F4F9F4F19
S1134920089557FD9058440F551F59F05F3F71F09B
S11349304795880F97FB991F61F09F3F79F0879502
S11349400895121613061406551FF2CF4695F1DF8B
S113495008C0161617061806991FF1CF869571051B
S1134960610508940895E894BB2766277727CB014F
S113497097F908958ADF08F48FEF08950BD0C0CF1C
S1134980B1DF28F0B6DF18F0952309F0A2CFA7CF46
S11349901124EACFC6DFA0F3959FD1F3950F50E021
S11349A0551F629FF001729FBB27F00DB11D639FDD
S11349B0AA27F00DB11DAA1F649F6627B00DA11D83
S11349C0661F829F2227B00DA11D621F739FB00D29
S11349D0A11D621F839FA00D611D221F749F332799
S11349E0A00D611D231F849F600D211D822F762F32
S11349F06A2F11249F5750408AF0E1F088234AF02F
S1134A00EE0FFF1FBB1F661F771F881F915050407A
S1134A10A9F79E3F510570F05CCFA6CF5F3FECF342
S1134A20983EDCF3869577956795B795F795E79566
S1134A309F5FC1F7FE2B880F911D9695879597F977
S1134A400895DB018F939F9335D0BF91AF91A29FBF
S1134A50800D911DA39F900DB29F900D1124089578
S1134A60A1E21A2EAA1BBB1BFD010DC0AA1FBB1F6E
S1134A70EE1FFF1FA217B307E407F50720F0A21BE0
S1134A80B30BE40BF50B661F771F881F991F1A944D
S1134A9069F760957095809590959B01AC01BD0177
S1134AA0CF010895EE0FFF1F881F8BBF0790F6916B
S1134AB0E02D1994BBD0A59F900DB49F900DA49F99
S1134AC0800D911D11240895DF93CF931F930F93AD
S1134AD09A9DF02D219FF00D8B9DF00D8A9DE02D68
S1134AE0F10D039FF00D029FE00DF11D4E9DE00DB1
S1134AF0F11D5E9DF00D4F9DF00D7F936F93BF925E
S1134B00AF925F934F93D50191D08B01AC01D70144
S1134B108DD0EB01E80FF91FD6011FD02F913F91E3
S1134B20D60184D0C60FD71FE81FF91FAF91BF91DC
S1134B3014D02F913F917AD0C60FD71FE81FF91FC9
S1134B40D60174D0E60FF71F9801BE01CF011124DE
S1134B500F911F91CF91DF91089568D0460F571F91
S1134B60C81FD91F08F4319608950F93083090F0A8
S1134B70982F872F762F652F542F432F322F2227DC
S1134B800850F4CF220F331F441F551F661F771F91
S1134B90881F991F0A95B2F70F91089597FB10F893
S1134BA0169400080F93083098F00850232F342FE0
S1134BB0452F562F672F782F892F902DF4CF0594EA
S1134BC09795879577956795579547953795279541
S1134BD00A95AAF70F9108952A0D3B1D4C1D5D1DE2
S1134BE06E1D7F1D801F911F08950024A7FD009452
S1134BF02A0F301D401D501D601D701D801D901D0D
S1134C0008952A193B094C095D096E097F09800B37
S1134C10910B08950024A7FD00942A173005400540
S1134C20500560057005800590050895A29FB001A8
S1134C30B39FC001A39F700D811D1124911DB29FCC
S1134C40700D811D1124911D0895FB01DC0102C02A
S1134C5005900D9241505040D8F70895FB01DC01B6
S1134C6004C08D910190801921F441505040C8F73F
S1134C70881B990B0895FB01DC014150504048F01A
S1134C8001900D920020C9F701C01D92415050407F
S10B4C90E0F70895F894FFCF4A
S1134C98BD03FFFFFFFF7069692D3031C0A8B20161
S1134CA8A9FEF09D424E4F3035350000000000A7A4
S1134CB801BB04A801FFFFFFFFFFFF0A496E6974E7
S1134CC869616C697A696E672E2E2E004661696C7B
S1134CD8656420746F20696E697469616C697A65AA
S1134CE820726F626F742E00526F626F7420696E47
S1134CF8697469616C697A65642E004661696C65DA
S1134D086420746F206163636573732045746865F8
S1134D18726E657420636F6E74726F6C6C65722E3C
S1134D2800436F6E6E656374656420746F20636FEF
S1134D386E74726F6C6C65722E000000000000A720
S1134D4815AA2247158415191533152515000000D1
S1134D5800A61DD01D60166D1D421D4A1D5E1D5501
S1134D686E61626C6520746F20696E697469616C28
S1134D78697A652042746E546573742E00556E61A9
S1134D88626C6520746F20696E697469616C697AF4
S1134D986520494D552E00556E61626C6520746F0F
S1134DA820696E697469616C697A652050726573EB
S1134DB8737572652053656E736F722E00556E613C
S1134DC8626C6520746F20696E697469616C697AB4
S1134DD86520536572766F2E00000000003420B001
S1134DE81FC01FCA1F000000003920C11FC91FEBC4
S1134DF81F000000001321B01F1221282100000009
S1134E0800F321B01F1C220E220D0A006E616E00F1
S10B4E18696E66006F76660006
S9030000FC
