:10000000DBC000000AC1000008C1000006C10000FA
:1000100004C1000002C1000000C10000FEC00000D9
:10002000FCC00000FAC00000F8C00000F6C00000EC
:10003000F4C00000F2C00000F0C00000EEC00000FC
:10004000ECC00000EAC00000E8C00000E6C000000C
:10005000E4C00000E2C00000E0C00000DEC000001C
:10006000DCC000000C94EE0C0C942A0DD6C00000ED
:10007000D4C00000D2C00000D0C00000CEC000003C
:10008000CCC00000CAC00000C8C00000C6C000004C
:100090000C94760D0C94B20DC0C000000C940E10A0
:1000A000BCC00000BAC00000B8C00000B6C000006C
:1000B000B4C00000B2C00000B0C00000AEC000007C
:1000C000ACC00000AAC00000A8C000000C94FE0D47
:1000D0000C943A0EA2C000000C94860E0C94C20E32
:1000E0009CC00000D010D310D310D310D310D31065
:1000F000D310D3102F10D310D310D310D310D3108C
:10010000D310D3102F10D310D310D310D310D3107B
:10011000D310D3103710D310D310D310D310D31063
:10012000D310D3107A10D310D310D310D310D31010
:10013000D310D3103710D310D310D310D310D31043
:10014000D310D3108110D310D310D310D310D310E9
:10015000D310D3108810D310D310D310D310D310D2
:10016000D310D3109E10D310D310D310D310D310AC
:10017000D310D310CC10D310D310D310D310D3106E
:10018000D310D3108F10D310D310D310D310D3109B
:10019000D310D310AC1045000082000040002000B6
:1001A0000108000604000100AD04530DDB0D630ED1
:1001B000EB0E5411AF11B71111241FBECFEFD1E2D6
:1001C000DEBFCDBF00E00CBF12E0A0E0B2E0EAEA83
:1001D000F8E200E00BBF02C007900D92A43EB10709
:1001E000D9F728E0A4EEB2E001C01D92A935B2070C
:1001F000E1F710E0CCEDD0E000E006C02197010966
:10020000802FFE010E942614C43DD10780E008071C
:10021000A9F70E94730B0C945314F2CE08950F9318
:100220001F93CF93DF938C01EB0188E2FB011192C6
:100230008A95E9F74BE050E064E172E0CE010E945C
:1002400044141B8681E090E0A0E0B0E08C879D879D
:10025000AE87BF87F80186819781A085B185888B9D
:10026000998BAA8BBB8B83E090E0A0E0B0E08C8BF5
:100270009D8BAE8BBF8B1CA21DA21EA21FA2188E2F
:10028000198E1A8E1B8E1C8E1D8E1E8E1F8E8AE05E
:1002900097EDA3E2BCE388A399A3AAA3BBA3DF9134
:1002A000CF911F910F9108950F931F93FC018FE140
:1002B00092E091838083468357836087718723838D
:1002C000158304831F910F910895AF92BF92CF922F
:1002D000EF920F931F93CF93DF931F92CDB7DEB7AB
:1002E0005C0149836093E402CC24C394EE24E3943C
:1002F00004EE12E021E0AE014F5F5F4FF501638134
:10030000848195810E94DA0F882371F3F50184813D
:1003100095810E94F80F8823C9F381E00F90DF9147
:10032000CF911F910F91EF90CF90BF90AF90089514
:10033000462FFC0162876DE3C8DFFFEF26E781E00F
:10034000F15020408040E1F700C000000895AF92D6
:10035000BF92CF92EF92FF920F931F93CF93DF93B1
:10036000EC015A01F22E6093E402CC24C394EE24F3
:10037000E39404EE12E02F2D4B81B5018C819D8119
:100380000E94680F882389F38C819D810E94F80F59
:100390008823D1F38C819D810E94840F4AE050E034
:1003A000682F80E595E00E949B1281E0DF91CF915C
:1003B0001F910F91FF90EF90CF90BF90AF90089555
:1003C000CF93DF931F92CDB7DEB7198221E0AE0144
:1003D0004F5F5F4FBCDF89810F90DF91CF91089510
:1003E0001F93CF93DF93EC01162F8C819D810E9488
:1003F0000E0F60E0CE01E4DF803A79F02FEF83ED5D
:1004000090E3215080409040E1F700C0000060E0A0
:10041000CE01D6DF803A09F04BC060E0CE0188DF24
:1004200040E26FE3CE0151DF2FEF86E791E02150EC
:1004300080409040E1F700C0000060E0CE01C0DFE6
:10044000803A39F08FE39CE90197F1F700C0000092
:10045000F4CF9FEF20E782E0915020408040E1F709
:1004600000C0000040E06EE3CE012FDF8FE39CE987
:100470000197F1F700C0000040E067E0CE0125DF02
:1004800040E06FE3CE0121DF8FE39CE90197F1F7B4
:1004900000C00000612FCE014BDF9FEF29EF80E00D
:1004A000915020408040E1F700C0000081E001C091
:1004B00080E0DF91CF911F91089564E381CF08958B
:1004C000AF92BF92CF92DF92FF920F931F93CF9381
:1004D000DF9300D000D0CDB7DEB78C01CB01F42E76
:1004E0002CE0F80111922A95E9F7AE014F5F5F4FBA
:1004F00026E0FA0111922A95E9F726E06F2D27DF11
:100500006A8170E0762F66278981682B8C8190E064
:10051000982F88272B816C01C22A8E8190E0982F1A
:1005200088272D815C01A22AF4E1FF1609F44AC054
:10053000FF1540F088E0F81609F4ACC0EEE0FE16B6
:1005400069F043C1F8E2FF1609F4D8C08EE2F8164C
:1005500009F408C1EAE1FE1238C168C0072E000C98
:10056000880B990B0E94151320E030E040E85DE312
:100570000E94A113F8016083718382839383B60183
:10058000DD0C880B990B0E94151320E030E040E849
:100590005DE30E94A113F8016483758386839783CA
:1005A000B501BB0C880B990B0E94151320E030E0BD
:1005B00040E85DE30E94A113F8016087718782879C
:1005C000938703C1072E000C880B990B0E9415130B
:1005D00020E030E040E85DE30E94A113F801608371
:1005E000718382839383B601DD0C880B990B0E9483
:1005F000151320E030E040E85DE30E94A113F8010C
:100600006483758386839783B501BB0C880B990B34
:100610000E94151320E030E040E85DE30E94A11342
:10062000F8016087718782879387CFC0072E000CFF
:10063000880B990B0E94151320E030E040E85DE341
:100640000E94A113F8016083718382839383B601B2
:10065000DD0C880B990B0E94151320E030E040E878
:100660005DE30E94A113F8016483758386839783F9
:10067000B501BB0C880B990B0E94151320E030E0EC
:1006800040E85DE30E94A113F801608771878287CB
:1006900093879BC0072E000C880B990B0E941513A3
:1006A00020E030E048EC52E40E94AB12F801608395
:1006B000718382839383B601DD0C880B990B0E94B2
:1006C000151320E030E048EC52E40E94AB12F80130
:1006D0006483758386839783B501BB0C880B990B64
:1006E0000E94151320E030E048EC52E40E94AB1267
:1006F000F801608771878287938767C0072E000C97
:10070000880B990B0E94151320E030E048EC52E46E
:100710000E94AB12F8016083718382839383B601D8
:10072000DD0C880B990B0E94151320E030E048EC9B
:1007300052E40E94AB12F801648375838683978329
:10074000B501BB0C880B990B0E94151320E030E01B
:1007500048EC52E40E94AB12F801608771878287EF
:10076000938733C0072E000C880B990B0E9415133A
:1007700020E030E048EC52E40E94AB12F8016083C4
:10078000718382839383B601DD0C880B990B0E94E1
:10079000151320E030E048EC52E40E94AB12F8015F
:1007A0006483758386839783B501BB0C880B990B93
:1007B0000E94151320E030E048EC52E40E94AB1296
:1007C000F8016087718782879387C80126960FB6E4
:1007D000F894DEBF0FBECDBFDF91CF911F910F9177
:1007E000FF90DF90CF90BF90AF9008950F931F932D
:1007F000CF93DF93CDB7DEB72C970FB6F894DEBF5B
:100800000FBECDBF8B0120E2FB0111922A95E9F7C3
:1008100040E250E060E070E0F80140835183628381
:100820007383FC014681578160857185F80144839B
:1008300055836683778343E050E060E070E0408753
:100840005187628773874AE1BC01CE01019638DE89
:1008500089819A81AB81BC81F801808B918BA28BBD
:10086000B38B8D819E81AF81B885848B958BA68B50
:10087000B78B89859A85AB85BC85808F918FA28F38
:10088000B38F81E02C960FB6F894DEBF0FBECDBFBC
:10089000DF91CF911F910F910895613049F4FC01D0
:1008A0008081E091E502F091E602808380E0D9C684
:1008B00008954091E5023091E6022FEF260F66235E
:1008C00041F0A82FB92FE42FF32F8D918193215060
:1008D000E0F781E0C6C60895613051F4FC019081D3
:1008E000923030F481E0911101C080E00C941D1130
:1008F00008956623C1F0DC01EC91F0E0EE0FFF1FDC
:10090000EE5BF94FA081B181109769F0462FBC01D1
:1009100041506F5F7F4FED91FC9111970190F081F5
:10092000E02DCD01199508959B01813051F028F0FB
:10093000823059F0833069F00895642FC901ADCF3A
:100940000895642FC901B5CF0895642FC901C4CF9C
:100950000895642FC901CDCF089580910002909130
:10096000010202969093E6028093E5020895E091D9
:10097000EB02F091EC0290818091EA02809589234C
:1009800080830895E091EB02F091EC0290818091D8
:10099000EA02892B80830895CF93DF93D82FC62F47
:1009A000E6DF8C2FCF71CD2BCEBD00000DB407FE3E
:1009B000FDCF1EBC00000DB407FEFDCFCEB58823D1
:1009C00034F41EBC00000DB407FEFDCFCEB5DADF57
:1009D0008C2FDF91CF9108951F93CF93DF93C82F72
:1009E000D62F142FC4DFDF71CD2BCEBD00000DB488
:1009F00007FEFDCF1EBD00000DB407FEFDCFC2DF18
:100A0000DF91CF911F9108950F931F93CF93DF93A1
:100A1000EC018B01ACDF209799F08AE38EBD0000DA
:100A20000DB407FEFDCFF801B8016C0F7D1F1EBC91
:100A30000DB407FEFDCF9EB591936E177F07B9F7F2
:100A4000A1DFDF91CF911F910F9108951F93CF9355
:100A5000DF93182F1076C12FD0E08091ED0290E047
:100A6000C817D907A1F043E06FE180EAB5DF109322
:100A7000ED02AE0155954795559547955595479586
:100A800055954795559547956FE180E8A5DFDF912E
:100A9000CF911F910895CF93C82FD8DF6C2F80E09E
:100AA0007BDFCF910895CF93DF93C82FD62FCEDF72
:100AB0004D2F6C2F80E490DFDF91CF910895CF937D
:100AC000DF93C82FD72FEFDF6D2F81E08C0FEBDF87
:100AD000DF91CF910895FC0194B1976094B9239868
:100AE0009DB591609DBD9CB590659CBD80819091A8
:100AF000EA02982B908346CF08950F93CF93DF930C
:100B0000EB019093EF028093EE020093EA023093A0
:100B1000EC022093EB02CA01DEDF4FEF60E08FEFC3
:100B20005BDF8FE39FE10197F1F700C000006DE10B
:100B300080E032DF8823D9F360E070E088E0BFDF37
:100B400060E070E08CE0BBDF6FEF7BE08AE0B7DF56
:100B500060E07CE084E0B3DF6FEF71E186E0AFDF5F
:100B600061EB88E3A0DF6FE370E388E2A8DF69EF61
:100B700077EF80E3A4DF61E080EC95DF42E362EC95
:100B800080E82ADF62E17CE086EC99DF62E184ECB8
:100B90008ADF6CED75E08AEC92DF688184EE83DF9A
:100BA000698185EE80DF6A8182EE7DDF6B8183EE75
:100BB0007ADF6C8180EE77DF6D8181EE74DF60E13A
:100BC00084ED71DF60E071E086ED79DF8AEE63DF4E
:100BD00080FDFCCF8FE13ADF40EC6BE180E8FCDE8A
:100BE00044E06FE180E8F8DE82E755DF863008F008
:100BF0008F5FDF91CF910F91089561E184ED53DF15
:100C000061E082ED50DF8AEE46DF80FDFCCF60E0E0
:100C100082ED49DF89ED3FDF82FB882780F9089567
:100C2000AF92BF92CF92DF92EF92FF920F931F93FA
:100C3000CF93DF937C016C0184EFD81A0F2EF0EF75
:100C4000AF2EF2E0BF2EF02D870100511D4F40E87E
:100C50006FE180E8C1DE40E86FE180EABDDE4AE096
:100C60006CE180EAB9DE60E07CE082E028DFB6017A
:100C700086E025DF40E060E08AE7AEDE78DEE11462
:100C8000F104E1F08AE78EBD00000DB407FEFDCF50
:100C9000F50180818EBDF1E0EF16F10459F0E1EF2E
:100CA000F2E000000DB407FEFDCF81918EBDE0178C
:100CB000F107B9F700000DB407FEFDCF63DE48E091
:100CC0006FE180E889DEC0E0D0E08CE1E4DE8A708C
:100CD00031F42196C83E83E0D807B9F70CC08CE107
:100CE000DADE81FD03C0C83ED34040F048E06FE14A
:100CF00080EA72DEACCF8CE1CEDEF8CFDF91CF910F
:100D00001F910F91FF90EF90DF90CF90BF90AF9029
:100D100008950F931F93CF93DF9300D000D0CDB7EA
:100D2000DEB78091E902882391F06091E70270912B
:100D3000E8026115710529F46FEF7BE08CE0BFDEFE
:100D400004C0615071098CE0BADE1092E90289E3B7
:100D5000A2DE8823A9F16091E7027091E80280E0A9
:100D6000AEDEBE016F5F7F4F86E090E04DDE898191
:100D70009A819093E8028093E7028D8187FF12C0E9
:100D80008091EE029091EF0201970B811C8104503B
:100D900011098017910708F48C0160EF72E0C80117
:100DA00033DE02C000E010E0F801E051FD4F108298
:100DB00081E08093E90240E46EE180E80DDE02C04C
:100DC00000E010E0C80126960FB6F894DEBF0FBE13
:100DD000CDBFDF91CF911F910F910895EF92FF92B8
:100DE0000F93CF93DF93EB017A01022FBC018AE0CE
:100DF00095E0C9D39701AE016AE075E080E092E02A
:100E00007CDEDF91CF910F91FF90EF900895EF92EC
:100E1000FF920F931F93CF93DF937B018A01E90128
:100E2000009721F0BC0186E095E0A0D3E114F10425
:100E300011F0C701BDD10115110521F0B80186EFF0
:100E400094E094D3209721F0BE0182E095E08ED308
:100E5000BBD11092F1041092F00481E0DF91CF91A8
:100E60001F910F91FF90EF900895CF92DF92EF9234
:100E7000FF92CF93DF93C62FD0E0C051DD4F2130DA
:100E800081F46A0199E0C90ED11CE12CF12C03C058
:100E9000C12CD12C76014230510528F1FE01DA0136
:100EA00009C02230A9F76A0192E0C91AD108E12CE1
:100EB000F12CF1CF208130E0322F22279181292B94
:100EC000C20ED31EE11CF11C32961297A230B1055E
:100ED00088F79A01225031092E7F2E5F3F4FC20FB3
:100EE000D31F41705527452B61F0488150E060E0E9
:100EF00070E0762F652F542F4427C40ED51EE61EB2
:100F0000F71EA70166277727411551056105710571
:100F100071F0EE24FF24C40ED51EE61EF71EA701B5
:100F200066277727411551056105710591F7C09432
:100F3000D094E82FF0E0E051FD4FD082C182DF91E4
:100F4000CF91FF90EF90DF90CF900895CF93DF93F4
:100F5000FC0120812223D1F0FB0130813323C1F039
:100F60002327309102052323A9F4DC011196319641
:100F7000C3E0D5E004964D91219139912427232394
:100F800059F4A817B907B9F781E007C080E005C098
:100F900080E003C080E001C080E0DF91CF91089540
:100FA000E0EFF2E0108E118E80E4848B158A868B40
:100FB00020E044E150E06EE088E157CF0895BC01A5
:100FC00080EF92E0E0D26AE075E086EF92E0DBC26B
:100FD000089586EF92E0F3DF6AE073E08EE093E03D
:100FE000C5D266E075E08AE093E0C0D2D9CF08951B
:100FF000CF93DF93EB01E3DFBE018EE093E0B6D247
:1010000066E075E08AE093E0B1D2DF91CF91089578
:10101000CF93DF93EB0144E050E0BC018CE093E020
:101020000E943714892B31F466E073E0CE01ABD215
:1010300081E001C080E0DF91CF9108950F931F936D
:10104000CF938C0185E292E0BADFE0EFF2E088E036
:101050008487C6E0C58748E050E06FE971E08EEF15
:1010600092E00E942E14E0E1F3E0DF011D92CA95A8
:10107000E9F76AE075E086E093E085D2B80186E1A1
:1010800093E074D266E075E08CE093E06FD28AE280
:1010900090E0C6DDCF911F910F910895EF92FF92DE
:1010A0000F931F93CF93DF93182F092FEB01F42E8B
:1010B000E52E86E095E04ADF882329F0BE018BE12A
:1010C00095E096DF04C0BE0181E195E091DF888163
:1010D000807F803E91F088819981AA81BB818F3F7A
:1010E0009F4FAF4FBF4F49F044E050E0BE018EEF3D
:1010F00094E00E943714892B29F465E272E080EFB6
:1011000092E041D2C0EFD2E088E08C871D8649E0B2
:1011100050E066E971E08EEF92E00E942E14188A8A
:1011200081E18F8BECA2FDA20AA31BA31EA218A62D
:1011300019A6DF91CF911F910F91FF90EF90089525
:101140000F931F93CF93DF93EC0100EF12E04C96C7
:10115000F801908B818B24DFCE010896F80196A3CD
:1011600087A3AE01405F5F4F21E06AE188E27DDE48
:10117000CE018A9655DDDF91CF911F910F91089591
:101180000F931F93CF93DF93D62FC72FCA01A801C8
:10119000B90184DF8D2F9C2F813022E0920710F05F
:1011A00080E092E0CDDFDF91CF911F910F91089504
:1011B0001092F1041092F00421E020931005BC017C
:1011C0008AEF94E0D3C10895CF93DF93E6E0F5E092
:1011D000C2E0D5E0AEEFB4E02AE035E0919189912C
:1011E0008095892B8D93E217F307C1F7DF91CF919B
:1011F0000895CF93DF93EC01009709F03FC08091F1
:101200001005857089F08091F0049091F104892B8C
:1012100059F4F3DC882341F08AEF94E00FDF8091EA
:1012200010058860809310058091F0049091F1047E
:1012300001969093F1048093F00466EF74E086E0E9
:1012400095E084DE882349F080911905811105C05D
:1012500080911A05882309F4DCC062EF74E086E00F
:1012600095E074DE882309F4F8C080911705811198
:10127000F4C0809118058111F0C0D2C08932910567
:1012800008F4D5C08091FC02883009F0E6C0809156
:10129000FD02863009F0DDC044E050E066E075E014
:1012A00086E193E00E943714892B09F0D2C0C3C0B5
:1012B00086EF92E084DEE0EFF2E0148A82E0858B34
:1012C00066E073E080E193E05ED16AE075E086E07D
:1012D00093E059D16CE073E086E193E047D166E09A
:1012E00075E08CE093E042D18AE290E099DC809155
:1012F000100583FF0EC080910503823051F461E137
:1013000075E08AEF94E084DE882319F082E0809310
:10131000100580911905811110C080911A0588234C
:1013200061F06BE175E086EF94E072DE882329F0CE
:1013300081E08093190510921A058091170581119B
:101340008CC080911805882309F487C06BE175E093
:1013500082EF94E05DDE882309F47FC081E0809312
:1013600017051092180579C08091FC02883009F0A9
:1013700074C08091FD02811170C08091FE0285349D
:1013800009F06BC044E050E066E075E08EE093E069
:101390000E943714892B09F454C044E050E06EEFEA
:1013A00074E08EE093E00E943714892B09F449C061
:1013B00044E050E065E272E08EE093E00E94371472
:1013C000892B09F04AC03DC0809112038830C9F4CE
:1013D000E0912105F0912205309719F08AE093E021
:1013E0001995F7DDE0EFF2E012A284A1883F18F032
:1013F00095A19F5F95A3885F80931403CE0110DCB5
:101400002CC04AD0882349F180910703813129F506
:101410001DC086EF94E012DE81E080931A051DCF97
:1014200082EF94E00BDE81E08093180516C08A9766
:1014300008F09ACF12C080910503813009F057CF90
:1014400037CF809107038130E1F6BECFCE012BD09C
:1014500004C0CA32D10508F08CCF80E090E0DF9163
:10146000CF9108959C01909123059830A0F4E92F25
:10147000F0E0AF01440F551F440F551FE40FF51F57
:10148000EC5DFA4F318320837383628381E0848330
:101490009F5F90932305089581E09091230591111A
:1014A00001C080E008958F929F92BF92CF92DF9209
:1014B000EF92FF920F931F93CF93DF9380912305B9
:1014C000882309F446C0C4E2D5E0E12CF12C80E089
:1014D0000F2EF0EFCF2EF2E0DF2EF02DBB24B394D1
:1014E000AA81BB81F60124A130E04B2F5527241798
:1014F000350721F525A130E0AD0155272417350723
:10150000E9F49C819923D1F007A110E0085011095A
:1015100086A190E0982F8827080F191F42A150E05C
:10152000542F442783A1482B888099802AE133E0F7
:101530006AE073E0CD01F40119958B2DFFEFEF1AEE
:10154000FF0A25962091230530E0E216F30644F2C7
:1015500001C080E0DF91CF911F910F91FF90EF903C
:10156000DF90CF90BF909F908F900895FB012081D6
:101570003181FC0131832083FB0122813381FC0115
:10158000338322830895DC0196E0FB0101900D92E4
:101590009A95E1F70895FC012081DC011296818182
:1015A000922F980F3FEF360F662361F0FD01832FD6
:1015B0002191920F8150E0F7232F30E02F5F3F4FB2
:1015C000A20FB31F81E02C91291380E008950F939F
:1015D0001F93CF93DF93A801435051094F3F51050B
:1015E00009F088F4F90180818F3F69F4E901035023
:1015F000602FC901D0DF882331F0BE016E5F7F4FBD
:10160000402F898191D9DF91CF911F910F9108953A
:101610000F93CF93DF93EC01CA01A901202FD09340
:101620004F05C0934E0570934D0560934C05BC016A
:1016300086E092E0D3DB882379F020E030E040E0E0
:1016400050E06CE072E080E192E0E1DBBE0187EE09
:101650009AE008DF81E001C080E0DF91CF910F9137
:1016600008950F931F93CF93DF93E0910002F091C1
:1016700001029FEF9083E0910002F09101028183CB
:101680008150C0910002D0910102DE0112964FEF0D
:10169000460F662381F0FD0150E09A012D5F3F4F18
:1016A0002C0F3D1F9191890FE217F307D9F74F5F78
:1016B0005F4FA40FB51F8C9300914C0510914D0501
:1016C00040914E0550914F0570E06D5F7F4F22E0D5
:1016D00032E0809100029091010252DDDF91CF91C2
:1016E0001F910F910895789426E040E855E260E05C
:1016F00070E080E595E00FD16BE272E080E595E067
:1017000097D6CFD5811106C06CE372E080E595E0F5
:101710008FD6FFCF68E572E080E595E089D600E2DC
:1017200022E031E041E051E062E777E181E797E1D3
:101730006FDF811106C06BE672E080E595E078D638
:10174000FFCF61E972E080E595E072D6E2DA51DD23
:10175000FDCFFC0197852089892F90E0805C9F4F09
:10176000821B91098F7399270895FC0197858089C1
:10177000981731F08089E80FF11D838990E0089572
:101780008FEF9FEF0895FC0197858089981761F08E
:101790008089DF01A80FB11D53968C9190899F5FBE
:1017A0009F73908B90E008958FEF9FEF0895FC0159
:1017B00021893289231738F08FE390E0821B910949
:1017C000830F911D0895832F90E0821B910901974B
:1017D0000895FC018289DF01A80FB11DAD5ABF4FEA
:1017E0008C91228930E02F5F3F4F2F733078332365
:1017F00034F421503109206C3F6F2F5F3F4F228B13
:10180000A485B5858C93A681B7818C918370806403
:101810008C9391898289981306C00084F185E02D0C
:1018200080818F7D80830895CF93DF93EC018E8537
:101830008823D1F0E885F985808185FD05C0AE81DA
:10184000BF818C9186FD10C00FB607FCF5CF80815B
:1018500085FFF2CF03C0CE01BCDFECCFAE81BF81EC
:101860008C9185FFE9CFF7CFDF91CF9108950F934A
:101870001F93CF93DF93EC0181E08E8799898A894A
:10188000981325C0EE81FF81808185FD31C01FC086
:101890008A8918130BC00FB607FCFACFEE81FF81BF
:1018A000808185FFF5CFCE0194DFF2CF8989FE01DB
:1018B000E80FF11DED5AFF4F00839FB7F894198B85
:1018C000E885F9858081806280839FBF1DC029895A
:1018D00030E02F5F3F4F2F733078332334F42150A3
:1018E0003109206C3F6F2F5F3F4F062F122FD0CF53
:1018F0009FB7F894EC85FD856083EE81FF81808140
:101900008370806480839FBF81E090E0DF91CF91FE
:101910001F910F910895CF92DF92EF92FF921F9344
:10192000CF93DF93EC016A017B01122FEE81FF81DF
:1019300082E080834115514E61057105A9F060E098
:1019400079E08DE390E0A70196015ED7DA01C90145
:101950000197A109B109B695A795979587959C011F
:10196000211580E13807A0F0EE81FF81108260E848
:1019700074E88EE190E0A701960146D7DA01C9012B
:101980000197A109B109B695A795979587959C01EF
:10199000EA81FB813083EC81FD8120831E86EA850C
:1019A000FB851083E885F985808180618083E885E7
:1019B000F985808188608083E885F98580818068E9
:1019C0008083E885F98580818F7D8083DF91CF9149
:1019D0001F91FF90EF90DF90CF9008951F920F928C
:1019E0000FB60F9211240BB60F922F938F939F93E4
:1019F000AF93BF93EF93FF93E0915605F091570596
:101A0000808182FD14C0E0E5F5E0A485B5852C91C8
:101A100087858F5F8F709089891771F0DF01E78567
:101A2000F0E0E05BFA4F238B1F968C9305C0E091AA
:101A30005C05F0915D058081FF91EF91BF91AF91C1
:101A40009F918F912F910F900BBE0F900FBE0F9013
:101A50001F9018951F920F920FB60F9211240BB67C
:101A60000F922F933F934F935F936F937F938F9337
:101A70009F93AF93BF93EF93FF9380E595E0A9DE2B
:101A8000FF91EF91BF91AF919F918F917F916F9156
:101A90005F914F913F912F910F900BBE0F900FBE12
:101AA0000F901F901895E0E5F5E08EEA92E09183A3
:101AB000808385EC90E09383828384EC90E095832F
:101AC000848380EC90E09783868381EC90E091871B
:101AD000808782EC90E09387828786EC90E0958700
:101AE00084871786108A118A128A08951F920F928E
:101AF0000FB60F9211240BB60F922F938F939F93D3
:101B0000AF93BF93EF93FF93E0918905F0918A051E
:101B1000808182FD14C0E3E8F5E0A485B5852C91B1
:101B200087858F5F8F709089891771F0DF01E78556
:101B3000F0E0ED57FA4F238B1F968C9305C0E09190
:101B40008F05F09190058081FF91EF91BF91AF914A
:101B50009F918F912F910F900BBE0F900FBE0F9002
:101B60001F9018951F920F920FB60F9211240BB66B
:101B70000F922F933F934F935F936F937F938F9326
:101B80009F93AF93BF93EF93FF9383E895E021DE9C
:101B9000FF91EF91BF91AF919F918F917F916F9145
:101BA0005F914F913F912F910F900BBE0F900FBE01
:101BB0000F901F901895E3E8F5E08EEA92E091838C
:101BC00080838DEC90E0938382838CEC90E095830E
:101BD000848388EC90E09783868389EC90E09187FA
:101BE00080878AEC90E0938782878EEC90E09587DF
:101BF00084871786108A118A128A08951F920F927D
:101C00000FB60F9211240BB60F922F938F939F93C1
:101C1000AF93BF93EF93FF93E091BC05F091BD05A7
:101C2000808182FD14C0E6EBF5E0A485B5852C919A
:101C300087858F5F8F709089891771F0DF01E78545
:101C4000F0E0EA54FA4F238B1F968C9305C0E09185
:101C5000C205F091C3058081FF91EF91BF91AF91D3
:101C60009F918F912F910F900BBE0F900FBE0F90F1
:101C70001F9018951F920F920FB60F9211240BB65A
:101C80000F922F933F934F935F936F937F938F9315
:101C90009F93AF93BF93EF93FF9386EB95E099DD0E
:101CA000FF91EF91BF91AF919F918F917F916F9134
:101CB0005F914F913F912F910F900BBE0F900FBEF0
:101CC0000F901F901895E6EBF5E08EEA92E0918375
:101CD000808385ED90E09383828384ED90E095830B
:101CE000848380ED90E09783868381ED90E09187F7
:101CF000808782ED90E09387828786ED90E09587DC
:101D000084871786108A118A128A08951F920F926B
:101D10000FB60F9211240BB60F922F938F939F93B0
:101D2000AF93BF93EF93FF93E091EF05F091F00530
:101D3000808182FD14C0E9EEF5E0A485B5852C9183
:101D400087858F5F8F709089891771F0DF01E78534
:101D5000F0E0E751FA4F238B1F968C9305C0E0917A
:101D6000F505F091F6058081FF91EF91BF91AF915C
:101D70009F918F912F910F900BBE0F900FBE0F90E0
:101D80001F9018951F920F920FB60F9211240BB649
:101D90000F922F933F934F935F936F937F938F9304
:101DA0009F93AF93BF93EF93FF9389EE95E011DD7F
:101DB000FF91EF91BF91AF919F918F917F916F9123
:101DC0005F914F913F912F910F900BBE0F900FBEDF
:101DD0000F901F901895E9EEF5E08EEA92E091835E
:101DE000808385E391E09383828384E391E095830C
:101DF000848380E391E09783868381E391E09187F8
:101E0000808782E391E09387828786E391E09587DC
:101E100084871786108A118A128A089510922906DB
:101E200081E080932706109226068BB183608BB9E0
:101E3000E9EBF0E080818E7F808388E48093B800B6
:101E400085E48093BC000895EF920F93909129064A
:101E50009111FCCF91E090932906E09227069FEF25
:101E600090931D06002321F0309321062093200635
:101E700010921F0600931E06709325066093240699
:101E80001092230641504093220691E09093280639
:101E900090912806880F892B80932806809126062A
:101EA000813081F410922606ABEBB0E0ECEBF0E071
:101EB000809128068C93808183FDFACF85EC8093F6
:101EC000BC0003C085EE8093BC000F91EF90089595
:101ED000CF92EF920F931F9380912A0681110EC02B
:101EE0003E2DF801922F842F21E020932A06EC2C1E
:101EF000032F9F01492FA8DF81E001C080E01F91DF
:101F00000F91EF90CF90089580911D068F3F51F073
:101F100080911D06803241F080911D06803331F0A2
:101F200084E0089580E0089582E0089583E00895B4
:101F3000EF920F93909129069111FCCF92E090932C
:101F40002906E09227069FEF90931D06002321F0BB
:101F5000309321062093200610921F0600931E0640
:101F60007093250660932406109223064093220660
:101F70001092280690912806880F892B80932806B6
:101F800080912606813081F410922606ABEBB0E0FA
:101F9000ECEBF0E0809128068C93808183FDFACFF2
:101FA00085EC8093BC0003C085EE8093BC000F914C
:101FB000EF900895CF92EF920F931F9380912A068E
:101FC000811110C03E2DD801922FFA01862F21E0F9
:101FD00020932A06EC2C032F9D01492FBF01A8DF77
:101FE00081E001C080E01F910F91EF90CF900895A4
:101FF00090912A0681E08927089585ED8093BC00A1
:10200000ECEBF0E0808184FDFDCF1092290608956D
:1020100085EC8093BC001092290608951F920F92C0
:102020000FB60F9211240BB60F922F933F934F933D
:102030005F936F937F938F939F93AF93BF93EF9330
:10204000FF938091B900887F90E08935910508F071
:10205000AAC0FC018827EE58FF4F8F4FF7C380912D
:1020600028068093BB0085EC8093BC009CC09091B7
:102070001F0680911E06981798F4E0912006F091B3
:10208000210680911F0691E0980F90931F06E80F9C
:10209000F11D80818093BB0085EC8093BC0083C0E0
:1020A0009091230680912206981798F4E0912406D7
:1020B000F09125068091230691E0980F90932306D6
:1020C000E80FF11D80818093BB0085EC8093BC00FC
:1020D0006AC080912706882321F08FDF10922A069C
:1020E00062C081E08093260684EA8093BC0010924F
:1020F000290659C080E280931D067FDF10922A06D0
:1021000052C080E380931D0678DF10922A064BC0F0
:1021100088E380931D067CDF10922A0644C0E0917C
:102120002406F09125068091230691E0980F909364
:1021300023069091BB00E80FF11D90839091230638
:1021400080912206981720F485EC8093BC002BC068
:1021500085E88093BC0027C0E0912406F091250615
:102160008091230691E0980F909323069091BB00F5
:10217000E80FF11D908380912706882321F03DDF31
:1021800010922A0610C081E08093260684EA80938C
:10219000BC001092290607C030DF10922A0603C047
:1021A00010921D062ADFFF91EF91BF91AF919F9191
:1021B0008F917F916F915F914F913F912F910F90F0
:1021C0000BBE0F900FBE0F901F90189581E00895E1
:1021D00081E0411180E00895FC01A581B6819C91C8
:1021E0008481982321E009F420E087818227FB0184
:1021F000808381E00895CF93DF93EC01E881F9813A
:102200000480F581E02D19958823A1F0E09100026A
:10221000F09101028A818283BF016D5F7F4FE88167
:10222000F9810680F781E02DCE01199561E0680FF4
:1022300083E017DADF91CF910895882311F02F9A68
:1022400008952F9808950F931F93CF93DF93DC0188
:102250001296CC911297D0E0FE01EE0FFF1FEE5BBD
:10226000F94F20813181232B79F48C01ED91FC9180
:102270000280F381E02D1995882331F0CC0FDD1F0A
:10228000CE5BD94F19830883DF91CF911F910F91B6
:1022900008958AE396E0D7DF8BE296E0D4DF81E011
:1022A0000895279AF6CF0895EAE3F6E0128281E0D6
:1022B000838320EC32E03183208384832FE230E07B
:1022C0003683258387838098889A61E08BE296E045
:1022D0002FC0089581E0411180E008956CE00496DC
:1022E0000C94F0010895CF93DF93EB012FE728833F
:1022F00004960E945D0289831A821B821C821D82C1
:102300001E821F82188619861A861B861C861D86C9
:102310001E861F86188A198A1A8A1B8A1C8A1D8A99
:102320001E8A1F8A188E198E8AE1DF91CF91089537
:102330000F931F93FC01628321E023832CEC32E096
:10234000318320830CE116E028E247E350E060E0AF
:1023500070E004960E9454011F910F9108958CE043
:10236000E2E4F8E0DF011D928A95E9F708950F9302
:102370001F930CE116E028E247E350E060E070E0D4
:102380008EE498E00E9454011F910F910895CF921E
:10239000DF92EF92FF920F931F93CF93DF9341153C
:1023A0005105C1F06A018C01E62EF72EC0E0D0E0A5
:1023B000D7016D917D01D801ED91FC910190F081E3
:1023C000E02DC8011995892B39F02196CC16DD0630
:1023D00079F702C0C0E0D0E0CE01DF91CF911F912C
:1023E0000F91FF90EF90DF90CF90089561157105E8
:1023F00081F0FB0101900020E9F73197AF01461B06
:10240000570BDC01ED91FC910280F381E02D1995D1
:10241000089580E090E00895DC01ED91FC91028048
:10242000F381E02D42E050E064ED72E019950895EB
:102430000F931F93CF93DF93EC01D8DF8C01CE0174
:10244000EBDF800F911FDF91CF911F910F910895C6
:102450008F929F92AF92BF92EF92FF920F931F9332
:10246000CF93DF93CDB7DEB7A1970FB6F894DEBF59
:102470000FBECDBF7C01CB01BA0119A2223008F4F6
:102480002AE08E010F5D1F4F822E912CA12CB12CC2
:10249000A5019401B9D1E62F622F732F842F952FB8
:1024A00001501109EA3010F4E05D01C0E95CD80187
:1024B000EC93611571058105910551F70115110521
:1024C00091F0F80101900020E9F73197AF01401B2E
:1024D000510BD701ED91FC910280F381E02DB80101
:1024E000C701199501C080E0A1960FB6F894DEBF30
:1024F0000FBECDBFDF91CF911F910F91FF90EF9055
:10250000BF90AF909F908F9008952115310549F4A9
:10251000DC01ED91FC910190F081E02D642F199583
:10252000089596DF90E008959A01462F50E060E00C
:1025300070E0EBCF08950F931F93CF93DF93EC01DF
:10254000F3DF8C01CE0168DF800F911FDF91CF9107
:102550001F910F9108950CD0BAC0B2D040F0A9D00D
:1025600030F021F45F3F19F09BC05111E4C09EC0D0
:10257000BFD098F39923C9F35523B1F3951B550B9D
:10258000BB27AA2762177307840738F09F5F5F4F46
:10259000220F331F441FAA1FA9F333D00E2E3AF087
:1025A000E0E830D091505040E695001CCAF729D0A1
:1025B000FE2F27D0660F771F881FBB1F26173707F0
:1025C0004807AB07B0E809F0BB0B802DBF01FF2720
:1025D00093585F4F2AF09E3F510568F061C0ABC031
:1025E0005F3FECF3983EDCF3869577956795B7955A
:1025F000F7959F5FC9F7880F911D9695879597F975
:102600000895E1E0660F771F881FBB1F62177307ED
:102610008407BA0720F0621B730B840BBA0BEE1F02
:1026200088F7E0950895E89409C097FB3EF49095EB
:102630008095709561957F4F8F4F9F4F9923A9F09B
:10264000F92F96E9BB279395F6958795779567952A
:10265000B795F111F8CFFAF4BB0F11F460FF1BC06E
:102660006F5F7F4F8F4F9F4F16C0882311F096E901
:1026700011C0772321F09EE8872F762F05C06623AF
:1026800071F096E8862F70E060E02AF09A95660F68
:10269000771F881FDAF7880F9695879597F9089521
:1026A00097F99F6780E870E060E008959FEF80EC05
:1026B000089500240A9416161706180609060895A8
:1026C00000240A9412161306140605060895092E0E
:1026D0000394000C11F4882352F0BB0F40F4BF2B7D
:1026E00011F460FF04C06F5F7F4F8F4F9F4F0895BD
:1026F00057FD9058440F551F59F05F3F71F04795B3
:10270000880F97FB991F61F09F3F79F08795089597
:10271000121613061406551FF2CF4695F1DF08C0B6
:10272000161617061806991FF1CF869571056105D3
:1027300008940895E894BB2766277727CB0197F97B
:1027400008950BD0C4CFB5DF28F0BADF18F0952379
:1027500009F0A6CFABCF1124EECFCADFA0F3959F2F
:10276000D1F3950F50E0551F629FF001729FBB2778
:10277000F00DB11D639FAA27F00DB11DAA1F649F24
:102780006627B00DA11D661F829F2227B00DA11DD7
:10279000621F739FB00DA11D621F839FA00D611D5D
:1027A000221F749F3327A00D611D231F849F600D7E
:1027B000211D822F762F6A2F11249F5750408AF0B7
:1027C000E1F088234AF0EE0FFF1FBB1F661F771F43
:1027D000881F91505040A9F79E3F510570F060CF7F
:1027E000AACF5F3FECF3983EDCF38695779567952B
:1027F000B795F795E7959F5FC1F7FE2B880F911D61
:102800009695879597F90895A1E21A2EAA1BBB1BEE
:10281000FD010DC0AA1FBB1FEE1FFF1FA217B307AC
:10282000E407F50720F0A21BB30BE40BF50B661FC2
:10283000771F881F991F1A9469F760957095809586
:1028400090959B01AC01BD01CF010895EE0FFF1FD4
:10285000881F8BBF0790F691E02D1994FB01DC01D6
:1028600002C005900D9241505040D8F70895FB01E9
:10287000DC0104C08D910190801921F44150504039
:10288000C8F7881B990B0895FB01DC0141505040AB
:1028900048F001900D920020C9F701C01D924150EF
:0A28A0005040E0F70895F894FFCFD0
:1028AA001A03FFFFFFFF7069692D3031C0A8B2011A
:1028BA00A9FEF09D424E4F30353500000000000E53
:1028CA0001F6030F01FFFFFFFFFFFF0A496E69745C
:1028DA0069616C697A696E672E2E2E004661696C91
:1028EA00656420746F20696E697469616C697A65C0
:1028FA0020726F626F742E00526F626F7420696E5D
:10290A00697469616C697A65642E004661696C65EF
:10291A006420746F2061636365737320457468650E
:10292A00726E657420636F6E74726F6C6C65722E52
:10293A0000436F6E6E656374656420746F20636F05
:10294A006E74726F6C6C65722E0000000000370C9A
:10295A00C711D70B140CA90BC30BB50B0000000051
:10296A00FB10E610E810EC1000000000FB106E11DE
:10297A006A1173110D0A006E616E00696E66006F4E
:04298A00766600006D
:00000001FF
