S0150000526F76436F6E74726F6C6C65722E73726563B4
S11300004AC1000079C1000077C1000075C1000039
S113001073C1000071C100006FC100006DC1000018
S11300206BC1000069C1000067C1000065C1000028
S113003063C100000C94100F5FC100005DC100009B
S11300405BC1000059C1000057C1000055C1000048
S113005053C100000C94E70E4FC100004DC10000D5
S11300604BC1000049C1000047C1000045C1000068
S113007043C1000041C100003FC100003DC1000078
S11300803BC1000039C1000037C1000035C1000088
S113009033C1000031C100002FC100000C948D1049
S11300A02BC1000029C1000027C1000025C10000A8
S11300B023C1000021C100001FC100001DC10000B8
S11300C01BC1000019C1000017C1000015C10000C8
S11300D013C1000011C100000FC100000DC10000D8
S11300E00BC1000094119711971197119711971153
S11300F097119711AF1097119711971197119711A5
S113010097119711AF109711971197119711971194
S113011097119711B710971197119711971197117C
S113012097119711DC109711971197119711971147
S113013097119711B710971197119711971197115C
S113014097119711E1109711971197119711971122
S113015097119711E610971197119711971197110D
S113016097119711F71097119711971197119711EC
S113017097119711201197119711971197119711B2
S113018097119711EB1097119711971197119711D8
S113019097119711051197119711971197119711AD
S11301A09711971122119711971197119711971180
S11301B09711971122119711971197119711971170
S11301C09711971122119711971197119711971160
S11301D09711971122119711971197119711971150
S11301E0971197112B119711971197119711971137
S11301F0971197115B1197119711971197119711F7
S1130200971197112B119711971197119711971116
S1130210971197115B1197119711971197119711D6
S113022097119711431197119711971197119711DE
S1130230971197115F1197119711971197119711B2
S1130240971197115F1197119711971197119711A2
S1130250971197117411971197119711971197117D
S1130260971197118E119711971197119711971153
S1130270971197118E114500008200004000200064
S11302800108000604000100F504740C570D390F31
S11302900813321EE12211241FBECFEFD1E2DEBFCC
S11302A0CDBF00E00CBF14E0A0E0B2E0E8E2F6E568
S11302B000E00BBF02C007900D92A83EB107D9F72A
S11302C02CE0A8EEB4E001C01D92A935B207E1F715
S11302D011E0CBE4D1E000E006C021970109802FB2
S11302E0FE010E941A2AC434D10780E00807A9F746
S11302F00E94B60B0C94122B83CE08950F931F9378
S1130300CF93DF938C01EB0188E2FB0111928A9574
S1130310E9F74BE050E064E172E0CE010E94032B68
S11303201B8681E090E0A0E0B0E08C879D87AE87DB
S1130330BF87F80186819781A085B185888B998BC9
S1130340AA8BBB8B83E090E0A0E0B0E08C8B9D8B0C
S1130350AE8BBF8B1CA21DA21EA21FA2188E198ECB
S11303601A8E1B8E1C8E1D8E1E8E1F8E8AE097ED9C
S1130370A3E2BCE388A399A3AAA3BBA3DF91CF9173
S11303801F910F9108950F931F93FC018FE192E049
S11303909183808346835783608771872383158382
S11303A004831F910F9108950F931F93CF93DF93AD
S11303B0EC01062F142F6B818C819D810E947C128D
S11303C08C819D81DC01ED91FC910190F081E02D07
S11303D0602F19958C819D81DC01ED91FC91019038
S11303E0F081E02D612F19958C819D810E94051368
S11303F081E0DF91CF911F910F910895462FFC0169
S113040062876DE3D1DFFFEF26E781E0F150204002
S11304108040E1F700C0000008951F93CF93DF935D
S1130420EC01162F6B818C819D810E947C128C8142
S11304309D81DC01ED91FC910190F081E02D612F13
S113044019958C819D810E94051341E06B818C81FB
S11304509D810E94FF128C819D81DC01ED91FC91B4
S11304600284F385E02D1995DF91CF911F910895B2
S11304701F93CF93DF93EC01162F8C819D810E94F3
S1130480671260E0CE01C9DF803A79F02FEF83ED87
S113049090E3215080409040E1F700C0000060E00C
S11304A0CE01BBDF803A09F04BC060E0CE01A6DF8D
S11304B040E26FE3CE0178DF2FEF86E791E0215031
S11304C080409040E1F700C0000060E0CE01A5DF6D
S11304D0803A39F08FE39CE90197F1F700C00000FE
S11304E0F4CF9FEF20E782E0915020408040E1F775
S11304F000C0000040E06EE3CE0156DF8FE39CE9CC
S11305000197F1F700C0000040E067E0CE014CDF46
S113051040E06FE3CE0148DF8FE39CE90197F1F7F8
S113052000C00000612FCE0169DF9FEF29EF80E05A
S1130530915020408040E1F700C0000081E001C0FC
S113054080E0DF91CF911F91089564E366CF089511
S1130550CF92DF92EF92FF920F931F93CF93DF938B
S11305607C01C62F6A01122FDC0113966C9113973C
S113057014968D919C9115970E947C12F7018481A9
S11305809581DC01ED91FC910190F081E02D6C2FBF
S11305901995F701848195810E940513412FD70194
S11305A013966C91139714968D919C9115970E94B4
S11305B0FF121123B1F0E6011150012F10E00F5F7B
S11305C01F4F0C0D1D1DF70184819581DC01ED91F8
S11305D0FC910284F385E02D19958993C017D10706
S11305E091F781E0DF91CF911F910F91FF90EF90F0
S11305F0DF90CF90089526E0ABDF86E00895AB014D
S113060028E060E2A5DF88E00895AF92BF92CF9220
S1130610DF92FF920F931F93CF93DF9300D000D00C
S1130620CDB7DEB78C01CB01F42E2CE0F80111928A
S11306302A95E9F7AE014F5F5F4F26E0FA01119268
S11306402A95E9F726E06F2D83DF6A8170E0762F23
S113065066278981682B8C8190E0982F88272B81CD
S11306606C01C22A8E8190E0982F88272D815C012D
S1130670A22AF4E1FF1609F44AC0FF1540F088E00D
S1130680F81609F4ACC0EEE0FE1669F043C1F8E2D6
S1130690FF1609F4D8C08EE2F81609F408C1EAE19D
S11306A0FE1238C168C0072E000C880B990B0E94FB
S11306B0D22820E030E040E85DE30E948629F8017A
S11306C06083718382839383B601DD0C880B990B5D
S11306D00E94D22820E030E040E85DE30E948629B1
S11306E0F8016483758386839783B501BB0C880BFB
S11306F0990B0E94D22820E030E040E85DE30E949C
S11307008629F801608771878287938703C1072E42
S1130710000C880B990B0E94D22820E030E040E8BE
S11307205DE30E948629F801608371838283938349
S1130730B601DD0C880B990B0E94D22820E030E032
S113074040E85DE30E948629F8016483758386830B
S11307509783B501BB0C880B990B0E94D22820E02B
S113076030E040E85DE30E948629F80160877187E4
S113077082879387CFC0072E000C880B990B0E94A9
S1130780D22820E030E040E85DE30E948629F801A9
S11307906083718382839383B601DD0C880B990B8C
S11307A00E94D22820E030E040E85DE30E948629E0
S11307B0F8016483758386839783B501BB0C880B2A
S11307C0990B0E94D22820E030E040E85DE30E94CB
S11307D08629F80160877187828793879BC0072EDB
S11307E0000C880B990B0E94D22820E030E048ECE2
S11307F052E40E943C28F8016083718382839383CE
S1130800B601DD0C880B990B0E94D22820E030E061
S113081048EC52E40E943C28F80164837583868383
S11308209783B501BB0C880B990B0E94D22820E05A
S113083030E048EC52E40E943C28F801608771875C
S11308408287938767C0072E000C880B990B0E9440
S1130850D22820E030E048EC52E40E943C28F80121
S11308606083718382839383B601DD0C880B990BBB
S11308700E94D22820E030E048EC52E40E943C2858
S1130880F8016483758386839783B501BB0C880B59
S1130890990B0E94D22820E030E048EC52E40E94F8
S11308A03C28F801608771878287938733C0072EBD
S11308B0000C880B990B0E94D22820E030E048EC11
S11308C052E40E943C28F8016083718382839383FD
S11308D0B601DD0C880B990B0E94D22820E030E091
S11308E048EC52E40E943C28F801648375838683B3
S11308F09783B501BB0C880B990B0E94D22820E08A
S113090030E048EC52E40E943C28F801608771878B
S113091082879387C80126960FB6F894DEBF0FBE70
S1130920CDBFDF91CF911F910F91FF90DF90CF90BA
S1130930BF90AF9008950F931F93CF93DF93CDB7DC
S1130940DEB72C970FB6F894DEBF0FBECDBF8B0178
S113095020E2FB0111922A95E9F740E250E060E0C1
S113096070E0F8014083518362837383FC01468104
S1130970578160857185F801448355836683778345
S113098043E050E060E070E04087518762877387FE
S11309904AE1BC01CE01019638DE89819A81AB819E
S11309A0BC81F801808B918BA28BB38B8D819E814E
S11309B0AF81B885848B958BA68BB78B89859A85F7
S11309C0AB85BC85808F918FA28FB38F81E02C96ED
S11309D00FB6F894DEBF0FBECDBFDF91CF911F914C
S11309E00F9108950C94CB22089580910002909168
S11309F0010202969093E9048093E8040895E0913B
S1130A00EE04F091EF0490818091ED0480958923A8
S1130A1080830895E091EE04F091EF049081809139
S1130A20ED04892B80830895CF93DF93D82FC62FAD
S1130A30E6DF8C2FCF71CD2BCEBD00000DB407FEA9
S1130A40FDCF1EBC00000DB407FEFDCFCEB588233C
S1130A5034F41EBC00000DB407FEFDCFCEB5DADFC2
S1130A608C2FDF91CF9108951F93CF93DF93C82FDD
S1130A70D62F142FC4DFDF71CD2BCEBD00000DB4F3
S1130A8007FEFDCF1EBD00000DB407FEFDCFC2DF83
S1130A90DF91CF911F9108950F931F93CF93DF930D
S1130AA0EC018B01ACDF209799F08AE38EBD000046
S1130AB00DB407FEFDCFF801B8016C0F7D1F1EBCFD
S1130AC00DB407FEFDCF9EB591936E177F07B9F75E
S1130AD0A1DFDF91CF911F910F9108951F93CF93C1
S1130AE0DF93182F1076C12FD0E08091F00490E0AE
S1130AF0C817D907A1F043E06FE180EAB5DF10938E
S1130B00F004AE01559547955595479555954795EC
S1130B1055954795559547956FE180E8A5DFDF9199
S1130B20CF911F910895CF93C82FD8DF6C2F80E009
S1130B307BDFCF910895CF93DF93C82FD62FCEDFDD
S1130B404D2F6C2F80E490DFDF91CF910895CF93E8
S1130B50DF93C82FD72FEFDF6D2F81E08C0FEBDFF2
S1130B60DF91CF910895FC0194B1976094B92398D3
S1130B709DB591609DBD9CB590659CBD8081909113
S1130B80ED04982B908346CF08950F93CF93DF9372
S1130B90EB019093F2048093F1040093ED043093FD
S1130BA0EF042093EE04CA01DEDF4FEF60E08FEF25
S1130BB05BDF8FE39FE10197F1F700C000006DE177
S1130BC080E032DF8823D9F360E070E088E0BFDFA3
S1130BD060E070E08CE0BBDF6FEF7BE08AE0B7DFC2
S1130BE060E07CE084E0B3DF6FEF71E186E0AFDFCB
S1130BF061EB88E3A0DF6FE370E388E2A8DF69EFCD
S1130C0077EF80E3A4DF61E080EC95DF42E362EC00
S1130C1080E82ADF62E17CE086EC99DF62E184EC23
S1130C208ADF6CED75E08AEC92DF688184EE83DF05
S1130C30698185EE80DF6A8182EE7DDF6B8183EEE0
S1130C407ADF6C8180EE77DF6D8181EE74DF60E1A5
S1130C5084ED71DF60E071E086ED79DF8AEE63DFB9
S1130C6080FDFCCF8FE13ADF40EC6BE180E8FCDEF5
S1130C7044E06FE180E8F8DE82E755DF863008F073
S1130C808F5FDF91CF910F91089561E184ED53DF80
S1130C9061E082ED50DF8AEE46DF80FDFCCF60E04C
S1130CA082ED49DF89ED3FDF82FB882780F90895D3
S1130CB0AF92BF92CF92DF92EF92FF920F931F9366
S1130CC0CF93DF937C016C0184EFD81A0F2EF3EFDE
S1130CD0AF2EF4E0BF2EF02D87010D501B4F40E8DE
S1130CE06FE180E8C1DE40E86FE180EABDDE4AE002
S1130CF06CE180EAB9DE60E07CE082E028DFB601E6
S1130D0086E025DF40E060E08AE7AEDE78DEE114CD
S1130D10F104E1F08AE78EBD00000DB407FEFDCFBB
S1130D20F50180818EBDF1E0EF16F10459F0E4EF96
S1130D30F4E000000DB407FEFDCF81918EBDE017F5
S1130D40F107B9F700000DB407FEFDCF63DE48E0FC
S1130D506FE180E889DEC0E0D0E08CE1E4DE8A70F7
S1130D6031F42196C83E83E0D807B9F70CC08CE172
S1130D70DADE81FD03C0C83ED34040F048E06FE1B5
S1130D8080EA72DEACCF8CE1CEDEF8CFDF91CF917A
S1130D901F910F91FF90EF90DF90CF90BF90AF9095
S1130DA008950F931F93CF93DF9300D000D0CDB756
S1130DB0DEB78091EC04882391F06091EA0470918D
S1130DC0EB046115710529F46FEF7BE08CE0BFDE65
S1130DD004C0615071098CE0BADE1092EC0489E31E
S1130DE0A2DE8823A9F16091EA047091EB0480E00B
S1130DF0AEDEBE016F5F7F4F86E090E04DDE8981FD
S1130E009A819093EB048093EA048D8187FF12C04A
S1130E108091F1049091F20401970B811C8104509C
S1130E2011098017910708F48C0163EF74E0C8017D
S1130E3033DE02C000E010E0F801ED50FB4F1082F9
S1130E4081E08093EC0440E46EE180E80DDE02C0B2
S1130E5000E010E0C80126960FB6F894DEBF0FBE7E
S1130E60CDBFDF91CF911F910F910895EF92FF9223
S1130E700F93CF93DF93EB017A01022FBC018DE036
S1130E8097E0C9D39701AE016DE077E080E092E08E
S1130E907CDEDF91CF910F91FF90EF900895EF9258
S1130EA0FF920F931F93CF93DF937B018A01E90194
S1130EB0009721F0BC0189E097E0A0D3E114F1048C
S1130EC011F0C701BDD10115110521F0B80189EF59
S1130ED096E094D3209721F0BE0185E097E08ED36D
S1130EE0BBD11092F4061092F30681E0DF91CF910A
S1130EF01F910F91FF90EF900895CF92DF92EF92A0
S1130F00FF92CF93DF93C62FD0E0CD50DB4F21303B
S1130F1081F46A0199E0C90ED11CE12CF12C03C0C3
S1130F20C12CD12C76014230510528F1FE01DA01A1
S1130F3009C02230A9F76A0192E0C91AD108E12C4C
S1130F40F12CF1CF208130E0322F22279181292BFF
S1130F50C20ED31EE11CF11C32961297A230B105C9
S1130F6088F79A01225031092E7F2E5F3F4FC20F1E
S1130F70D31F41705527452B61F0488150E060E054
S1130F8070E0762F652F542F4427C40ED51EE61E1D
S1130F90F71EA701662777274115510561057105DD
S1130FA071F0EE24FF24C40ED51EE61EF71EA70121
S1130FB066277727411551056105710591F7C0949E
S1130FC0D094E82FF0E0ED50FB4FD082C182DF9146
S1130FD0CF91FF90EF90DF90CF900895CF93DF9360
S1130FE0FC0120812223D1F0FB0130813323C1F0A5
S1130FF02327309105072323A9F4DC0111963196A8
S1131000C6E0D7E004964D912191399124272323FA
S113101059F4A817B907B9F781E007C080E005C003
S113102080E003C080E001C080E0DF91CF910895AB
S1131030E3EFF4E0108E118E80E4848B158A868BA6
S113104020E044E150E06EE088E157CF0895BC0110
S113105083EF94E0E0D26DE077E089EF94E0DBC2C7
S1131060089589EF94E0F3DF6DE075E081E195E0A8
S1131070C5D269E077E08DE095E0C0D2D9CF08957C
S1131080CF93DF93EB01E3DFBE0181E195E0B6D2BC
S113109069E077E08DE095E0B1D2DF91CF910895DA
S11310A0CF93DF93EB0144E050E0BC018FE095E087
S11310B00E94F62A892B31F469E075E0CE01ABD2A7
S11310C081E001C080E0DF91CF9108950F931F93D9
S11310D0CF938C0185E292E0BADFE3EFF4E088E09D
S11310E08487C6E0C58748E050E06FE772E081E09E
S11310F095E00E94ED2AE3E1F5E0DF011D92CA9537
S1131100E9F76DE077E089E095E085D2B80189E1FF
S113111095E074D269E077E08FE095E06FD28AE2DF
S113112090E0C6DDCF911F910F910895EF92FF9249
S11311300F931F93CF93DF93182F092FEB01F42EF6
S1131140E52E89E097E04ADF882329F0BE018EE18D
S113115097E096DF04C0BE0184E197E091DF8881C7
S1131160807F803E91F088819981AA81BB818F3FE5
S11311709F4FAF4FBF4F49F044E050E0BE0181E0C4
S113118097E00E94F62A892B29F465E272E083EF46
S113119094E041D2C3EFD4E088E08C871D8649E017
S11311A050E066E772E081E095E00E94ED2A188A3B
S11311B081E18F8BECA2FDA20AA31BA31EA218A699
S11311C019A6DF91CF911F910F91FF90EF90089591
S11311D00F931F93CF93DF93EC0103EF14E04C962E
S11311E0F801908B818B24DFCE010896F80196A339
S11311F087A3AE01405F5F4F21E06AE188E27DDEB4
S1131200CE018A9655DDDF91CF911F910F910895FC
S11312100F931F93CF93DF93D62FC72FCA01A80133
S1131220B90184DF8D2F9C2F813022E0920710F0CA
S113123080E092E0CDDFDF91CF911F910F9108956F
S11312401092F4061092F30621E020931307BC01D8
S11312508DEF96E0D3C10895CF93DF93E9E0F7E0F3
S1131260C5E0D7E0A1E0B7E02DE037E091918991A6
S11312708095892B8D93E217F307C1F7DF91CF9106
S11312800895CF93DF93EC01009709F03FC080915C
S11312901307857089F08091F3069091F406892BE9
S11312A059F4F3DC882341F08DEF96E00FDF809151
S11312B013078860809313078091F3069091F406D6
S11312C001969093F4068093F30669EF76E089E043
S11312D097E084DE882349F080911C07811105C0C2
S11312E080911D07882309F4DCC065EF76E089E06E
S11312F097E074DE882309F4F8C080911A078111FD
S1131300F4C080911B078111F0C0D2C089329105CD
S113131008F4D5C08091FF04883009F0E6C08091BC
S11313200005863009F0DDC044E050E069E077E074
S113133089E195E00E94F62A892B09F0D2C0C3C046
S113134089EF94E084DEE3EFF4E0148A82E0858B95
S113135069E075E083E195E05ED16DE077E089E0D6
S113136095E059D16FE075E089E195E047D169E0F6
S113137077E08FE095E042D18AE290E099DC8091B9
S1131380130783FF0EC080910805823051F464E195
S113139077E08DEF96E084DE882319F082E0809375
S11313A0130780911C07811110C080911D078823A9
S11313B061F06EE177E089EF96E072DE882329F030
S11313C081E080931C0710921D0780911A078111F8
S11313D08CC080911B07882309F487C06EE177E0F5
S11313E085EF96E05DDE882309F47FC081E0809379
S11313F01A0710921B0779C08091FF04883009F006
S113140074C080910005811170C0809101058534FC
S113141009F06BC044E050E069E077E081E195E0D9
S11314200E94F62A892B09F454C044E050E061E09C
S113143077E081E195E00E94F62A892B09F449C0FE
S113144044E050E065E272E081E195E00E94F62A12
S1131450892B09F04AC03DC0809115058830C9F434
S1131460E0912407F0912507309719F08DE095E07D
S11314701995F7DDE3EFF4E012A284A1883F18F098
S113148095A19F5F95A3885F80931705CE0110DC1B
S11314902CC04AD0882349F180910A05813129F56D
S11314A01DC089EF96E012DE81E080931D071DCFF9
S11314B085EF96E00BDE81E080931B0716C08A97C8
S11314C008F09ACF12C080910805813009F057CFF7
S11314D037CF80910A058130E1F6BECFCE012BD003
S11314E004C0CA32D10508F08CCF80E090E0DF91CF
S11314F0CF9108959C01909126079830A0F4E92F8C
S1131500F0E0AF01440F551F440F551FE40FF51FC2
S1131510E95DF84F318320837383628381E08483A0
S11315209F5F90932607089581E09091260791117B
S113153001C080E008958F929F92BF92CF92DF9274
S1131540EF92FF920F931F93CF93DF93809126071F
S1131550882309F446C0C7E2D7E0E12CF12C80E0EF
S11315600F2EF3EFCF2EF4E0DF2EF02DBB24B39437
S1131570AA81BB81F60124A130E04B2F5527241703
S1131580350721F525A130E0AD015527241735078E
S1131590E9F49C819923D1F007A110E008501109C6
S11315A086A190E0982F8827080F191F42A150E0C8
S11315B0542F442783A1482B888099802DE135E05E
S11315C06DE075E0CD01F40119958B2DFFEFEF1A55
S11315D0FF0A25962091260730E0E216F30644F22E
S11315E001C080E0DF91CF911F910F91FF90EF90A8
S11315F0DF90CF90BF909F908F900895FB01208142
S11316003181FC0131832083FB0122813381FC0180
S1131610338322830895DC0196E0FB0101900D924F
S11316209A95E1F70895CF93DF93EC01DC011196CD
S113163098812FEF260F662391F0FD01622F70E051
S11316409B012E5F3F4FAE01420F531F2191920F1A
S1131650E417F507D9F76F5F7F4FA60FB71F81E037
S11316602C91291380E0DF91CF9108950F931F935C
S1131670CF93DF93C80102978F3F910509F068F477
S1131680E9010250602FC901CEDF882331F0BE0189
S11316906F5F7F4F402F8881A5D9DF91CF911F9134
S11316A00F9108950F93CF93DF93EC01CA01A90121
S11316B0202FD0935207C093510770935007609323
S11316C04F07BC0186E092E0D1DB882379F020E06B
S11316D030E040E050E06CE072E080E192E0DFDB7B
S11316E0BE0186E39BE006DF81E001C080E0DF917C
S11316F0CF910F9108950F931F93CF93DF93E091B0
S11317000002F09101028083C0910002D091010295
S1131710DE0111964FEF460F662381F0FD0150E084
S11317209A012E5F3F4F2C0F3D1F9191890FE217B5
S1131730F307D9F74F5F5F4FA40FB51F8C93009148
S11317404F0710915007409151075091520770E094
S11317506E5F7F4F22E032E080910002909101029F
S113176057DDDF91CF911F910F91089526E040E05E
S113177052EC61E070E087E797E064D06BE272E0DE
S113178087E797E00E9450270E948124811107C0B7
S11317906BE372E087E797E00E945027FFCF67E58D
S11317A072E087E797E00E9450270E945C25FDCFF6
S11317B080E090E00895DC011496ED91FC9115977A
S11317C08081082E000C990B892F881F8827881F79
S11317D090E008958FEF9FEF0895DC011496ED914A
S11317E0FC91159790819923ECF71A96ED91FC9151
S11317F01B97808190E00895DC011496ED91FC9193
S11318001597208181E090E025FD02C080E090E002
S11318100895DC011496ED91FC911597808185FF64
S1131820FDCF0895DC011496ED91FC9115979081FC
S113183095FFFDCF1A96ED91FC911B97608381E093
S113184090E00895CF92DF92EF92FF921F93CF938F
S1131850DF93EC016A017B01122FDB01CA01880FBF
S1131860991FAA1FBB1F880F991FAA1FBB1F9C018A
S1131870AD01220F331F441F551F60E074E284EF53
S113188090E00E94F82921503109EC81FD8182E029
S11318908083211580E1380770F0EC81FD8110828E
S11318A080E492E4C89E9001C99E300DD89E300D0C
S11318B0112421503109EA81FB8131832083E88599
S11318C0F9851083EE81FF81808180618083EE81C0
S11318D0FF81808188608083DF91CF911F91FF9089
S11318E0EF90DF90CF900895E7E7F7E08EE692E07F
S11318F09183808324EC30E03383228320EC30E036
S11319003583248321EC30E03783268322EC30E0D6
S11319103187208726EC30E033872287EBE6F7E037
S1131920918380832CEC30E03383228328EC30E0F5
S11319303583248329EC30E0378326832AEC30E096
S1131940318720872EEC30E033872287EFE5F7E0FC
S11319509183808324ED30E03383228320ED30E0D3
S11319603583248321ED30E03783268322ED30E074
S11319703187208726ED30E033872287E3E5F7E0DF
S11319809183808384E391E09383828380E391E075
S11319909583848381E391E09783868382E391E056
S11319A09187808786E391E0938782870895FC017D
S11319B0A281B38182E08C93A481B5818AE18C9366
S11319C00190F081E02D80E49CE991838083089567
S11319D0FC01A281B3818C9180688C93A485B58528
S11319E09C918089892B8C930895FC01A281B381F9
S11319F08C9180628C93A485B5859C918189892B77
S1131A008C930895FC01A281B3818C9188608C939E
S1131A10A485B5859C918289892B8C930895FC01BA
S1131A20A281B3818C918F778C93A685B7859C9185
S1131A308089809589238C930895FC01A281B381C8
S1131A408C918F7D8C93A685B7859C918189809597
S1131A5089238C930895FC01A281B3818C91877FA3
S1131A608C93A685B7859C918289809589238C93D4
S1131A700895DC011696ED91FC911797660F771F78
S1131A80718360830895DC011896ED91FC91199798
S1131A90660F771F718360830895DC011A96ED91B8
S1131AA0FC911B97660F771F718360830895ECEB9D
S1131AB0F7E086E890E09183808380E890E0938368
S1131AC0828381E890E09583848388E890E097831B
S1131AD086838AE890E0918780878CE890E09387FA
S1131AE0828784E290E09587848785E290E09787F7
S1131AF0868780E2808B90E4918B90E8928BE9EA70
S1131B00F7E026E930E03183208320E930E03383B5
S1131B10228321E930E03583248328E930E03783C8
S1131B2026832AE930E0318720872CE930E03387A7
S1131B3022872DE230E0358724872EE230E0378794
S1131B40268728E0208B90E1918B828BE6E9F7E0F1
S1131B5046EA50E05183408340EA50E05383428395
S1131B6041EA50E05583448348EA50E05783468372
S1131B704AEA50E0518740874CEA50E05387428755
S1131B8041E051E05587448742E051E0578746875A
S1131B90208B918B828BE3E8F7E046E251E051839E
S1131BA0408340E251E05383428341E251E0558354
S1131BB0448348E251E0578346834AE251E0518727
S1131BC040874CE251E0538742874AE051E0558711
S1131BD044874BE051E057874687208B918B828B5B
S1131BE00895CF92DF92EF92FF92CF93DF93EC01AF
S1131BF0CB01BA0120E030E04AE756E40E9486298E
S1131C0020E030E040E85BE30E9486296B017C0120
S1131C1020E030E040E85FE30E94382818163CF0EA
S1131C2081E08A8760E070E080E89FE339C020E0CB
S1131C3030E040E051E4C701B6010E94382818168C
S1131C403CF082E08A8760E070E080E091E428C0A4
S1131C5020E030E040E852E4C701B6010E94382891
S1131C6018163CF083E08A8760E070E080E892E434
S1131C7017C020E030E040E853E4C701B6010E94F9
S1131C80382818163CF084E08A8760E070E080E829
S1131C9093E406C085E08A8760E070E080E894E41D
S1131CA0DF91CF91FF90EF90DF90CF9008958F92C6
S1131CB09F92AF92BF92CF92DF92EF92FF92CF9317
S1131CC0DF93EC016A017B01E881F98182E0808382
S1131CD0EA81FB811082EC81FD8180837894CE01BE
S1131CE080DF4B015C0120E034E244E75BE4C701A0
S1131CF0B6010E9486296B017C0120E030E04AE7AE
S1131D0054E4C501B4010E9486299B01AC01C701BA
S1131D10B6010E943C2820E030E040E85FE30E94E6
S1131D20D3276B017C0120E030E04FE753E40E94AD
S1131D30822918162CF4E885F9858FEF80831BC05F
S1131D4020E030E0A901C701B6010E9438288823A9
S1131D5024F4E885F98510820EC00884D985C02D45
S1131D6020E030E040E05FE3C701B6010E94D427E1
S1131D700E94A4286883DF91CF91FF90EF90DF90B9
S1131D80CF90BF90AF909F908F900895FC01A28157
S1131D90B3811C926387A681B7811C920280F38170
S1131DA0E02D85E080830895FC01938581E0911105
S1131DB080E00895FC0193859111FDCF0895FC0105
S1131DC08385882319F083858150838708951F9222
S1131DD00F920FB60F9211240BB60F922F933F93CD
S1131DE04F935F936F937F938F939F93AF93BF931F
S1131DF0EF93FF938BED97E0E2DFFF91EF91BF91BB
S1131E00AF919F918F917F916F915F914F913F918E
S1131E102F910F900BBE0F900FBE0F901F9018952F
S1131E201F920F920FB60F9211240BB60F922F939D
S1131E303F934F935F936F937F938F939F93AF934E
S1131E40BF93EF93FF938FEC97E0B9DFFF91EF918E
S1131E50BF91AF919F918F917F916F915F914F91BE
S1131E603F912F910F900BBE0F900FBE0F901F90BC
S1131E701895EBEDF7E084E490E09183808385E4AA
S1131E8090E0938382838EE690E09583848386E456
S1131E9090E09783868387E490E091878087EFECD6
S1131EA0F7E080EB90E09183808381EB90E0938373
S1131EB0828380E790E09583848382EB90E097832C
S1131EC0868383EB90E0918780870895109254086D
S1131ED081E080935208109251088BB183608BB9D2
S1131EE0E9EBF0E080818E7F808380818D7F808329
S1131EF088E48093B80085E48093BC0008959B0136
S1131F00AC0160E074E284EF90E00E94F829DA0109
S1131F10C9014097A109B109B695A79597958795E9
S1131F208093B8000895413208F04CC09091540851
S1131F309111FCCF31E030935408209352082FEFD5
S1131F402093E70710922C08240F20932B0830933A
S1131F50530820915308880F822B80935308809153
S1131F605108813081F410925108ABEBB0E0ECEBF6
S1131F70F0E0809153088C93808183FDFACF85EC47
S1131F808093BC0003C085EE8093BC00809154080C
S1131F908130E1F380912C08841710F440912C08CF
S1131FA0442389F0EDE2F8E0A62FB72F2FEF240F9A
S1131FB030E0225D374F81918D93E217F307D9F713
S1131FC0942F01C090E0892F08950F93413208F0B7
S1131FD057C0309154083111FCCF92E090935408CB
S1131FE0009352089FEF9093E70710922C084093B8
S1131FF02B08442371F0FB01ADE2B8E0415050E0FE
S11320004F5F5F4F640F751F91919D93E617F7071C
S1132010D9F71092530890915308880F892B809315
S1132020530880915108813081F410925108ABEB30
S1132030B0E0ECEBF0E0809153088C93808183FD59
S1132040FACF85EC8093BC0003C085EE8093BC007E
S1132050222341F080915408823021F48091540865
S11320608230E1F38091E7078F3F79F08091E707B1
S1132070803241F08091E707803331F034E005C0CD
S113208031E003C032E001C033E0832F0F910895A3
S113209040910908262F30E0240F311D21323105EB
S11320A0ECF4209154082430D9F4662381F0A82F4D
S11320B0B92F80E090E0309109082D91FC01E55F93
S11320C0F74FE30FF11D208301968617A0F380914B
S11320D00908680F6093090880E0089581E0089575
S11320E082E0089590934E0880934D08089590934C
S11320F0500880934F08089585ED8093BC00ECEB65
S1132100F0E0808184FDFDCF10925408089585ECA1
S11321108093BC001092540808951F920F920FB63A
S11321200F9211240BB60F922F933F934F935F930B
S11321306F937F938F939F93AF93BF93EF93FF938B
S11321408091B900887F90E0893C910508F0EFC048
S1132150FC018827EE58FF4F8F4F0C941A2A809168
S113216053088093BB0085EC8093BC00E0C0909141
S11321702C0880912B08981780F4E0912C0881E0BA
S11321808E0F80932C08F0E0E35DF74F80818093FD
S1132190BB0085EC8093BC00CAC0809152088823A0
S11321A011F0AADFC4C081E08093510884EA8093CF
S11321B0BC0010925408BBC080E28093E7079CDF08
S11321C0B6C080E38093E70797DFB1C088E38093CC
S11321D0E7079DDFACC0E0912C0881E08E0F80936F
S11321E02C088091BB00F0E0E35DF74F8083909171
S11321F02C0880912B08981720F485EC8093BC0060
S113220096C085E88093BC0092C0E0912C0881E0E0
S11322108E0F80932C088091BB00F0E0E35DF74FB4
S1132220808380915208882311F066DF80C081E0AA
S11322308093510884EA8093BC001092540877C0BC
S11322405BDF75C083E0809354081092E80785EC47
S11322508093BC006CC08091E807803280F4E091E8
S1132260E80781E08E0F8093E8078091BB00F0E0DF
S1132270E751F84F808385EC8093BC0058C085E813
S11322808093BC0054C043DF8091E807803230F46F
S1132290E091E807F0E0E751F84F10826091E80719
S11322A070E0E0914D08F0914E0889EE97E01995A1
S11322B01092E8073CC085E88093BC0038C084E0F5
S11322C08093540810920A0810920908E0914F086C
S11322D0F0915008199580910908811105C081E099
S11322E08093090810920B08E0910A0881E08E0F90
S11322F080930A08F0E0E55FF74F80818093BB008C
S113230090910A0880910908981720F485EC80932D
S1132310BC000DC085E88093BC0009C085EC8093A7
S1132320BC001092540803C01092E707E5DEFF9149
S1132330EF91BF91AF919F918F917F916F915F9139
S11323404F913F912F910F900BBE0F900FBE0F90A6
S11323501F90189580917F0890E020918008821B3F
S1132360910908959091800880917F08981750F4FE
S1132370E92FF0E0EF57F74F208130E09F5F909313
S1132380800802C02FEF3FEFC9010895E091800853
S113239080917F08E81730F4F0E0EF57F74F808121
S11323A090E008958FEF9FEF08950895CF93DF9302
S11323B0EC01E0915708F0915808309701F19091A1
S11323C0800880917F089817D0F0161617068CF4B1
S11323D020E030E090E0DE01A90FB11D4C91D9015D
S11323E0AF57B74F4C939F5F292F30E0261737071D
S11323F094F3CB011092800860937F081995DF91C4
S1132400CF910895E0915908F0915A08309729F036
S113241010925D0810925C0819950895CF93DF938C
S11324201F92CDB7DEB7698380915B08882399F04A
S113243080915C088032B0F480915D08E82FF0E070
S1132440E25AF74F60838F5F80935D0880935C0846
S113245081E090E009C061E0CE01019619DE81E0DF
S113246090E002C080E090E00F90DF91CF9108955A
S1132470CF92DF92EF92FF920F931F93CF93DF934C
S11324808C01CB016A0120915B082223A1F0411544
S1132490510599F0EB017B01E40EF51E6991D80119
S11324A0ED91FC910190F081E02DC8011995CE15B4
S11324B0DF05A1F702C0642FEBDDC601DF91CF91E8
S11324C01F910F91FF90EF90DF90CF900895789433
S11324D01092800810927F0810925D0810925C0898
S11324E0F5DC82E092E103DE86ED91E1FBCD089517
S11324F0CB01BA0104CD089581E080935B08609319
S11325007E0810925D0810925C080895F5CF089536
S11325100F93062F21E040915C086EE578E08091EE
S11325207E0853DD10925D0810925C0810925B08DF
S11325300F9108954F925F926F927F92AF92BF92E4
S1132540CF92EF92FF920F931F93CF93DF935C018F
S1132550F62ED42F28013901EE2039F1CDDF8E2D4E
S1132560843008F083E0CFEFC80F8823D9F08C2F94
S1132570880F880F880FA301920104C056954795D0
S1132580379527958A95D2F7CA01B901D501ED91FE
S1132590FC910190F081E02DC50119958C2FC1505B
S11325A08111E5CF60E0C501B3DF4D2FD13208F0D2
S11325B040E22C2D61E878E08F2DB5DC1092800884
S11325C080937F08DF91CF911F910F91FF90EF903F
S11325D0CF90BF90AF907F906F905F904F90089591
S11325E0CF92EF920F931F93C22EE12C00E010E0E4
S11325F09801A0DF1F910F91EF90CF90089521E0F3
S1132600EFCF089521E0ECCF089561E081CF0895E4
S113261080E892E090935608809355080895FC0151
S113262073A362A340E050EA60E874E444A355A3B2
S113263066A377A30895FC0160A30895CF93DF9365
S1132640FC0121A121111CC0EC0181E081A366E7FA
S113265070E085E598E05ADFE0915508F09156085E
S11326600190F081E02D6AE485E598E0199585E50F
S113267098E0CBDF62E08AA19BA188DB81E001C006
S113268080E0DF91CF91089521E0FC0181A18111C7
S113269020E0822F08952F923F924F925F926F9283
S11326A07F928F929F92AF92BF92CF92DF92EF92DE
S11326B0FF920F931F93CF93DF93CDB7DEB7A59708
S11326C00FB6F894DEBF0FBECDBF1C01DC011A9615
S11326D08D919C911B97A0E0B0E0BA2FA92F982F61
S11326E08827F10144895589668977893A014B0124
S11326F0681A790A8A0A9B0A69827A828B829C8286
S113270080A1813009F058C1990C6608762C4301E8
S11327106D827E828F829886868197813C01812C8E
S1132720912CA12CB12C65018D8F7E8E8F8E98A259
S1132730A9A2BAA2CBA2DCA2A980BA80CB80DC80F9
S1132740ED80FE2C0E2D1E2D282F372D40E050E05D
S113275060E070E080E090E00E942C2A122F3E8717
S11327604D87B52FF62FE72F782E892EA0E00E94F3
S1132770D22A5CF4AFE70E94BD2A122F3E874D8710
S1132780B52FF62FE72F782E892E212F3E854D85E4
S11327905B2F6F2F7E2F872D982D07E00E94962A9E
S11327A0822E932E742E652EB62FA72F582E492EC7
S11327B0F101A280B3802A2D3B2D40E050E060E07F
S11327C070E080E090E000E10E947D2AA22EB32E0A
S11327D0C42ED52EE62EF72E082F192F282D392D8D
S11327E0472D562D6B2F7A2F852D942D0E94B42AB8
S11327F02D873E874F87588B698B7A8B8B8B9C8B6D
S1132800808591853C01812C912CA12CB12C6501F2
S11328108D8F7E8E8F8E98A2A9A2BAA2CBA2DCA2A3
S1132820A980BA80CB80DC80ED80FE2C0E2D1E2D7D
S1132830282F372D40E050E060E070E080E090E029
S11328400E942C2A122F3E8B4D8BB52FF62FE72F8B
S1132850782E892EA0E00E94D22A5CF4AFE30E9475
S1132860BD2A122F3E8B4D8BB52FF62FE72F782ED6
S1132870892E212F3E894D895B2F6F2F7E2F872D27
S1132880982D06E00E94962A822E932E742E652E91
S1132890B62FA72F582E492EF101248135815901D5
S11328A03B2D40E050E060E070E080E090E001E12A
S11328B00E947D2AA22EB32EC42ED52EE62EF72EEC
S11328C0082F192F282D392D472D562D6B2F7A2F90
S11328D0852D942D0E94B42A2D8B3E8B4F8B588FBF
S11328E0698F7A8F8B8F9C8F848595853C01812C91
S11328F0912CA12CB12C65018D8F7E8E8F8E98A288
S1132900A9A2BAA2CBA2DCA2A980BA80CB80DC8027
S1132910ED80FE2C0E2D1E2D282F372D40E050E08B
S113292060E070E080E090E00E942C2A122F3DA32A
S11329304D8FB52FF62FE72F782E892EA0E00E9419
S1132940D22A84F42150310940485F4F6F4F7F4FA2
S11329508F4F9F4F122F3DA34D8FB52FF62FE72F8B
S1132960782E892E212F3DA14D8D5B2F6F2F7E2F29
S1132970872D982D07E10E94962A822E932EA42E4D
S1132980B52E2401350100ED400E07E0501E611CF8
S1132990711C10ED411617E05106610471040CF42A
S11329A062C1812C912C540119821A821B821C82CF
S11329B0E12CF12C87014CC369807A808B809C8048
S11329C0990C6608762C43016D827E828F829886EC
S11329D0868197813C01812C912CA12CB12C65011D
S11329E08D8F7E8E8F8E98A2A9A2BAA2CBA2DCA2D2
S11329F0A980BA80CB80DC80ED80FE2C0E2D1E2DAC
S1132A00282F372D40E050E060E070E080E090E057
S1132A100E942C2A122F3E874D87B52FF62FE72FC1
S1132A20782E892EA0E00E94D22A84F421503F4FB0
S1132A304F4F5F4F6F4F7F4F8F4F9F4F122F3E87E8
S1132A404D87B52FF62FE72F782E892E212F3E851F
S1132A504D855B2F6F2F7E2F872D982D08E00E94C8
S1132A60962A822E932E742E652EB62FA72F582EBB
S1132A70492EF101A280B3802A2D3B2D40E050E085
S1132A8060E070E080E090E00FE00E947D2AA22EDA
S1132A90B32EC42ED52EE62EF72E082F192F282D4F
S1132AA0392D472D562D6B2F7A2F852D942D0E946D
S1132AB0B42A2D8B3E8B4F8B588F698F7A8F8B8FD7
S1132AC09C8F808591853C01812C912CA12CB12C6B
S1132AD065018D8F7E8E8F8E98A2A9A2BAA2CBA2F9
S1132AE0DCA2A980BA80CB80DC80ED80FE2C0E2D88
S1132AF01E2D282F372D40E050E060E070E080E08C
S1132B0090E00E942C2A122F3E874D87B52FF62F76
S1132B10E72F782E892EA0E00E94D22A5CF4AFE73A
S1132B200E94BD2A122F3E874D87B52FF62FE72F1F
S1132B30782E892E212F3E854D855B2F6F2F7E2F7A
S1132B40872D982D07E00E94962A822E932E742EAC
S1132B50652EB62FA72F582E492EF10124813581D9
S1132B6059013B2D40E050E060E070E080E090E0EF
S1132B7000E10E947D2AA22EB32EC42ED52EE62E6D
S1132B80F72E082F192F282D392D472D562D6B2F51
S1132B907A2F852D942D0E94B42A2D873E874F8746
S1132BA0588B698B7A8B8B8B9C8B848595853C01A8
S1132BB0812C912CA12CB12C65018D8F7E8E8F8E52
S1132BC098A2A9A2BAA2CBA2DCA2A980BA80CB8087
S1132BD0DC80ED80FE2C0E2D1E2D282F372D40E09D
S1132BE050E060E070E080E090E00E942C2A122F18
S1132BF03DA34D8FB52FF62FE72F782E892EA0E019
S1132C000E94D22A84F42150310940485F4F6F4F0B
S1132C107F4F8F4F9F4F122F3DA34D8FB52FF62F10
S1132C20E72F782E892E212F3DA14D8D5B2F6F2FFD
S1132C307E2F872D982D07E10E94962A822E932EAF
S1132C40A42EB52E2401350100ED400E07E0501EE0
S1132C50611C711C10ED411617E0510661047104EA
S1132C600CF4AFC08AC129813A814B815C816D81AA
S1132C70762F862F962F02E00E947D2AA22EB32E55
S1132C80C42ED52EE62EF72EE82F192F0E947D2A6A
S1132C900E2F0E94C92AA980BA80CB80DC80ED80E7
S1132CA0FE2C0E2D1E2D0E94C92AE02E0F2D0E94EF
S1132CB02C2A122F3D8F4D83B52FF62FE72F8983B2
S1132CC0892EA0E00E94D22A84F4215031094109BE
S1132CD05109684F7F4F8F4F9F4F122F3D8F4D8368
S1132CE0B52FF62FE72F8983892E212F3D8D4D8116
S1132CF05B2F6F2F7E2F8981982D03E20E94962AE5
S1132D00822E932EA42EB52E7301620120EDC21AD9
S1132D1027E0D20AE108F108D701C601880F991FFC
S1132D20AA1FBB1F880F991FAA1FBB1F880F991FBB
S1132D30AA1FBB1F880F991FAA1FBB1F880F991FAB
S1132D40AA1FBB1F9C01AD012C193D094E095F0947
S1132D50C701B6010E94E9298B019C01992324F43F
S1132D60095F1F4F2F4F3F4FB901A801689412F814
S1132D7075956795579547951694D1F749835A8366
S1132D806B837C83AFE3B0E0A70196010E94222A03
S1132D909B01AC01C701B6010E94E9298B019C018A
S1132DA0992324F4015E1F4F2F4F3F4F780189016F
S1132DB0689414F815950795F794E7941694D1F749
S1132DC047C129813A814B815C816D81762F862FA1
S1132DD0962F01E00E947D2AA980BA80CB80DC80F6
S1132DE0ED80FE2C0E2D1E2D0E94B42AE02E0F2DF8
S1132DF00E942C2A122F3D8F4D83B52FF62FE72FDB
S1132E008983892EA0E00E94D22A84F421503109BA
S1132E10410951096E4F7F4F8F4F9F4F122F3D8FA6
S1132E204D83B52FF62FE72F8983892E212F3D8DD2
S1132E304D815B2F6F2F7E2F8981982D01E20E9497
S1132E40962A2D833E834F8358875301420150EDC8
S1132E50851A57E0950AA108B108D501C401880F65
S1132E60991FAA1FBB1F9C01AD01280D391D4A1DC6
S1132E705B1DC501B4010E94E9298B019C019923C2
S1132E8024F40F5F1F4F2F4F3F4FC901B801959591
S1132E9087957795679569837A838B839C83D5011E
S1132EA0C401880F991FAA1FBB1F880F991FAA1F4F
S1132EB0BB1F9C01AD01280D391D4A1D5B1DC501B9
S1132EC0B4010E94E9298B019C01992324F4095F30
S1132ED01F4F2F4F3F4F78018901689412F81595C1
S1132EE00795F794E7941694D1F771EC471679EFA8
S1132EF057067FEF670677060CF07FC15301420146
S1132F008CED880E85E0981EA11CB11CD501C4016E
S1132F10880F991FAA1FBB1F880F991FAA1FBB1FC9
S1132F20880F991FAA1FBB1F9C01AD0128193909DD
S1132F304A095B09C501B4010E94E92929813A8142
S1132F404B815C81260F371F481F591F29833A8301
S1132F504B835C83A5019401220F331F441F551F2B
S1132F60220F331F441F551FC501B4010E94E929D4
S1132F70E60EF71E081F191F40C129813A814B81B3
S1132F805C81CA01B9010E94E9294B015C01880CEA
S1132F90991CAA1CBB1C75016401FF0CCC08DC2C19
S1132FA07601182D9D8EAD82BB2DFC2DEC2DC98292
S1132FB00C2D282D392D4A2D5B2D6C2D7C2D8C2D1F
S1132FC09C2DA0E00E94D22A84F4215031094109A9
S1132FD05109604E7F4F8F4F9F4F122F3D8F4D836E
S1132FE0B52FF62FE72F8983092F212F3D8D4D8192
S1132FF05B2F6F2F7E2F8981902F05E20E94962AE6
S11330002D833E834F835887C301B201605D7740AF
S1133010810991099B01AC010E94E9298B019C0162
S1133020992324F4015F1F4F2F4F3F4F480159014B
S1133030689413F8B594A794979487941694D1F749
S113304089829A82AB82BC82E12CF12C8701D5C0A3
S1133050D301C20188199909AA09BB09F101808F1A
S1133060918FA28FB38F80899189A289B3893C0102
S11330704D01A12CB12C65018D837E828F829886AF
S1133080A986BA86CB86DC8627013801770C4408EA
S1133090542C32012D853E854F85588969897A895A
S11330A08B899C89AE2CBF2CC02ED12EE42CF42C01
S11330B0042D142D0E94C92AA22EB32EC42ED52E5F
S11330C0E62EF72E082F192F2D813E81482D592DDC
S11330D060E070E080E090E00E942C2A122F3D878F
S11330E04D83B52FF62FE72F782E892EA0E00E946E
S11330F0D22A84F421503109404E5F4F6F4F7F4FE5
S11331008F4F9F4F122F3D874D83B52FF62FE72FFB
S1133110782E892E212F3D854D815B2F6F2F7E2F99
S1133120872D982D05E10E94962A822E932E4D8795
S11331305D83B62FA72FF82FE92F49805A806B8023
S11331407C80770C4408542C32012D893E894F89A8
S1133150588D698D7A8D8B8D9C8DA980BA80CB809A
S1133160DC80E42CF42C042D142D0E94C92AA22EF8
S1133170B32EC42ED52EE62EF72E082F192F282D68
S1133180392D4D855D816B2F7A2F8F2F9E2F0E94B5
S1133190C92A122F3D834983B52FF62FE72F782EA6
S11331A0892EA0E00E94D22A84F4215030484F4F47
S11331B05F4F6F4F7F4F8F4F9F4F122F3D83498338
S11331C0B52FF62FE72F782E892E212F3D814981A7
S11331D05B2F6F2F7E2F872D982D0FE00E94962A4C
S11331E0D1015C962C935C975D963C935D975E96BB
S11331F04C935E975F965C93DAC08D809E80AF801F
S1133200B884481859086A087B08D10158964D9229
S11332105D926D927C925B9750968D919D910D90ED
S1133220BC91A02D3C014D01A12CB12C65018D83D5
S11332307E828F829886A986BA86CB86DC86270111
S11332403801770C4408542C32012D893E894F896A
S1133250588D698D7A8D8B8D9C8DAE2CBF2CC02E94
S1133260D12EE42CF42C042D142D0E94C92AA22E54
S1133270B32EC42ED52EE62EF72E082F192F2D810E
S11332803E81482D592D60E070E080E090E00E947E
S11332902C2A122F3D8B4D83B52FF62FE72F582E56
S11332A0692EA0E00E94D22A84F421503109404EB4
S11332B05F4F6F4F7F4F8F4F9F4F122F3D8B4D832B
S11332C0B52FF62FE72F582E692E212F3D894D81DA
S11332D05B2F6F2F7E2F852D962D05E10E94962A58
S11332E0822E932E4D8B5D83B62FA72FF82FE92FB7
S11332F049805A806B807C80770C4408542C3201BE
S11333002D853E854F85588969897A898B899C8961
S1133310A980BA80CB80DC80E42CF42C042D142DFD
S11333200E94C92AA22EB32EC42ED52EE62EF72E25
S1133330082F192F282D392D4D895D816B2F7A2F58
S11333408F2F9E2F0E94C92A922EA32EB42EC52EF3
S1133350D62EE72E782E892EA0E00E94D22A84F45D
S11333602150304E4F4F5F4F6F4F7F4F8F4F9F4FC6
S1133370922EA32EB42EC52ED62EE72E782E892E6D
S1133380292D3A2D4B2D5C2D6D2D7E2D872D982DBD
S11333900DE00E94962AD1015C962C935C975D9671
S11333A03C935D975E964C935E975F965C93A5966F
S11333B00FB6F894DEBF0FBECDBFDF91CF911F9142
S11333C00F91FF90EF90DF90CF90BF90AF909F90C0
S11333D08F907F906F905F904F903F902F900895C3
S11333E0CF92DF92EF92FF926A017B01FC0120A150
S11333F0213089F4648D758D868D978D0E94D22835
S1133400A70196010E94862920E030E048EC52E4AE
S11334100E943C2811C0FC01648D758D868D978DAA
S11334200E94D228A70196010E94862920E030E05C
S113343040E251E40E943C28FF90EF90DF90CF904F
S11334400895FC01608D718D828D938D0E94D22828
S113345020E030E048EC52E40C943C280895CF93EB
S1133460DF93EB01888199819F70998388831F86FC
S11334701E8640E050E080E090E040FF07C0FA0183
S1133480EE7FEC0FFD1F208182271DC0FA01EE7F25
S1133490EC0FFD1FA181B0E08A279B2714C099235C
S11334A02CF4880F991F30E3932702C0880F991FCB
S11334B02150A9F74F5F5F4F40315105F1F6892F35
S11334C082958F7002C028E0EACFDF91CF910895F2
S11334D0CF92DF92EF92FF920F931F93CF93DF93DC
S11334E06C0185E598E00E94671240E050E060E2DC
S11334F071E4F60182A193A10E94570E66E770E081
S113350085E598E003D8E0915508F09156080190BC
S1133510F081E02D6EE185E598E0199585E598E068
S113352074D861E0F60182A193A10E94C60EF6014F
S113353082A193A10E94DA0E7601C0EA66E770E0E8
S113354085E598E00E948612E0915508F0915608AE
S11335500190F081E02D6C2F85E598E0199585E5C3
S113356098E053D842E050E066E770E085E598E0E3
S113357049D885E598E00E94B211D82F85E598E0F6
S11335800E94B2111D2F00E0802B912BF701819333
S113359091937F01CE5FCE3A89F6F601C181C2953F
S11335A0CF70B601C6015BDF91E0C81390E0892FAC
S11335B0DF91CF911F910F91FF90EF90DF90CF900B
S11335C008958F929F92AF92BF92CF92DF92EF9223
S11335D0FF920F931F93CF93DF93DC0191962C916D
S11335E0222309F4D1C0EC018AA19BA10E94D40E2C
S11335F0882309F4C9C089A1813009F069C066E74C
S113360070E085E598E00E94861205E518E0D8018F
S1133610ED91FC910190F081E02D60E0C8011995D5
S1133620C8010E94051343E050E066E770E0C8015A
S11336300E940213188A198A1A8A1B8AC8010E94D6
S1133640B2114C01990FAA08BB08888A998AAA8AE0
S1133650BB8AC8010E94B211BA2CA92C982C8824C8
S11336606C01990FEE08FF08C828D928EA28FB281E
S1133670C88AD98AEA8AFB8AC8010E94B211FE2C40
S1133680ED2CDC2CCC24092E000CAA0BBB0BC82A75
S1133690D92AEA2AFB2AC88AD98AEA8AFB8A66E7EF
S11336A070E0C8010E948612D801ED91FC9101904E
S11336B0F081E02D6AE5C8011995C8010E9405133F
S11336C062E08BED97E00E94C60E82E089A35CC0A5
S11336D0823009F059C066E770E085E598E00E9401
S11336E08612E0915508F09156080190F081E02D82
S11336F060E085E598E0199585E598E00E9405135A
S113370043E050E066E770E085E598E00E9402132C
S11337101C8A1D8A1E8A1F8A85E598E00E94B211C0
S11337204C01990FAA08BB088C8A9D8AAE8ABF8A6D
S113373085E598E00E94B211BA2CA92C982C882413
S11337406C01990FEE08FF08C828D928EA28FB283D
S1133750CC8ADD8AEE8AFF8A85E598E00E94B21160
S1133760FE2CED2CDC2CCC24092E000CAA0BBB0B5C
S1133770C82AD92AEA2AFB2ACC8ADD8AEE8AFF8A59
S1133780CE010E944B1319A2DF91CF911F910F918B
S1133790FF90EF90DF90CF90BF90AF909F908F906D
S11337A00895FC0160830895EF92FF920F931F9395
S11337B0CF93DF93C62FE42EF52E022F132FFC0197
S11337C0608185E598E00E947C126C2F70E0660FA2
S11337D0771F660F771F6A5F7F4FC5E5D8E0E881E2
S11337E0F9810190F081E02DCE011995E881F981EC
S11337F00190F081E02D6E2DCE011995E881F981BB
S11338000190F081E02D6F2DCE011995E881F981A9
S11338100190F081E02D602FCE011995E881F981A6
S11338200190F081E02D612FCE011995CE010E9407
S11338300513DF91CF911F910F91FF90EF900895A1
S11338408F929F92AF92BF92CF92DF92EF92FF92AC
S11338501F93CF93DF93EC01162FBA0180E090E021
S11338600E94D0286B017C016D8170E06F5F7F4FF7
S1133870072E000C880B990B0E94D22820E034E21A
S113388044E759E40E9486294B015C0169817A81ED
S11338908B819C810E94D0289B01AC01C501B4019D
S11338A00E943C289B01AC01C701B6010E943C2840
S11338B00E94A4289B0140E050E0612FCE0174DFF8
S11338C0DF91CF911F91FF90EF90DF90CF90BF9049
S11338D0AF909F908F900895FC01618172818381E4
S11338E094810895FC014183528363837483089512
S11338F01F93CF93DF93EC01162F688185E598E041
S11339000E947C12612F85E598E00E940E1285E5E5
S113391098E00E94051341E0688185E598E00E94E3
S1133920FF1285E598E00E94B211DF91CF911F91BB
S11339300895CF93DF93D62FC42FFC01608185E5D2
S113394098E00E947C126D2F85E598E00E940E128B
S11339506C2F85E598E00E940E1285E598E00E94A0
S11339600513DF91CF91089540E860E0E2DF8FE333
S11339709CE90197F1F700C0000008950F931F938D
S1133980CF93DF938C01D62F60E0B2DFC82FCF76C0
S11339904C2F406160E0C801CCDFC0654C2F60E073
S11339A0C801C7DFF801D5834D2F6EEFC801C1DF11
S11339B08FE19EE40197F1F700C000004C2F4F7493
S11339C0406A60E0C801B5DFDF91CF911F910F918C
S11339D008958F929F92AF92BF92CF92DF92EF920F
S11339E0FF921F93CF93DF93EC016A017B0120E0E8
S11339F030E040E85FE3C701B6010E94382888231D
S1133A00A4F020E030EC4AE555E4C701B6010E9479
S1133A108229181694F40F2EC12CF0ECDF2EFAE54F
S1133A20EF2EF5E4FF2EF02D08C00F2EC12CD12C63
S1133A30F0E8EF2EFFE3FF2EF02D69817A818B8170
S1133A409C810E94D0284B015C0120E030E040E8DA
S1133A5055E4C701B6010E9486299B01AC01C5014A
S1133A60B4010E943C2820E030E040E05FE30E9483
S1133A70D42720E030E040E85FE30E94D3276B01C5
S1133A807C0120E030E040E450E40E9438288823A0
S1133A909CF020E030E04FE753E4C701B6010E94F8
S1133AA0822918167CF40F2EC12CD12CFFE7EF2E9F
S1133AB0F3E4FF2EF02D06C0C12CD12C6894EE2423
S1133AC0E6F8FE2CC701B6010E94A428F62E60E099
S1133AD0CE010EDF182F482F4F76406160E0CE01F3
S1133AE028DFFD824F2D6EEFCE0123DF412F60E0F2
S1133AF0CE011FDF8FE19EE40197F1F700C00000C3
S1133B00412F406A60E0CE0114DFDF91CF911F9115
S1133B10FF90EF90DF90CF90BF90AF909F908F90E9
S1133B2008951F93CF93DF93EC01162F85E598E05A
S1133B300E946712CE0118DF112321F0612FCE01FC
S1133B401DDF06C040E050E06AE774E4CE0141DFC7
S1133B5080E498E7ADE7B1E089839A83AB83BC83C3
S1133B60DF91CF911F9108951CCE0895CF93DF93D9
S1133B70EC0160E0D6DF40EC5CEF6BE971E0CE0174
S1133B80B1DE40E050E068E472E4CE0122DF8FE36E
S1133B909CE90197F1F700C00000CE019DDE21E011
S1133BA0603C7C4F8B49914009F020E0822FDF91EB
S1133BB0CF910895603108F443CE0895603128F41C
S1133BC020E030E140E050E0EFCD0895FC01948125
S1133BD0913049F018F0923059F008958281938120
S1133BE00C94390D0895828193810C94430D0895AA
S1133BF0828193810C944D0D0895FC019481913040
S1133C0081F018F09230C9F00895662329F082817A
S1133C1093810C94E80C0895828193810C940F0D88
S1133C200895662329F0828193810C94F50C0895FC
S1133C30828193810C941D0D0895662329F082815D
S1133C4093810C94020D0895828193810C942B0D21
S1133C500895FC0183E992E09183808373836283F6
S1133C604483089542E063E877E089E599E0F1DF71
S1133C7041E069EA77E084E599E0EBDF40E069EA56
S1133C8077E08FE499E0E5DF41E066E977E08AE4F4
S1133C9099E0DFDF42E066E977E085E499E0D9DF87
S1133CA040E063E877E080E499E0D3DF41E063E853
S1133CB077E08BE399E0CDDF42E069EA77E086E3E1
S1133CC099E0C7DF40E066E977E081E399E0C1DF8E
S1133CD040E06CEB77E08CE299E0BBDF41E06CEB19
S1133CE077E087E299E0B5DF63E481E299E03CDFC5
S1133CF040E061E279E089E199E077D042E061E275
S1133D0079E081E199E071D047E061E279E089E00E
S1133D1099E06BD045E061E279E081E099E065D01B
S1133D2048E061E279E089EF98E05FD04AE061E23F
S1133D3079E081EF98E059D04CE061E279E089EED6
S1133D4098E053D04EE061E279E081EE98E04DD006
S1133D5041E061E279E089ED98E047D043E061E237
S1133D6079E081ED98E041D046E061E279E089ECC8
S1133D7098E03BD044E061E279E081EC98E035D012
S1133D8049E061E279E089EB98E02FD04BE061E211
S1133D9079E081EB98E029D04DE061E279E089EAAD
S1133DA098E023D04FE061E279E081EA98E01DC019
S1133DB00895FC01778366832581222329F0AB01D2
S1133DC0648182819381F6CE0895FC016583662324
S1133DD039F046815781648182819381EBCE0895C5
S1133DE0648182819381EACE0895FC018BE992E09B
S1133DF09183808373836283448315828CED95E081
S1133E0097838683089521110DC04091000250913B
S1133E1001024F5F5F4FDC01ED91FC910680F78159
S1133E20E02D199508950895DC01ED91FC9106802B
S1133E30F781E02D19950895089508950895DC01FA
S1133E4012962C911297261314C01496ED91FC919E
S1133E501597608113963C91362361E009F460E084
S1133E60DA01FC01868186278C9361E0822F0C9411
S1133E707B0B0895CF93DF93C62FDC011296DC9160
S1133E801297D61315C0223061F514968D919C912A
S1133E901597FA0160817181DC01ED91FC9101902B
S1133EA0F081E02D199560E08D2F0E947B0B19C0E5
S1133EB0FC013381631315C0213099F48481958109
S1133EC061E0DA012C91211101C060E0DC01ED9187
S1133ED0FC910280F381E02D199560E08C2F0E9403
S1133EE07B0BDF91CF910895DC0112963C91361340
S1133EF026C0213021F5FA014081411101C020E0A2
S1133F00DC0116964C911697241751F01496ED91F6
S1133F10FC911597208113968C91822B80830BC082
S1133F20DC011496ED91FC911597208113968C91E8
S1133F3080958223808360E0832F0C947B0B08950B
S1133F40FC01828186130BC0243049F4FA014081BC
S1133F5051816281738185E598E00C94781208950B
S1133F60FC01228130E0F901EE0FFF1FE75AF54F03
S1133F7040815181452B49F4220F331FF901E75A3F
S1133F80F54F9183808381E0089580E00895FC01DA
S1133F90228130E0F901EE0FFF1FE75AF54F40810F
S1133FA05181452B49F4220F331FF901E75AF54F8C
S1133FB09183808381E0089580E00895FC0122814B
S1133FC030E0F901EE0FFF1FE75AF54F40815181B0
S1133FD0452B49F4220F331FF901E75AF54F91831A
S1133FE0808381E0089580E00895CF93DC011296E8
S1133FF02C91129730E0F901EE0FFF1FE75AF54FAD
S113400040815181452B61F5220F331FF901E75A95
S1134010F54F9183808313962C9130E0F901EE0FD4
S1134020FF1FE75AF54F40815181452B49F4220F78
S1134030331FF901E75AF54F91838083C1E001C032
S1134040C0E0CC2371F0FC0184819581DC01ED9109
S1134050FC910190F081E02D6CED75E0199501C0A3
S1134060C0E08C2FCF910895CF93DF93813031F44A
S11340706FE972E087E797E013D735C0C82FCF7098
S113408090E09595879595958795959587959595C0
S113409087958230910561F01CF4019739F00EC0C8
S11340A08330910539F0049739F008C0D1E407C092
S11340B0D2E405C0D3E403C0D4E401C0DFE36AEC76
S11340C072E087E797E0C2D66D2F87E797E0D4D6F2
S11340D04AE050E06C2F87E797E05ED769E372E02F
S11340E087E797E0DDD6DF91CF9108951F93CF93B3
S11340F0DF938CEB97E00E94D70C89EA97E00E944B
S1134100D70C86E997E00E94D70C83E897E00E94D9
S1134110D70C81E299E02ADDC82F882309F400C274
S113412065EE72E087E797E0BBD68091550A90E090
S1134130FC01EE0FFF1FE75AF54F20813181232B3D
S113414009F00FC2880F991FFC01E75AF54FA3E548
S1134150BAE0B183A08313968C91139790E0FC018D
S1134160EE0FFF1FE75AF54F20813181232B49F4CD
S1134170880F991FFC01E75AF54FB183A083DC2F08
S113418001C0D0E0DD2309F4ECC18091570A90917D
S1134190580ADC01ED91FC910190F081E02D6CED69
S11341A075E0199580914F0A90E0FC01EE0FFF1F16
S11341B0E75AF54F20813181232B09F0B3C1880FD1
S11341C0991FFC01E75AF54FADE4BAE0B183A0832F
S11341D013968C91139790E0FC01EE0FFF1FE75AA2
S11341E0F54F20813181232B49F4880F991FFC015D
S11341F0E75AF54FB183A083CD2F01C0C0E0CC2393
S113420009F492C18091510A9091520ADC01ED9116
S1134210FC910190F081E02D6CED75E01995809191
S1134220490A90E0FC01EE0FFF1FE75AF54F208189
S11342303181232B09F095C1880F991FFC01E75A9E
S1134240F54FA7E4BAE0B183A08313968C9113973A
S113425090E0FC01EE0FFF1FE75AF54F20813181FA
S1134260232B49F4880F991FFC01E75AF54FB183BA
S1134270A083DC2F01C0D0E0DD2309F472C180915A
S11342804B0A90914C0ADC01ED91FC910190F08174
S1134290E02D6CED75E019958091430A90E0FC01E6
S11342A0EE0FFF1FE75AF54F20813181232B09F0D0
S11342B03DC1880F991FFC01E75AF54FA1E4BAE00C
S11342C0B183A08313968C91139790E0FC01EE0FB9
S11342D0FF1FE75AF54F20813181232B49F4880FC2
S11342E0991FFC01E75AF54FB183A083CD2F01C07C
S11342F0C0E0CC2309F41CC18091450A9091460A80
S1134300DC01ED91FC910190F081E02D6CED75E004
S1134310199580913D0A90E0FC01EE0FFF1FE75ACA
S1134320F54F20813181232B09F01BC1880F991F80
S1134330FC01E75AF54FABE3BAE0B183A0831396CF
S11343408C91139790E0FC01EE0FFF1FE75AF54F95
S113435020813181232B49F4880F991FFC01E75AEE
S1134360F54FB183A083DC2F01C0D0E0DD2309F435
S1134370F8C080913F0A9091400ADC01ED91FC91D4
S11343800190F081E02D6CED75E019958091370A6C
S113439090E0FC01EE0FFF1FE75AF54F20813181B9
S11343A0232B09F0C7C0880F991FFC01E75AF54F6A
S11343B0A5E3BAE0B183A08313968C91139790E0A0
S11343C0FC01EE0FFF1FE75AF54F20813181232BAB
S11343D049F4880F991FFC01E75AF54FB183A08374
S11343E01D2F01C010E0112309F4A6C08091390AE1
S11343F090913A0ADC01ED91FC910190F081E02D5D
S11344006CED75E019958FE29AE0EFDDC82F8823F3
S113441009F494C089E29AE0E8DDD82F882309F4EE
S1134420A0C083E29AE0E1DDC82F882309F488C0A4
S11344308DE19AE0DADDD82F882309F492C087E170
S11344409AE0D3DDC82F882309F47CC081E19AE087
S1134450CCDDD82F882309F484C08BE09AE0C5DD35
S1134460C82F882309F470C085E09AE0BEDDD82FF8
S1134470882309F476C08FEF99E0B7DDC82F88232D
S113448009F464C089EF99E0B0DDD82F882309F4DA
S113449068C083EF99E0A9DDC82F882309F458C0C8
S11344A08DEE99E0A2DDD82F882309F45AC087EE57
S11344B099E09BDDC82F882309F44CC081EE99E074
S11344C094DDD82F882309F44CC08BED99E08DDD61
S11344D0C82F882309F440C085ED99E086DDD82FE4
S11344E0882309F43EC08FEC99E07FDDC82F882330
S11344F0A9F189EC99E079DDD82F882391F183EC37
S113450099E073DDC82F882359F18DEB99E06DDDB7
S1134510882339F187EB99E068DDC1E0C82721C021
S1134520C1E01FC0CD2F1DC0CD2F1BC0CD2F19C082
S1134530CD2F17C0CD2F15C0CD2F13C0C12F11C043
S1134540CD2F0FC0CD2F0DC0CD2F0BC0CD2F09C047
S1134550CD2F07C0CD2F05C0CD2F03C0CD2F01C057
S1134560CD2F8C2FDF91CF911F91089590E0FC0106
S1134570EE0FFF1FE75AF54F20813181232B49F4B9
S1134580880F991FFC01E75AF54F7183608381E01E
S1134590089580E00895E82FF0E0EE0FFF1FE75A3A
S11345A0F54FA081B181109759F0242FAB01682FEA
S11345B0ED91FC9111970280F381E02DCD011995C5
S11345C008958F92AF92CF92EF920F93E3E5FAE0C2
S11345D08DEA94E091838083128221E0238349E56C
S11345E059E055834483EDE4FAE09183808332E01B
S11345F0328343E0438344E559E055834483E7E44D
S1134600FAE09183808344E0428345E043834FE4AE
S113461059E055834483E1E4FAE09183808346E0E2
S1134620428347E043834AE459E055834483EBE300
S1134630FAE09183808348E0428349E0438345E480
S113464059E055834483E5E3FAE0918380834AE0AB
S113465042834BE0438340E459E055834483EFE2D3
S1134660FAE0918380834CE042834DE043834BE343
S113467059E055834483E9E2FAE0918380834EE074
S113468042834FE0438346E359E055834483E3E2A6
S1134690FAE09183808340E1428341E1438341E333
S11346A059E055834483EDE1FAE09183808342E14C
S11346B0428343E143834CE259E055834483E7E179
S11346C0FAE09183808344E1428345E1438347E2F6
S11346D059E055834483E1E1FAE09183808346E124
S11346E0428347E1438349E159E055834483EBE046
S11346F0FAE09183808348E1428349E1438341E1C5
S113470059E055834483E5E0FAE0918380834AE1EC
S113471042834BE1438349E059E055834483EFEFFF
S1134720F9E0918380834CE142834DE1438341E08E
S113473059E055834483E9EFF9E0918380834EE1A6
S113474042834FE1438349EF58E055834483E3EFC9
S1134750F9E09183808340E2428341E2438341EF65
S113476058E055834483EDEEF9E09183808342E27F
S1134770428343E2438349EE58E055834483E7EEA2
S1134780F9E09183808344E2428345E2438341EE2E
S113479058E055834483E1EEF9E09183808346E257
S11347A0428347E2438349ED58E055834483EBED6C
S11347B0F9E09183808348E2428349E2438341EDF7
S11347C058E055834483E5EDF9E0918380834AE220
S11347D042834BE2438349EC58E055834483EFEC36
S11347E0F9E0918380834CE242834DE2438341ECC0
S11347F058E055834483E9ECF9E0918380834EE2E9
S113480042834FE2438349EB58E055834483E3EC0E
S1134810F9E09183808340E3428341E3438341EBA6
S113482058E055834483EDEBF9E09183808342E3C0
S1134830428343E3438349EA58E055834483E7EBE7
S1134840F9E09183808384E3828385E3838381EA2F
S113485098E095838483E0EBF9E045E954E05183E3
S1134860408386E3828323838FE290E0958384836D
S113487026838098889AE9EAF9E05183408347E3E4
S1134880428333839583848326838198899AE2EAD9
S1134890F9E081EA94E09183808388E3828380E86D
S11348A0838385E290E0958384831682279A4BED77
S11348B057E069E386E799E087D20F2EF1E48F2E63
S11348C0F02D6894AA24A6F80F2EFFE3CF2EF02D26
S11348D00F2EFEE3EF2EF02D0DE32CE34BE36AE302
S11348E081E699E0A7D1EEE5F9E089EB94E09183C4
S11348F0808382E482830F91EF90CF90AF908F906A
S113490008950F93CF93E9E5FAE089E59CE01192CD
S11349101192E817F907D9F701E028E031E047E000
S113492051E062E777E181E797E10E94520BC82FDB
S1134930811106C067E073E087E797E0B1D2B8C0A1
S11349406DE273E087E797E0ABD2D0DBC82F882312
S113495021F081E089DBC0E0ABC066E473E087E767
S113496097E09ED28091B20990E0FC01EE0FFF1F08
S1134970E75AF54F20813181232B09F081C0880F3C
S1134980991FFC01E75AF54F80EB99E091838083EE
S11349906AE573E087E797E083D28091AB0990E002
S11349A0FC01EE0FFF1FE75AF54F20813181232BC5
S11349B009F06CC0880F991FFC01E75AF54F89EA8A
S11349C099E0918380836FE673E087E797E068D28C
S11349D08091A40990E0FC01EE0FFF1FE75AF54F08
S11349E020813181232B09F057C0880F991FFC01C6
S11349F0E75AF54F82EA99E09183808364E873E093
S1134A0087E797E04DD281E699E06ED0C82F8111F7
S1134A1006C065E973E087E797E042D249C06FEAD0
S1134A2073E087E797E03CD286E799E03FD1C82F4F
S1134A30811106C06FEB73E087E797E031D238C08D
S1134A4065EE73E087E797E02BD28091600990E0F0
S1134A50FC01EE0FFF1FE75AF54F20813181232B14
S1134A6009F5880F991FFC01E75AF54F8EE599E087
S1134A709183808362E074E087E797E011D218C0E5
S1134A8068E174E087E797E00BD212C066E374E054
S1134A9087E797E005D20CC064E574E087E797E008
S1134AA0FFD106C06EE674E087E797E0F9D1E2CF64
S1134AB08C2FCF910F9108950E94D1060E94410935
S1134AC060910002709101026F5F7F4F81E699E06F
S1134AD00AD060910002709101026F5F7F4F86E7F8
S1134AE099E00DC108950895CF93DF93EC01BC01C3
S1134AF08D853CDD882341F1BE018E8537DD882319
S1134B0019F1BE018F8532DD8823F1F0BE01888959
S1134B102DDD8823C9F0BE01898928DD8823A1F011
S1134B20BE018A8923DD882379F0BE018B891EDDCD
S1134B30882351F0BE018C8919DD882329F06CE0AB
S1134B40CE0102960E943802DF91CF9108950F930F
S1134B501F93CF93DF93FC01C62F8A01D585D6130B
S1134B600AC002960E94A502F801808361E08D2F9D
S1134B700E947B0B5AC0868568130AC068E0CF0187
S1134B8002960E94FB02682F8C2F0E947B0B4DC063
S1134B90878568130AC06EE0CF0102960E94FB026B
S1134BA0682F8C2F0E947B0B40C0808968130AC039
S1134BB064E1CF0102960E94FB02682F8C2F0E94B1
S1134BC07B0B33C0818968130AC06AE1CF01029666
S1134BD00E94FB02682F8C2F0E947B0B26C08289C7
S1134BE068130AC068E2CF0102960E94FB02682F94
S1134BF08C2F0E947B0B19C0838968130AC06EE254
S1134C00CF0102960E94FB02682F8C2F0E947B0B1F
S1134C100CC08489681309C0BA01CF0102960E94AE
S1134C20FF02682F8C2F0E947B0BDF91CF911F9185
S1134C300F9108956F927F928F929F92AF92BF923D
S1134C40CF92DF92EF92FF920F931F93CF93DF9354
S1134C50CDB7DEB73C01962EB42ED22EF02E25EC25
S1134C6034E0FC0121933193CF0105E518E028E2FB
S1134C7047E350E060E070E00E94C301F3019586D1
S1134C80B686D786F08AE18AC28AA38A848ADF91AB
S1134C90CF911F910F91FF90EF90DF90CF90BF9035
S1134CA0AF909F908F907F906F9008951F93CF93B4
S1134CB0DF93EC01BC018AA559DC182F882361F02D
S1134CC02296CE010E94681A182F882329F0609139
S1134CD08E02CE010E941B13812FDF91CF911F9171
S1134CE00895CF93DF93FC0123A5211105C0EC01A6
S1134CF002960E941E138BA7DF91CF910895CF9245
S1134D00DF92EF92FF920F931F93CF93DF93CDB770
S1134D10DEB728970FB6F894DEBF0FBECDBFFC01F7
S1134D2023A5222309F441C07B018C016C01F2E02C
S1134D30CF0ED11CC6010E94E11AC6010E94441381
S1134D40882399F140E050E060E87FE3C6010E94C7
S1134D50F019262F462F572F682F792F49835A830E
S1134D606B837C83F70120838A8181838B81828397
S1134D708C818383C6010E94211A262F462F572F28
S1134D80682F792F4D835E836F837887F70124839F
S1134D908E8185838F8186838885878368E0F80187
S1134DA082A50E947B0BF80113A628960FB6F894EF
S1134DB0DEBF0FBECDBFDF91CF911F910F91FF904A
S1134DC0EF90DF90CF9008951F93CF93DF93EC0182
S1134DD0162F21ED34E0FC0121933193CF01BA0168
S1134DE00E940F131AA7DF91CF911F910895CF92BC
S1134DF0DF92EF92FF920F931F93CF93DF934115AE
S1134E005105C1F06A018C01E62EF72EC0E0D0E016
S1134E10D7016D917D01D801ED91FC910190F08154
S1134E20E02DC8011995892B39F02196CC16DD06A1
S1134E3079F702C0C0E0D0E0CE01DF91CF911F919D
S1134E400F91FF90EF90DF90CF9008956115710559
S1134E5081F0FB0101900020E9F73197AF01461B77
S1134E60570BDC01ED91FC910280F381E02D199543
S1134E70089580E090E00895DC01ED91FC910190AB
S1134E80F081E02D19950895DC01ED91FC910280EB
S1134E90F381E02D42E050E069ED74E01995089546
S1134EA00F931F93CF93DF93EC01D0DF8C01CE01DE
S1134EB0EBDF800F911FDF91CF911F910F91089528
S1134EC08F929F92AF92BF92EF92FF920F931F9394
S1134ED0CF93DF93CDB7DEB7A1970FB6F894DEBFBB
S1134EE00FBECDBF7C01CB01BA0119A2223008F458
S1134EF02AE08E010F5D1F4F822E912CA12CB12C24
S1134F00A501940175D2E62F622F732F842F952F5C
S1134F1001501109EA3010F4E05D01C0E95CD801E8
S1134F20EC93611571058105910551F70115110582
S1134F3091F0F80101900020E9F73197AF01401B8F
S1134F40510BD701ED91FC910280F381E02DB80162
S1134F50C701199501C080E0A1960FB6F894DEBF91
S1134F600FBECDBFDF91CF911F910F91FF90EF90B6
S1134F70BF90AF909F908F9008952115310549F40B
S1134F80DC01ED91FC910190F081E02D642F1995E5
S1134F90089596DF90E008959A01462F50E060E06E
S1134FA070E0EBCF08955058BB27AA270ED070C1EC
S1134FB061D130F066D120F031F49F3F11F41EF43A
S1134FC056C10EF4E095E7FB4CC1E92F72D180F392
S1134FD0BA17620773078407950718F071F49EF5F2
S1134FE08AC10EF4E0950B2EBA2FA02D0B01B90146
S1134FF090010C01CA01A0011124FF27591B99F04B
S1135000593F50F4503E68F11A16F040A22F232F56
S1135010342F4427585FF3CF469537952795A795A6
S1135020F0405395C9F77EF41F16BA0B620B730B4D
S1135030840BBAF09150A1F0FF0FBB1F661F771FBE
S1135040881FC2F70EC0BA0F621F731F841F48F473
S1135050879577956795B795F7959E3F08F0B3CFF9
S11350609395880F08F09927EE0F979587950895E3
S1135070D4D008F481E008950CD00AC102D140F0E4
S1135080F9D030F021F45F3F19F0EBC0511134C175
S1135090EEC00FD198F39923C9F35523B1F3951BAF
S11350A0550BBB27AA2762177307840738F09F5F45
S11350B05F4F220F331F441FAA1FA9F333D00E2EB4
S11350C03AF0E0E830D091505040E695001CCAF721
S11350D029D0FE2F27D0660F771F881FBB1F2617E6
S11350E037074807AB07B0E809F0BB0B802DBF01B9
S11350F0FF2793585F4F2AF09E3F510568F0B1C0D7
S1135100FBC05F3FECF3983EDCF38695779567959B
S1135110B795F7959F5FC9F7880F911D9695879569
S113512097F90895E1E0660F771F881FBB1F621788
S113513073078407BA0720F0621B730B840BBA0B46
S1135140EE1F88F7E0950895BCD088F09F5790F043
S1135150B92F9927B751A0F0D1F0660F771F881F98
S1135160991F1AF0BA95C9F712C0B13081F0C3D0B3
S1135170B1E00895C0C0672F782F8827B85F39F051
S1135180B93FCCF3869577956795B395D9F73EF4F7
S113519090958095709561957F4F8F4F9F4F08959F
S11351A0E89409C097FB3EF49095809570956195BD
S11351B07F4F8F4F9F4F9923A9F0F92F96E9BB2773
S11351C09395F695879577956795B795F111F8CFEF
S11351D0FAF4BB0F11F460FF1BC06F5F7F4F8F4F5A
S11351E09F4F16C0882311F096E911C0772321F050
S11351F09EE8872F762F05C0662371F096E8862FE8
S113520070E060E02AF09A95660F771F881FDAF73E
S1135210880F9695879597F90895990F0008550F6B
S1135220AA0BE0E8FEEF16161706E807F907C0F028
S113523012161306E407F50798F0621B730B840B30
S1135240950B39F40A2661F0232B242B252B21F40A
S113525008950A2609F4A140A6958FEF811D811DAA
S1135260089597F99F6780E870E060E008959FEFE4
S113527080EC089500240A941616170618060906E9
S1135280089500240A9412161306140605060895B8
S1135290092E0394000C11F4882352F0BB0F40F440
S11352A0BF2B11F460FF04C06F5F7F4F8F4F9F4F80
S11352B0089557FD9058440F551F59F05F3F71F002
S11352C04795880F97FB991F61F09F3F79F0879569
S11352D00895121613061406551FF2CF4695F1DFF2
S11352E008C0161617061806991FF1CF8695710582
S11352F0610508940895E894BB2766277727CB01B6
S113530097F908958ADF08F48FEF08950BD0C0CF82
S1135310B1DF28F0B6DF18F0952309F0A2CFA7CFAC
S11353201124EACFC6DFA0F3959FD1F3950F50E087
S1135330551F629FF001729FBB27F00DB11D639F43
S1135340AA27F00DB11DAA1F649F6627B00DA11DE9
S1135350661F829F2227B00DA11D621F739FB00D8F
S1135360A11D621F839FA00D611D221F749F3327FF
S1135370A00D611D231F849F600D211D822F762F98
S11353806A2F11249F5750408AF0E1F088234AF095
S1135390EE0FFF1FBB1F661F771F881F91505040E1
S11353A0A9F79E3F510570F05CCFA6CF5F3FECF3A9
S11353B0983EDCF3869577956795B795F795E795CD
S11353C09F5FC1F7FE2B880F911D9695879597F9DE
S11353D00895DB018F939F9335D0BF91AF91A29F26
S11353E0800D911DA39F900DB29F900D11240895DF
S11353F0A1E21A2EAA1BBB1BFD010DC0AA1FBB1FD5
S1135400EE1FFF1FA217B307E407F50720F0A21B46
S1135410B30BE40BF50B661F771F881F991F1A94B3
S113542069F760957095809590959B01AC01BD01DD
S1135430CF010895EE0FFF1F881F8BBF0790F691D1
S1135440E02D1994BBD0A59F900DB49F900DA49FFF
S1135450800D911D11240895DF93CF931F930F9313
S11354609A9DF02D219FF00D8B9DF00D8A9DE02DCE
S1135470F10D039FF00D029FE00DF11D4E9DE00D17
S1135480F11D5E9DF00D4F9DF00D7F936F93BF92C4
S1135490AF925F934F93D50191D08B01AC01D701AB
S11354A08DD0EB01E80FF91FD6011FD02F913F914A
S11354B0D60184D0C60FD71FE81FF91FAF91BF9143
S11354C014D02F913F917AD0C60FD71FE81FF91F30
S11354D0D60174D0E60FF71F9801BE01CF01112445
S11354E00F911F91CF91DF91089568D0460F571FF8
S11354F0C81FD91F08F4319608950F93083090F00F
S1135500982F872F762F652F542F432F322F222742
S11355100850F4CF220F331F441F551F661F771FF7
S1135520881F991F0A95B2F70F91089597FB10F8F9
S1135530169400080F93083098F00850232F342F46
S1135540452F562F672F782F892F902DF4CF059450
S113555097958795779567955795479537952795A7
S11355600A95AAF70F9108952A0D3B1D4C1D5D1D48
S11355706E1D7F1D801F911F08950024A7FD0094B8
S11355802A0F301D401D501D601D701D801D901D73
S113559008952A193B094C095D096E097F09800B9E
S11355A0910B08950024A7FD00942A1730054005A7
S11355B0500560057005800590050895A29FB0010F
S11355C0B39FC001A39F700D811D1124911DB29F33
S11355D0700D811D1124911D0895FB01DC0102C091
S11355E005900D9241505040D8F70895FB01DC011D
S11355F004C08D910190801921F441505040C8F7A6
S1135600881B990B0895FB01DC014150504048F080
S113561001900D920020C9F701C01D9241505040E5
S10B5620E0F70895F894FFCFB0
S11356281D05FFFFFFFF7069692D3031C0A8B20165
S1135638A9FEF09D424E4F30353500000000007D34
S1135648019B047E01FFFFFFFFFFFF496E69746938
S1135658616C697A696E672E2E2E004661696C65E5
S11356686420746F20696E697469616C697A652055
S1135678726F626F742E00496E697469616C697A1D
S1135688656420726F626F742E0000000000120CB3
S1135698F726FC0B090CDB0BED0BEA0B00000000F2
S11356A80E123812D80BD511AA11B211C611000066
S11356B8000000E61DFD1D00000000D91EE51E5572
S11356C86E61626C6520746F20696E697469616CBF
S11356D8697A652054776920536572766F20436F21
S11356E86E74726F6C6C65722E00556E61626C65B7
S11356F820746F20696E697469616C697A652053D6
S11357086572766F00496E697469616C697A65645B
S11357182054776920536572766F20436F6E7472D4
S11357286F6C6C65722E004661696C656420746FD9
S1135738206163636573732045746865726E65746C
S113574820636F6E74726F6C6C65722E00436F6E9B
S11357586E656374656420746F20636F6E74726F12
S11357686C6C65722E00536572766F7320696E696E
S11357787469616C697A65642E00496E697469613B
S11357886C697A656420427574746F6E302E0049B2
S11357986E697469616C697A656420427574746FA2
S11357A86E312E00496E697469616C697A6564208A
S11357B84C45442E00556E61626C6520746F2069F7
S11357C86E697469616C697A6520494D552E004982
S11357D86E697469616C697A656420494D55005530
S11357E86E61626C6520746F20696E697469616C9E
S11357F8697A652050726573737572652053656E96
S1135808736F722E00496E697469616C697A656494
S11358182070726573737572652073656E736F7229
S11358282E00496E697469616C697A6564207365D0
S11358387474696E67732E00556E61626C652074AA
S11358486F20696E697469616C697A652042757440
S1135858746F6E302E00556E61626C6520746F2013
S1135868696E697469616C697A6520427574746FCC
S11358786E312E00556E61626C6520746F20696EFE
S1135888697469616C697A65204C45442E00556ECB
S113589861626C6520746F20696E697469616C69F2
S11358A87A65205457492073657474696E67732E3A
S11358B80000000000DE1F031F131F1F1F0000004D
S11358C800C71F141F1C1F741F00000000F51F14BD
S11358D81F1D1F3A1F00000000B01F141F1E1FA029
S11358E81F000000007425031F7325A7250000006E
S11358F8005626031F7F2671260D0A006E616E006E
S10B5908696E66006F7666000B
S9030000FC
