S0150000526F76436F6E74726F6C6C65722E73726563B4
S11300004FC100007EC100007CC100007AC1000025
S113001078C1000076C1000074C1000072C1000004
S113002070C100006EC100006CC100006AC1000014
S113003068C100000C94301A64C1000062C1000061
S113004060C100005EC100005CC100005AC1000034
S113005058C100000C94071A54C1000052C100009A
S113006050C100000C943B160C9477164AC1000052
S113007048C1000046C1000044C1000042C1000064
S113008040C100003EC100003CC100003AC1000074
S11300900C94C3160C94FF1634C100000C94991BE5
S11300A030C100002EC100002CC100002AC1000094
S11300B028C1000026C1000024C1000022C10000A4
S11300C020C100001EC100001CC100000C944B178D
S11300D00C94871716C100000C94D3170C940F18B6
S11300E010C10000A01CA31CA31CA31CA31CA31CC4
S11300F0A31CA31CBB1BA31CA31CA31CA31CA31CED
S1130100A31CA31CBB1BA31CA31CA31CA31CA31CDC
S1130110A31CA31CC31BA31CA31CA31CA31CA31CC4
S1130120A31CA31CE81BA31CA31CA31CA31CA31C8F
S1130130A31CA31CC31BA31CA31CA31CA31CA31CA4
S1130140A31CA31CED1BA31CA31CA31CA31CA31C6A
S1130150A31CA31CF21BA31CA31CA31CA31CA31C55
S1130160A31CA31C031CA31CA31CA31CA31CA31C33
S1130170A31CA31C2C1CA31CA31CA31CA31CA31CFA
S1130180A31CA31CF71BA31CA31CA31CA31CA31C20
S1130190A31CA31C111CA31CA31CA31CA31CA31CF5
S11301A0A31CA31C2E1CA31CA31CA31CA31CA31CC8
S11301B0A31CA31C2E1CA31CA31CA31CA31CA31CB8
S11301C0A31CA31C2E1CA31CA31CA31CA31CA31CA8
S11301D0A31CA31C2E1CA31CA31CA31CA31CA31C98
S11301E0A31CA31C371CA31CA31CA31CA31CA31C7F
S11301F0A31CA31C671CA31CA31CA31CA31CA31C3F
S1130200A31CA31C371CA31CA31CA31CA31CA31C5E
S1130210A31CA31C671CA31CA31CA31CA31CA31C1E
S1130220A31CA31C4F1CA31CA31CA31CA31CA31C26
S1130230A31CA31C6B1CA31CA31CA31CA31CA31CFA
S1130240A31CA31C6B1CA31CA31CA31CA31CA31CEA
S1130250A31CA31C801CA31CA31CA31CA31CA31CC5
S1130260A31CA31C9A1CA31CA31CA31CA31CA31C9B
S1130270A31CA31C9A1C450000820000400020001F
S113028001080006040001002005610CA0162817CF
S1130290B01738185B18591A0F1E7F1E8F1F971F2F
S11302A011241FBECFEFD1E2DEBFCDBF00E00CBFF3
S11302B013E0A0E0B2E0ECE7F9E400E00BBF02C019
S11302C007900D92AA34B107D9F72AE0AAE4B3E063
S11302D001C01D92AE31B207E1F711E0C0E5D1E0F3
S11302E000E006C021970109802FFE010E94C4236B
S11302F0C434D10780E00807A9F70E94E60B0C94E8
S1130300BC247ECE08950F931F93CF93DF938C016B
S1130310EB0188E2FB0111928A95E9F74BE050E08A
S113032064E172E0CE010E94AD241B8681E090E07E
S1130330A0E0B0E08C879D87AE87BF87F8018681F7
S11303409781A085B185888B998BAA8BBB8B83E021
S113035090E0A0E0B0E08C8B9D8BAE8BBF8B1CA299
S11303601DA21EA21FA2188E198E1A8E1B8E1C8E01
S11303701D8E1E8E1F8E8AE097EDA3E2BCE388A338
S113038099A3AAA3BBA3DF91CF911F910F910895C5
S11303900F931F93FC018FE192E091838083468346
S11303A05783608771872383158304831F910F917B
S11303B008950F931F93CF93DF93EC01062F142F0F
S11303C06B818C819D810E94831D8C819D81DC01C8
S11303D0ED91FC910190F081E02D602F19958C81B5
S11303E09D81DC01ED91FC910190F081E02D612F64
S11303F019958C819D810E940C1E81E0DF91CF9123
S11304001F910F910895462FFC0162876DE3D1DFA0
S1130410FFEF26E781E0F15020408040E1F700C083
S1130420000008951F93CF93DF93EC01162F6B8187
S11304308C819D810E94831D8C819D81DC01ED91C5
S1130440FC910190F081E02D612F19958C819D81A3
S11304500E940C1E41E06B818C819D810E94061ECE
S11304608C819D81DC01ED91FC910284F385E02D6A
S11304701995DF91CF911F9108951F93CF93DF9327
S1130480EC01162F8C819D810E94731D60E0CE01CA
S1130490C9DF803A79F02FEF83ED90E3215080405B
S11304A09040E1F700C0000060E0CE01BBDF803A7D
S11304B009F04BC060E0CE01A6DF40E26FE3CE015D
S11304C078DF2FEF86E791E0215080409040E1F7FC
S11304D000C0000060E0CE01A5DF803A39F08FE370
S11304E09CE90197F1F700C00000F4CF9FEF20E7EB
S11304F082E0915020408040E1F700C0000040E0DD
S11305006EE3CE0156DF8FE39CE90197F1F700C05B
S1130510000040E067E0CE014CDF40E06FE3CE0135
S113052048DF8FE39CE90197F1F700C00000612FD9
S1130530CE0169DF9FEF29EF80E091502040804099
S1130540E1F700C0000081E001C080E0DF91CF91BD
S11305501F91089564E366CF0895CF92DF92EF92DE
S1130560FF920F931F93CF93DF937C01C62F6A01F1
S1130570122FDC0113966C91139714968D919C9114
S113058015970E94831DF70184819581DC01ED910B
S1130590FC910190F081E02D6C2F1995F701848175
S11305A095810E940C1E412FD70113966C911397CD
S11305B014968D919C9115970E94061E1123B1F0FB
S11305C0E6011150012F10E00F5F1F4F0C0D1D1D90
S11305D0F70184819581DC01ED91FC910284F3851E
S11305E0E02D19958993C017D10791F781E0DF9128
S11305F0CF911F910F91FF90EF90DF90CF900895CE
S1130600AF92BF92CF92DF92FF920F931F93CF933B
S1130610DF9300D000D0CDB7DEB78C01CB01F42E30
S11306202CE0F80111922A95E9F7AE014F5F5F4F74
S113063026E0FA0111922A95E9F726E06F2D8DDF65
S11306406A8170E0762F66278981682B8C8190E01F
S1130650982F88272B816C01C22A8E8190E0982FD5
S113066088272D815C01A22AF4E1FF1609F44AC00F
S1130670FF1540F088E0F81609F4ACC0EEE0FE1671
S113068069F043C1F8E2FF1609F4D8C08EE2F81607
S113069009F408C1EAE1FE1238C168C0072E000C53
S11306A0880B990B0E94782220E030E040E85DE35B
S11306B00E942C23F8016083718382839383B601A3
S11306C0DD0C880B990B0E94782220E030E040E892
S11306D05DE30E942C23F8016483758386839783EA
S11306E0B501BB0C880B990B0E94782220E030E006
S11306F040E85DE30E942C23F801608771878287BC
S1130700938703C1072E000C880B990B0E94782253
S113071020E030E040E85DE30E942C23F801608390
S1130720718382839383B601DD0C880B990B0E943D
S1130730782220E030E040E85DE30E942C23F801B9
S11307406483758386839783B501BB0C880B990BEF
S11307500E94782220E030E040E85DE30E942C23F0
S1130760F8016087718782879387CFC0072E000CBA
S1130770880B990B0E94782220E030E040E85DE38A
S11307800E942C23F8016083718382839383B601D2
S1130790DD0C880B990B0E94782220E030E040E8C1
S11307A05DE30E942C23F801648375838683978319
S11307B0B501BB0C880B990B0E94782220E030E035
S11307C040E85DE30E942C23F801608771878287EB
S11307D093879BC0072E000C880B990B0E947822EC
S11307E020E030E048EC52E40E94E221F80160830A
S11307F0718382839383B601DD0C880B990B0E946D
S1130800782220E030E048EC52E40E94E221F80132
S11308106483758386839783B501BB0C880B990B1E
S11308200E94782220E030E048EC52E40E94E22169
S1130830F801608771878287938767C0072E000C51
S1130840880B990B0E94782220E030E048EC52E4B7
S11308500E94E221F8016083718382839383B6014D
S1130860DD0C880B990B0E94782220E030E048ECE4
S113087052E40E94E221F80164837583868397839E
S1130880B501BB0C880B990B0E94782220E030E064
S113089048EC52E40E94E221F80160877187828764
S11308A0938733C0072E000C880B990B0E94782283
S11308B020E030E048EC52E40E94E221F801608339
S11308C0718382839383B601DD0C880B990B0E949C
S11308D0782220E030E048EC52E40E94E221F80162
S11308E06483758386839783B501BB0C880B990B4E
S11308F00E94782220E030E048EC52E40E94E22199
S1130900F8016087718782879387C80126960FB69E
S1130910F894DEBF0FBECDBFDF91CF911F910F9131
S1130920FF90DF90CF90BF90AF9008950F931F93E7
S1130930CF93DF93CDB7DEB72C970FB6F894DEBF15
S11309400FBECDBF8B0120E2FB0111922A95E9F77E
S113095040E250E060E070E0F8014083518362833C
S11309607383FC014681578160857185F801448356
S113097055836683778343E050E060E070E040870E
S11309805187628773874AE1BC01CE01019638DE44
S113099089819A81AB81BC81F801808B918BA28B78
S11309A0B38B8D819E81AF81B885848B958BA68B0B
S11309B0B78B89859A85AB85BC85808F918FA28FF3
S11309C0B38F81E02C960FB6F894DEBF0FBECDBF77
S11309D0DF91CF911F910F910895613049F4FC018B
S11309E08081E0914A03F0914B03808380E0ACC6A0
S11309F0089540914A0330914B032FEF260F66234D
S1130A0041F0A82FB92FE42FF32F8D91819321501A
S1130A10E0F781E099C608959B01813041F018F018
S1130A20833049F00895642FC901D7CF0895642F06
S1130A30C901DFCF0895642FC9010C94621E089583
S1130A408091000290910102029690934B0380934F
S1130A504A030895E0915003F091510390818091ED
S1130A604F038095892380830895E0915003F0918A
S1130A705103908180914F03892B80830895CF93F4
S1130A80DF93D82FC62FE6DF8C2FCF71CD2BCEBDB1
S1130A9000000DB407FEFDCF1EBC00000DB407FE20
S1130AA0FDCFCEB5882334F41EBC00000DB407FE80
S1130AB0FDCFCEB5DADF8C2FDF91CF9108951F9350
S1130AC0CF93DF93C82FD62F142FC4DFDF71CD2B24
S1130AD0CEBD00000DB407FEFDCF1EBD00000DB459
S1130AE007FEFDCFC2DFDF91CF911F9108950F93D1
S1130AF01F93CF93DF93EC018B01ACDF209799F028
S1130B008AE38EBD00000DB407FEFDCFF801B801E5
S1130B106C0F7D1F1EBC0DB407FEFDCF9EB59193D7
S1130B206E177F07B9F7A1DFDF91CF911F910F9166
S1130B3008951F93CF93DF93182F1076C12FD0E021
S1130B408091520390E0C817D907A1F043E06FE108
S1130B5080EAB5DF10935203AE015595479555953C
S1130B6047955595479555954795559547956FE103
S1130B7080E8A5DFDF91CF911F910895CF93C82F0F
S1130B80D8DF6C2F80E07BDFCF910895CF93DF9384
S1130B90C82FD62FCEDF4D2F6C2F80E490DFDF914E
S1130BA0CF910895CF93DF93C82FD72FEFDF6D2F09
S1130BB081E08C0FEBDFDF91CF910895FC0194B1BC
S1130BC0976094B923989DB591609DBD9CB590653F
S1130BD09CBD808190914F03982B908346CF0895BC
S1130BE00F93CF93DF93EB019093540380935303BC
S1130BF000934F033093510320935003CA01DEDF67
S1130C004FEF60E08FEF5BDF8FE39FE10197F1F738
S1130C1000C000006DE180E032DF8823D9F360E09A
S1130C2070E088E0BFDF60E070E08CE0BBDF6FEF76
S1130C307BE08AE0B7DF60E07CE084E0B3DF6FEF65
S1130C4071E186E0AFDF61EB88E3A0DF6FE370E37F
S1130C5088E2A8DF69EF77EF80E3A4DF61E080EC4E
S1130C6095DF42E362EC80E82ADF62E17CE086EC17
S1130C7099DF62E184EC8ADF6CED75E08AEC92DF47
S1130C80688184EE83DF698185EE80DF6A8182EE8C
S1130C907DDF6B8183EE7ADF6C8180EE77DF6D819F
S1130CA081EE74DF60E184ED71DF60E071E086ED78
S1130CB079DF8AEE63DF80FDFCCF8FE13ADF40EC21
S1130CC06BE180E8FCDE44E06FE180E8F8DE82E777
S1130CD055DF863008F08F5FDF91CF910F91089533
S1130CE061E184ED53DF61E082ED50DF8AEE46DF9F
S1130CF080FDFCCF60E082ED49DF89ED3FDF82FBC0
S1130D00882780F90895AF92BF92CF92DF92EF9235
S1130D10FF920F931F93CF93DF937C016C0184EFB9
S1130D20D81A0F2EF5E5AF2EF3E0BF2EF02D870174
S1130D300B5A1C4F40E86FE180E8C1DE40E86FE1E8
S1130D4080EABDDE4AE06CE180EAB9DE60E07CE086
S1130D5082E028DFB60186E025DF40E060E08AE734
S1130D60AEDE78DEE114F104E1F08AE78EBD000026
S1130D700DB407FEFDCFF50180818EBDF1E0EF16C5
S1130D80F10459F0E6E5F3E000000DB407FEFDCFF1
S1130D9081918EBDE017F107B9F700000DB407FE8D
S1130DA0FDCF63DE48E06FE180E889DEC0E0D0E09B
S1130DB08CE1E4DE8A7031F42196C83E83E0D807E2
S1130DC0B9F70CC08CE1DADE81FD03C0C83ED34024
S1130DD040F048E06FE180EA72DEACCF8CE1CEDE19
S1130DE0F8CFDF91CF911F910F91FF90EF90DF909B
S1130DF0CF90BF90AF9008950F931F93CF93DF933D
S1130E0000D000D0CDB7DEB780914E03882391F097
S1130E1060914C0370914D036115710529F46FEFD6
S1130E207BE08CE0BFDE04C0615071098CE0BADE67
S1130E3010924E0389E3A2DE8823A9F160914C034A
S1130E4070914D0380E0AEDEBE016F5F7F4F86E0A0
S1130E5090E04DDE89819A8190934D0380934C03F9
S1130E608D8187FF12C080915303909154030197A1
S1130E700B811C81045011098017910708F48C011F
S1130E8065E573E0C80133DE02C000E010E0F8015C
S1130E90EB5AFC4F108281E080934E0340E46EE1F4
S1130EA080E80DDE02C000E010E0C80126960FB60F
S1130EB0F894DEBF0FBECDBFDF91CF911F910F918C
S1130EC00895EF92FF920F93CF93DF93EB017A0192
S1130ED0022FBC018FE695E0C9D39701AE016FE6FE
S1130EE075E080E092E07CDEDF91CF910F91FF907E
S1130EF0EF900895EF92FF920F931F93CF93DF9398
S1130F007B018A01E901009721F0BC018BE695E0A1
S1130F10A0D3E114F10411F0C701BDD101151105ED
S1130F2021F0B8018BE595E094D3209721F0BE0120
S1130F3087E695E08ED3BBD11092560510925505E5
S1130F4081E0DF91CF911F910F91FF90EF90089571
S1130F50CF92DF92EF92FF92CF93DF93C62FD0E030
S1130F60CB5ADC4F213081F46A0199E0C90ED11CBF
S1130F70E12CF12C03C0C12CD12C76014230510557
S1130F8028F1FE01DA0109C02230A9F76A0192E0D2
S1130F90C91AD108E12CF12CF1CF208130E0322F95
S1130FA022279181292BC20ED31EE11CF11C3296FB
S1130FB01297A230B10588F79A01225031092E7F89
S1130FC02E5F3F4FC20FD31F41705527452B61F051
S1130FD0488150E060E070E0762F652F542F44275D
S1130FE0C40ED51EE61EF71EA701662777274115F6
S1130FF051056105710571F0EE24FF24C40ED51E60
S1131000E61EF71EA70166277727411551056105DE
S1131010710591F7C094D094E82FF0E0EB5AFC4F9F
S1131020D082C182DF91CF91FF90EF90DF90CF907B
S11310300895CF93DF93FC0120812223D1F0FB019B
S113104030813323C1F02327309167052323A9F48A
S1131050DC0111963196C8E6D5E004964D912191B4
S113106039912427232359F4A817B907B9F781E044
S113107007C080E005C080E003C080E001C080E0DC
S1131080DF91CF910895E5E5F3E0108E118E80E4B1
S1131090848B158A868B20E044E150E06EE088E181
S11310A057CF0895BC0185E593E0E0D26FE675E083
S11310B08BE593E0DBC208958BE593E0F3DF6FE605
S11310C073E083E793E0C5D26BE675E08FE693E0C7
S11310D0C0D2D9CF0895CF93DF93EB01E3DFBE01F4
S11310E083E793E0B6D26BE675E08FE693E0B1D286
S11310F0DF91CF910895CF93DF93EB0144E050E06B
S1131100BC0181E793E00E94A024892B31F46BE6B3
S113111073E0CE01ABD281E001C080E0DF91CF91DA
S113112008950F931F93CF938C0185E292E0BADF69
S1131130E5E5F3E088E08487C6E0C58748E050E051
S11311406FE772E083E693E00E949724E5E7F3E01B
S1131150DF011D92CA95E9F76FE675E08BE693E02F
S113116085D2B8018BE793E074D26BE675E081E732
S113117093E06FD28AE290E0C6DDCF911F910F9188
S11311800895EF92FF920F931F93CF93DF93182F3D
S1131190092FEB01F42EE52E8BE695E04ADF882338
S11311A029F0BE0180E895E096DF04C0BE0186E721
S11311B095E091DF8881807F803E91F088819981DC
S11311C0AA81BB818F3F9F4FAF4FBF4F49F044E08F
S11311D050E0BE0183E695E00E94A024892B29F407
S11311E065E272E085E593E041D2C5E5D3E088E0AD
S11311F08C871D8649E050E066E772E083E693E061
S11312000E949724188A81E18F8BECA2FDA20AA385
S11312101BA31EA218A619A6DF91CF911F910F91AF
S1131220FF90EF9008950F931F93CF93DF93EC01FA
S113123005E513E04C96F801908B818B24DFCE01F9
S11312400896F80196A387A3AE01405F5F4F21E0A3
S11312506AE188E27DDECE018A9655DDDF91CF9189
S11312601F910F9108950F931F93CF93DF93D62F60
S1131270C72FCA01A801B90184DF8D2F9C2F8130AB
S113128022E0920710F080E092E0CDDFDF91CF9171
S11312901F910F910895109256051092550521E063
S11312A020937505BC018FE595E0D3C10895CF93D4
S11312B0DF93EBE6F5E0C7E6D5E0A3E6B5E02FE67D
S11312C035E0919189918095892B8D93E217F307ED
S11312D0C1F7DF91CF910895CF93DF93EC0100978D
S11312E009F03FC080917505857089F0809155059E
S11312F090915605892B59F4F3DC882341F08FE54E
S113130095E00FDF80917505886080937505809165
S11313105505909156050196909356058093550571
S11313206BE575E08BE695E084DE882349F08091D7
S11313307E05811105C080917F05882309F4DCC0F6
S113134067E575E08BE695E074DE882309F4F8C060
S113135080917C058111F4C080917D058111F0C0DC
S1131360D2C08932910508F4D5C0809161038830D8
S113137009F0E6C080916203863009F0DDC044E0E4
S113138050E06BE675E08BE793E00E94A024892B84
S113139009F0D2C0C3C08BE593E084DEE5E5F3E059
S11313A0148A82E0858B6BE673E085E793E05ED177
S11313B06FE675E08BE693E059D161E773E08BE764
S11313C093E047D16BE675E081E793E042D18AE28E
S11313D090E099DC8091750583FF0EC080916A03CB
S11313E0823051F466E775E08FE595E084DE88236A
S11313F019F082E08093750580917E05811110C0FB
S113140080917F05882361F060E875E08BE595E0C5
S113141072DE882329F081E080937E0510927F0597
S113142080917C0581118CC080917D05882309F40D
S113143087C060E875E087E595E05DDE882309F400
S11314407FC081E080937C0510927D0579C08091F6
S11314506103883009F074C080916203811170C007
S113146080916303853409F06BC044E050E06BE67F
S113147075E083E793E00E94A024892B09F454C00B
S113148044E050E063E675E083E793E00E94A02423
S1131490892B09F449C044E050E065E272E083E737
S11314A093E00E94A024892B09F04AC03DC080919A
S11314B077038830C9F4E0918605F0918705309769
S11314C019F08FE693E01995F7DDE5E5F3E012A254
S11314D084A1883F18F095A19F5F95A3885F8093AE
S11314E07903CE0110DC2CC04AD0882349F18091C5
S11314F06C03813129F51DC08BE595E012DE81E096
S113150080937F051DCF87E595E00BDE81E0809316
S11315107D0516C08A9708F09ACF12C080916A039D
S1131520813009F057CF37CF80916C038130E1F6D9
S1131530BECFCE012BD004C0CA32D10508F08CCF67
S113154080E090E0DF91CF9108959C01909188050F
S11315509830A0F4E92FF0E0AF01440F551F440F79
S1131560551FE40FF51FE757FA4F31832083738328
S1131570628381E084839F5F90938805089581E06E
S113158090918805911101C080E008958F929F92F7
S1131590BF92CF92DF92EF92FF920F931F93CF935C
S11315A0DF9380918805882309F446C0C9E8D5E013
S11315B0E12CF12C80E00F2EF5E5CF2EF3E0DF2EA9
S11315C0F02DBB24B394AA81BB81F60124A130E0A1
S11315D04B2F55272417350721F525A130E0AD0100
S11315E0552724173507E9F49C819923D1F007A1E5
S11315F010E00850110986A190E0982F8827080F61
S1131600191F42A150E0542F442783A1482B8880FE
S113161099802FE733E06FE673E0CD01F40119956B
S11316208B2DFFEFEF1AFF0A25962091880530E0F5
S1131630E216F30644F201C080E0DF91CF911F91DE
S11316400F91FF90EF90DF90CF90BF909F908F907D
S11316500895FB0120813181FC0131832083FB014A
S113166022813381FC01338322830895DC0196E0D7
S1131670FB0101900D929A95E1F70895FC012081F8
S1131680DC0112968181922F980F3FEF360F66236B
S113169061F0FD01832F2191920F8150E0F7232FF8
S11316A030E02F5F3F4FA20FB31F81E02C9129132D
S11316B080E008950F931F93CF93DF93A8014350C5
S11316C051094F3F510509F088F4F90180818F3F9A
S11316D069F4E9010350602FC901D0DF882331F098
S11316E0BE016E5F7F4F402F898196D9DF91CF91E4
S11316F01F910F9108950F93CF93DF93EC01CA01CB
S1131700A901202FD093B405C093B3057093B205FB
S11317106093B105BC0186E092E0D3DB882379F0C5
S113172020E030E040E050E06CE072E080E192E0E4
S1131730E1DBBE018AE59BE008DF81E001C080E0D7
S1131740DF91CF910F9108950F931F93CF93DF9360
S1131750E0910002F09101029FEF9083E09100027A
S1131760F091010281838150C0910002D091010265
S1131770DE0112964FEF460F662381F0FD0150E023
S11317809A012D5F3F4F2C0F3D1F9191890FE21756
S1131790F307D9F74F5F5F4FA40FB51F8C930091E8
S11317A0B1051091B2054091B3055091B40570E0B4
S11317B06D5F7F4F22E032E0809100029091010240
S11317C052DDDF91CF911F910F910895789426E017
S11317D040E855E260E070E08FED95E00E94D3159B
S11317E06BE272E08FED95E00E9400200E94991E4A
S11317F0811107C06CE372E08FED95E00E94002038
S1131800FFCF68E572E08FED95E00E9400208AEB3F
S113181095E082D7811107C06BE672E08FED95E009
S11318200E940020FFCF6091FE028AEB95E05CD01D
S113183040E050E469E774E48AEB95E058D061E94C
S113184072E08FED95E00E94002001E025E230E097
S113185044E250E062E777E181E797E14CDF8111F0
S113186007C06EEA72E08FED95E00E940020FFCF82
S113187064ED72E08FED95E00E940020BDDA2CDD6E
S11318800E94AC1E6DEE72E08FED95E00E94D61FB3
S11318908AEB95E0B8D740E050E060E87FE38AEB5C
S11318A095E0D0D6AB01BC0122E030E08FED95E0AD
S11318B00E94762168EF72E08FED95E00E9400208F
S11318C0DDCF8AEB95E006D060E485EB95E00C94DF
S11318D0EF14089540E050EA60E874E4FC0141A389
S11318E052A363A374A30895FC0160A30895FC01AB
S11318F041A352A363A374A308952F923F924F92DE
S11319005F926F927F928F929F92AF92BF92CF928B
S1131910DF92EF92FF920F931F93CF93DF93CDB794
S1131920DEB7A5970FB6F894DEBF0FBECDBF1C017E
S1131930DC011A968D919C911B97A0E0B0E0BA2F20
S1131940A92F982F8827F1014489558966897789B9
S11319503A014B01681A790A8A0A9B0A69827A82D7
S11319608B829C8280A1813009F058C1990C660851
S1131970762C43016D827E828F8298868681978140
S11319803C01812C912CA12CB12C65018D8F7E8E74
S11319908F8E98A2A9A2BAA2CBA2DCA2A980BA80F7
S11319A0CB80DC80ED80FE2C0E2D1E2D282F372DB4
S11319B040E050E060E070E080E090E00E94E523C9
S11319C0122F3E874D87B52FF62FE72F782E892EBD
S11319D0A0E00E948B245CF4AFE70E947624122FCF
S11319E03E874D87B52FF62FE72F782E892E212F8E
S11319F03E854D855B2F6F2F7E2F872D982D07E019
S1131A000E944F24822E932E742E652EB62FA72F5C
S1131A10582E492EF101A280B3802A2D3B2D40E09F
S1131A2050E060E070E080E090E000E10E94362445
S1131A30A22EB32EC42ED52EE62EF72E082F192F44
S1131A40282D392D472D562D6B2F7A2F852D942D2A
S1131A500E946D242D873E874F87588B698B7A8B24
S1131A608B8B9C8B808591853C01812C912CA12CA6
S1131A70B12C65018D8F7E8E8F8E98A2A9A2BAA2F9
S1131A80CBA2DCA2A980BA80CB80DC80ED80FE2CC6
S1131A900E2D1E2D282F372D40E050E060E070E021
S1131AA080E090E00E94E523122F3E8B4D8BB52FF2
S1131AB0F62FE72F782E892EA0E00E948B245CF469
S1131AC0AFE30E947624122F3E8B4D8BB52FF62F59
S1131AD0E72F782E892E212F3E894D895B2F6F2F7A
S1131AE07E2F872D982D06E00E944F24822E932E60
S1131AF0742E652EB62FA72F582E492EF10124815E
S1131B00358159013B2D40E050E060E070E080E019
S1131B1090E001E10E943624A22EB32EC42ED52ECD
S1131B20E62EF72E082F192F282D392D472D562D47
S1131B306B2F7A2F852D942D0E946D242D8B3E8B37
S1131B404F8B588F698F7A8F8B8F9C8F8485958567
S1131B503C01812C912CA12CB12C65018D8F7E8EA2
S1131B608F8E98A2A9A2BAA2CBA2DCA2A980BA8025
S1131B70CB80DC80ED80FE2C0E2D1E2D282F372DE2
S1131B8040E050E060E070E080E090E00E94E523F7
S1131B90122F3DA34D8FB52FF62FE72F782E892EC8
S1131BA0A0E00E948B2484F42150310940485F4F07
S1131BB06F4F7F4F8F4F9F4F122F3DA34D8FB52FE8
S1131BC0F62FE72F782E892E212F3DA14D8D5B2FE7
S1131BD06F2F7E2F872D982D07E10E944F24822E90
S1131BE0932EA42EB52E2401350100ED400E07E0FE
S1131BF0501E611C711C10ED411617E05106610462
S1131C0071040CF462C1812C912C540119821A8242
S1131C101B821C82E12CF12C87014CC369807A80E1
S1131C208B809C80990C6608762C43016D827E82A1
S1131C308F829886868197813C01812C912CA12CDE
S1131C40B12C65018D8F7E8E8F8E98A2A9A2BAA227
S1131C50CBA2DCA2A980BA80CB80DC80ED80FE2CF4
S1131C600E2D1E2D282F372D40E050E060E070E04F
S1131C7080E090E00E94E523122F3E874D87B52F28
S1131C80F62FE72F782E892EA0E00E948B2484F46F
S1131C9021503F4F4F4F5F4F6F4F7F4F8F4F9F4F9D
S1131CA0122F3E874D87B52FF62FE72F782E892EDA
S1131CB0212F3E854D855B2F6F2F7E2F872D982DED
S1131CC008E00E944F24822E932E742E652EB62F88
S1131CD0A72F582E492EF101A280B3802A2D3B2D27
S1131CE040E050E060E070E080E090E00FE00E94AF
S1131CF03624A22EB32EC42ED52EE62EF72E082F70
S1131D00192F282D392D472D562D6B2F7A2F852DE0
S1131D10942D0E946D242D8B3E8B4F8B588F698F91
S1131D207A8F8B8F9C8F808591853C01812C912C9F
S1131D30A12CB12C65018D8F7E8E8F8E98A2A9A2C5
S1131D40BAA2CBA2DCA2A980BA80CB80DC80ED80D1
S1131D50FE2C0E2D1E2D282F372D40E050E060E084
S1131D6070E080E090E00E94E523122F3E874D87CB
S1131D70B52FF62FE72F782E892EA0E00E948B2412
S1131D805CF4AFE70E947624122F3E874D87B52F6F
S1131D90F62FE72F782E892E212F3E854D855B2F38
S1131DA06F2F7E2F872D982D07E00E944F24822EBF
S1131DB0932E742E652EB62FA72F582E492EF1017F
S1131DC02481358159013B2D40E050E060E070E012
S1131DD080E090E000E10E943624A22EB32EC42EAF
S1131DE0D52EE62EF72E082F192F282D392D472D05
S1131DF0562D6B2F7A2F852D942D0E946D242D87BF
S1131E003E874F87588B698B7A8B8B8B9C8B848511
S1131E1095853C01812C912CA12CB12C65018D8FD1
S1131E207E8E8F8E98A2A9A2BAA2CBA2DCA2A98090
S1131E30BA80CB80DC80ED80FE2C0E2D1E2D282F49
S1131E40372D40E050E060E070E080E090E00E94D8
S1131E50E523122F3DA34D8FB52FF62FE72F782EB4
S1131E60892EA0E00E948B2484F42150310940483B
S1131E705F4F6F4F7F4F8F4F9F4F122F3DA34D8F5B
S1131E80B52FF62FE72F782E892E212F3DA14D8DCA
S1131E905B2F6F2F7E2F872D982D07E10E944F24F3
S1131EA0822E932EA42EB52E2401350100ED400E72
S1131EB007E0501E611C711C10ED411617E051061D
S1131EC0610471040CF4AFC08AC129813A814B8149
S1131ED05C816D81762F862F962F02E00E94362436
S1131EE0A22EB32EC42ED52EE62EF72EE82F192FB0
S1131EF00E9436240E2F0E948224A980BA80CB80AF
S1131F00DC80ED80FE2C0E2D1E2D0E948224E02EFE
S1131F100F2D0E94E523122F3D8F4D83B52FF62FF1
S1131F20E72F8983892EA0E00E948B2484F421501A
S1131F30310941095109684F7F4F8F4F9F4F122F2D
S1131F403D8F4D83B52FF62FE72F8983892E212FBF
S1131F503D8D4D815B2F6F2F7E2F8981982D03E25C
S1131F600E944F24822E932EA42EB52E730162015B
S1131F7020EDC21A27E0D20AE108F108D701C60110
S1131F80880F991FAA1FBB1F880F991FAA1FBB1F69
S1131F90880F991FAA1FBB1F880F991FAA1FBB1F59
S1131FA0880F991FAA1FBB1F9C01AD012C193D0965
S1131FB04E095F09C701B6010E9493238B019C015E
S1131FC0992324F4095F1F4F2F4F3F4FB901A801F4
S1131FD0689412F875956795579547951694D1F7B7
S1131FE049835A836B837C83AFE3B0E0A7019601F6
S1131FF00E94DB239B01AC01C701B6010E9493231D
S11320008B019C01992324F4015E1F4F2F4F3F4FF6
S113201078018901689414F815950795F794E79465
S11320201694D1F747C129813A814B815C816D8136
S1132030762F862F962F01E00E943624A980BA803D
S1132040CB80DC80ED80FE2C0E2D1E2D0E946D2495
S1132050E02E0F2D0E94E523122F3D8F4D83B52FC7
S1132060F62FE72F8983892EA0E00E948B2484F425
S113207021503109410951096E4F7F4F8F4F9F4FB6
S1132080122F3D8F4D83B52FF62FE72F8983892E8D
S1132090212F3D8D4D815B2F6F2F7E2F8981982DB0
S11320A001E20E944F242D833E834F8358875301BE
S11320B0420150ED851A57E0950AA108B108D501EF
S11320C0C401880F991FAA1FBB1F9C01AD01280DD5
S11320D0391D4A1D5B1DC501B4010E9493238B0168
S11320E09C01992324F40F5F1F4F2F4F3F4FC901C9
S11320F0B801959587957795679569837A838B83DE
S11321009C83D501C401880F991FAA1FBB1F880F88
S1132110991FAA1FBB1F9C01AD01280D391D4A1D23
S11321205B1DC501B4010E9493238B019C0199237B
S113213024F4095F1F4F2F4F3F4F780189016894A2
S113214012F815950795F794E7941694D1F771EC66
S1132150471679EF57067FEF670677060CF07FC1C5
S1132160530142018CED880E85E0981EA11CB11C20
S1132170D501C401880F991FAA1FBB1F880F991F7F
S1132180AA1FBB1F880F991FAA1FBB1F9C01AD016B
S1132190281939094A095B09C501B4010E9493232E
S11321A029813A814B815C81260F371F481F591FB3
S11321B029833A834B835C83A5019401220F331F47
S11321C0441F551F220F331F441F551FC501B4015F
S11321D00E949323E60EF71E081F191F40C1298190
S11321E03A814B815C81CA01B9010E9493234B015E
S11321F05C01880C991CAA1CBB1C75016401FF0CB2
S1132200CC08DC2C7601182D9D8EAD82BB2DFC2DC7
S1132210EC2DC9820C2D282D392D4A2D5B2D6C2DCA
S11322207C2D8C2D9C2DA0E00E948B2484F42150C5
S1132230310941095109604E7F4F8F4F9F4F122F33
S11322403D8F4D83B52FF62FE72F8983092F212F3B
S11322503D8D4D815B2F6F2F7E2F8981902F05E25D
S11322600E944F242D833E834F835887C301B201BC
S1132270605D7740810991099B01AC010E94932321
S11322808B019C01992324F4015F1F4F2F4F3F4F73
S113229048015901689413F8B594A79497948794C6
S11322A01694D1F789829A82AB82BC82E12CF12CFC
S11322B08701D5C0D301C20188199909AA09BB09AC
S11322C0F101808F918FA28FB38F80899189A28928
S11322D0B3893C014D01A12CB12C65018D837E8213
S11322E08F829886A986BA86CB86DC862701380138
S11322F0770C4408542C32012D853E854F8558892E
S113230069897A898B899C89AE2CBF2CC02ED12EE9
S1132310E42CF42C042D142D0E948224A22EB32E1E
S1132320C42ED52EE62EF72E082F192F2D813E818F
S1132330482D592D60E070E080E090E00E94E52394
S1132340122F3D874D83B52FF62FE72F782E892E38
S1132350A0E00E948B2484F421503109404E5F4F49
S11323606F4F7F4F8F4F9F4F122F3D874D83B52F58
S1132370F62FE72F782E892E212F3D854D815B2F57
S11323806F2F7E2F872D982D05E10E944F24822EDA
S1132390932E4D875D83B62FA72FF82FE92F498001
S11323A05A806B807C80770C4408542C32012D8930
S11323B03E894F89588D698D7A8D8B8D9C8DA9802E
S11323C0BA80CB80DC80E42CF42C042D142D0E94E4
S11323D08224A22EB32EC42ED52EE62EF72E082F3D
S11323E0192F282D392D4D855D816B2F7A2F8F2F35
S11323F09E2F0E948224122F3D834983B52FF62FEE
S1132400E72F782E892EA0E00E948B2484F421509B
S113241030484F4F5F4F6F4F7F4F8F4F9F4F122F5B
S11324203D834983B52FF62FE72F782E892E212F50
S11324303D8149815B2F6F2F7E2F872D982D0FE0D3
S11324400E944F24D1015C962C935C975D963C933B
S11324505D975E964C935E975F965C93DAC08D8031
S11324609E80AF80B884481859086A087B08D10157
S113247058964D925D926D927C925B9750968D9199
S11324809D910D90BC91A02D3C014D01A12CB12C2E
S113249065018D837E828F829886A986BA86CB86D3
S11324A0DC8627013801770C4408542C32012D892D
S11324B03E894F89588D698D7A8D8B8D9C8DAE2C7C
S11324C0BF2CC02ED12EE42CF42C042D142D0E94EC
S11324D08224A22EB32EC42ED52EE62EF72E082F3C
S11324E0192F2D813E81482D592D60E070E080E048
S11324F090E00E94E523122F3D8B4D83B52FF62FDC
S1132500E72F582E692EA0E00E948B2484F42150DA
S11325103109404E5F4F6F4F7F4F8F4F9F4F122FA8
S11325203D8B4D83B52FF62FE72F582E692E212F83
S11325303D894D815B2F6F2F7E2F852D962D05E1D3
S11325400E944F24822E932E4D8B5D83B62FA72F8E
S1132550F82FE92F49805A806B807C80770C4408DF
S1132560542C32012D853E854F85588969897A8995
S11325708B899C89A980BA80CB80DC80E42CF42CE4
S1132580042D142D0E948224A22EB32EC42ED52EE7
S1132590E62EF72E082F192F282D392D4D895D8110
S11325A06B2F7A2F8F2F9E2F0E948224922EA32E80
S11325B0B42EC52ED62EE72E782E892EA0E00E94AA
S11325C08B2484F42150304E4F4F5F4F6F4F7F4F19
S11325D08F4F9F4F922EA32EB42EC52ED62EE72EAC
S11325E0782E892E292D3A2D4B2D5C2D6D2D7E2D87
S11325F0872D982D0DE00E944F24D1015C962C93D9
S11326005C975D963C935D975E964C935E975F9660
S11326105C93A5960FB6F894DEBF0FBECDBFDF91D5
S1132620CF911F910F91FF90EF90DF90CF90BF90CB
S1132630AF909F908F907F906F905F904F903F905E
S11326402F900895CF92DF92EF92FF926A017B015F
S1132650FC0120A1213089F4648D758D868D978DC0
S11326600E947822A70196010E942C2320E030E0EA
S113267048EC52E40E94E22111C0FC01648D758D86
S1132680868D978D0E947822A70196010E942C23A3
S113269020E030E040E251E40E94E221FF90EF901C
S11326A0DF90CF900895CF93DF93EB0188819981D8
S11326B09F70998388831F861E8640E050E080E0E7
S11326C090E040FF07C0FA01EE7FEC0FFD1F208170
S11326D082271DC0FA01EE7FEC0FFD1FA181B0E03F
S11326E08A279B2714C099232CF4880F991F30E361
S11326F0932702C0880F991F2150A9F74F5F5F4F9E
S113270040315105F1F6892F82958F7002C028E07F
S1132710EACFDF91CF910895CF92DF92EF92FF92AB
S11327200F931F93CF93DF936C0185EA97E00E9488
S1132730731D40E050E060E271E48BE297E0DFD586
S113274066E770E085EA97E00E948D1DE091A50799
S1132750F091A6070190F081E02D6EE185EA97E003
S1132760199585EA97E00E940C1E61E08BE297E0E0
S113277033D68BE297E03ED67601C0EA66E770E096
S113278085EA97E00E948D1DE091A507F091A607C8
S11327900190F081E02D6C2F85EA97E0199585EA88
S11327A097E00E940C1E42E050E066E770E085EA84
S11327B097E00E94091E85EA97E00E94BE1CD82F6C
S11327C085EA97E00E94BE1C1D2F00E0802B912B10
S11327D0F701819391937F01CE5FCE3A79F6F601AA
S11327E0C181C295CF70B601C6015DDF91E0C81307
S11327F090E0892FDF91CF911F910F91FF90EF907F
S1132800DF90CF9008958F929F92AF92BF92CF9214
S1132810DF92EF92FF920F931F93CF93DF93EC011C
S113282066E770E085EA97E00E948D1D05EA17E0EF
S1132830D801ED91FC910190F081E02D6AE4C8018A
S11328401995C8010E940C1E62E08BE297E0C4D582
S11328508BE297E0CFD566E770E0C8010E948D1D3A
S1132860D801ED91FC910190F081E02D60E0C80168
S11328701995C8010E940C1E43E050E066E770E021
S1132880C8010E94091E188A198A1A8A1B8AC8015B
S11328900E94BE1C4C01990FAA08BB08888A998A19
S11328A0AA8ABB8AC8010E94BE1CBA2CA92C982CE7
S11328B088246C01990FEE08FF08C828D928EA2853
S11328C0FB28C88AD98AEA8AFB8AC8010E94BE1CEE
S11328D0FE2CED2CDC2CCC24092E000CAA0BBB0BFB
S11328E0C82AD92AEA2AFB2AC88AD98AEA8AFB8A08
S11328F066E770E0C8010E948D1DD801ED91FC913E
S11329000190F081E02D6AE5C8011995C8010E9483
S11329100C1E62E08BE297E05FD58BE297E06AD50C
S113292066E770E0C8010E948D1DD801ED91FC910D
S11329300190F081E02D60E0C8011995C8010E9462
S11329400C1E43E050E066E770E0C8010E94091ED7
S11329501C8A1D8A1E8A1F8AC8010E94BE1C4C0143
S1132960990FAA08BB088C8A9D8AAE8ABF8AC801BF
S11329700E94BE1CBA2CA92C982C88246C01990F97
S1132980EE08FF08C828D928EA28FB28CC8ADD8A63
S1132990EE8AFF8AC801F2D7FE2CED2CDC2CCC2465
S11329A0092E000CAA0BBB0BC82AD92AEA2AFB2A37
S11329B0CC8ADD8AEE8AFF8ACE010E947D0CDF91EB
S11329C0CF911F910F91FF90EF90DF90CF90BF9028
S11329D0AF909F908F900895FC0160830895FCCF81
S11329E00895FC0197852089892F90E0805C9F4F92
S11329F0821B91098F7399270895FC01978580891B
S1132A00981731F08089E80FF11D838990E00895CB
S1132A108FEF9FEF0895FC0197858089981761F0E7
S1132A208089DF01A80FB11D53968C9190899F5F17
S1132A309F73908B90E008958FEF9FEF0895FC01B2
S1132A4021893289231738F08FE390E0821B9109A2
S1132A50830F911D0895832F90E0821B91090197A4
S1132A600895FC018289DF01A80FB11DAD5ABF4F43
S1132A708C91228930E02F5F3F4F2F7330783323BE
S1132A8034F421503109206C3F6F2F5F3F4F228B6C
S1132A90A485B5858C93A681B7818C91837080645D
S1132AA08C9391898289981306C00084F185E02D66
S1132AB080818F7D80830895CF93DF93EC018E8591
S1132AC08823D1F0E885F985808185FD05C0AE8134
S1132AD0BF818C9186FD10C00FB607FCF5CF8081B5
S1132AE085FFF2CF03C0CE01BCDFECCFAE81BF8146
S1132AF08C9185FFE9CFF7CFDF91CF9108950F93A4
S1132B001F93CF93DF93EC0181E08E8799898A89A3
S1132B10981325C0EE81FF81808185FD31C01FC0DF
S1132B208A8918130BC00FB607FCFACFEE81FF8118
S1132B30808185FFF5CFCE0194DFF2CF8989FE0134
S1132B40E80FF11DED5AFF4F00839FB7F894198BDE
S1132B50E885F9858081806280839FBF1DC02989B3
S1132B6030E02F5F3F4F2F733078332334F42150FC
S1132B703109206C3F6F2F5F3F4F062F122FD0CFAC
S1132B809FB7F894EC85FD856083EE81FF81808199
S1132B908370806480839FBF81E090E0DF91CF9158
S1132BA01F910F910895CF92DF92EF92FF921F939E
S1132BB0CF93DF93EC016A017B01122FEE81FF8139
S1132BC082E080834115514E61057105B1F060E0EA
S1132BD079E08DE390E0A70196010E94A223DA0137
S1132BE0C9010197A109B109B695A795979587954C
S1132BF09C01211580E13807A8F0EE81FF81108245
S1132C0060E874E88EE190E0A70196010E94A22397
S1132C10DA01C9010197A109B109B695A79597955C
S1132C2087959C01EA81FB813083EC81FD812083BF
S1132C301E86EA85FB851083E885F985808180619D
S1132C408083E885F985808188608083E885F985BB
S1132C50808180688083E885F98580818F7D808389
S1132C60DF91CF911F91FF90EF90DF90CF90089567
S1132C7080E090E008951F920F920FB60F921124F6
S1132C800BB60F922F938F939F93AF93BF93EF93B2
S1132C90FF93E091E505F091E605808182FD14C083
S1132CA0EFEDF5E0A485B5852C9187858F5F8F7056
S1132CB09089891771F0DF01E785F0E0E152FA4F5E
S1132CC0238B1F968C9305C0E091EB05F091EC05E6
S1132CD08081FF91EF91BF91AF919F918F912F913F
S1132CE00F900BBE0F900FBE0F901F9018951F9260
S1132CF00F920FB60F9211240BB60F922F933F939E
S1132D004F935F936F937F938F939F93AF93BF93EF
S1132D10EF93FF938FED95E0A4DEFF91EF91BF91C8
S1132D20AF919F918F917F916F915F914F913F915F
S1132D302F910F900BBE0F900FBE0F901F90189500
S1132D40EFEDF5E083E093E09183808385EC90E000
S1132D509383828384EC90E09583848380EC90E079
S1132D609783868381EC90E09187808782EC90E062
S1132D709387828786EC90E0958784871786108AEC
S1132D80118A128A08951F920F920FB60F9211247E
S1132D900BB60F922F938F939F93AF93BF93EF93A1
S1132DA0FF93E0911806F0911906808182FD14C00A
S1132DB0E2E1F6E0A485B5852C9187858F5F8F705D
S1132DC09089891771F0DF01E785F0E0EE5EF94F35
S1132DD0238B1F968C9305C0E0911E06F0911F066D
S1132DE08081FF91EF91BF91AF919F918F912F912E
S1132DF00F900BBE0F900FBE0F901F9018951F924F
S1132E000F920FB60F9211240BB60F922F933F938C
S1132E104F935F936F937F938F939F93AF93BF93DE
S1132E20EF93FF9382E196E01CDEFF91EF91BF9157
S1132E30AF919F918F917F916F915F914F913F914E
S1132E402F910F900BBE0F900FBE0F901F901895EF
S1132E50E2E1F6E083E093E0918380838DEC90E0FF
S1132E60938382838CEC90E09583848388EC90E058
S1132E709783868389EC90E0918780878AEC90E041
S1132E80938782878EEC90E0958784871786108AD3
S1132E90118A128A08951F920F920FB60F9211246D
S1132EA00BB60F922F938F939F93AF93BF93EF9390
S1132EB0FF93E0914B06F0914C06808182FD14C093
S1132EC0E5E4F6E0A485B5852C9187858F5F8F7046
S1132ED09089891771F0DF01E785F0E0EB5BF94F2A
S1132EE0238B1F968C9305C0E0915106F0915206F6
S1132EF08081FF91EF91BF91AF919F918F912F911D
S1132F000F900BBE0F900FBE0F901F9018951F923D
S1132F100F920FB60F9211240BB60F922F933F937B
S1132F204F935F936F937F938F939F93AF93BF93CD
S1132F30EF93FF9385E496E094DDFF91EF91BF91C9
S1132F40AF919F918F917F916F915F914F913F913D
S1132F502F910F900BBE0F900FBE0F901F901895DE
S1132F60E5E4F6E083E093E09183808385ED90E0EF
S1132F709383828384ED90E09583848380ED90E055
S1132F809783868381ED90E09187808782ED90E03E
S1132F909387828786ED90E0958784871786108AC9
S1132FA0118A128A08951F920F920FB60F9211245C
S1132FB00BB60F922F938F939F93AF93BF93EF937F
S1132FC0FF93E0917E06F0917F06808182FD14C01C
S1132FD0E8E7F6E0A485B5852C9187858F5F8F702F
S1132FE09089891771F0DF01E785F0E0E858F94F1F
S1132FF0238B1F968C9305C0E0918406F09185067F
S11330008081FF91EF91BF91AF919F918F912F910B
S11330100F900BBE0F900FBE0F901F9018951F922C
S11330200F920FB60F9211240BB60F922F933F936A
S11330304F935F936F937F938F939F93AF93BF93BC
S1133040EF93FF9388E796E00CDDFF91EF91BF913A
S1133050AF919F918F917F916F915F914F913F912C
S11330602F910F900BBE0F900FBE0F901F901895CD
S1133070E8E7F6E083E093E09183808385E391E0E1
S11330809383828384E391E09583848380E391E056
S11330909783868381E391E09187808782E391E03F
S11330A09387828786E391E0958784871786108AC1
S11330B0118A128A0895E2E0F7E086E890E09183AD
S11330C0808380E890E09383828381E890E0958315
S11330D0848388E890E0978386838AE890E09187E8
S11330E080878CE890E09387828784E290E09587DC
S11330F0848740E2468780E4878780E8808B28EED7
S113310033E0328B218B348B238B368B258B80EDF4
S113311097E0908F878B928F818F948F838FE5EECA
S1133120F6E066E970E07183608360E970E07383C0
S1133130628361E970E07583648368E970E0778392
S113314066836AE970E0718760876CE970E0738771
S113315062876DE270E07587648768E0668750E196
S11331605787408B328B218B348B238B368B258B6B
S1133170908F878B928F818F948F838FE8ECF6E00A
S1133180A6EAB0E0B183A083A0EAB0E0B383A2834F
S1133190A1EAB0E0B583A483A8EAB0E0B783A6832C
S11331A0AAEAB0E0B187A087ACEAB0E0B387A2870F
S11331B0A1E0B1E0B587A48766875787408B328B3F
S11331C0218B348B238B368B258B908F878B928F1F
S11331D0818F948F838FEBEAF6E0A6E2B1E0B183AE
S11331E0A083A0E2B1E0B383A283A1E2B1E0B583FE
S11331F0A483A8E2B1E0B783A683AAE2B1E0B187D1
S1133200A087ACE2B1E0B387A287AAE0B1E0B587BA
S1133210A48766875787408B328B218B348B238B13
S1133220368B258B908F878B928F818F948F838F92
S11332300895CF92DF92EF92FF92CF93DF93EC0148
S1133240CB01BA0120E030E04AE756E40E942C2387
S113325020E030E040E85BE30E942C236B017C011A
S113326020E030E040E85FE30E94DE2118163CF0E5
S113327081E08A8760E070E080E89FE339C020E065
S113328030E040E051E4C701B6010E94DE21181687
S11332903CF082E08A8760E070E080E091E428C03E
S11332A020E030E040E852E4C701B6010E94DE218C
S11332B018163CF083E08A8760E070E080E892E4CE
S11332C017C020E030E040E853E4C701B6010E9493
S11332D0DE2118163CF084E08A8760E070E080E824
S11332E093E406C085E08A8760E070E080E894E4B7
S11332F0DF91CF91FF90EF90DF90CF9008958F9260
S11333009F92AF92BF92CF92DF92EF92FF92CF93B0
S1133310DF93EC016A017B01E881F98182E080831B
S1133320EA81FB811082EC81FD8180837894CE0157
S113333080DF4B015C0120E034E244E75BE4C70139
S1133340B6010E942C236B017C0120E030E04AE7A7
S113335054E4C501B4010E942C239B01AC01C701B4
S1133360B6010E94E22120E030E040E85FE3C1D7EB
S11333706B017C0120E030E04FE753E40E942823F6
S113338018162CF4E885F9858FEF80831AC020E0A5
S113339030E0A901C701B6010E94DE21882324F48C
S11333A0E885F98510820DC00884D985C02D20E0F8
S11333B030E040E05FE3C701B6019CD70E944A2297
S11333C06883DF91CF91FF90EF90DF90CF90BF9013
S11333D0AF909F908F900895FC01A281B3811C92BD
S11333E06387A681B7811C920280F381E02D85E07A
S11333F080830895FC0193859111FDCF0895FC010C
S11334008385882319F083858150838708951F92CB
S11334100F920FB60F9211240BB60F922F933F9376
S11334204F935F936F937F938F939F93AF93BF93C8
S1133430EF93FF938BE297E0E2DFFF91EF91BF916F
S1133440AF919F918F917F916F915F914F913F9138
S11334502F910F900BBE0F900FBE0F901F901895D9
S11334601F920F920FB60F9211240BB60F922F9347
S11334703F934F935F936F937F938F939F93AF93F8
S1133480BF93EF93FF938FE197E0B9DFFF91EF9143
S1133490BF91AF919F918F917F916F915F914F9168
S11334A03F912F910F900BBE0F900FBE0F901F9066
S11334B01895EBE2F7E084E490E09183808385E45F
S11334C090E0938382838EE690E09583848386E400
S11334D090E09783868387E490E091878087EFE18B
S11334E0F7E080EB90E09183808381EB90E093831D
S11334F0828380E790E09583848382EB90E09783D6
S1133500868383EB90E09187808708951092A407C7
S113351081E08093A2071092A1078BB183608BB9DD
S1133520E9EBF0E080818E7F808380818D7F8083D2
S113353088E48093B80085E48093BC000895413208
S113354008F04CC09091A4079111FCCF31E0309366
S1133550A4072093A2072FEF2093370710927C072C
S1133560240F20937B073093A3072091A307880F90
S1133570822B8093A3078091A107813081F410925C
S1133580A107ABEBB0E0ECEBF0E08091A3078C93E8
S1133590808183FDFACF85EC8093BC0003C085EE67
S11335A08093BC008091A4078130E1F380917C0773
S11335B0841710F440917C07442389F0EDE7F7E089
S11335C0A62FB72F2FEF240F30E02258384F8191C8
S11335D08D93E217F307D9F7942F01C090E0892F58
S11335E008950F93413208F057C03091A407311168
S11335F0FCCF92E09093A4070093A2079FEF9093CF
S1133600370710927C0740937B07442371F0FB013A
S1133610ADE7B7E0415050E04F5F5F4F640F751F57
S113362091919D93E617F707D9F71092A30790910C
S1133630A307880F892B8093A3078091A10781306A
S113364081F41092A107ABEBB0E0ECEBF0E08091D9
S1133650A3078C93808183FDFACF85EC8093BC0013
S113366003C085EE8093BC00222341F08091A4071F
S1133670823021F48091A4078230E1F380913707EE
S11336808F3F79F080913707803241F0809137077E
S1133690803331F034E005C031E003C032E001C0D2
S11336A033E0832F0F91089540915907262F30E07E
S11336B0240F311D21323105ECF42091A40724306C
S11336C0D9F4662381F0A82FB92F80E090E03091DF
S11336D059072D91FC01E55AF84FE30FF11D2083A2
S11336E001968617A0F380915907680F60935907D4
S11336F080E0089581E0089582E0089590939E0704
S113370080939D0708959093A00780939F07089541
S113371085ED8093BC00ECEBF0E0808184FDFDCF6F
S11337201092A407089585EC8093BC001092A4071E
S113373008951F920F920FB60F9211240BB60F9299
S11337402F933F934F935F936F937F938F939F93A5
S1133750AF93BF93EF93FF938091B900887F90E07C
S1133760893C910508F0EFC0FC018827EE58FF4F13
S11337708F4F0C94C4238091A3078093BB0085ECE6
S11337808093BC00E0C090917C0780917B079817E0
S113379080F4E0917C0781E08E0F80937C07F0E059
S11337A0E358F84F80818093BB0085EC8093BC0084
S11337B0CAC08091A207882311F0AADFC4C081E0A7
S11337C08093A10784EA8093BC001092A407BBC035
S11337D080E2809337079CDFB6C080E3809337078D
S11337E097DFB1C088E3809337079DDFACC0E091D9
S11337F07C0781E08E0F80937C078091BB00F0E012
S1133800E358F84F808390917C0780917B07981749
S113381020F485EC8093BC0096C085E88093BC00BE
S113382092C0E0917C0781E08E0F80937C078091A9
S1133830BB00F0E0E358F84F80838091A20788230F
S113384011F066DF80C081E08093A10784EA809351
S1133850BC001092A40777C05BDF75C083E080933F
S1133860A4071092380785EC8093BC006CC080914B
S11338703807803280F4E091380781E08E0F80931E
S113388038078091BB00F0E0E75CF84F808385EC5B
S11338908093BC0058C085E88093BC0054C043DFCB
S11338A080913807803230F4E0913807F0E0E75C2B
S11338B0F84F10826091380770E0E0919D07F09115
S11338C09E0789E397E01995109238073CC085E874
S11338D08093BC0038C084E08093A40710925A07F8
S11338E010925907E0919F07F091A00719958091D4
S11338F05907811105C081E08093590710925B0735
S1133900E0915A0781E08E0F80935A07F0E0E55A60
S1133910F84F80818093BB0090915A07809159079A
S1133920981720F485EC8093BC000DC085E8809343
S1133930BC0009C085EC8093BC001092A40703C0AE
S113394010923707E5DEFF91EF91BF91AF919F9100
S11339508F917F916F915F914F913F912F910F9034
S11339600BBE0F900FBE0F901F9018958091CF073C
S113397090E02091D007821B910908959091D0077F
S11339808091CF07981750F4E92FF0E0EF52F84FE9
S1133990208130E09F5F9093D00702C02FEF3FEF6C
S11339A0C9010895E091D0078091CF07E81730F45A
S11339B0F0E0EF52F84F808190E008958FEF9FEF91
S11339C008950895CF93DF93EC01E091A707F09158
S11339D0A807309701F19091D0078091CF079817ED
S11339E0D0F0161617068CF420E030E090E0DE01EB
S11339F0A90FB11D4C91D901AF52B84F4C939F5FA1
S1133A00292F30E02617370794F3CB011092D00703
S1133A106093CF071995DF91CF910895E091A9079D
S1133A20F091AA07309729F01092AD071092AC07D5
S1133A3019950895CF93DF931F92CDB7DEB76983AD
S1133A408091AB07882399F08091AC078032B0F461
S1133A508091AD07E82FF0E0E255F84F60838F5F67
S1133A608093AD078093AC0781E090E009C061E0EA
S1133A70CE01019619DE81E090E002C080E090E082
S1133A800F90DF91CF910895CF92DF92EF92FF9242
S1133A900F931F93CF93DF938C01CB016A01209185
S1133AA0AB072223A1F04115510599F0EB017B01ED
S1133AB0E40EF51E6991D801ED91FC910190F0811D
S1133AC0E02DC8011995CE15DF05A1F702C0642FBA
S1133AD0EBDDC601DF91CF911F910F91FF90EF9025
S1133AE0DF90CF9008951092D0071092CF071092D4
S1133AF0AD071092AC070ADD8EE09DE104DE82EE94
S1133B009CE1FCCD089581E08093AB076093CE07E0
S1133B101092AD071092AC070895F5CF08950F9356
S1133B20062F21E04091AC076EEA77E08091CE0742
S1133B3058DD1092AD071092AC071092AB070F91AD
S1133B4008954F925F926F927F92AF92BF92CF92FD
S1133B50EF92FF920F931F93CF93DF935C01F62EA6
S1133B60D42F28013901EE2039F1CDDF8E2D843098
S1133B7008F083E0CFEFC80F8823D9F08C2F880F8B
S1133B80880F880FA301920104C056954795379575
S1133B9027958A95D2F7CA01B901D501ED91FC9117
S1133BA00190F081E02DC50119958C2FC150811130
S1133BB0E5CF60E0C501B3DF4D2FD13208F040E21C
S1133BC02C2D61ED77E08F2DBADC1092D007809315
S1133BD0CF07DF91CF911F910F91FF90EF90CF907E
S1133BE0BF90AF907F906F905F904F900895CF9269
S1133BF0EF920F931F93C22EE12C00E010E0980186
S1133C00A0DF1F910F91EF90CF90089521E0EFCFA7
S1133C10089521E0ECCF089561E081CF089585E116
S1133C2093E09093A6078093A507089521110DC0F2
S1133C3040910002509101024D5F5F4FDC01ED9114
S1133C40FC910680F781E02D199508950895DC0113
S1133C5012962C91129726131AC01496ED91FC918A
S1133C601597608113963C91362361E009F460E076
S1133C70FA01DC0116968C9186278083E09100027C
S1133C80F0910102228362E083E00C94A40B089576
S1133C9090E0FC01EE0FFF1FE95FF74F20813181B7
S1133CA0232B49F4880F991FFC01E95FF74F7183B7
S1133CB0608381E0089580E00895BC01FC01828165
S1133CC0E7CF08956623D1F0FC013081E32FF0E0C3
S1133CD0EE0FFF1FE95FF74FA081B181109771F0DC
S1133CE0262FAC0121504F5F5F4FED91FC9111974E
S1133CF00280F381E02D632FCD0119950895E0E052
S1133D00F8E087E293E091838083128282E08383E8
S1133D1081E390E09583848381E086838198899A06
S1133D20BF0180E0B5DF42E061E081EF97E0D6C0FB
S1133D300895E7E0F8E087E09AE011921192E8171D
S1133D40F907D9F760E078E080910208A1DF81EFFC
S1133D5097E00DD081E00895609100027091010216
S1133D606D5F7F4F81EF97E001C008950895CF9371
S1133D70DF93EC01BC018D858BDF882351F0BE01FC
S1133D808E8586DF882329F06CE0CE0102960E949E
S1133D903D02DF91CF910895EF92FF920F931F930D
S1133DA0CF93DF93CDB7DEB768970FB6F894DEBF35
S1133DB00FBECDBFF62E8A01DC011D96EC90E612F3
S1133DC00FC002960E94AA02F8018083E0910002CB
S1133DD0F0910102E28262E083E00E94A40B71C0D0
S1133DE0DC011E962C9162136CC0BC016E5F7F4F88
S1133DF048E0CE0101960E940003FE013196A7E03F
S1133E00BAE0CE010D9641915191619171914D931A
S1133E105D936D937D93E817F907A9F7E7E0FAE05E
S1133E202081518142813381822F952FA42FB32F7A
S1133E308D879E87AF87B88BD8012C938E8511967A
S1133E408C9311978F8512968C9312978889139669
S1133E508C932481558146813781822F952FA42FFD
S1133E60B32F898B9A8BAB8BBC8BD80114962C9374
S1133E7014978A8915968C9315978B8916968C932B
S1133E8016978C8917968C932085518542853385A6
S1133E90822F952FA42FB32F8D8B9E8BAF8BB88F32
S1133EA0F80120878E8981878F898287888D83870F
S1133EB0E0910002F0910102F2826DE083E00E9441
S1133EC0A40B68960FB6F894DEBF0FBECDBFDF918A
S1133ED0CF911F910F91FF90EF900895EF92FF9271
S1133EE00F931F93CF93DF93EC01E62EF42E23E37D
S1133EF033E0FC0121933193CF0105EA17E028E276
S1133F0047E350E060E070E00E94C801ED86FE8661
S1133F10DF91CF911F910F91FF90EF9008958CE066
S1133F20E7E0FAE0DF011D928A95E9F708950F931F
S1133F301F9305EA17E028E247E350E060E070E0F1
S1133F4083E19AE00E94C8011F910F910895CF92D6
S1133F50DF92EF92FF920F931F93CF93DF9341155C
S1133F605105C1F06A018C01E62EF72EC0E0D0E0C5
S1133F70D7016D917D01D801ED91FC910190F08103
S1133F80E02DC8011995892B39F02196CC16DD0650
S1133F9079F702C0C0E0D0E0CE01DF91CF911F914C
S1133FA00F91FF90EF90DF90CF9008956115710508
S1133FB081F0FB0101900020E9F73197AF01461B26
S1133FC0570BDC01ED91FC910280F381E02D1995F2
S1133FD0089580E090E00895DC01ED91FC9101905A
S1133FE0F081E02D19950895DC01ED91FC9102809A
S1133FF0F381E02D42E050E06BE373E019950895FE
S11340000F931F93CF93DF93EC01D0DF8C01CE018C
S1134010EBDF800F911FDF91CF911F910F910895D6
S11340208F929F92AF92BF92EF92FF920F931F9342
S1134030CF93DF93CDB7DEB7A1970FB6F894DEBF69
S11340400FBECDBF7C01CB01BA0119A2223008F406
S11340502AE08E010F5D1F4F822E912CA12CB12CD2
S1134060A50194016FD3E62F622F732F842F952F10
S113407001501109EA3010F4E05D01C0E95CD80197
S1134080EC93611571058105910551F70115110531
S113409091F0F80101900020E9F73197AF01401B3E
S11340A0510BD701ED91FC910280F381E02DB80111
S11340B0C701199501C080E0A1960FB6F894DEBF40
S11340C00FBECDBFDF91CF911F910F91FF90EF9065
S11340D0BF90AF909F908F9008952115310549F4BA
S11340E0DC01ED91FC910190F081E02D642F199594
S11340F0089596DF90E008959A01AB0160E070E0C6
S1134100ECCF08957F928F929F92AF92BF92CF92FD
S1134110DF92EF92FF920F931F93CF93DF9300D020
S11341201F92CDB7DEB78C014A015B01722E9A0152
S1134130AB01C501B401F3D2882329F06EE373E027
S1134140C80134DFC1C075016401E894F7F82FEFAA
S11341503FEF4FE75FE7C701B601E1D281110EC01F
S11341602FEF3FEF4FE75FE7C701B60127D11816DE
S11341702CF462E473E0C80119DFA6C02FEF3FEF0F
S11341804FE75FE4C501B40163D218162CF466E46A
S113419073E0C8010BDF98C02FEF3FEF4FE75FECF0
S11341A0C501B4010BD188232CF466E473E0C80183
S11341B0FDDE8AC020E030E0A901C501B401FED0D3
S11341C088234CF46DE2C80107DF7C01B7FAB09490
S11341D0B7F8B09402C0E12CF12C772009F461C047
S11341E0198260E070E080E09FE320E030E040E28C
S11341F051E4E8D029812F5F29837212F6CF26C0BB
S113420020E030E040E251E4C501B40125D24B0185
S11342105C0140D16B017C014AE050E0C8016CDFD5
S113422029813A81280F391F3A832983B60180E016
S113423090E05CD19B01AC01C501B4015AD04B01A3
S11342405C017A947110DCCF89813EC09B01AC0182
S1134250C501B4014FD04B015C011CD169837A8341
S11342608B839C8343D19B01AC01C501B40141D034
S11342704B015C012AE030E049815A816B817C81E9
S1134280C8012BDF9A8389836EE2C801A5DE2981E8
S11342903A81820F931F9C012E0D3F1D3A8329837F
S11342A0AFCF20E030E040E05FE3C501B40122D0AD
S11342B0F1D0AB01BC012AE030E0C8010EDF8E0D65
S11342C09F1D9A838983C0CF0F900F900F900F90FA
S11342D0DF91CF911F910F91FF90EF90DF90CF90DE
S11342E0BF90AF909F908F907F9008950BDF90E0E8
S11342F008955058BB27AA270ED070C161D130F061
S113430066D120F031F49F3F11F41EF456C10EF42F
S1134310E095E7FB4CC1E92F72D180F3BA1762072D
S113432073078407950718F071F49EF58AC10EF49B
S1134330E0950B2EBA2FA02D0B01B90190010C01B1
S1134340CA01A0011124FF27591B99F0593F50F4C9
S1134350503E68F11A16F040A22F232F342F442721
S1134360585FF3CF469537952795A795F040539519
S1134370C9F77EF41F16BA0B620B730B840BBAF0E9
S11343809150A1F0FF0FBB1F661F771F881FC2F754
S11343900EC0BA0F621F731F841F48F48795779568
S11343A06795B795F7959E3F08F0B3CF9395880F1F
S11343B008F09927EE0F979587950895D4D008F4BF
S11343C081E008950CD00AC102D140F0F9D030F058
S11343D021F45F3F19F0EBC0511134C1EEC00FD18D
S11343E098F39923C9F35523B1F3951B550BBB27B8
S11343F0AA2762177307840738F09F5F5F4F220F65
S1134400331F441FAA1FA9F333D00E2E3AF0E0E85D
S113441030D091505040E695001CCAF729D0FE2FA9
S113442027D0660F771F881FBB1F2617370748073B
S1134430AB07B0E809F0BB0B802DBF01FF279358F1
S11344405F4F2AF09E3F510568F0B1C0FBC05F3F4B
S1134450ECF3983EDCF3869577956795B795F795D9
S11344609F5FC9F7880F911D9695879597F90895D1
S1134470E1E0660F771F881FBB1F6217730784076D
S1134480BA0720F0621B730B840BBA0BEE1F88F77C
S1134490E0950895BCD088F09F5790F0B92F9927E4
S11344A0B751A0F0D1F0660F771F881F991F1AF03B
S11344B0BA95C9F712C0B13081F0C3D0B1E0089504
S11344C0C0C0672F782F8827B85F39F0B93FCCF385
S11344D0869577956795B395D9F73EF49095809531
S11344E0709561957F4F8F4F9F4F0895E89409C051
S11344F097FB3EF490958095709561957F4F8F4F13
S11345009F4F9923A9F0F92F96E9BB279395F69528
S1134510879577956795B795F111F8CFFAF4BB0FA6
S113452011F460FF1BC06F5F7F4F8F4F9F4F16C00A
S1134530882311F096E911C0772321F09EE8872F94
S1134540762F05C0662371F096E8862F70E060E050
S11345502AF09A95660F771F881FDAF7880F9695C9
S1134560879597F90895990F0008550FAA0BE0E86D
S1134570FEEF16161706E807F907C0F01216130621
S1134580E407F50798F0621B730B840B950B39F461
S11345900A2661F0232B242B252B21F408950A26C7
S11345A009F4A140A6958FEF811D811D089597F907
S11345B09F6780E870E060E008959FEF80EC0895C5
S11345C000240A94161617061806090608950024EE
S11345D00A9412161306140605060895092E039468
S11345E0000C11F4882352F0BB0F40F4BF2B11F4DC
S11345F060FF04C06F5F7F4F8F4F9F4F089557FD3B
S11346009058440F551F59F05F3F71F04795880F3C
S113461097FB991F61F09F3F79F0879508951216D3
S113462013061406551FF2CF4695F1DF08C016167F
S113463017061806991FF1CF869571056105089430
S11346400895E894BB2766277727CB0197F9089547
S11346508ADF08F48FEF08950BD0C0CFB1DF28F0C4
S1134660B6DF18F0952309F0A2CFA7CF1124EACF23
S1134670C6DFA0F3959FD1F3950F50E0551F629FBD
S1134680F001729FBB27F00DB11D639FAA27F00DA7
S1134690B11DAA1F649F6627B00DA11D661F829FCE
S11346A02227B00DA11D621F739FB00DA11D621FB3
S11346B0839FA00D611D221F749F3327A00D611DD0
S11346C0231F849F600D211D822F762F6A2F1124B2
S11346D09F5750408AF0E1F088234AF0EE0FFF1F05
S11346E0BB1F661F771F881F91505040A9F79E3F3C
S11346F0510570F05CCFA6CF5F3FECF3983EDCF33E
S1134700869577956795B795F795E7959F5FC1F778
S1134710FE2B880F911D9695879597F9089523DFB1
S1134720880B990B0895DB018F939F9344D0BF911D
S1134730AF91A29F800D911DA39F900DB29F900DEC
S113474011240895A1E21A2EAA1BBB1BFD010DC062
S1134750AA1FBB1FEE1FFF1FA217B307E407F5072D
S113476020F0A21BB30BE40BF50B661F771F881F09
S1134770991F1A9469F760957095809590959B019F
S1134780AC01BD01CF010895EE0FFF1F881F8BBF41
S11347900790F691E02D1994A29FB001B39FC00138
S11347A0A39F700D811D1124911DB29F700D811D59
S11347B01124911D0895F0DFA59F900DB49F900DD5
S11347C0A49F800D911D11240895DF93CF931F930F
S11347D00F939A9DF02D219FF00D8B9DF00D8A9DD6
S11347E0E02DF10D039FF00D029FE00DF11D4E9D94
S11347F0E00DF11D5E9DF00D4F9DF00D7F936F93C5
S1134800BF92AF925F934F93D501C6DF8B01AC018A
S1134810D701C2DFEB01E80FF91FD6011FD02F919A
S11348203F91D601B9DFC60FD71FE81FF91FAF911B
S1134830BF9114D02F913F91AFDFC60FD71FE81F50
S1134840F91FD601A9DFE60FF71F9801BE01CF01BA
S113485011240F911F91CF91DF9108959DDF460F91
S1134860571FC81FD91F08F4319608950F930830B5
S113487090F0982F872F762F652F542F432F322FA8
S113488022270850F4CF220F331F441F551F661FE1
S1134890771F881F991F0A95B2F70F91089597FB08
S11348A010F8169400080F93083098F00850232F3E
S11348B0342F452F562F672F782F892F902DF4CF23
S11348C00594979587957795679557954795379567
S11348D027950A95AAF70F9108952A0D3B1D4C1DA3
S11348E05D1D6E1D7F1D801F911F08950024A7FD6F
S11348F000942A0F301D401D501D601D701D801D29
S1134900901D08952A193B094C095D096E097F0918
S1134910800B910B08950024A7FD00942A173005FD
S11349204005500560057005800590050895FB015C
S1134930DC0102C005900D9241505040D8F7089513
S1134940FB01DC0104C08D910190801921F44150D8
S11349505040C8F7881B990B0895FB01DC014150B6
S1134960504048F001900D920020C9F701C01D92FB
S10F497041505040E0F70895F894FFCF48
S113497C7F03FFFFFFFF7069692D3031C0A8B201BE
S113498CA9FEF09D424E4F303535000000000082E8
S113499C0196048301FFFFFFFFFFFF0A496E697450
S11349AC69616C697A696E672E2E2E004661696C9A
S11349BC656420746F20696E697469616C697A65C9
S11349CC20726F626F742E00526F626F7420696E66
S11349DC697469616C697A65642E004661696C65F9
S11349EC6420746F20696E697469616C697A6520DE
S11349FC70726573737572652073656E736F722E46
S1134A0C00496E697469616C697A656420707265B9
S1134A1C73737572652073656E736F722E004661C5
S1134A2C696C656420746F206163636573732045DE
S1134A3C746865726E657420636F6E74726F6C6CDF
S1134A4C65722E00436F6E6E656374656420746FBB
S1134A5C20636F6E74726F6C6C65722E005072658D
S1134A6C73737572653A2000206D626172000000E8
S1134A7C0000007F15A71F1F155C15F1140B15FD05
S1134A8C14000000001A1D441D3816E11CB61CBE8F
S1134A9C1CD21C000000005D1E161E261E271E00C4
S1134AAC000000B71E161EB61ECC1E0D0A006E6149
S10D4ABC6E00696E66006F766600F6
S9030000FC
