S0150000526F76436F6E74726F6C6C65722E73726563B4
S11300004CC100007BC1000079C1000077C1000031
S113001075C1000073C1000071C100006FC1000010
S11300206DC100006BC1000069C1000067C1000020
S113003065C1000063C1000061C100005FC1000030
S11300405DC100005BC1000059C1000057C1000040
S113005055C1000053C1000051C100004FC1000050
S11300604DC100000C94950D0C94D10D47C10000B6
S113007045C1000043C1000041C100003FC1000070
S11300803DC100003BC1000039C1000037C1000080
S11300900C941D0E0C94590E31C100000C94C81020
S11300A02DC100002BC1000029C1000027C10000A0
S11300B025C1000023C1000021C100001FC10000B0
S11300C01DC100001BC1000019C100000C94A50E45
S11300D00C94E10E13C100000C942D0F0C94690FC5
S11300E00DC10000CE11D111D111D111D111D111F5
S11300F0D111D111E910D111D111D111D111D111D5
S1130100D111D111E910D111D111D111D111D111C4
S1130110D111D111F110D111D111D111D111D111AC
S1130120D111D1111611D111D111D111D111D11176
S1130130D111D111F110D111D111D111D111D1118C
S1130140D111D1111B11D111D111D111D111D11151
S1130150D111D1112011D111D111D111D111D1113C
S1130160D111D1113111D111D111D111D111D1111B
S1130170D111D1115A11D111D111D111D111D111E2
S1130180D111D1112511D111D111D111D111D11107
S1130190D111D1113F11D111D111D111D111D111DD
S11301A0D111D1115C11D111D111D111D111D111B0
S11301B0D111D1115C11D111D111D111D111D111A0
S11301C0D111D1115C11D111D111D111D111D11190
S11301D0D111D1115C11D111D111D111D111D11180
S11301E0D111D1116511D111D111D111D111D11167
S11301F0D111D1119511D111D111D111D111D11127
S1130200D111D1116511D111D111D111D111D11146
S1130210D111D1119511D111D111D111D111D11106
S1130220D111D1117D11D111D111D111D111D1110E
S1130230D111D1119911D111D111D111D111D111E2
S1130240D111D1119911D111D111D111D111D111D2
S1130250D111D111AE11D111D111D111D111D111AD
S1130260D111D111C811D111D111D111D111D11183
S1130270D111D111C81145000082000040002000B6
S113028001080006040001004A05FA0D820E0A0F57
S1130290920F3813AD13DC14E41411241FBECFEFF6
S11302A0D1E2DEBFCDBF00E00CBF12E0A0E0B2E0BF
S11302B0EEEFFDE200E00BBF02C007900D92A63FF7
S11302C0B107D9F729E0A6EFB2E001C01D92A5312C
S11302D0B207E1F711E0CDE4D1E000E006C02197D8
S11302E00109802FFE010E94D016C434D10780E09A
S11302F00807A9F70E94100C0C94FD1681CE0895EE
S11303000F931F93CF93DF938C01EB0188E2FB01E2
S113031011928A95E9F74BE050E064E172E0CE0176
S11303200E94EE161B8681E090E0A0E0B0E08C878E
S11303309D87AE87BF87F80186819781A085B185A7
S1130340888B998BAA8BBB8B83E090E0A0E0B0E014
S11303508C8B9D8BAE8BBF8B1CA21DA21EA21FA2D9
S1130360188E198E1A8E1B8E1C8E1D8E1E8E1F8E3D
S11303708AE097EDA3E2BCE388A399A3AAA3BBA355
S1130380DF91CF911F910F9108950F931F93FC015B
S11303908FE192E0918380834683578360877187DE
S11303A02383158304831F910F9108950F931F9343
S11303B0CF93DF93EC01062F142F6B818C819D81E9
S11303C00E94B1128C819D81DC01ED91FC91019020
S11303D0F081E02D602F19958C819D81DC01ED91D8
S11303E0FC910190F081E02D612F19958C819D8104
S11303F00E94351381E0DF91CF911F910F910895F1
S1130400462FFC0162876DE3D1DFFFEF26E781E031
S1130410F15020408040E1F700C0000008951F9390
S1130420CF93DF93EC01162F6B818C819D810E9409
S1130430B1128C819D81DC01ED91FC910190F081E0
S1130440E02D612F19958C819D810E94351341E027
S11304506B818C819D810E9432138C819D81DC0192
S1130460ED91FC910284F385E02D1995DF91CF91F4
S11304701F9108951F93CF93DF93EC01162F8C8166
S11304809D810E94A11260E0CE01C9DF803A79F01B
S11304902FEF83ED90E3215080409040E1F700C0BE
S11304A0000060E0CE01BBDF803A09F04BC060E0A1
S11304B0CE01A6DF40E26FE3CE0178DF2FEF86E7BF
S11304C091E0215080409040E1F700C0000060E0DE
S11304D0CE01A5DF803A39F08FE39CE90197F1F76B
S11304E000C00000F4CF9FEF20E782E0915020404D
S11304F08040E1F700C0000040E06EE3CE0156DF2B
S11305008FE39CE90197F1F700C0000040E067E049
S1130510CE014CDF40E06FE3CE0148DF8FE39CE97E
S11305200197F1F700C00000612FCE0169DF9FEF52
S113053029EF80E0915020408040E1F700C00000A6
S113054081E001C080E0DF91CF911F91089564E3C1
S113055066CF0895CF92DF92EF92FF920F931F938D
S1130560CF93DF937C01C62F6A01122FDC0113960F
S11305706C91139714968D919C9115970E94B112CA
S1130580F70184819581DC01ED91FC910190F0816A
S1130590E02D6C2F1995F701848195810E94351304
S11305A0412FD70113966C91139714968D919C91BA
S11305B015970E9432131123B1F0E6011150012F57
S11305C010E00F5F1F4F0C0D1D1DF70184819581F5
S11305D0DC01ED91FC910284F385E02D199589935A
S11305E0C017D10791F781E0DF91CF911F910F914F
S11305F0FF90EF90DF90CF900895AF92BF92CF928B
S1130600DF92FF920F931F93CF93DF9300D000D01C
S1130610CDB7DEB78C01CB01F42E2CE0F80111929A
S11306202A95E9F7AE014F5F5F4F26E0FA01119278
S11306302A95E9F726E06F2D8DDF6A8170E0762F29
S113064066278981682B8C8190E0982F88272B81DD
S11306506C01C22A8E8190E0982F88272D815C013D
S1130660A22AF4E1FF1609F44AC0FF1540F088E01D
S1130670F81609F4ACC0EEE0FE1669F043C1F8E2E6
S1130680FF1609F4D8C08EE2F81609F408C1EAE1AD
S1130690FE1238C168C0072E000C880B990B0E940B
S11306A0BF1520E030E040E85DE30E944B16F801FE
S11306B06083718382839383B601DD0C880B990B6D
S11306C00E94BF1520E030E040E85DE30E944B1635
S11306D0F8016483758386839783B501BB0C880B0B
S11306E0990B0E94BF1520E030E040E85DE30E94D2
S11306F04B16F801608771878287938703C1072EA1
S1130700000C880B990B0E94BF1520E030E040E8F4
S11307105DE30E944B16F8016083718382839383A7
S1130720B601DD0C880B990B0E94BF1520E030E068
S113073040E85DE30E944B16F80164837583868369
S11307409783B501BB0C880B990B0E94BF1520E061
S113075030E040E85DE30E944B16F8016087718742
S113076082879387CFC0072E000C880B990B0E94B9
S1130770BF1520E030E040E85DE30E944B16F8012D
S11307806083718382839383B601DD0C880B990B9C
S11307900E94BF1520E030E040E85DE30E944B1664
S11307A0F8016483758386839783B501BB0C880B3A
S11307B0990B0E94BF1520E030E040E85DE30E9401
S11307C04B16F80160877187828793879BC0072E39
S11307D0000C880B990B0E94BF1520E030E048EC18
S11307E052E40E945515F8016083718382839383D8
S11307F0B601DD0C880B990B0E94BF1520E030E098
S113080048EC52E40E945515F8016483758386838D
S11308109783B501BB0C880B990B0E94BF1520E090
S113082030E048EC52E40E945515F8016087718766
S11308308287938767C0072E000C880B990B0E9450
S1130840BF1520E030E048EC52E40E945515F80151
S11308506083718382839383B601DD0C880B990BCB
S11308600E94BF1520E030E048EC52E40E94551588
S1130870F8016483758386839783B501BB0C880B69
S1130880990B0E94BF1520E030E048EC52E40E942E
S11308905515F801608771878287938733C0072EC7
S11308A0000C880B990B0E94BF1520E030E048EC47
S11308B052E40E945515F801608371838283938307
S11308C0B601DD0C880B990B0E94BF1520E030E0C7
S11308D048EC52E40E945515F801648375838683BD
S11308E09783B501BB0C880B990B0E94BF1520E0C0
S11308F030E048EC52E40E945515F8016087718796
S113090082879387C80126960FB6F894DEBF0FBE80
S1130910CDBFDF91CF911F910F91FF90DF90CF90CA
S1130920BF90AF9008950F931F93CF93DF93CDB7EC
S1130930DEB72C970FB6F894DEBF0FBECDBF8B0188
S113094020E2FB0111922A95E9F740E250E060E0D1
S113095070E0F8014083518362837383FC01468114
S1130960578160857185F801448355836683778355
S113097043E050E060E070E040875187628773870E
S11309804AE1BC01CE01019638DE89819A81AB81AE
S1130990BC81F801808B918BA28BB38B8D819E815E
S11309A0AF81B885848B958BA68BB78B89859A8507
S11309B0AB85BC85808F918FA28FB38F81E02C96FD
S11309C00FB6F894DEBF0FBECDBFDF91CF911F915C
S11309D00F910895613049F4FC018081E091F602A1
S11309E0F091F702808380E0D9C608954091F60221
S11309F03091F7022FEF260F662341F0A82FB92F6D
S1130A00E42FF32F8D9181932150E0F781E0C6C646
S1130A100895613051F4FC019081923030F481E00A
S1130A20911101C080E00C94761308956623C1F0FF
S1130A30DC01EC91F0E0EE0FFF1FE250F94FA081D2
S1130A40B181109769F0462FBC0141506F5F7F4F11
S1130A50ED91FC9111970190F081E02DCD01199554
S1130A6008959B01813051F028F0823059F0833091
S1130A7069F00895642FC901ADCF0895642FC901A9
S1130A80B5CF0895642FC901C4CF0895642FC90157
S1130A90CDCF089580910002909101020296909327
S1130AA0F7028093F6020895E091FC02F091FD02B2
S1130AB090818091FB028095892380830895E09141
S1130AC0FC02F091FD0290818091FB02892B8083CE
S1130AD00895CF93DF93D82FC62FE6DF8C2FCF71E5
S1130AE0CD2BCEBD00000DB407FEFDCF1EBC000013
S1130AF00DB407FEFDCFCEB5882334F41EBC000030
S1130B000DB407FEFDCFCEB5DADF8C2FDF91CF9188
S1130B1008951F93CF93DF93C82FD62F142FC4DFCC
S1130B20DF71CD2BCEBD00000DB407FEFDCF1EBD81
S1130B3000000DB407FEFDCFC2DFDF91CF911F91FE
S1130B4008950F931F93CF93DF93EC018B01ACDFD8
S1130B50209799F08AE38EBD00000DB407FEFDCF07
S1130B60F801B8016C0F7D1F1EBC0DB407FEFDCF4C
S1130B709EB591936E177F07B9F7A1DFDF91CF91EF
S1130B801F910F9108951F93CF93DF93182F107621
S1130B90C12FD0E08091FE0290E0C817D907A1F0E0
S1130BA043E06FE180EAB5DF1093FE02AE01559594
S1130BB04795559547955595479555954795559519
S1130BC047956FE180E8A5DFDF91CF911F910895EC
S1130BD0CF93C82FD8DF6C2F80E07BDFCF910895AF
S1130BE0CF93DF93C82FD62FCEDF4D2F6C2F80E409
S1130BF090DFDF91CF910895CF93DF93C82FD72F44
S1130C00EFDF6D2F81E08C0FEBDFDF91CF91089543
S1130C10FC0194B1976094B923989DB591609DBDF2
S1130C209CB590659CBD80819091FB02982B90832C
S1130C3046CF08950F93CF93DF93EB019093000376
S1130C408093FF020093FB023093FD022093FC0289
S1130C50CA01DEDF4FEF60E08FEF5BDF8FE39FE1E0
S1130C600197F1F700C000006DE180E032DF8823D6
S1130C70D9F360E070E088E0BFDF60E070E08CE012
S1130C80BBDF6FEF7BE08AE0B7DF60E07CE084E00D
S1130C90B3DF6FEF71E186E0AFDF61EB88E3A0DFE4
S1130CA06FE370E388E2A8DF69EF77EF80E3A4DF06
S1130CB061E080EC95DF42E362EC80E82ADF62E1E8
S1130CC07CE086EC99DF62E184EC8ADF6CED75E010
S1130CD08AEC92DF688184EE83DF698185EE80DFB0
S1130CE06A8182EE7DDF6B8183EE7ADF6C8180EE38
S1130CF077DF6D8181EE74DF60E184ED71DF60E0A8
S1130D0071E086ED79DF8AEE63DF80FDFCCF8FE151
S1130D103ADF40EC6BE180E8FCDE44E06FE180E820
S1130D20F8DE82E755DF863008F08F5FDF91CF91E0
S1130D300F91089561E184ED53DF61E082ED50DFAE
S1130D408AEE46DF80FDFCCF60E082ED49DF89ED6D
S1130D503FDF82FB882780F90895AF92BF92CF923C
S1130D60DF92EF92FF920F931F93CF93DF937C0157
S1130D706C0184EFD81A0F2EF1E0AF2EF3E0BF2EF2
S1130D80F02D87010F5F1C4F40E86FE180E8C1DE62
S1130D9040E86FE180EABDDE4AE06CE180EAB9DE5A
S1130DA060E07CE082E028DFB60186E025DF40E0F9
S1130DB060E08AE7AEDE78DEE114F104E1F08AE770
S1130DC08EBD00000DB407FEFDCFF50180818EBD00
S1130DD0F1E0EF16F10459F0E2E0F3E000000DB4A5
S1130DE007FEFDCF81918EBDE017F107B9F7000032
S1130DF00DB407FEFDCF63DE48E06FE180E889DED5
S1130E00C0E0D0E08CE1E4DE8A7031F42196C83E83
S1130E1083E0D807B9F70CC08CE1DADE81FD03C0AA
S1130E20C83ED34040F048E06FE180EA72DEACCFC8
S1130E308CE1CEDEF8CFDF91CF911F910F91FF901F
S1130E40EF90DF90CF90BF90AF9008950F931F93D2
S1130E50CF93DF9300D000D0CDB7DEB78091FA02F4
S1130E60882391F06091F8027091F902611571057F
S1130E7029F46FEF7BE08CE0BFDE04C061507109A0
S1130E808CE0BADE1092FA0289E3A2DE8823A9F18B
S1130E906091F8027091F90280E0AEDEBE016F5FEE
S1130EA07F4F86E090E04DDE89819A819093F9022C
S1130EB08093F8028D8187FF12C08091FF02909188
S1130EC0000301970B811C810450110980179107BD
S1130ED008F48C0161E073E0C80133DE02C000E075
S1130EE010E0F801EF5FFC4F108281E08093FA027A
S1130EF040E46EE180E80DDE02C000E010E0C801CD
S1130F0026960FB6F894DEBF0FBECDBFDF91CF910A
S1130F101F910F910895EF92FF920F93CF93DF9358
S1130F20EB017A01022FBC018BE195E0C9D3970153
S1130F30AE016BE175E080E092E07CDEDF91CF9161
S1130F400F91FF90EF900895EF92FF920F931F93EC
S1130F50CF93DF937B018A01E901009721F0BC0163
S1130F6087E195E0A0D3E114F10411F0C701BDD1EC
S1130F700115110521F0B80187E095E094D320977D
S1130F8021F0BE0183E195E08ED3BBD1109202051E
S1130F901092010581E0DF91CF911F910F91FF9095
S1130FA0EF900895CF92DF92EF92FF92CF93DF9369
S1130FB0C62FD0E0CF5FDC4F213081F46A0199E085
S1130FC0C90ED11CE12CF12C03C0C12CD12C76010B
S1130FD04230510528F1FE01DA0109C02230A9F797
S1130FE06A0192E0C91AD108E12CF12CF1CF2081D9
S1130FF030E0322F22279181292BC20ED31EE11C0F
S1131000F11C32961297A230B10588F79A0122504A
S113101031092E7F2E5F3F4FC20FD31F41705527DA
S1131020452B61F0488150E060E070E0762F652F39
S1131030542F4427C40ED51EE61EF71EA7016627AB
S11310407727411551056105710571F0EE24FF24E0
S1131050C40ED51EE61EF71EA70166277727411585
S113106051056105710591F7C094D094E82FF0E023
S1131070EF5FFC4FD082C182DF91CF91FF90EF9060
S1131080DF90CF900895CF93DF93FC01208122233A
S1131090D1F0FB0130813323C1F0232730911305B4
S11310A02323A9F4DC0111963196C4E1D5E004961A
S11310B04D91219139912427232359F4A817B90775
S11310C0B9F781E007C080E005C080E003C080E09C
S11310D001C080E0DF91CF910895E1E0F3E0108E4C
S11310E0118E80E4848B158A868B20E044E150E0E5
S11310F06EE088E157CF0895BC0181E093E0E0D22F
S11311006BE175E087E093E0DBC2089587E093E04C
S1131110F3DF6BE173E08FE193E0C5D267E175E043
S11311208BE193E0C0D2D9CF0895CF93DF93EB0145
S1131130E3DFBE018FE193E0B6D267E175E08BE1B6
S113114093E0B1D2DF91CF910895CF93DF93EB0178
S113115044E050E0BC018DE193E00E94E116892B4C
S113116031F467E173E0CE01ABD281E001C080E0ED
S1131170DF91CF9108950F931F93CF938C0185E254
S113118092E0BADFE1E0F3E088E08487C6E0C58757
S113119048E050E06FE772E08FE093E00E94D816D9
S11311A0E1E2F3E0DF011D92CA95E9F76BE175E036
S11311B087E193E085D2B80187E293E074D267E1D6
S11311C075E08DE193E06FD28AE290E0C6DDCF91C5
S11311D01F910F910895EF92FF920F931F93CF9356
S11311E0DF93182F092FEB01F42EE52E87E195E00C
S11311F04ADF882329F0BE018CE295E096DF04C023
S1131200BE0182E295E091DF8881807F803E91F08B
S113121088819981AA81BB818F3F9F4FAF4FBF4F78
S113122049F044E050E0BE018FE095E00E94E116F1
S1131230892B29F465E272E081E093E041D2C1E0B8
S1131240D3E088E08C871D8649E050E066E772E0D1
S11312508FE093E00E94D816188A81E18F8BECA26C
S1131260FDA20AA31BA31EA218A619A6DF91CF9163
S11312701F910F91FF90EF9008950F931F93CF93B9
S1131280DF93EC0101E013E04C96F801908B818B25
S113129024DFCE010896F80196A387A3AE01405F30
S11312A05F4F21E06AE188E27DDECE018A9655DD5A
S11312B0DF91CF911F910F9108950F931F93CF93B7
S11312C0DF93D62FC72FCA01A801B90184DF8D2F60
S11312D09C2F813022E0920710F080E092E0CDDF75
S11312E0DF91CF911F910F910895109202051092F2
S11312F0010521E020932105BC018BE095E0D3C1D9
S11313000895CF93DF93E7E1F5E0C3E1D5E0AFE0E3
S1131310B5E02BE135E0919189918095892B8D93EE
S1131320E217F307C1F7DF91CF910895CF93DF93CD
S1131330EC01009709F03FC080912105857089F088
S11313408091010590910205892B59F4F3DC8823DF
S113135041F08BE095E00FDF809121058860809358
S11313602105809101059091020501969093020553
S11313708093010567E075E087E195E084DE8823CA
S113138049F080912A05811105C080912B0588239D
S113139009F4DCC063E075E087E195E074DE88233E
S11313A009F4F8C0809128058111F4C080912905C1
S11313B08111F0C0D2C08932910508F4D5C0809162
S11313C00D03883009F0E6C080910E03863009F0E1
S11313D0DDC044E050E067E175E087E293E00E94FD
S11313E0E116892B09F0D2C0C3C087E093E084DE04
S11313F0E1E0F3E0148A82E0858B67E173E081E247
S113140093E05ED16BE175E087E193E059D16DE142
S113141073E087E293E047D167E175E08DE193E003
S113142042D18AE290E099DC8091210583FF0EC0CD
S113143080911603823051F462E275E08BE095E00E
S113144084DE882319F082E08093210580912A05A7
S1131450811110C080912B05882361F06CE275E046
S113146087E095E072DE882329F081E080932A05E5
S113147010922B058091280581118CC0809129053B
S1131480882309F487C06CE275E083E095E05DDEB3
S1131490882309F47FC081E08093280510922905F0
S11314A079C080910D03883009F074C080910E03D7
S11314B0811170C080910F03853409F06BC044E042
S11314C050E067E175E08FE193E00E94E116892B1B
S11314D009F454C044E050E06FE075E08FE193E01C
S11314E00E94E116892B09F449C044E050E065E20A
S11314F072E08FE193E00E94E116892B09F04AC063
S11315003DC0809123038830C9F4E0913205F09105
S11315103305309719F08BE193E01995F7DDE1E09D
S1131520F3E012A284A1883F18F095A19F5F95A3D0
S1131530885F80932503CE0110DC2CC04AD0882319
S113154049F180911803813129F51DC087E095E0A8
S113155012DE81E080932B051DCF83E095E00BDE46
S113156081E08093290516C08A9708F09ACF12C0AB
S113157080911603813009F057CF37CF809118033B
S11315808130E1F6BECFCE012BD004C0CA32D105E2
S113159008F08CCF80E090E0DF91CF9108959C011A
S11315A0909134059830A0F4E92FF0E0AF01440F96
S11315B0551F440F551FE40FF51FEB5CFA4F3183A1
S11315C020837383628381E084839F5F90933405D7
S11315D0089581E090913405911101C080E008954F
S11315E08F929F92BF92CF92DF92EF92FF920F93CE
S11315F01F93CF93DF9380913405882309F446C069
S1131600C5E3D5E0E12CF12C80E00F2EF1E0CF2EE4
S1131610F3E0DF2EF02DBB24B394AA81BB81F60145
S113162024A130E04B2F55272417350721F525A198
S113163030E0AD01552724173507E9F49C8199233F
S1131640D1F007A110E00850110986A190E0982F6D
S11316508827080F191F42A150E0542F442783A163
S1131660482B888099802BE233E06BE173E0CD0155
S1131670F40119958B2DFFEFEF1AFF0A259620919F
S1131680340530E0E216F30644F201C080E0DF9155
S1131690CF911F910F91FF90EF90DF90CF90BF906B
S11316A09F908F900895FB0120813181FC0131834B
S11316B02083FB0122813381FC013383228308953B
S11316C0DC0196E0FB0101900D929A95E1F70895F3
S11316D0FC012081DC0112968181922F980F3FEF4B
S11316E0360F662361F0FD01832F2191920F815003
S11316F0E0F7232F30E02F5F3F4FA20FB31F81E0AD
S11317002C91291380E008950F931F93CF93DF93B7
S1131710A801435051094F3F510509F088F4F901DC
S113172080818F3F69F4E9010350602FC901D0DF44
S1131730882331F0BE016E5F7F4F402F898191D99C
S1131740DF91CF911F910F9108950F93CF93DF9362
S1131750EC01CA01A901202FD0936005C0935F0555
S113176070935E0560935D05BC0186E092E0D3DB77
S1131770882379F020E030E040E050E06CE072E053
S113178080E192E0E1DBBE0184E89BE008DF81E0D8
S113179001C080E0DF91CF910F9108950F931F93C3
S11317A0CF93DF93E0910002F09101029FEF9083C9
S11317B0E0910002F091010281838150C091000206
S11317C0D0910102DE0112964FEF460F662381F09D
S11317D0FD0150E09A012D5F3F4F2C0F3D1F919169
S11317E0890FE217F307D9F74F5F5F4FA40FB51FB7
S11317F08C9300915D0510915E0540915F055091B9
S1131800600570E06D5F7F4F22E032E0809100025E
S11318109091010252DDDF91CF911F910F910895B4
S1131820789426E040E855E260E070E081E695E0D7
S113183014D16BE272E081E695E00E9445158AD7E7
S1131840811107C06CE372E081E695E00E944515C2
S1131850FFCF68E572E081E695E00E94451500E25D
S113186022E031E041E051E062E777E181E797E18E
S11318706CDF811107C06BE672E081E695E00E949F
S11318804515FFCF61E972E081E695E00E944515B8
S1131890DDDA4CDDFDCFFC0197852089892F90E0AE
S11318A0805C9F4F821B91098F7399270895FC01D7
S11318B097858089981731F08089E80FF11D838915
S11318C090E008958FEF9FEF0895FC01978580893C
S11318D0981761F08089DF01A80FB11D53968C9190
S11318E090899F5F9F73908B90E008958FEF9FEF97
S11318F00895FC0121893289231738F08FE390E0A1
S1131900821B9109830F911D0895832F90E0821B00
S1131910910901970895FC018289DF01A80FB11D87
S1131920AD5ABF4F8C91228930E02F5F3F4F2F7308
S11319303078332334F421503109206C3F6F2F5F0A
S11319403F4F228BA485B5858C93A681B7818C915A
S1131950837080648C9391898289981306C0008473
S1131960F185E02D80818F7D80830895CF93DF936F
S1131970EC018E858823D1F0E885F985808185FD89
S113198005C0AE81BF818C9186FD10C00FB607FCE7
S1131990F5CF808185FFF2CF03C0CE01BCDFECCF51
S11319A0AE81BF818C9185FFE9CFF7CFDF91CF91D5
S11319B008950F931F93CF93DF93EC0181E08E87FB
S11319C099898A89981325C0EE81FF81808185FDDC
S11319D031C01FC08A8918130BC00FB607FCFACF99
S11319E0EE81FF81808185FFF5CFCE0194DFF2CFB8
S11319F08989FE01E80FF11DED5AFF4F00839FB75F
S1131A00F894198BE885F9858081806280839FBF73
S1131A101DC0298930E02F5F3F4F2F733078332367
S1131A2034F421503109206C3F6F2F5F3F4F062F54
S1131A30122FD0CF9FB7F894EC85FD856083EE819B
S1131A40FF8180818370806480839FBF81E090E008
S1131A50DF91CF911F910F910895CF92DF92EF9272
S1131A60FF921F93CF93DF93EC016A017B01122F46
S1131A70EE81FF8182E080834115514E610571053D
S1131A80B1F060E079E08DE390E0A70196010E9457
S1131A90AE16DA01C9010197A109B109B695A79556
S1131AA0979587959C01211580E13807A8F0EE8170
S1131AB0FF81108260E874E88EE190E0A70196014E
S1131AC00E94AE16DA01C9010197A109B109B695C0
S1131AD0A795979587959C01EA81FB813083EC81DA
S1131AE0FD8120831E86EA85FB851083E885F985C0
S1131AF0808180618083E885F98580818860808326
S1131B00E885F985808180688083E885F98580810E
S1131B108F7D8083DF91CF911F91FF90EF90DF90B5
S1131B20CF90089580E090E008951F920F920FB631
S1131B300F9211240BB60F922F938F939F93AF9311
S1131B40BF93EF93FF93E0916705F091680580815F
S1131B5082FD14C0E1E6F5E0A485B5852C91878566
S1131B608F5F8F709089891771F0DF01E785F0E04E
S1131B70EF59FA4F238B1F968C9305C0E0916D05A6
S1131B80F0916E058081FF91EF91BF91AF919F918C
S1131B908F912F910F900BBE0F900FBE0F901F903F
S1131BA018951F920F920FB60F9211240BB60F9235
S1131BB02F933F934F935F936F937F938F939F9351
S1131BC0AF93BF93EF93FF9381E695E0A4DEFF917B
S1131BD0EF91BF91AF919F918F917F916F915F91A1
S1131BE04F913F912F910F900BBE0F900FBE0F900E
S1131BF01F901895E1E6F5E08EEA92E091838083E8
S1131C0085EC90E09383828384EC90E095838483D5
S1131C1080EC90E09783868381EC90E091878087C5
S1131C2082EC90E09387828786EC90E095878487A6
S1131C301786108A118A128A08951F920F920FB67E
S1131C400F9211240BB60F922F938F939F93AF9300
S1131C50BF93EF93FF93E0919A05F0919B058081E8
S1131C6082FD14C0E4E9F5E0A485B5852C9187854F
S1131C708F5F8F709089891771F0DF01E785F0E03D
S1131C80EC56FA4F238B1F968C9305C0E091A00568
S1131C90F091A1058081FF91EF91BF91AF919F9148
S1131CA08F912F910F900BBE0F900FBE0F901F902E
S1131CB018951F920F920FB60F9211240BB60F9224
S1131CC02F933F934F935F936F937F938F939F9340
S1131CD0AF93BF93EF93FF9384E995E01CDEFF91EC
S1131CE0EF91BF91AF919F918F917F916F915F9190
S1131CF04F913F912F910F900BBE0F900FBE0F90FD
S1131D001F901895E4E9F5E08EEA92E091838083D0
S1131D108DEC90E0938382838CEC90E095838483B4
S1131D2088EC90E09783868389EC90E091878087A4
S1131D308AEC90E0938782878EEC90E09587848785
S1131D401786108A118A128A08951F920F920FB66D
S1131D500F9211240BB60F922F938F939F93AF93EF
S1131D60BF93EF93FF93E091CD05F091CE05808171
S1131D7082FD14C0E7ECF5E0A485B5852C91878538
S1131D808F5F8F709089891771F0DF01E785F0E02C
S1131D90E953FA4F238B1F968C9305C0E091D3052A
S1131DA0F091D4058081FF91EF91BF91AF919F9104
S1131DB08F912F910F900BBE0F900FBE0F901F901D
S1131DC018951F920F920FB60F9211240BB60F9213
S1131DD02F933F934F935F936F937F938F939F932F
S1131DE0AF93BF93EF93FF9387EC95E094DDFF915E
S1131DF0EF91BF91AF919F918F917F916F915F917F
S1131E004F913F912F910F900BBE0F900FBE0F90EB
S1131E101F901895E7ECF5E08EEA92E091838083B9
S1131E2085ED90E09383828384ED90E095838483B1
S1131E3080ED90E09783868381ED90E091878087A1
S1131E4082ED90E09387828786ED90E09587848782
S1131E501786108A118A128A08951F920F920FB65C
S1131E600F9211240BB60F922F938F939F93AF93DE
S1131E70BF93EF93FF93E0910006F09101068081F8
S1131E8082FD14C0EAEFF5E0A485B5852C91878521
S1131E908F5F8F709089891771F0DF01E785F0E01B
S1131EA0E650FA4F238B1F968C9305C0E0910606EB
S1131EB0F09107068081FF91EF91BF91AF919F91BF
S1131EC08F912F910F900BBE0F900FBE0F901F900C
S1131ED018951F920F920FB60F9211240BB60F9202
S1131EE02F933F934F935F936F937F938F939F931E
S1131EF0AF93BF93EF93FF938AEF95E00CDDFF91CF
S1131F00EF91BF91AF919F918F917F916F915F916D
S1131F104F913F912F910F900BBE0F900FBE0F90DA
S1131F201F901895EAEFF5E08EEA92E091838083A2
S1131F3085E391E09383828384E391E095838483B2
S1131F4080E391E09783868381E391E091878087A2
S1131F5082E391E09387828786E391E09587848783
S1131F601786108A118A128A089510929A0681E0BF
S1131F7080939806109297068BB183608BB9E9EB36
S1131F80F0E080818E7F808380818D7F808388E4F0
S1131F908093B80085E48093BC000895413208F032
S1131FA04CC090919A069111FCCF31E030939A067F
S1131FB0209398062FEF20932D0610927206240F7B
S1131FC0209371063093990620919906880F822BED
S1131FD08093990680919706813081F41092970638
S1131FE0ABEBB0E0ECEBF0E0809199068C93808150
S1131FF083FDFACF85EC8093BC0003C085EE80930B
S1132000BC0080919A068130E1F3809172068417B6
S113201010F440917206442389F0E3E7F6E0A62F1A
S1132020B72F2FEF240F30E02C58394F81918D9327
S1132030E217F307D9F7942F01C090E0892F089590
S11320400F93413208F057C030919A063111FCCFFA
S113205092E090939A06009398069FEF90932D0632
S11320601092720640937106442371F0FB01A3E7BA
S1132070B6E0415050E04F5F5F4F640F751F919180
S11320809D93E617F707D9F7109299069091990650
S1132090880F892B8093990680919706813081F46B
S11320A010929706ABEBB0E0ECEBF0E08091990670
S11320B08C93808183FDFACF85EC8093BC0003C0B0
S11320C085EE8093BC00222341F080919A068230F1
S11320D021F480919A068230E1F380912D068F3F9E
S11320E079F080912D06803241F080912D06803365
S11320F031F034E005C031E003C032E001C033E028
S1132100832F0F91089540914F06262F30E0240F1E
S1132110311D21323105ECF420919A062430D9F492
S1132120662381F0A82FB92F80E090E030914F060C
S11321302D91FC01EF5AF94FE30FF11D2083019615
S11321408617A0F380914F06680F60934F0680E0D6
S1132150089581E0089582E0089590939406809311
S1132160930608959093960680939506089585EDB9
S11321708093BC00ECEBF0E0808184FDFDCF1092F5
S11321809A06089585EC8093BC0010929A060895EF
S11321901F920F920FB60F9211240BB60F922F932A
S11321A03F934F935F936F937F938F939F93AF93DB
S11321B0BF93EF93FF938091B900887F90E0893CAF
S11321C0910508F0EEC0FC018827EE58FF4F8F4FB1
S11321D0E7C5809199068093BB0085EC8093BC0091
S11321E0E0C09091720680917106981780F4E09196
S11321F0720681E08E0F80937206F0E0ED58F94F7D
S113220080818093BB0085EC8093BC00CAC0809120
S11322109806882311F0ABDFC4C081E08093970651
S113222084EA8093BC0010929A06BBC080E280933B
S11322302D069DDFB6C080E380932D0698DFB1C0E4
S113224088E380932D069EDFACC0E091720681E0A6
S11322508E0F809372068091BB00F0E0ED58F94F29
S113226080839091720680917106981720F485EC12
S11322708093BC0096C085E88093BC0092C0E09136
S1132280720681E08E0F809372068091BB00F0E0AD
S1132290ED58F94F808380919806882311F067DF09
S11322A080C081E08093970684EA8093BC001092FA
S11322B09A0677C05CDF75C083E080939A0610921B
S11322C02E0685EC8093BC006CC080912E06803273
S11322D080F4E0912E0681E08E0F80932E0680918B
S11322E0BB00F0E0E15DF94F808385EC8093BC0096
S11322F058C085E88093BC0054C044DF80912E060A
S1132300803230F4E0912E06F0E0E15DF94F108266
S113231060912E0670E0E0919306F09194068FE2AE
S113232096E0199510922E063CC085E88093BC0077
S113233038C084E080939A061092500610924F069B
S1132340E0919506F0919606199580914F068111BA
S113235005C081E080934F0610925106E09150062B
S113236081E08E0F80935006F0E0EF5AF94F8081A0
S11323708093BB009091500680914F06981720F4EB
S113238085EC8093BC000DC085E88093BC0009C037
S113239085EC8093BC0010929A0603C010922D061F
S11323A0E6DEFF91EF91BF91AF919F918F917F9165
S11323B06F915F914F913F912F910F900BBE0F90B2
S11323C00FBE0F901F9018958091C50690E0209144
S11323D0C606821B910908959091C6068091C50690
S11323E0981750F4E92FF0E0E953F94F208130E0D9
S11323F09F5F9093C60602C02FEF3FEFC901089577
S1132400E091C6068091C506E81730F4F0E0E95380
S1132410F94F808190E008958FEF9FEF089508951C
S1132420CF93DF93EC01E0919D06F0919E063097E7
S113243001F19091C6068091C5069817D0F0161642
S113244017068CF420E030E090E0DE01A90FB11D06
S11324504C91D901A953B94F4C939F5F292F30E078
S11324602617370794F3CB011092C6066093C5066E
S11324701995DF91CF910895E0919F06F091A00600
S1132480309729F01092A3061092A2061995089588
S1132490CF93DF931F92CDB7DEB769838091A106F6
S11324A0882399F08091A2068032B0F48091A3062B
S11324B0E82FF0E0EC55F94F60838F5F8093A3061B
S11324C08093A20681E090E009C061E0CE0101960C
S11324D01ADE81E090E002C080E090E00F90DF918E
S11324E0CF910895CF92DF92EF92FF920F931F93B3
S11324F0CF93DF938C01CB016A012091A1062223A3
S1132500A1F04115510599F0EB017B01E40EF51E94
S11325106991D801ED91FC910190F081E02DC80101
S11325201995CE15DF05A1F702C0642FECDDC601B5
S1132530DF91CF911F910F91FF90EF90DF90CF909B
S113254008951092C6061092C5061092A306109222
S1132550A2060BDD8CE392E105DE80E192E1FDCD84
S1132560089581E08093A1066093C4061092A306A7
S11325701092A20608950F93062F21E04091A2061F
S113258064EA76E08091C4065BDD1092A3061092A3
S1132590A2061092A1060F9108954F925F926F9236
S11325A07F92AF92BF92CF92EF92FF920F931F93BD
S11325B0CF93DF935C01F62ED42F28013901EE204E
S11325C039F1CFDF8E2D843008F083E0CFEFC80FD0
S11325D08823D9F08C2F880F880F880FA3019201CC
S11325E004C056954795379527958A95D2F7CA0121
S11325F0B901D501ED91FC910190F081E02DC50167
S113260019958C2FC1508111E5CF60E0C501B3DF6E
S11326104D2FD13208F040E22C2D67EC76E08F2D5F
S1132620BDDC1092C6068093C506DF91CF911F9141
S11326300F91FF90EF90CF90BF90AF907F906F90ED
S11326405F904F900895CF92EF920F931F93C22EF5
S1132650E12C00E010E09801A0DF1F910F91EF90B2
S1132660CF90089521E0EFCF089561E084CF0895DD
S113267080EC92E090939C0680939B06089581E001
S1132680089581E0411180E00895FC01A581B6819F
S11326909C918481982321E009F420E0878182279A
S11326A0FB01808381E00895CF93DF93EC01E881FF
S11326B0F9810480F581E02D19958823A1F0E0913A
S11326C00002F09101028A818283BF016D5F7F4F16
S11326D0E881F9810680F781E02DCE01199561E04A
S11326E0680F83E05BD8DF91CF910895882311F0C0
S11326F02F9A08952F9808950F931F93CF93DF93E4
S1132700DC011296CC911297D0E0FE01EE0FFF1F70
S1132710E250F94F20813181232B79F48C01ED9122
S1132720FC910280F381E02D1995882331F0CC0FC0
S1132730DD1FC250D94F19830883DF91CF911F91B8
S11327400F91089586EF96E0D7DF87EE96E0D4DF09
S113275081E00895279AF6CF0895E6EFF6E0128215
S113276081E0838322ED32E03183208384832FE26E
S113277030E03683258387838098889A61E087EEEA
S113278096E003C1089581E0411180E008956CE072
S113279004960C943A020895CF92DF92EF92FF923E
S11327A00F931F93CF93DF93CDB7DEB7E0970FB6A8
S11327B0F894DEBF0FBECDBF8B012FE7DB012C9356
S11327C004966C010E94A702F80181834AE1B601D4
S11327D0CE010D960E94FD02FE013D960F2EFEEFE6
S11327E0EF2EF8E0FF2EF02DCE014996D70141914E
S11327F05191619171914D935D936D937D93E81720
S1132800F907A9F7EEEFF8E0208151814281338185
S1132810822F952FA42FB32F8DA39EA3AFA3B8A768
S1132820D80112962C9312978EA113968C9313971A
S11328308FA114968C93149788A515968C93248154
S1132840558146813781822F952FA42FB32F89A7D5
S11328509AA7ABA7BCA7D80116962C9316978AA55E
S113286017968C9317978BA518968C9318978CA50D
S113287019968C932085518542853385822F952F17
S1132880A42FB32F8DA79EA7AFA7B8ABF8012287BB
S11328908EA583878FA5848788A9858748E0B6019C
S11328A0CE0101960E94FD02AE014F5F5F4F9E0173
S11328B0235F3F4FFA0181919191A191B191AF01B1
S11328C0F70181939193A193B1937F014217530729
S11328D089F7EEEFF8E02081518142813381822F24
S11328E0952FA42FB32F898F9A8FAB8FBC8FD801CC
S11328F01E962C931E978A8D1F968C931F978B8DF3
S113290050968C9350978C8D51968C93248155813D
S113291046813781822F952FA42FB32F8D8F9E8FC1
S1132920AF8FB8A3D80152962C9352978E8D53969D
S11329308C9353978F8D54968C93549788A1559666
S11329408C932085518542853385822F952FA42F22
S1132950B32F89A39AA3ABA3BCA3F801268B8AA1A6
S1132960878B8BA1808F8CA1818F8AE1E0960FB633
S1132970F894DEBF0FBECDBFDF91CF911F910F91B1
S1132980FF90EF90DF90CF9008950F931F93FC0179
S1132990628321E023832EED32E0318320830BE92F
S11329A016E028E247E350E060E070E004960E94FD
S11329B0C5011F910F9108958CE0EEEFF8E0DF015F
S11329C01D928A95E9F708950F931F930BE916E07A
S11329D028E247E350E060E070E08AE099E00E947A
S11329E0C5011F910F910895CF92DF92EF92FF924C
S11329F00F931F93CF93DF9341155105C1F06A01E3
S1132A008C01E62EF72EC0E0D0E0D7016D917D0158
S1132A10D801ED91FC910190F081E02DC801199548
S1132A20892B39F02196CC16DD0679F702C0C0E077
S1132A30D0E0CE01DF91CF911F910F91FF90EF90E5
S1132A40DF90CF9008956115710581F0FB0101902D
S1132A500020E9F73197AF01461B570BDC01ED91DC
S1132A60FC910280F381E02D1995089580E090E0B7
S1132A700895DC01ED91FC910280F381E02D42E0A8
S1132A8050E066EE72E0199508950F931F93CF936B
S1132A90DF93EC01D8DF8C01CE01EBDF800F911FB7
S1132AA0DF91CF911F910F9108950CD0BAC0B2D08D
S1132AB040F0A9D030F021F45F3F19F09BC05111D0
S1132AC0E4C09EC0BFD098F39923C9F35523B1F352
S1132AD0951B550BBB27AA2762177307840738F089
S1132AE09F5F5F4F220F331F441FAA1FA9F333D0E8
S1132AF00E2E3AF0E0E830D091505040E695001C9C
S1132B00CAF729D0FE2F27D0660F771F881FBB1F57
S1132B10261737074807AB07B0E809F0BB0B802D31
S1132B20BF01FF2793585F4F2AF09E3F510568F07D
S1132B3061C0ABC05F3FECF3983EDCF386957795BC
S1132B406795B795F7959F5FC9F7880F911D96957F
S1132B50879597F90895E1E0660F771F881FBB1FDB
S1132B60621773078407BA0720F0621B730B840B88
S1132B70BA0BEE1F88F7E0950895E89409C097FB17
S1132B803EF490958095709561957F4F8F4F9F4F40
S1132B909923A9F0F92F96E9BB279395F695879584
S1132BA077956795B795F111F8CFFAF4BB0F11F447
S1132BB060FF1BC06F5F7F4F8F4F9F4F16C08823EE
S1132BC011F096E911C0772321F09EE8872F762F24
S1132BD005C0662371F096E8862F70E060E02AF065
S1132BE09A95660F771F881FDAF7880F9695879551
S1132BF097F9089597F99F6780E870E060E0089579
S1132C009FEF80EC089500240A9416161706180600
S1132C100906089500240A941216130614060506DC
S1132C200895092E0394000C11F4882352F0BB0F6D
S1132C3040F4BF2B11F460FF04C06F5F7F4F8F4FD0
S1132C409F4F089557FD9058440F551F59F05F3F0B
S1132C5071F04795880F97FB991F61F09F3F79F0BA
S1132C6087950895121613061406551FF2CF46953C
S1132C70F1DF08C0161617061806991FF1CF8695BE
S1132C807105610508940895E894BB2766277727A2
S1132C90CB0197F908950BD0C4CFB5DF28F0BADF84
S1132CA018F0952309F0A6CFABCF1124EECFCADFDD
S1132CB0A0F3959FD1F3950F50E0551F629FF0014B
S1132CC0729FBB27F00DB11D639FAA27F00DB11DA4
S1132CD0AA1F649F6627B00DA11D661F829F22272D
S1132CE0B00DA11D621F739FB00DA11D621F839FB4
S1132CF0A00D611D221F749F3327A00D611D231F8A
S1132D00849F600D211D822F762F6A2F11249F57D7
S1132D1050408AF0E1F088234AF0EE0FFF1FBB1FFA
S1132D20661F771F881F91505040A9F79E3F510599
S1132D3070F060CFAACF5F3FECF3983EDCF386954A
S1132D4077956795B795F795E7959F5FC1F7FE2B44
S1132D50880F911D9695879597F90895A1E21A2EEB
S1132D60AA1BBB1BFD010DC0AA1FBB1FEE1FFF1F2B
S1132D70A217B307E407F50720F0A21BB30BE40B7B
S1132D80F50B661F771F881F991F1A9469F76095C2
S1132D907095809590959B01AC01BD01CF0108957C
S1132DA0EE0FFF1F881F8BBF0790F691E02D19943B
S1132DB0FB01DC0102C005900D9241505040D8F750
S1132DC00895FB01DC0104C08D910190801921F468
S1132DD041505040C8F7881B990B0895FB01DC0152
S1132DE04150504048F001900D920020C9F701C0B5
S1112DF01D9241505040E0F70895F894FFCF33
S1132DFE2B03FFFFFFFF7069692D3031C0A8B201AC
S1132E0EA9FEF09D424E4F30353500000000007F84
S1132E1E0193048001FFFFFFFFFFFF0A496E6974EF
S1132E2E69616C697A696E672E2E2E004661696C33
S1132E3E656420746F20696E697469616C697A6562
S1132E4E20726F626F742E00526F626F7420696EFF
S1132E5E697469616C697A65642E004661696C6592
S1132E6E6420746F206163636573732045746865B1
S1132E7E726E657420636F6E74726F6C6C65722EF5
S1132E8E00436F6E6E656374656420746F20636FA8
S1132E9E6E74726F6C6C65722E0000000000D90C9B
S1132EAEF414790CB60C4B0C650C570C0000000096
S1132EBE48127212920D0F12E411EC11001200005E
S1132ECE000054133F134113451300000000541324
S1132EDEC713C313CC130D0A006E616E00696E66C0
S1092EEE006F766600008F
S9030000FC
